:020000021000EC
:1080000000400020B5050200F1050200F305020062
:108010000000000000000000000000000000000060
:10802000000000000000000000000000F505020054
:108030000000000000000000F7050200F905020042
:10804000FB05020075AA010061020200FB050200A7
:10805000FB05020000000000B5030200FB05020062
:10806000FB050200C9FD010025030200FB0502001B
:10807000FB050200FB050200FB050200FB050200F8
:10808000FB050200FB050200FB050200FB050200E8
:10809000FB05020019F80100A5F90100FB0502002B
:1080A000FB050200FB0502000000000000000000CC
:1080B00000000000000000000000000000000000C0
:1080C00010B5064C2378002B07D1054B002B02D0AE
:1080D000044800E000BF0123237010BDB020002041
:1080E0000000000070720200044B10B5002B03D09A
:1080F0000349044800E000BF10BDC0460000000076
:10810000B420002070720200164B002B00D1144BDB
:108110009D46402292029A1A924600218B460F46B3
:108120001348144A121A0DF093FF0F4B002B00D086
:1081300098470E4B002B00D09847002000210400E8
:108140000D000D48002802D00C4800E000BF0AF0E6
:108150008DF9200029000DF001FD0AF071F9C046EB
:1081600000000800004000200000000000000000A7
:10817000A820002098280020000000000000000037
:1081800010B50400034B036040300AF07FFE20006E
:1081900010BDC0460062020007B5094800F00CF9A6
:1081A000084901A800F054FF782201A9064802F00E
:1081B000BBF801A80AF06AFE00F090FD00200EBD99
:1081C000CC200020786C0200BC21002010B5054CAA
:1081D000200000F039F8044A044920000DF0DEFECA
:1081E00010BDC046CC20002000200020F1810100FD
:1081F000CA23144A9B0010B5C2501C330400C01897
:108200000AF044FED0239B00E0180AF03FFE200055
:108210009130FF3001F01EFB20006930FF3001F08B
:1082200019FB2000F03001F09BFE2000D03002F05E
:108230000FFA2000643007F0CDFC201DFFF7A0FFEF
:10824000200010BD8C6602001423F0B5040093B02A
:10825000009319221821043002F05CFC2200250052
:1082600026006432B435132110001092B83607F09E
:10827000BDFC28000CF01BF800221E2130000BF082
:10828000BBFC2000D03002F003FA2200F032119241
:108290000621464A119801F087FE2000002701239D
:1082A00069301A0000971121FF3001F0DFFA200039
:1082B00091300097012302221A21FF3001F0D6FAF3
:1082C0002000B9301A2301210222FF3002F09EFA69
:1082D000300001F0D7F8E4225200A050300001F045
:1082E00021FBE6235B00E0500100E4222000520065
:1082F000D130119BA2580095FF3001F065FD2000A0
:10830000E13029001C22FF3002F09CFD19232000DF
:108310000F93013B0E93013B0D93013B0C93013BEB
:108320000B93013B0A93013B0993013B0893013BEB
:108330000793013B0693013B0593013B0493013BEB
:108340000393013B0293013B0193F930013B082267
:1083500000930721013BFF300BF06FFCCA239B0009
:10836000E018290003F084FDD3239B00E0181D21B1
:1083700002F01CFBDD239B00E750109827700321BF
:108380000DF01CFB23002200200009499C33A03281
:108390001C6011605760074A80305A610221012237
:1083A00008F0BAF8200013B0F0BDC0460862020021
:1083B000952A02007F2A02000123F0B506788FB0CB
:1083C00004001E4000D082E00300D0331800039365
:1083D00000F0EEFA00F0E6F928200DF0EAFD0500C5
:1083E00010300AF0E4FD6C4B18202B600DF0E1FD1D
:1083F00007006A4B0460082231000C300C930D9684
:108400000DF026FE0CA9381D08220DF005FE644B68
:10841000AF607B611223EE60AB802E626E6229003A
:10842000039802F0A9F8002805D028000AF0E4FC1F
:1084300028000DF0BAFD012322785A491343237016
:108440002300B433180005930BF037FF564904900E
:1084500005980BF032FF00250690642000F0C6FB63
:108460002F002E0023006933FF33180007930AF012
:10847000B7FF00282DD1049B002B33D1069B002B86
:1084800030D1DD2549494A48AD0000F08FFC6359E1
:10849000002B1CD100F09AF801000AA800F0D8FDCA
:1084A0000BA80AF06AFBCA239B00E018069B0BAAE4
:1084B0000AA90093039B03F031FD0BA80AF0E6FC28
:1084C0000AA80AF0E3FCCC239B00E35863510FB0E9
:1084D000F0BD20009130FF300AF082FF0028CAD0A2
:1084E000182EC8DC2000653039B22AB2FF23FF30D5
:1084F000013700F02BFEFFB2322000F077FB01368F
:10850000052F02D100270135EDB2049B192E06D0AC
:10851000002BA7D02349059802F028FC01E0002B8E
:10852000F8D104980DF041FD06980DF03EFD1F496D
:108530001F4800F03BFCCA239B00E3180893DD238F
:108540009B00E3580993002B1ED100F03FF8010077
:108550000AA800F07DFD0BA80AF00FFB01230BAA6F
:108560000AA900930898039B03F0D8FC0BA80AF013
:108570008DFC0AA80AF08AFCCC239B00E3580993DF
:10858000DD23099A9B00E2502100079AF0310898F8
:1085900003F0BEFE66E7C046FD030000072B0200A5
:1085A000C72A0200B66C0200C16C02000020002045
:1085B000001C0020BFF34F8F024B034ADA60BFF369
:1085C0004F8FFEE700ED00E00400FA05F0B58DB036
:1085D00005AF1922154938000DF01EFD0022144B7D
:1085E00005245A7180225205566E012225000194FD
:1085F000029203930199300008F080F90800029973
:1086000008F0F6F8019B03996B430193029B361A1D
:108610006B430293631E2C1B6C433C19225C1C1E93
:10862000CA54E7D108000DB0F0BDC046D16C0200BD
:10863000C6270020F0B597B018220021060010A828
:108640000DF006FD132110A80DF0F7FA032110A874
:108650000DF0C2FB4C4B1B68002B00D10133DBB289
:1086600002934A4A012300210BA807F08FFE484BD2
:108670009E4200D9002672B6464B64211D68464BC7
:1086800030000793052408F03DF960435030281866
:1086900008900A21300008F035F90A2108F018FA8C
:1086A000614350316918099130000A2108F010FA2D
:1086B000802361430024503169189B010A91019382
:1086C000029B002B5DD0002500272E1F07AB9B19B6
:1086D0000593032C03D1802300249B01019307AB56
:1086E0005B592E4A03936300D318049300231900A7
:1086F00006205843049A16187678B4466246039EBC
:10870000B25C10269446049A105C624606411642FA
:1087100002D00120984001430133092BE8D1C9431D
:108720001F4B059A090119401268039B934225D1FA
:10873000312F23DC00210BA80DF00FFCFA23159A32
:108740001199DB00106801421BD0013B002BF9D1CD
:10875000019B01345B000193FA230137E4B25B0013
:108760009F42B6D10435102DAED1074B1B68002BAC
:10877000A6D0029F013FFBB20293A1E7019B1943E0
:10878000D9E7FFF717FFC04648240020F0FF00009C
:10879000E703000004200020206D0200EA6C0200C4
:1087A000F01F0000F8B50023124C23600AF006FA0F
:1087B000002808D0042120000AF0FCF9002801D08C
:1087C0000D4B2360F8BD0122A12704250B4B0C495A
:1087D0001A602268FF0048604E68002EFCD0DE5907
:1087E0001202013D3243002DF5D1226001225A6070
:1087F000E8E7C04644240020ED5EBC0B00D00040FA
:10880000FCD00040F0B585B01F000AAB1B88060005
:10881000029115000393002F1BD028200DF0C9FBF7
:108820006B4604001989039BAAB200933B000AF02F
:10883000CCFA336821005B6830009847002806D0E6
:1088400020000AF0D9FA20000DF0AFFB024805B075
:10885000F0BD0248FBE7C04616FCFFFF17FCFFFF18
:108860000B4B70B51C68002C10D0656D00F0ACFB94
:10887000A36C002901D1834206D820000AF0D1F967
:10888000044920000AF0BBF92C00ECE770BDC0469B
:108890005024002070240020F0B593B007932A4B99
:1088A00004AC1E68049005910692002E4AD0274B16
:1088B000258867881C6800230293002C2ED0636DE6
:1088C00023480393A36C9AB2A36C1B0C99B2854204
:1088D00014D12048824211D1002B01D0B9420BD1D2
:1088E000029B002B08D120000AF09BF91A492000B6
:1088F0000AF085F901230293039CDEE7002A01D0E8
:108900009542F9D1002B01D0B942F5D120000AF0EF
:1089100088F9114920000AF072F9EDE70F4BEB18C6
:10892000012B0FD910233A00009329000C4B08A803
:108930000AF04BFA336808A99B683000984708A8EA
:108940000AF05AFA13B0F0BD4C2400207C24002019
:10895000FE030000FF0300007024002002FCFFFF64
:108960009988010010B572B60B4B1C68002C08D01A
:1089700020000AF056F90023E364084B2000E3636B
:1089800010BD62B65C200DF014FB5C2200210400D7
:108990000DF05EFBEFE7C04674240020004000208D
:1089A000024B1878012318407047C046CC2700209E
:1089B000F7B50600FFF7F4FF051E33D11A4C266009
:1089C000FFF7D0FF194B1A4918600AF018F9FFF7A2
:1089D000C9FF184B1860184B4363184B836320681A
:1089E00000280ED0C027164E2A00330015490097E4
:1089F000FFF708FF009733002A0013492068FFF7AC
:108A000001FF0C200DF0D5FA0023838083710F4BFA
:108A100003600F4B836000F0EFFA01230D4A1178D9
:108A20000B431370F7BDC0464C2400208024002067
:108A30007024002078240020FC3F0020E92C020054
:108A400099880100FF030000FE0300002862020075
:108A500061880100CC270020F7B506000D00170043
:108A60000193002802D100242000FEBD0029FAD085
:108A7000FFF778FF041EF6D0074B019A43630660A8
:108A800045608760054B002A00D0054BA36305496C
:108A900020000AF0B4F8E7E7FC3F0020B32C020006
:108AA000D12C020070240020024B18684342584128
:108AB0007047C04670240020002310B504499C0074
:108AC0006258002A01D00133F9E76050100010BD50
:108AD00058240020002310B5044A99008C58844281
:108AE00001D00133F9E70020885010BD5824002040
:108AF00010B50024084BA200D058002802D003680B
:108B00005B6898470134062CF4D1044B1B68002B9A
:108B100000D120BF10BDC046582400207024002082
:108B2000F8B5FFF73DFF00281CD02A4D2C68E36CF8
:108B3000DA0718D502273B43E364274B1E6804235A
:108B4000F26C30001343F364636BF3630AF08FF845
:108B50003000716C03F0D1FF2868C36C3B4201D038
:108B600004F005F8F8BD1D4F1D4E3A683168002A23
:108B70001ED129602A68914208D11B0706D52C60B6
:108B8000FFF7B6FF3B68002BFAD02B6029688C42B8
:108B9000E8D03368994214D1124B4B63124B8B636C
:108BA00020000AF064F82968626C4B6C20000DE02C
:108BB000206DB84203D1606D002800D002002A6009
:108BC000D8E79C42ECD1002210004B6C03F054FF1C
:108BD000C8E7C046802400205424002070240020D0
:108BE00078240020FC3F0020E92C020070B505002D
:108BF000FFF7D6FE002803D128000DF0E1F870BD84
:108C00000C4B1C68E36CDB0706D5FFF7ABFE0A4B89
:108C10001860002800D0040000F0D6F92D18A564D3
:108C2000200009F0FEFF0549200009F0E8FFFFF7EA
:108C300077FFE4E780240020542400205024002003
:108C4000F0B51E4B1E4F1C683B6885B006000391B3
:108C5000002B30D0FFF7A4FE00282CD0E36CDB07FC
:108C60000ED5FFF77FFE174B051E186008D009F0E0
:108C7000D8FF1549280009F0C2FF2C00FFF750FF6C
:108C8000039B20001B043343A36409F0CAFF2000A8
:108C90000E4909F0B4FF0E4B0024F318012B07D93D
:108CA000C0230093039A0B4B31003868FFF7AAFDED
:108CB000200005B0F0BD084CFAE7C0468024002033
:108CC0004C24002054240020702400207C24002008
:108CD00002FCFFFF9988010016FCFFFF10B5FFF7AB
:108CE0005FFE002809D0054C206809F09AFF04496E
:108CF000206809F084FFFFF713FF10BD80240020D7
:108D000074240020F7B507000D0000282ED0FFF7CF
:108D100047FE00282CD00724164E3068C36C1C4038
:108D200007D0154A2900380009F092FF00242000DE
:108D3000FEBD03F004FF02213268D36C194001919B
:108D400003D003218B43D364F1E701242343D3648D
:108D50002800B8473268D36C1900A143D164019C44
:108D60005B07E4D5280009F0ABFFE0E7034CDEE742
:108D7000034CDCE780240020C12C020017FCFFFF1D
:108D800016FCFFFF020010B5014B12CB12C210BD42
:108D900084240020034B1A68034B1A607E225A6019
:108DA0007047C046042000208424002070B5114E76
:108DB0003278022A1AD081421AD90C1A072C17D9F4
:108DC0000D00032305432B4012D172B60A4DD20089
:108DD0005051AA1851608022A4081206144304605E
:108DE00032780132327062B6180070BD0348FCE779
:108DF0000348FAE7CE2700208C24002013FCFFFF55
:108E000017FCFFFF70B5134C06002378124D002BA2
:108E10000CD1124912482B70FFF7C8FF114B984232
:108E200002D11E20FFF706FC0123237000242B78BB
:108E3000A34209DD0C49E300C918300009F05AFFCC
:108E4000002805D10134F2E71420FFF7F3FB0020DE
:108E500070BDC046CD270020CE270020003800205E
:108E60009828002017FCFFFF8C24002070B50028F4
:108E700019D0104B10491C7800239C4216DDDA00F3
:108E80005558854210D28A18526882420CD9041F64
:108E90002368002B02DC1E20FFF7CCFB8023226816
:108EA0001B061343236070BD0133E6E71E20FFF766
:108EB000C1FBF8E7CE2700208C24002070B5051EEA
:108EC00014DD0B4E0B4C3368002B02D020680CF0E5
:108ED000F2FDFA2120680024074B89008361C462F7
:108EE000694335600CF0EFFD200070BD0348FCE7DE
:108EF0009C240020CC240020A58F010017FCFFFF3C
:108F0000F8B5114F06003D68002D0AD130200DF054
:108F100050F8040006F08EFE0C4BA5612360E5625C
:108F20003C600B4D2B68002B09D110200DF041F84F
:108F300004000CF089FD20002C600CF05FFD300077
:108F4000FFF7BCFFF8BDC046CC240020286A020011
:108F5000C8240020014B18687047C0469C2400209C
:108F600070B50D4C2368002B03D00C4B1B68002BF5
:108F700002D10620FFF7C4FF20680CF056FD020066
:108F80000749C3170D684E685219734120680A607B
:108F90004B600CF050FD70BDC8240020CC24002094
:108FA000A820002010B5FFF7DBFF0024054BA2002E
:108FB000D058002802D003681B68984701340A2C57
:108FC000F4D110BDA024002010B5FFF7C9FFFA228C
:108FD000034B920018685968002307F0B9FD10BDD3
:108FE000A820002010B5FFF7BBFF024B1868596896
:108FF00010BDC046A82000200B4B10B51B68040014
:10900000002B03D0094B1B68002B02D10620FFF771
:1090100077FF0023064A99008858002801D00133C1
:10902000F9E78C5010BDC046C8240020CC24002095
:10903000A0240020002310B5044A99008C588442D3
:1090400001D00133F9E70020885010BDA024002092
:1090500010B50400002902D00B78002B03D1034B7C
:109060002360200010BD09F018FFFAE73862020003
:10907000F8B504000E00150000290AD00B78002B6B
:1090800007D0002A05D0080097B20DF021F88742DA
:1090900003D90B4B23602000F8BD681DFFF7B2FE1B
:1090A00020600AF09EF823682A005F802368310060
:1090B000181D0CF0B1FF23685D1900232B71EAE73E
:1090C00038620200014B03607047C04638620200FC
:1090D00010B50548054C20600AF086F8044A054999
:1090E00020000CF05BFF10BD38620200D02400208D
:1090F000002000208D2E0200084B73B51C6805006F
:10910000002C0AD0010026680831082268460CF0BD
:1091100083FF0CCD31682000884773BDD424002024
:10912000014B03607047C0464062020010B5040066
:10913000002903D1044B0360200010BD016008002A
:109140000AF052F8F8E7C0464062020030B5006805
:109150004488A1420CDA8588AA4209DA002907DB93
:10916000002A05DB5443401800198371002030BDEC
:109170000048FCE717FCFFFFF0B5070085B00E00C4
:109180001D00002921DD002A1FDD002B1DD00468F1
:10919000638803938B4200DD0391A388029393427B
:1091A00000DD0292002306340193019B029A934250
:1091B0000EDA29002000039A0CF02EFF3B68AD194F
:1091C0005B88E418019B0133EEE7024805B0F0BD6F
:1091D0000020FBE717FCFFFFF8B504000D001600A8
:1091E0001F00002901DB002A02DA0E4B2360F8BDC4
:1091F000100048430630FFF705FE206009F0F1FF3C
:1092000023685D8023689E80002F06D03B003200DB
:1092100029002000FFF7B0FFE9E7200009F018FF60
:10922000E5E7C04640620200F7B506000D1E03D117
:10923000244B03603000FEBD00200F00040001003D
:1092400001903B78002B1AD03022524294469C4425
:109250006246092A11D90A2B0AD1019B241801332D
:109260000193A14200DA2100002004000137E8E761
:109270000028FBD001340020F8E70120F6E76A4619
:109280000127928809B212B230007F42FFF7A4FF93
:1092900039000A2033689A1D2C78002CCAD023008C
:1092A000303B092B08D8FB43DB173B4043431B19DA
:1092B000303B1F000135EFE7002FFBDB1770013259
:1092C0000F00F7E740620200F0B5040089B006A87D
:1092D0000E0002921D00FFF755FD236802995A887F
:1092E000914235DA9B889D4232DA1F2E30D9079B96
:1092F00001939E422CDC0523002273430393069BBB
:109300000493039B04999B18A03BCB5C002105931D
:10931000AE18029BCF1823685888019087420EDA56
:109320009888B0420BDDDB1910270F41019870437C
:109330001B1805980740781E87417F429F710131B5
:109340000529E6D10132052ADBD1002009B0F0BDA4
:109350000048FBE717FCFFFFF7B5046807006388C8
:109360000E1E01931EDD994218DA00230634009385
:109370003B68009A9B889A4212DA019BA1199D1BB7
:109380002A0020000CF048FE6019310009F043FE6D
:109390003B685B88E418009B0133E8E709F058FE5E
:1093A000002000E00048FEBD17FCFFFF10B5054897
:1093B000054C206009F018FF044A054920000CF014
:1093C000EDFD10BD40620200D824002000200020E6
:1093D0000930020010B5054C0121200009F0F8FE0B
:1093E000034A044920000CF0D9FD10BDDC24002004
:1093F000002000208D3102000388074A10B50120AB
:10940000934208D0834202D00020DB0703D41E2001
:10941000FFF710F9002010BDFFFF00000048704763
:1094200016FCFFFF10B53220FFF704F9004810BD0D
:1094300016FCFFFF10B5124C002308348280046034
:1094400041620224142201008371847203638386C3
:10945000028136310A78C360A243F13422400361AD
:1094600043618361C36103620A700200403213707A
:10947000021DD387013343878387C38710BDC0464E
:1094800060620200F0B5544F97B03B680600059348
:10949000002B00D08BE006AC0B331C2221212000D6
:1094A00001F0ECF90EAD0B231D2222210AA801F0D8
:1094B000E5F90B231B222321280001F0DFF9082006
:1094C0000CF077FD0122059B110004900BF020FAAF
:1094D0003A2130000AF076FF00281DD0A38812AD93
:1094E000AB80A3795C20AB713C4B1293A3681493BF
:1094F000237B2B73637B6B73A37BAB730CF059FDE6
:1095000004230193363300932A00049B31000400A6
:1095100001F09CFF3C604AE0322130000AF080FFFD
:1095200000281CD0A38812ADAB80A3795C20AB715E
:109530002A4B1293A3681493237B2B73637B6B7367
:10954000A37BAB730CF035FD042301932E33009302
:109550002A00049B3100040002F016F9DAE73C21EE
:1095600030000AF018FF00282CD0AB8812ACA38082
:10957000AB79A420A371194B1293AB6814932B7B86
:1095800023736B7B6373AB7BA3730CF012FD05231A
:1095900005000293013B0193383300932200049BA2
:1095A000310001F071FE0E4B3D6044351D600C4BE7
:1095B000094C1868002802D0216809F07FFF206854
:1095C00017B0F0BD44200CF0F4FC04220499040010
:1095D000FFF730FF9EE7C046E02400205062020003
:1095E000E4240020F0B56149C56885B08D4254DAA5
:1095F0000300022236331B78134059D104698C4290
:1096000064DA020036321278520768D44269019255
:109610000200019E40328E426FDA01003631097835
:10962000090774D4002B7DD113780293002B16D038
:1096300006000127011DCB8F363601339BB2CB8745
:1096400003963678BC46374000D188E01D2B06D9FA
:1096500063469E43039B1E700023CB87137009F063
:109660000DFE434A0723904276D94249043B8D427E
:1096700072DBC8220133920095426DDC023B8C42C2
:109680006ADB013B944267DC01980433884263DB68
:109690000133904260DC00235EE0C82200235200C8
:1096A0009542ABDD030036331A7800239207A5D428
:1096B000012306001F00363632785408A7433C00C9
:1096C00002279C40BA432243327097E7C8225200D7
:1096D00094429BDD020036321278520796D406007F
:1096E0000122363633789F08BA4397000422934309
:1096F0001A003A433270012388E7C821019E4900CD
:109700008E428FDD01003631097809078AD40100C5
:10971000012636310B78DF08BE430827F600BB432D
:1097200033430B701378032B00D97DE70133DBB291
:109730001370012B03D10021031DD98774E7042B7B
:1097400000D071E7020036321178033B0B431370EF
:1097500000230430C3870B33180005B0F0BD092B7C
:1097600000D87CE7029BCF87013B77E770FEFFFFC5
:10977000FF700200E0FCFFFF70B5C369C1681A68A2
:10978000451D8AB00400EB7F114255D0002B58D103
:10979000EB7F082B0DD90122A379134209D1134382
:1097A000A371A188130006A809F00BFCFFF70CFCBD
:1097B0002062EB7F012B23D80123A2791A421FD00C
:1097C0000025A188A571022202A809F0FAFBA31DB9
:1097D000DE7F012E14D1FFF7F7FB2B00226A801ADF
:1097E000994100900191019BA188AB4203D1174B95
:1097F000009A9A4227D90123042206A809F0E1FB26
:109800000322A3791340012B14D1FFF7DDFB0023C2
:10981000226A801A9941994202D10D4B984209D986
:109820000223A279A1881343A3710522012306A86C
:1098300009F0C7FB0AB070BD0B2BA9D80133EB7739
:10984000A6E7013BFBE733000322D6E7E70300006E
:10985000DB05000010B50400034B08330360FFF77D
:10986000E9FB200010BDC04694620200F0B507007D
:1098700000250E0085B002930AAB1B7808370393CE
:10988000104B040008330360019285808571290024
:10989000182238000CF0DCFB039A310038000CF081
:1098A000D1F96B466A469B88127AA380A31DE671A4
:1098B000DA77631D25622000DD77FFF79DFB20002E
:1098C00005B0F0BD946202000048704716FCFFFF2F
:1098D00010B53320FEF7AEFE004810BD16FCFFFFAA
:1098E000002310B50400838083710D482164083083
:1098F00020608020C000A061E0612062E360200061
:10990000236163616362A362E36223636363A363AE
:10991000E3636364110009F0A9FD200010BDC04697
:10992000AC620200F0B5534F97B03B680600059358
:10993000002B00D08BE00B331C22212106A80AAC9F
:1099400000F09CFF0EAD0B231D222221200000F011
:1099500095FF0B231B222321280000F08FFF0820F6
:109960000CF027FB0122059B110004900AF0D0FFA8
:109970001D2130000AF03DFD00281DD0A38812AD46
:10998000AB80A3796020AB713B4B1293A368149317
:10999000237B2B73637B6B73A37BAB730CF009FB93
:1099A00005230193183300932A00049B310004001F
:1099B00001F020FE3C604AE03C2130000AF047FD07
:1099C00000281CD0A38812ADAB80A3796020AB71B6
:1099D000294B1293A3681493237B2B73637B6B73C4
:1099E000A37BAB730CF0E5FA0523019337330093A7
:1099F0002A00049B3100040001F068FFDAE73C21F3
:109A000030000AF0C8FC00282AD0AB8812ACA38032
:109A1000AB79A420A371184B1293AB6814932B7BE2
:109A200023736B7B6373AB7BA3730CF0C2FA0523C8
:109A300005000293013B0193383300932200049BFD
:109A4000310001F021FC0D4B1D6044353D600B4B96
:109A5000084A1B681068002B00D0436417B0F0BDA3
:109A600048200CF0A6FA052204990400FFF738FFFD
:109A7000A0E7C046E424002050620200E024002059
:109A800082B0F0B50400EDB06420739372920CF0D4
:109A900097F9052210A8110009F0E3FA974911A8D7
:109AA000FFF7C2FB002221AB6CA91A605A609A60D2
:109AB0000C339942F9D11922002113A80CF0C8FAED
:109AC000A0680AF092F800260B90FF21A06800F031
:109AD000B9FC8B4FA06800F05FFB07960996884B96
:109AE0009F4203D0874B9F4200DBFDE0A0680AF055
:109AF0007EF8A56884491AA8FFF7AAFA78221AA95D
:109B0000280000F0E7FB1AA809F0C0F900267C4FF6
:109B10000322099B606801331A40099209F046FC50
:109B20000500606809F049FC0022784B05929D42CF
:109B300010DB013205922A00C8320BDBAA22042175
:109B400092000591954205DC02220592C82D01DDA7
:109B50000132059200220692984210DB01230693FF
:109B60000300C8330BDBAA2304329B000692984201
:109B700005DC02230693C82801DD0133069310A8F3
:109B800009F066FA002513ABEB5C012B08D16049A4
:109B90006B00CA185278C95C10A8FF23FFF7D6FAE9
:109BA0000135192DEFD16B4618229A5E6B4610A82D
:109BB0001421595E099BFFF7C9FA002F01DB0F2E14
:109BC00007D90023A068009374301A0010A909F087
:109BD00055FA01230893089B05995A004C4B9B1892
:109BE0009A1E12788A4226D1013B1B78069A93422C
:109BF00021D1089A6CAB9B18663BFF3B0A931B78FC
:109C0000012B18D00C23079A216853431D00002212
:109C10000CA809F055FC21AA2B0094460CAA634419
:109C200023CA23C301220A9B01361A70079BF6B28E
:109C30000133DBB20793089B013308931A2BCAD177
:109C400064200CF0BDF8079B643F3FB2182B00D88E
:109C500045E71A0021A91AA809F040FE6A461DAB83
:109C600023CB23C21B6813601A991B9A1C9B206884
:109C700009F00EFCE568002D0CD0264912A8FFF76C
:109C8000E7F91C231AAA12A928000AF04FFB12A810
:109C900009F0FCF8A06809F0AAFF11A912A8A568AC
:109CA00009F0BFF900221C4B009212A90193280071
:109CB000130000F0B3FA12A809F0A6F9FA20800008
:109CC0000CF07EF8A06809F092FF0B99A06800F0F4
:109CD000B9FB11A809F098F910A809F095F96DB031
:109CE000F0BC08BC02B01847002F02D00F2E00D0E5
:109CF0000EE7A06800F050FA0AE7C046006F0200C5
:109D00008C3C0000D18AFFFF456F020058FDFFFF29
:109D1000656F02005A6F0200DC050000F0B587B0E5
:109D200001930EAB1B88060003930D9B0D0000935F
:109D3000019B02920C9F002B3DD0002F02D1009B73
:109D4000DB0738D528200CF034F90400103009F076
:109D50002EF96B461B891820258063800CF029F9A9
:109D60000500009B08220593019B002103600C3035
:109D700004970CF06DF9082204A9281D0CF04CF989
:109D80000E4B02226B6100230399E360236263623E
:109D900033680A43A560A2805B68210030009847C1
:109DA000002806D0200009F027F820000CF0FDF86C
:109DB000034807B0F0BD0348FBE7C0460135020089
:109DC00016FCFFFF17FCFFFF70B58CB08360109B83
:109DD00001604260C3600400184918000AF06DFA7F
:109DE000051E14D001001C22103105A80CF014F936
:109DF0006A4608AB43CB43C21B68136020680599D1
:109E0000069A079B09F044FB28000CF0CEF80C4B97
:109E1000186800280ED00B4A05AB05920022069266
:109E2000C03202926A4622CB22C2230003220521BD
:109E3000FFF774FF20000CB070BDC0465A6F0200DF
:109E4000D4240020819A0100F0B5040085B0637A23
:109E50009C46002B04D1200009F05EFD05B0F0BD4A
:109E6000A37A266F01931023019AF35600259B18BD
:109E700001229A402900F36803920293029BAB42AD
:109E800031DDB368019A6B439B1872695B00E77A16
:109E9000D3181A785878E379012F14D15F1E3F1A2E
:109EA00010003A005B004343606F8218D3189B791F
:109EB000634500DD6346627B1A4202D00123AB405A
:109EC00019430135DAE7022F05D15F1EBA1A277A46
:109ED000013F381AE6E7032FE4D1277A013FBF1A82
:109EE00002003800DEE71123C943F356606C994045
:109EF00023691940039B19430CF02FF8A27B072A12
:109F0000ACD8637B0C495B006373531CDBB29000DD
:109F10004158A373022A03D808000BF046FF96E7C6
:109F2000064B2000236300236363054BE462236434
:109F300014300BF0C8FD91E7D8620200499E010081
:109F40000339020010B50400044B03600BF0B3FDAD
:109F5000200005F085FE200010BDC046286A0200E2
:109F600010B504000E4B08330360FFF763F82000C0
:109F7000743009F049F82000603009F045F82000FD
:109F8000583008F083FF2000503008F07FFF200099
:109F9000044B14306361FFF7D5FF200010BDC046AD
:109FA000F86202005C6A0200F8B500250400324B3A
:109FB0008580083303608571143016000F0005F0AA
:109FC00039FE20002D4BE562636125645030FFF7B8
:109FD00079F820005830FFF775F820006030FFF75F
:109FE0009FF820000423F25E33682667590009B207
:109FF000743009F036F83368226FE3717368012614
:10A00000237210236581A7802561D3569168591862
:10A01000994204DD3000984001330543F8E71123ED
:10A020000120D356D1685918994206DD02009A40A2
:10A030002669013332432261F6E714200BF0B9FFA1
:10A04000226900212A430123060006F09FF9FF231D
:10A05000220063720133A381002348326664A37334
:10A0600020001370A366FEF7C7FF0123A27920002A
:10A070001343A371F8BDC046F86202005C6A020097
:10A08000F0B5437A85B00400002B04D1200009F01C
:10A0900043FC05B0F0BD0122837A11009C461023D9
:10A0A000066F0025F35603926344994002912900FC
:10A0B000F3680193019BAB422CDDB36872696B437B
:10A0C00063445B00E77AD3181A785878E379012F54
:10A0D00010D15F1E3F1A10003A005B004343606FCF
:10A0E0008218D3189B79002B02D0039BAB401943F5
:10A0F0000135DFE7022F05D15F1EBA1A277A013F2B
:10A10000381AEAE7032FE8D1277A013FBF1A020085
:10A110003800E2E71123C943F356606C9940236984
:10A120001940029B19430BF018FF667AB31EDBB28D
:10A13000FC2B14D8FEF70EFF0B4B05002363002306
:10A140000A4863630A4BFF21E4622364704306F00C
:10A15000D9FB29004143200014300BF0B4FC637A92
:10A16000012B00D995E791E719390200B6030000E9
:10A17000033902001FB5012381881A00684608F0E0
:10A1800020FF012303491A00684608F01AFF05B0B2
:10A1900000BDC046FE0300001FB5030048331A7817
:10A1A0000400002A0DD000221A70012381881A00B1
:10A1B000684608F006FF012304491A00684608F0C3
:10A1C00000FF2000743008F043FF1FBDFF030000B4
:10A1D00010B548300378002B06D00378012B03D04C
:10A1E0000121024808F05CFD10BDC046FF030000DD
:10A1F00010B501210400062008F052FD064B9842DC
:10A2000008D148342378002B04D02378012B01D0C7
:10A2100020BFF7E710BDC04616FCFFFF73B5079CD3
:10A220000500002C1CDB060048363078002802D0E0
:10A230003078012816D106981BB2C0B200902800D1
:10A2400012B2743008F01AFF002C07D02B004A33EA
:10A250001C80002407234C352C803370200076BDF1
:10A26000014CFBE7014CF9E717FCFFFF12FCFFFF75
:10A27000F0B587B00D9C06000F0002920393002CEE
:10A2800020DBFFF7A5FF330048331D78EDB2002D2A
:10A290001AD1390005A808F0C4FE0C9B0194009364
:10A2A000029A039B05A93000FFF7B8FF05A808F044
:10A2B000ABFE002C03D03000FFF79AFF2C002000EB
:10A2C00007B0F0BD014CFAE7014CF8E717FCFFFFBF
:10A2D00011FCFFFFF8B50400171E1DDD060048360F
:10A2E0003378002B02D03378012B17D12200E37989
:10A2F0005632013B137023000025200054331D808B
:10A30000503008F022FE23004A331F800223280029
:10A310004C3425803370F8BD0148FCE70148FAE76A
:10A3200017FCFFFF12FCFFFFF7B505000F00161E1C
:10A3300018DDFFF74DFF2B0048331C78E4B2002CEA
:10A3400012D1390001A808F0F8FD320001A9280057
:10A35000FFF7C0FF01A808F099FD2800FFF748FFAC
:10A360002000FEBD0148FCE70148FAE717FCFFFFAB
:10A3700011FCFFFFF8B50400171E2DDD060048365E
:10A380003278002A02D03278012A27D15D42069B1A
:10A39000FF331FD16B1D22001BB2643213802300D8
:10A3A000200066331D70603008F043FE2300002259
:10A3B0006C331A70954200D03D0023004A331D8053
:10A3C000079B00205A1E9341013F4C3405332780E0
:10A3D0003370F8BD069BDEE70148FAE70148F8E76D
:10A3E00017FCFFFF12FCFFFFF0B587B005000F0060
:10A3F000161E03931EDDFFF7EBFE2B0048331C787F
:10A40000E4B2002C18D1390005A808F00AFE0D9B13
:10A41000320001930C9B05A900932800039BFFF7D2
:10A42000A9FF05A808F0F0FD2800FFF7E1FE2000D5
:10A4300007B0F0BD0148FBE70148F9E717FCFFFF53
:10A4400011FCFFFFFF2902D841720020704701482C
:10A45000FCE7C04617FCFFFF13B5040004A8007812
:10A46000009020000BF055FB002801D1207516BD8F
:10A470000048FCE70EFCFFFF13B5040004A80078B9
:10A48000009020000BF02DFB002801D1207516BD97
:10A490000048FCE70EFCFFFF7FB50D0011000F2206
:10A4A0006A4404001E1E117016D0089B002B13DD99
:10A4B000012329000093FFF7DFFF002802D007489F
:10A4C00004B070BD0090089B320029002000FFF707
:10A4D000C3FF0028F4D0F2E70148F1E70EFCFFFFCC
:10A4E00017FCFFFFF7B507000D1E3FD00023022623
:10A4F00004690193002C35D0AA88A38853403342C5
:10A5000004D1324204D1AB88334226D0646AF1E7E9
:10A51000A968A0680AF0E1F90028F4D02B88002B84
:10A5200002D022889A42F1D16B88002B02D0628837
:10A530009A42EBD1EB68E268934201D0002BE5D15F
:10A540007B68002B01D020009847A288084B13435A
:10A55000A380019B01330193D8E7A368AA689342C3
:10A56000D4D1DBE7019B2000002B00DC0148FEBDBD
:10A570000080FFFF17FCFFFFF0B5060085B00D1E41
:10A580005DD001270469002C26D00221AA8800236F
:10A590000A4202D0A3885B083B40226829688A42AD
:10A5A00014D1A068A968002B0ED00AF096F90028F3
:10A5B0000CD0EB68E268934208D1A3881AB2002A53
:10A5C00006DB204805B0F0BD8842F2D0646ADAE7C5
:10A5D0005B045B0CA380F4E730692A88002807D16C
:10A5E000356101231849684608F0EBFC0020E9E7D3
:10A5F000010003001C88944206D25C6A1900002CFA
:10A600000DD02300F6E723001C88944207D15F8811
:10A610006C88A74203D85C6A1900002CF3D18842E9
:10A6200009D10B889A4204D305D148886B88984297
:10A6300001D96962D4E74B6A6B624D62D1E7034886
:10A64000C0E7C04616FCFFFFFD03000017FCFFFF3C
:10A65000064B10B51A00040008322C3302608360E8
:10A660000830FEF737FA200010BDC0461063020024
:10A6700008B4024B9C46083808BC604751A601004C
:10A6800008B4024B9C46083808BC6047613D020094
:10A690000C4A002311002C32083110B5436083812D
:10A6A00083738260036143618361C383016004003B
:10A6B0000830FEF701FA044B1A68002A00D11C602A
:10A6C000200010BD10630200D4240020F7B50E0056
:10A6D000012504690192002C36D0238832889A42E1
:10A6E00001D0002B23D1638872889A4201D0002BBD
:10A6F0001DD1FEF755F90123002806D0C022A388FA
:10A700001340C03B5A425341DBB2019A934219D1E4
:10A71000A7883BB2002B15DB10223100A0180BF0EC
:10A720007BFC40231F4204D0200009F022FB646A16
:10A73000D1E7FEF735F90028F6D021000348FEF7EF
:10A74000E1FAF4E70025F2E72800FEBD733D0200C0
:10A7500008B4024B9C46083808BC6047FB3E020028
:10A76000F0B587B001930EAB1B88060003930D9BD9
:10A770000D000093019B02920C9F002B3DD0002FF7
:10A7800002D1009BDB0738D528200BF012FC040017
:10A79000103008F00CFC6B461B8918202580638064
:10A7A0000BF007FC0500009B08220593019B00218C
:10A7B00003600C3004970BF04BFC082204A9281D01
:10A7C0000BF02AFC0E4B02226B6100230399E3601D
:10A7D0002362636233680A43A560A2805B6821003C
:10A7E00030009847002806D0200008F005FB200024
:10A7F0000BF0DBFB034807B0F0BD0348FBE7C046A6
:10A80000353F020016FCFFFF17FCFFFFF0B5040008
:10A81000160000258380164A164B8571026021813F
:10A8200046810573186889B08C46A8421DD0124A2B
:10A8300005950492C02202926A4604AB82CB82C282
:10A8400023002A006146FFF78BFFC022094B0A490B
:10A85000186802926A46069106AB079582CB82C2BF
:10A8600023002A003100FFF77BFF200009B0F0BD74
:10A8700054630200D42400205F40020030B500245D
:10A8800003730123034D84710560818082734373D8
:10A89000846030BD5062020070B583790400DB072C
:10A8A00002D580680BF081FBA3799B0702D5A068D5
:10A8B0000BF07BFBA3795B0707D5A0230021144A8B
:10A8C000DB00D150A0680BF070FBA3791B0708D503
:10A8D000A568002D05D028000AF070F828000BF0BC
:10A8E00064FBA379DB0605D5A068002802D00368C5
:10A8F000DB6898476023A2791A4205D0A068002837
:10A9000002D003685B6898470023A360A37170BD01
:10A9100000700040F7B50126037B040033422AD0C3
:10A92000612385791D4017D1FFF7B6FF18200BF082
:10A9300040FB0E230700E35618220093637B290097
:10A9400001930BF085FB019A009938000BF07AF91E
:10A95000A379A7603343A3716023A279A0681A4248
:10A9600002D00BF024F8FEBD436940681B68184014
:10A97000431E9841F7E70148F5E7C04616FCFFFF84
:10A9800010B50124837941731C4004D080680BF01A
:10A9900023FA002010BD6022134203D080680BF020
:10A9A0000DF8F6E70048F5E716FCFFFF70B5040068
:10A9B00000250C4B0E000833858085710360210053
:10A9C000183009F0FDFB20002100203009F01BFCAD
:10A9D000054BA680E5802572E56025616561200054
:10A9E0001C6070BD64630200E82400208379DB07EB
:10A9F00002D5C160002070470048FCE716FCFFFF4D
:10AA00008379DB0701D5C06870470148FCE7C04681
:10AA100016FCFFFF70B545690400002D22D0037AB3
:10AA2000032B21D8FFF7ECFFA8622C200BF0C1FA12
:10AA30002C22002105000BF00BFB002263695A62F7
:10AA40002369934208D1636923610020237A6561F9
:10AA50000133237270BD13005A6A002AFBD1626968
:10AA60005A62F2E70148F5E70148F3E717FCFFFFF8
:10AA700013FCFFFF144B70B55A68144C002A03D026
:10AA800000225A600132A2601A69002A17D0002100
:10AA900019618023DB000E4DE3582868012B0FD18C
:10AAA000A923DB00E1584942FFF7A0FF2868FFF720
:10AAB000B1FF2B685A69074BE2500123A36070BDB8
:10AAC000FFF794FFF9E7C046FC100040001000407B
:10AAD000E82400200405000003000069002809D0D4
:10AAE0000221054AD167426A1A611A7A013A1A723A
:10AAF000024B19607047C04604E100E000E100E04D
:10AB000010B5002903DB024B19600BF052F810BDA1
:10AB1000EC24002070B504001E0004AB1D7805F085
:10AB2000D1F820000E4B40302360FEF7CBFA230013
:10AB300001364C33013522001E701D730023E121C4
:10AB40004E32A3646365138053809381D381013BAC
:10AB5000200063644902FFF7D3FF200070BDC046A8
:10AB600000620200F7B580277F053D697C690822F5
:10AB7000113C6C430600210068460BF04DFA104B67
:10AB8000009A9A4219D0009300230193796930000A
:10AB90001339694309F04CFB019A0099300009F020
:10ABA0005FFB2100300009F043FB7969AB081339E2
:10ABB00069432200300009F045FB0198FEBDC04604
:10ABC000FECA0000F0B50D00A9B00D9200213022A0
:10ABD000060010A80B930BF03BFA28000BF078FA54
:10ABE000431C0C93102B00D9B5E00B9B202B00D9F4
:10ABF000B1E02900300009F060FB071E50D12900A8
:10AC00000C9A10A80BF008FA0D990B9A14A80BF0E7
:10AC100003FA80235B051A695F690C92113F7A433E
:10AC200030005D690B92FFF79DFF30220021040088
:10AC30001CA80BF00DFA290000270C9B133959436F
:10AC4000300009F0F5FA0D9730257D430B9B083352
:10AC5000ED18A74242DA290030221CA80BF0DCF9DB
:10AC600010A91CA80BF02AFA002827D13C49300073
:10AC700022000E910F9409F0F3FA6A46099513AB7E
:10AC800023CB23C223CB23C223CB23C23000129B6E
:10AC90001099119A09F0F2FA01230D930137D3E7C5
:10ACA00010300B9A0D990BF0A8F9040038000BF046
:10ACB0007CF9002CA3D1200029B0F0BD6A4609958B
:10ACC0001FAB23CB23C223CB23C223CB23C2300011
:10ACD0001C991D9A1E9B09F0D1FADFE7E54330234A
:10ACE000ED1725405D430B9B08355D190D9B002B2F
:10ACF0001DD10C9B3021981E05F07AFDA0422CD06E
:10AD000017490134300022000E910F9409F0A8FA7F
:10AD10006A46099513AB23CB23C223CB23C223CB93
:10AD200023C230001099119A129B09F0A7FA0B99CF
:10AD3000300009F07DFA80235B0559690C230C9AD9
:10AD4000133963434A430233110030000B9A09F070
:10AD500079FA0024AFE7034CADE7034CABE7C046FC
:10AD6000FECA000017FCFFFF13FCFFFF8023F0B5B5
:10AD70005B051A6995B003925A6905910399113AD6
:10AD800051435D69039B133D040002915D43FFF74E
:10AD9000E9FE061E3BD0002730220021083508A816
:10ADA00001950BF055F90199200009F041FA04973B
:10ADB00030237B43029D0835ED18B7421FDA290086
:10ADC000302208A80BF028F9059908A80BF076F9AD
:10ADD00000280AD11949721E20000691079209F035
:10ADE0003FFA012304930137E2E70C23019A29007B
:10ADF000200009F027FA019B30330193F3E7049B0D
:10AE0000002B06D10D493200200009F029FA0C4828
:10AE100012E00299200009F00BFA80235B055969C2
:10AE20000C23039A13394A43734311002000023361
:10AE3000029A09F007FA002015B0F0BDFECA000022
:10AE40000CFCFFFF70B50400A280FA22002308006A
:10AE50000C49920008312160A3716061E260A36037
:10AE60006382094909F029FA051E09D00100200072
:10AE70001031022212300BF0CFF828000BF095F8B9
:10AE8000200070BD7C630200976F020030B5022580
:10AE9000837987B004002B4204D1FDF70DFEA3791E
:10AEA0001D43A571200009F052FA00281CD06B4602
:10AEB000DD1C280009F042FA2B78002B17D001A8DE
:10AEC00009F03AFA0321019AD3170B409B189B1003
:10AED0002382FEF779F8E368A18818180123A0609F
:10AEE0001A0002A808F06DF8002007B030BD01225A
:10AEF000064B1A60064A51680029FCD000215160B7
:10AF0000044A1268019201225A60DBE700C0004047
:10AF1000FCC0004008C50040022802D10122014BBC
:10AF20001A707047CF27002070B5064C05002378B3
:10AF3000002B04D1044801F0D9FF0123237028001D
:10AF400070BDC046D027002019AF010070B50C00BD
:10AF500007F034FE002810D00023144DA40A2B70F3
:10AF6000200009F008FA002803D00A200AF028FF80
:10AF7000F6E72B78002BFCD070BD02210C4B0D4A5C
:10AF800099508021C90008005D58002DFCD0A121F6
:10AF9000C9005C5019580029FCD00021995080212B
:10AFA000C9005A58002AFCD0E6E7C046CF27002047
:10AFB00000E0014004050000F8B50C0015001E007B
:10AFC00007F0FCFD002811D00023174F3B70320022
:10AFD0002900200009F0CDF9002803D00A200AF04A
:10AFE000EFFEF4E73B78002BFCD0F8BD01210F48C1
:10AFF0000F4B844619508021C9005A58002AFCD0B2
:10B0000080270022FF00964207DD910068586050BB
:10B01000D9590029FCD00132F5E7002261465A5087
:10B02000DA59002AFCD0E0E7CF2700200405000011
:10B0300000E0014008B4024B9C46443808BC60471D
:10B040007B430200FA21F8B50389C9000400594383
:10B05000324809F058FCFA21890005F0C9FB304F4D
:10B060002081A17A380009F04EFC2300260025003B
:10B0700022894C33A072A0361A808C353178002397
:10B080002A22286808F0C0FD002801D02548F8BD14
:10B0900031781F235B22286808F0B6FD0028F5D11F
:10B0A000317820235C22286808F0AEFD0028EDD11D
:10B0B000317801232C22286808F0A6FD0028E5D16C
:10B0C000317801232D22286808F09EFD0028DDD16B
:10B0D000317801232E22286808F096FD0028D5D16A
:10B0E000A17A380009F00AFC3178C3B20E22286830
:10B0F00008F08AFD0028C9D1FA2123898900594323
:10B10000064809F0FBFB01230343DBB231782A2216
:10B11000286808F079FD0028B9D0B7E79C630200E1
:10B12000946302000EFCFFFF08B4024B9C464438B7
:10B1300008BC604745B00100074B10B51A00040079
:10B1400008323C3302604364443008F05DF920006B
:10B1500008F086F8200010BDFC63020008B4024B22
:10B160009C46443808BC604739B1010008B4024B22
:10B170009C46443808BC604785430200F0B504256E
:10B1800083798BB004002B4204D1FDF795FCA379A1
:10B190001D43A57120009030FFF7BCFB0026B04294
:10B1A0000FD12300A033197820000C2307AD0093A2
:10B1B0008C302B0001220068FFF76EF9061E03D0C9
:10B1C0002C4E30000BB0F0BD0A2304AA9B182A783D
:10B1D0005A706A781A700022985EAA785A70EA78D3
:10B1E0001A700022995E03912A795A706A791A704E
:10B1F00000229F5EAA795A70EA791A7000215A5E7D
:10B2000004922A7A5A706A7A1A7000215A5E05925C
:10B21000AA7A5A70EA7A1F251A7000229B5EA27AD7
:10B2200003999C46514349425043CB172B407A43E4
:10B230005B185B11A361C3172B401818D3171D406F
:10B240006423AD18059A5B425343A36764236146A8
:10B25000049A40115A434B43E2676D11221DE0618D
:10B2600025622000D36708F074F82000443008F00D
:10B27000D2F8A6E70EFCFFFF08B4024B9C46443808
:10B2800008BC60477DB10100F7B51E00040008ABA3
:10B290001B881500019309AB00911A8831000AAB95
:10B2A0001F88FEF7C7F820003A0031004430FEF74F
:10B2B00017FB134B20001A003C3363642300083251
:10B2C0002260009A8C331A60AB8890308380AB790F
:10B2D0006A4683710B4B92880360AB6803218360DD
:10B2E0002B7B03736B7B4373AB7B83732300A03394
:10B2F0001A80FFF745FB2000FFF7A4FE2000FEBDEB
:10B30000FC63020050620200F8B5FA260189B6001B
:10B3100004007143264809F0F6FA310005F068FA96
:10B32000244F2081A17A380009F0EDFA2500A0729F
:10B330005835297800232A22606C08F065FC002823
:10B3400001D01D48F8BD297810232B22606C08F02D
:10B350005BFC0028F5D1297801232D22606C08F0D0
:10B3600053FC0028EDD1297801232E22606C08F0CF
:10B370004BFC0028E5D1A17A380009F0BFFA297802
:10B38000C3B20E22606C08F03FFC0028D9D121899D
:10B390000748714309F0B2FA01230343DBB229786D
:10B3A0002A22606C08F030FC0028CBD0C9E7C046E8
:10B3B000646402005C6402000EFCFFFF10B5040030
:10B3C000034B0833036007F04BFF200010BDC0465D
:10B3D000C46402007FB50425837904002B4204D1A4
:10B3E000FDF76AFBA3791D43A57120004830FFF7E4
:10B3F00091FA0025A8420DD123005833197806236D
:10B4000002AE009301223300606CFFF745F8051E81
:10B4100003D00D4D280004B070BD0223002104208C
:10B42000F356A27ADB00715630565343C000C90070
:10B43000514342435B42A3612368E16122629B6AFC
:10B4400020009847E6E7C0460EFCFFFFF8B5040071
:10B45000150006AA168807AA0F0012881900FDF722
:10B46000E9FF0F4B6764083323602300AA88483341
:10B470009A80AA7920009A710A4AA264AA68226571
:10B480002A7B1A736A7B5A73AA7B9A730023A3716F
:10B49000230058331E80FFF737FF2000F8BDC04659
:10B4A000C46402005062020010B50400034B08336C
:10B4B000036007F0A9FF200010BDC04658650200D8
:10B4C000F0B507005C3787B00400397800231022FC
:10B4D000806C08F099FB0326002802D01F4807B0B3
:10B4E000F0BD0F2502ABED18012339780822009337
:10B4F000A06C2B00FEF7D0FF184B9842EED02B78B3
:10B50000334203D06420FDF771FBEAE7FA26218974
:10B51000134DB6007143280009F0F5F9310005F02C
:10B5200067F920813978A0231122A06C08F06CFB08
:10B530000028D3D1A36C21890393714328003F785D
:10B5400009F0DCF901231843C3B210223900039833
:10B5500008F05AFB0028C2D0C0E7C0460EFCFFFF2F
:10B56000F864020070B50825837986B004002B4288
:10B5700004D1FDF7A1FAA3791D43A57120004C3039
:10B58000FFF7C8F9061E0DD023005C331978062397
:10B5900004AD009301222B00A06CFEF77DFF061E78
:10B5A00003D0134E300006B070BD0E232A786B44D2
:10B5B0005A706A7820001A700022995E64224A4309
:10B5C000A263AA785A70EA781A700022995E6422FF
:10B5D0005242514361632979597069791970002188
:10B5E0005B5E5A432368E2631B6A9847DAE7C0460A
:10B5F0000EFCFFFFF8B50400150006AA168807AA7E
:10B600000F0012881900FEF76BF90D4BA764083381
:10B6100023602300AA884C339A80AA7920009A716B
:10B62000084AE264AA6862652A7B1A736A7B5A73C5
:10B63000AA7B1E829A73FFF743FF2000F8BDC04625
:10B640005865020050620200F7B5FA250189204FC3
:10B65000AD0004006943380009F055F9290005F0F0
:10B66000C7F8A17A20811B4809F04DF92600636CC8
:10B67000A0720093218958363378694338000193CA
:10B6800009F03CF907230343DBB22022019900981B
:10B6900008F0BAFA002801D00F48FEBD3178102317
:10B6A0002222606C08F0B0FA0028F5D1A17A09488E
:10B6B000656C377809F022F980235B420343DBB2E3
:10B6C00023223900280008F09FFA0028E5D0E3E79C
:10B6D0008C650200846502000EFCFFFF10B50400BB
:10B6E000034B0833036007F0BBFD200010BDC046CC
:10B6F000FC650200F0B50425837985B004002B4277
:10B7000004D1FDF7D9F9A3791D43A5712000483074
:10B71000FFF700F9061E0DD02300583319780623D1
:10B7200002AD0093A8222B00606CFEF7B5FE061E4A
:10B7300003D0144E300005B0F0BD1F200023EA5E98
:10B74000D31703409B180222A95E5B11CA1702405F
:10B75000521804216F5E5211F9170140C91949119D
:10B760002B806A80A980A07A4343424341435B42D5
:10B77000E36123685242A26121629B6A20009847DC
:10B78000D8E7C0460EFCFFFFF8B50400150006AA76
:10B79000168807AA0F0012881900FDF74BFE0F4B01
:10B7A0006764083323602300AA8848339A80AA7903
:10B7B00020009A710A4AA264AA6822652A7B1A7339
:10B7C0006A7B5A73AA7B9A730023A37123005833B0
:10B7D0001E80FFF739FF2000F8BDC046FC6502005F
:10B7E00050620200F7B5FA2504000189134EAD003E
:10B7F0006943300009F087F8290004F0F9FF2700B9
:10B80000A36C208100935C373B7881B269433000A0
:10B81000019309F073F86022C3B20199009808F00F
:10B82000F3F9002801D00648FEBD397801236222D1
:10B83000A06C08F0E9F90028F6D0F4E730660200C1
:10B840000EFCFFFF10B50400034B0833036007F044
:10B85000DBFD200010BDC046586602007FB50825FC
:10B86000837904002B4204D1FDF726F9A3791D4307
:10B87000A57120004C30FFF74DF8051E0DD02300B8
:10B880005C331978062302AE0093E8223300A06CE3
:10B89000FEF702FE051E03D00B4D280004B070BD5C
:10B8A0000223F25E96235B425A4362630021725E7A
:10B8B00020005343A3630423F25E96235343E363C0
:10B8C00023681B6A9847E8E70EFCFFFFF8B5040001
:10B8D000150006AA168807AA0F0012881900FDF79E
:10B8E000FFFF0D4BA764083323602300AA884C3365
:10B8F0009A80AA7920009A71084AE264AA6862656F
:10B900002A7B1A736A7B5A73AA7B1E829A73FFF78B
:10B9100069FF2000F8BDC046586602005062020070
:10B9200010B50400054B083303601C3007F0AEFA75
:10B930002000183007F0AAFA200010BD846602002B
:10B94000FF23F0B52C4D8DB02B7000230400694609
:10B950000088009303F090F9002802D16B469B7891
:10B960002B70264E3368DB68002B07D1002320881C
:10B970001A00190008F076FD0DB0F0BD2B78032BEE
:10B98000F4D81F4901A8FDF763FB336801A9DE68FD
:10B9900004A807F0D2FA04A9300008F0C1FC00277F
:10B9A000060004A807F072FABE421ED03100202221
:10B9B000103104A80AF030FB30000AF0F6FA2978BA
:10B9C00004ABC9005918082202A80AF025FB2088F8
:10B9D0000123082202A908F045FD0137002804D1FF
:10B9E0002088084A0C2108F03BFD01A807F04EFA18
:10B9F000002FBBD0C0E7C04680200020FC240020E0
:10BA00002A700200FFFF0000F0B5837991B00400B6
:10BA10005B071BD5FDF7D8FA00232269801A9941EC
:10BA2000994203D1F423FF3398420FD9A06800282C
:10BA300008D0364B1D8808F0DEFF036815221B6A0C
:10BA4000290098470422A3799343A371A3799B0704
:10BA500059D52F4D2B68DB68002B50D02D4B1B7810
:10BA6000032B4CD8294B2C491B8804A80193FDF7C4
:10BA7000EFFA2B6804A9DE6808A807F05EFA08A9A7
:10BA8000300008F04DFC070008A807F0FFF902ABF2
:10BA90009E1D08233200338006A9073B019808F059
:10BAA000E3FC002F08D039002022103108A80AF04A
:10BAB000B3FA38000AF079FA164B32881B7806A9D7
:10BAC000DE0008AB9E1930000AF097FA002813D068
:10BAD000082206A930000AF09FFA2B6804A9DD6845
:10BAE00005A807F02AFA202308AA05A9280008F0CB
:10BAF0001DFC05A807F0CAF904A807F0C7F902223F
:10BB0000A3799343A37111B0F0BDC04678270020FC
:10BB1000FC240020802000202A700200F7B5089E37
:10BB20000500152922D8012007008F40244C274208
:10BB30001CD0E97FCC181F2C41DC69183418A142B5
:10BB400010D80021C8B2834204D9545C70188470A4
:10BB50000131F7E732789A183270EA7F9B18EB7759
:10BB600000202CE00878C8540139E8E73478013C1B
:10BB7000E4B2A34208D10023D9B28C42F0D9D05C00
:10BB8000F11888700133F7E7EF7F0120FF183F1BA2
:10BB90001F2F14DC0227A01C7F423618381B01908F
:10BBA000E87F2F18BE4204D23078019FF05501364D
:10BBB000F6E7041B023CEC77280008F09FFCFEBD72
:10BBC000FC002000F0B585B001930AAB1E880BABDA
:10BBD0001B78451C02930EAB1B78040003930B7873
:10BBE000170003704B8A10224382013128000AF0AB
:10BBF00013FA6B469B88268363836B461B7B002668
:10BC000023776B4601221B7A6761E683EB77A31CDF
:10BC1000DA770C9B0C256362230020000D9A2833F1
:10BC20001A705E709E702A0031002C300AF010FAF3
:10BC30002000074BE663A3632A00310040300AF07E
:10BC400007FA2000034B2665E36405B0F0BDC0464B
:10BC50007F4402007144020070B50D0008F0CBFE75
:10BC600004000368002D09D15B699847FA20800021
:10BC70006843074904F0BCFDE08070BD9B689847AD
:10BC80008542F3D2236820009B6898470500EDE7C2
:10BC900071020000F0B507001600A1B002C7040051
:10BCA0006B4918A81D0008F070FC331E03D030004B
:10BCB0000AF00EFA83B20122049200220392029249
:10BCC000023201920093320018A93800FFF77AFF80
:10BCD00023006049583318A8079308F056FC2B1E20
:10BCE00003D028000AF0F4F983B201220492002262
:10BCF000039202920232019200932A0018A9079837
:10BD0000FFF760FF23005449AC3318A8089308F0EC
:10BD10003CFC269B002B03D018000AF0D9F983B213
:10BD200001220492002203920292023201920093B5
:10BD3000269A18A90898FFF745FF631CFF33474967
:10BD400018A8099308F021FC279B002B03D01800AA
:10BD50000AF0BEF983B2012204920022601C039211
:10BD60000292023201920093279A18A9FF30FFF73E
:10BD700029FF23005533FF33394918A8099308F0E8
:10BD800004FC289B002B03D018000AF0A1F983B211
:10BD90000122049200220392029202320192009345
:10BDA000289A18A90998FFF70DFF2300A933FF333C
:10BDB0002C4918A80A9308F0E8FB299B002B03D014
:10BDC00018000AF085F983B201220492002218AD0E
:10BDD00003920292023201920093299A29000A9852
:10BDE000FFF7F0FE204B1B780B93002B2DD1079B08
:10BDF00012971393089B0DAF1493631CFF33159395
:10BE0000099B1A4916930A9B3800179308F0BDFB4B
:10BE10001D2149203B7810222B707B8A12AE6B8249
:10BE200006ABC918C0180AF0F7F806232B756B4645
:10BE30009B8D2068AB83AE6108F0E1FD03682900AB
:10BE40001B6898470122084B1A70200021B0F0BDF2
:10BE5000292A0000242A0000252A0000272A0000A1
:10BE6000262A0000282A0000D12700200A180000F6
:10BE700070B5002504000B4B858008338571036085
:10BE8000C1601830FDF71EF920001C30FDF71AF9CB
:10BE90000123621CD377044AA56065612000146009
:10BEA000A37170BD84660200FC240020FA2130B525
:10BEB00085B00500012302228900684607F081F859
:10BEC000074C2068002809D008F098FB2988054B0A
:10BED00022681980022391790B43937105B030BD1C
:10BEE000FC2400207827002010B50C0007290DD86D
:10BEF000806808F080FD064B195703685B6C984713
:10BF0000431E9841034B4042184010BD0248FCE7D5
:10BF10002270020016FCFFFF17FCFFFFF0B5A44CD7
:10BF20000D00A544040007939AAB1B78A14909A80A
:10BF300004930692FDF78CF8200029001C3007F0CE
:10BF400004F8C020800000F0C7FF08200AF031F894
:10BF50000600002100F0AEFE15ADA66000210C2207
:10BF60000EA80AF075F82B000EAA83CA83C3924B61
:10BF70002900EB60002330002B6108F025FDA0684C
:10BF800008F039FD08220021059016A80AF060F893
:10BF900014200AF00EF829000200884B1593C8C936
:10BFA000C8C2874B059EC3600023A4360361336873
:10BFB000002B00D0F5E03060A06808F020FD0822DA
:10BFC0000021060016A80AF043F8142009F0F1FF3A
:10BFD0007C4B1593030086CD86C37B4BC360002347
:10BFE0000361336B002B00D0DDE03063A06808F004
:10BFF00002FD08220021050016A80AF029F81420E5
:10C0000009F0D7FF714B15AE1593030086CE86C39A
:10C010006F4B9835C360002303612B68002B00D061
:10C02000C3E02860012504AB1B7C04AA2B4308A9AC
:10C030002800137408F01AFAA06808F0E4FC0368FA
:10C0400064495B6A9847A06808F0DDFC03686249B0
:10C050009B699847A06808F0D6FC0023026800930B
:10C06000166804992A00B047049B002B0AD02000D0
:10C0700008F0CDFA032805DDA06808F0C4FC0368C9
:10C08000DB6898470EA808F030FA2F2004ABC018E0
:10C0900008F02BFA362004ABC01808F026FA3D2031
:10C0A000042504ABC01808F020FA0EAB0A93A06870
:10C0B00004AB5D7708F0A7FC03680AA91B699847E1
:10C0C000A06808F098FC03680AA95B6D9847A0680F
:10C0D00008F091FC03680021DB6D9847A06808F028
:10C0E0008AFC036802219B6D984700212000FFF71E
:10C0F000FBFE182009F05DFFA16800F055FA374BF0
:10C10000374A1B68A1680393364B15A81B680026A5
:10C110000293354B0CAF1B680193069B1B685B19A0
:10C120000093324B12681B68FFF7B4FD302009F012
:10C1300040FF079AA16800F0F7FAA06808F05BFCDE
:10C14000036839009B6A9847294BBE80A0680C930E
:10C1500008F051FC03683900DB6A98472900A068A1
:10C1600008F01FFA099A09219378A068521908F07B
:10C170002BFAA06808F03FFC32210671A068FFF797
:10C180006BFD04AB1B7FB34204D0A06808F033FC06
:10C1900008F0F1F909A806F079FE95239B009D446B
:10C1A000F0BD036107E703611FE7036139E7C0469C
:10C1B000ACFDFFFF0F7102008D440200ADBE010017
:10C1C0009B44020041B90100A9440200D744020087
:10C1D000B7440200F5C1010029C20100F824002083
:10C1E000F424002008200020F02400200C2000204F
:10C1F0000800100013B506226846FCF739FF094B0A
:10C200001C68002C0AD0694601A806F096FE2000A2
:10C2100001A908F01DFA01A806F038FE684606F0EC
:10C2200035FE13BDFC240020002373B501AE0C00C5
:10C2300031000500019302F01FFD002802D1B27801
:10C24000064B1A70064B1868002806D061426141FF
:10C25000044BC9B21D8008F003FA73BD8020002092
:10C26000FC2400207827002030B5284CA9B06A2291
:10C270000D000DA8210009F0CFFE0DA903A8FCF7C1
:10C2800055FF03A906A806F0CCFE01230193013B4C
:10C29000FF3B00930533FF33642206A92800FEF715
:10C2A000A3F806A806F0B0FE210019226A3106A8FC
:10C2B00009F0B2FE05220024110006AB04A806F026
:10C2C000D7FE04A905A806F0ACFE01940094230053
:10C2D000220005A92800FDF7CBFF05A806F094FE73
:10C2E00021002800FEF7AEF805340520FCF77EFC9F
:10C2F000FF2CF5D1FA208000FCF778FC04A806F0AA
:10C3000083FE03A806F080FE29B030BD9F6F0200B7
:10C31000F0B59C4B95B005921A6808230400039170
:10C32000D16C06A80B43D3649749FCF791FE97495B
:10C3300007A8FCF78DFE220000250DAE30001C3250
:10C3400006A906F011FE07AA310008A806F00CFEA7
:10C35000300006F09BFD631CDD77A06808F04BFB06
:10C3600003680BAF5B699847300008F0BEF82B20DC
:10C3700004ABC01808F0B9F8322004ABC01808F0BC
:10C38000B4F8392004ABC01808F0AFF88023DB0004
:10C39000BB80A0680B9608F02EFB036839005B6D2C
:10C3A0009847A06808F027FB036829009B6D984711
:10C3B000A06808F020FB070006000A371F222900AA
:10C3C000380009F045FEFD77300008F0CBF8062173
:10C3D000A06808F0E6F8089A09219378A06804326A
:10C3E00008F0F2F8A06808F006FBC8210571A06803
:10C3F000FFF732FCA06808F0FEFAFF272E00058147
:10C40000A06808F0F8FA08F0B6F80398FDF7C4FE43
:10C410002000FCF751FB03992000FFF725FF03994B
:10C42000200008F030F90495012563691D402DD0E6
:10C43000574909A8FCF7F8FE09A90AA806F0F1FD7A
:10C4400000220AA91300019200920398FDF710FF41
:10C450000AA806F0D9FD049B002B42D1043F282FE7
:10C4600041DD0025FE2F00DC049D059806F0B8FF95
:10C47000002806D0012362699A4313000422134363
:10C480006361002609A806F0BFFD049504226369D4
:10C49000134233D0FF210398C826FDF7D3FF0025B0
:10C4A000B600A36902229B5EAB4222DD200029B2C6
:10C4B000183006F06FFD0023010003981A00743055
:10C4C000FCF702FF3000FCF791FB039807F08FFBAD
:10C4D000C820FCF78BFB02226369134209D10135A6
:10C4E000DFE70437BBE7039807F081FB002FBCDDD3
:10C4F000BAE7FA208000FCF779FB00260223656981
:10C500001D421CD006331D4024D0224909A8FCF747
:10C510008BFE09A90AA806F084FD00220AA901924F
:10C52000009213000398FDF7A3FE0AA806F06CFD25
:10C530001948FCF75BFB09A806F066FD174E64205E
:10C54000FCF754FB164B01369E4200DC6CE706F00C
:10C5500047FB69E7134909A8FCF766FE09A90AA881
:10C5600006F05FFD2B002A000AA9019500950398AB
:10C57000FDF77EFE0AA806F047FD09A806F044FD77
:10C58000DDE7C046802400203670020046700200BD
:10C59000487002008D700200983A00008C0A00007A
:10C5A0008B0A0000CA7002000022594BF0B5083314
:10C5B000060003600F001000A9B0B1600BAB991822
:10C5C00001324870102AFAD10F3A524C1A700E32CA
:10C5D000105D991A0874013AFAD2997B5A7B0902C4
:10C5E0000A4331000C31039125211B7813AD2B70C8
:10C5F00002ABC918452302A81B186A821800102232
:10C6000009F00AFD039B64216B610123002402AA47
:10C610002B7752181993093313701DAB1C706D23BF
:10C6200002AA9B181C706E2321009B181EA80C22C6
:10C63000EC836C621C7009F00BFD374B0C2221005F
:10C6400023A8AB63EC6309F003FD344B02AAEB644F
:10C6500046239B180322DA7722002C650595347354
:10C6600006AD2B1901345A70102CFAD101232C4835
:10C670002B700E33195CEA1A1174013BFAD21121A6
:10C680002520AA7B6B7B12020BAC13432A786382B2
:10C6900002ABC9182270C018102209F0BDFC01239A
:10C6A000237505ABA36100233800A38308F0A7F925
:10C6B000036821001B68984713ABDB8BB068B3821B
:10C6C00008F09DF9002203680092B18A039ADC68A1
:10C6D0000123A047B06808F092F90700142009F080
:10C6E00068FC0022012304000261069240C0083267
:10C6F0002900079309F090FC0A4BE360BB69002B0B
:10C7000003D13000BC6129B0F0BD2361F9E7C04618
:10C710009C660200237102007F4402007144020003
:10C7200033710200E7460200F0B500260400724BA8
:10C73000DDB0083303608160C2608680867132009C
:10C740006E4947A808F06FF8230014330125042729
:10C7500008931223009704950193089A330047A980
:10C76000039602961DA8FFF72DFA3200644947A8E8
:10C7700008F059F80C2322000097103215AF0495E9
:10C78000019347A933000396029632A8FFF71AFADD
:10C7900032005C49380008F046F821001C3109914C
:10C7A0000423082104950191009339003300099A6C
:10C7B0000396029647A8FFF705FA3200524938005F
:10C7C00008F031F8542009F0F4FB21001222042370
:10C7D000183107910495019200930A003300390043
:10C7E000039602960690FFF7EDF9069A474B100064
:10C7F000A262D4620AA9082230300A930B9609F08B
:10C800000BFC434B069A09999363293215702661F4
:10C810000422E661079809F0FFFB042207990898B3
:10C8200009F0FAFB6622032304A95218D377BA222F
:10C830005218D377872252005218D377069A354977
:10C840000232D3771DAA0C9232AA0D9247AA0E92F9
:10C85000069AA6850F9210A8320007F0E4FF302157
:10C86000452004AA52181378123104AA3B705218BA
:10C87000138811397B8204AB1022C918C01809F043
:10C88000CBFB04230CADA0683B75BD61BE8308F0F3
:10C89000B6F8036839001B689847822204AB9B18DE
:10C8A0001B885432238404AB9B181B885432A38406
:10C8B00004AB9B181B88A068638408F0A0F80700ED
:10C8C000142009F076FB0500134B0661082210C006
:10C8D00010A91093119609F09FFB104BEB60BB69F8
:10C8E000B34206D1BD612000FCF7E6F820005DB040
:10C8F000F0BD2B61F6E7C046A86602006371020036
:10C90000437102005371020073710200F947020083
:10C91000654702008371020089C901008F47020048
:10C92000F0B504000E00150085B01F000CAB1B888D
:10C930001030019306F03BFB26806580182009F03B
:10C9400038FB02AE050033000AAA03CA03C32F60F6
:10C950002800082700213A000C3009F079FB3A0042
:10C960003100281D09F058FB064B02226B612000A4
:10C9700000230199A5600A43E360A28023626362F9
:10C9800005B0F0BDB9470200F0B50B898DB0059335
:10C99000CB68050004934B88828C9A420ED1049C8C
:10C9A000049B059A9B181B1B032B39DD6288218889
:10C9B000012308A806F005FB0434F1E7428C9A42F3
:10C9C0002ED1049C049B059A9B181B1B032B27DD6F
:10C9D0002388282006936388EF680793114B0893F8
:10C9E0000023099309F0E5FAC0236A460600029382
:10C9F00008AB03CB03C22B000699079A3000FFF760
:10CA00008FFF3B6831005B6838009847002805D0ED
:10CA1000300006F0F1F9300009F0C7FA0434D1E72C
:10CA20000DB0F0BD7748020070B5040090B080688A
:10CA300007F01CFF022101401AD1A38D002B17D053
:10CA40000C4B6A4604931023E568A1850591029377
:10CA500004AB41CB41C20A00230006A8FFF760FFE8
:10CA60002B6806A99B682800984706A806F0C4F919
:10CA700010B070BD77480200002815D000604160FA
:10CA80008260C360046145618661C7614446046297
:10CA90004C464462544684625C46C4626446046305
:10CAA0006E46466374468463002A06D0C46B043C19
:10CAB000043A25681560B442F9D18C6BA6464E6BDA
:10CAC000B546002B06D0CC6B043C043B1D682560AA
:10CAD000B442F9D10C6BA446CC6AA3468C6AA24638
:10CAE0004C6AA1460C6AA046CF698E694D690C69F3
:10CAF000CB688A6808684968704700604160826056
:10CB0000C360046145618661C761444604624C4666
:10CB10004462544684625C46C462644604636E4662
:10CB2000466374468463C46B043C043925680D6015
:10CB3000B442F9D1C76986694569046970470060E4
:10CB400041608260C360046145618661C76144469B
:10CB500004624C464462544684625C46C462644645
:10CB600004636C4644637446846304697047846B51
:10CB7000A646446BA546046BA446C46AA346846AD1
:10CB8000A246446AA146046AA046C7698669456907
:10CB90000469C368826800684168704710B5041E64
:10CBA0000CD009F095FA431EE3189C4208D2227873
:10CBB0001978013B21705A700134F6E7014810BD25
:10CBC0000020FCE717FCFFFFF0B585B002900C1EBB
:10CBD0002AD00023C217161A56400193019B300039
:10CBE0005D1C63190A215F1E039303F071FF494224
:10CBF0003031397030000A2103F084FE47420600CC
:10CC0000002F0FD1029B002B04DA2D23019D039AE4
:10CC100002351370002320006355FFF7BFFF380073
:10CC200005B0F0BD0195D9E7004FF8E717FCFFFF0D
:10CC30000268084B406810B5C018C0001018030007
:10CC40009A4205D81C688C4202D31800083BF7E7CB
:10CC500010BDC046FFFFFF1F70B5002817D1114D52
:10CC60002E68002E11D1083009F0A3F90660466045
:10CC70000D4E04003368002B02D108F003F9306038
:10CC800023682C609B00F3586360286870BD012204
:10CC9000064907480B681340F8D1026043600A60F8
:10CCA000F4E7C046042500201025002000250020C0
:10CCB00008250020002370B50400016043609942FC
:10CCC0000AD1064D2B68002B02D108F0DBF8286052
:10CCD00023689B00EB586360200070BD1025002086
:10CCE000436810B50400002B02D1044809F06FF826
:10CCF000606803681B69984710BDC04693710200C5
:10CD0000436810B50400002B02D1044809F05FF815
:10CD1000606803689B69984710BDC0469371020024
:10CD2000436810B50400002B02D1044809F04FF805
:10CD3000606803685B6A984710BDC0469371020043
:10CD400010B5040002F06AFB034B1B68002B01D0F6
:10CD50002000984710BDC04618250020F0B58BB0C4
:10CD6000050001F0C9FD002000F0D2FB03680700B8
:10CD70001B6998473B6804009B69380098473B68EB
:10CD800006005B6A380098470300288810380B2893
:10CD900062D803F023FD063E6161615B61616167FA
:10CDA0006179AF882000390008F07AFC22006B7BA3
:10CDB000583201931378A8799C46022361460B43AD
:10CDC000137004AB1F80012304AA9370D07013006A
:10CDD0006A461279E91D9A722B000622163305A8BD
:10CDE000099309F019F929000B2004AB06220E3132
:10CDF000C01809F011F994346368A360A068002892
:10CE00002AD0C36804A99847A368002BF4D01B69F3
:10CE1000F3E720002F49AF8808F042FC22000220EF
:10CE200058321378A9798343137004AB1F8099702B
:10CE3000A0346368A360A06800280DD0C36804A96B
:10CE40009847A368002BF4D01B69F3E75B69A888B7
:10CE5000A91D002B00D098472900300008F086F962
:10CE60000BB0F0BD636E002BF6D0AF79A366A06E59
:10CE70000028F1D0C36839009847A36E002B01D178
:10CE8000636EF3E71B69F1E7012269460D27AB7B6F
:10CE9000EF571A4001925A07920FDB080A720B7380
:10CEA0000622E91D04A809F0B7F86A46127904AB16
:10CEB000DA716A46127A9F711A726A46127B2000F2
:10CEC0005A722B000F3307938C348030236804A9E7
:10CED0009847C1E7FFFF00000723D72802D9024B7C
:10CEE000186000231800704714250020014B1860BB
:10CEF0007047C046182500201FB58022A323D20505
:10CF0000DB00D3580820DB0700D405301C4B482237
:10CF10001C4902F003FD00280AD080B2002807D186
:10CF2000BFF34F8F184B194ADA60BFF34F8FFEE7FC
:10CF3000002302A8029301330370154B1B68436062
:10CF400007F069FD002802D0072005B000BD684643
:10CF500007F05FFD0028F7D1694607F058FD00286B
:10CF6000F2D10C4802F00AFD80B20028EDD10A4847
:10CF700002F00EFD80B20028E7D100F083FCE4E768
:10CF80001B4A02001C25002000ED00E00400FA0509
:10CF9000142500205DCD010041CD010080B20028A4
:10CFA00007D1BFF34F8F034B034ADA60BFF34F8FB4
:10CFB000FEE7704700ED00E00400FA050048704706
:10CFC000FFFF0000F0B597B00593036807AD1B683D
:10CFD0000491039311002B00060091C991C3002412
:10CFE000D36821000C220CA8EB602C6109F030F80A
:10CFF00022000B4B10940F9311AB1C7019190134C4
:10D000004A70102CFAD15A820193059B2A00009392
:10D0100004990CAB3000039CA04717B0F0BDC0468C
:10D020003D4B020070B5FC30046C0500002C0DD1A6
:10D03000242008F0BEFF064B44608361054B8460EA
:10D04000C46004614461C46103602864286C70BDDD
:10D05000946702007C68020070B5FC30C56B040068
:10D06000002D11D1342008F0A4FF084B85604360E7
:10D07000074B45610361074B0562C361064BC562FF
:10D080008362064BE0630360E06B70BDC46702001F
:10D09000B467020024680200346802004468020099
:10D0A0007FB503791548002B22D0154E154C3378E7
:10D0B0002000002B1CD102AD280007F01CFD002829
:10D0C00010D16B88592B0DD12B78AA88D91F012933
:10D0D00010D800920C4A2021200005F007FA012305
:10D0E000337004E020220949200008F0F8FF2000F6
:10D0F00004B070BD0092064AEDE7C046B67102006A
:10D10000F2270020D2270020D8710200D07102003F
:10D11000F571020010B50400024B08C007F0CBFD0A
:10D12000200010BDB467020010B50400024B08C017
:10D1300007F0D6FD200010BDC4670200064B70B595
:10D14000040003604068002804D0056908F02DFF42
:10D150002800F8E7200070BDA4670200064B70B5F8
:10D16000040003604068002804D0056908F01DFF32
:10D170002800F8E7200070BDD4670200064B70B5A8
:10D18000040003604068002804D0056908F00DFF22
:10D190002800F8E7200070BDE4670200064B70B578
:10D1A000040003604068002804D0056908F0FDFE13
:10D1B0002800F8E7200070BD24680200064B70B517
:10D1C000040003604068002804D0056908F0EDFE03
:10D1D0002800F8E7200070BD34680200064B70B5E7
:10D1E000040003604068002804D0056908F0DDFEF3
:10D1F0002800F8E7200070BDC8660200064B70B535
:10D20000040003604068002804D0056908F0CDFEE2
:10D210002800F8E7200070BDD8660200064B70B504
:10D22000040003604068002804D0056908F0BDFED2
:10D230002800F8E7200070BDE8660200064B70B5D4
:10D24000040003604068002804D0056908F0ADFEC2
:10D250002800F8E7200070BDF8660200064B70B5A4
:10D26000040003604068002804D0056908F09DFEB2
:10D270002800F8E7200070BD9467020070B5FC300C
:10D28000046C0500002C0DD1242008F092FE064B02
:10D2900044608361054B8460C46004614461C4617F
:10D2A00003602864286C70BD946702007C680200EB
:10D2B000104B10B5083303600F4B0400C36080238C
:10D2C0000E4A5B00C250C018FCF73CFE20000C4B1D
:10D2D000B830E360FFF7B2FF2000AC30FFF79EFFED
:10D2E0002000A030FFF78AFF20006C30FFF776FFA8
:10D2F000200010BDA8680200206902005C6A0200DC
:10D3000008670200F8B505000400AC356B68AB6037
:10D31000A868002807D0C36821009847AB68002B95
:10D32000F4D01B69F3E72500B0352868002804D045
:10D33000066908F03AFE3000F8E72200FC21286078
:10D34000583213780B40137023005C3318702000A0
:10D350000A3007F08EFD2000343007F08AFD606E41
:10D36000002804D0056908F020FE2800F8E7250011
:10D37000983560662868002804D0066908F015FE14
:10D380003000F8E72600A43628603568002D05D067
:10D390002F69280008F009FE3D00F7E720003560FE
:10D3A00029000C226C3008F053FE2000074BE56783
:10D3B000A36729000C22803008F04AFE2300044AAB
:10D3C0008C33903428001A602560F8BD214B020090
:10D3D000134B0200444AF0B50600C260A022434B42
:10D3E0001636083303600100002342820400320035
:10D3F00085B0037183600374838235311370013209
:10D400009142FBD1802580222000AD00D201F3772C
:10D410003584110000933830002300F0FBFD230019
:10D420002100403303931A002B0000255F31157053
:10D4300001328A42FBD1039AFC21D5772200603267
:10D440001380137920000B401371230068331D7083
:10D45000274B2567E3660C220021783008F0F8FDA1
:10D460002300270088331D60224B0837FB67843771
:10D4700000210C22380008F0EBFD1F4B1F4AFB6017
:10D480002300A0333D611A601D4A5D60DA601D4AC9
:10D490001D619A61DD61300007F0EBFC039807F035
:10D4A000E8FC194B601CE3602300C4331D705D7001
:10D4B0009D70FF3002F0BEFB8C235B00E550230023
:10D4C0001933FF335D618023104A5B00E250230073
:10D4D00001222000FE3352425A86023B9D63DD63E7
:10D4E0001D6405B0F0BDC04608670200A8680200D0
:10D4F000C8660200214B0200134B0200D8660200EE
:10D50000E8660200F8660200206902005C6A020018
:10D5100070B5074C2368002B07D1A020400008F00D
:10D5200048FD0500FFF756FF2560206870BDC04626
:10D530006425002070B50C220D000021040008F0C5
:10D5400087FD00232361024B25602000E36070BD4E
:10D550002F4B020070B500250400254B8580036029
:10D56000244BC5608360244B85614361234B456236
:10D570000362234B0563C362224BC56383632900A7
:10D580004430FFF7D7FF200029005830FFF7D2FFC3
:10D59000200029006C30FFF7CDFF1B4B22002360D9
:10D5A00023008032F83320C29342FCD126001D00B4
:10D5B000E936FF36280008220021083508F048FD2A
:10D5C000AE42F7D18E2300229B00E11804C6B1427F
:10D5D000FCD18E2300219B00E2540C4B0C4AE31833
:10D5E000A218198002339A42FBD1200070BDC046B8
:10D5F000F4670200A4670200B4670200C467020077
:10D60000D4670200E4670200F06802003A020000FA
:10D610006202000070B500200D00FFF779FF03687B
:10D620005B6A98472B780400142B1ED003D8132B69
:10D630000CD0002070BD152B1FD0222BF9D16B68A8
:10D6400018882369002BF4D09847F2E76B6801250E
:10D6500018889B78646819005A08DB0629402A401C
:10D660005B0F002CE5D0A047E3E76B68188899783A
:10D67000A368002BDDD09847DBE768688278130940
:10D680001207120F012A03D0022A0BD0002106E054
:10D69000013BDBB20021022B01D8064AD15C008895
:10D6A000E368E6E70421012BF9D00131022BF6D023
:10D6B000ECE7C0461A720200014B18787047C0466A
:10D6C000F3270020F0B51D000023304F87B00092F3
:10D6D0003A7806000C009A4204D101F0D3FE0028EB
:10D6E00003D00B23180007B0F0BD002D0ED003A906
:10D6F0002220039507F04AFC002807D006230828BB
:10D70000F0D01138434243410433EBE7002302AA2F
:10D710001000137000F0AAFE0028E2D101251C4978
:10D7200002220B782E40AB433343072693430193E9
:10D73000009B2C4033409340AC409C46019B02AA86
:10D740001C431C239C4363461C430E239B181880D8
:10D75000104B0C700393022303AC2371093002AB0E
:10D760000522C01808F058FC21000B4800F0E8FE24
:10D77000002807D033000428B4D0013B0828B1D0DA
:10D780000533AFE73D700300ACE7C046F327002048
:10D790008120002015D60100F427002010B507488D
:10D7A00000F0A6FF0023984206D00733042803D0D8
:10D7B000013B082800D00533180010BDF4270020D5
:10D7C000002373B501930F4B01AD1B780E002900A8
:10D7D0002B7001F051FA041E05D00423052800D057
:10D7E0000733180076BD3100280000F0E3FE230067
:10D7F0000028F6D007230428F3D0013B0828F0D0F6
:10D800000533EEE7F427002073B5114C0E00050038
:10D8100005222100684608F0FFFB012E03D0022EEE
:10D8200010D002230CE002222378B34393436946CD
:10D830002800237007F0A8FB0023984200D00B3388
:10D84000180076BD012322781343B343EFE7C046A7
:10D8500081200020094B10B51A7801000923002A05
:10D8600009D0074800F0DEFE0023984203D00333BE
:10D870000E2800D00333180010BDC046F327002047
:10D88000F42700201FB5002302ACA380104B01A891
:10D890000293C8235B00E380803BFF3B03700522BB
:10D8A0000C4907F08DFB80B200280FD1802080004A
:10D8B00007F082FB80B2002808D1200007F07EFB31
:10D8C00080B2002802D107F075FB80B204B010BD11
:10D8D000280090011D72020013B504680093A4682B
:10D8E00013000A000149A04716BDC046FFFF000013
:10D8F00037B506AC257804680195009324691300B8
:10D900000A000149A0473EBDFFFF0000F0B587B007
:10D910000D00002469466F4616004C800DAA0CA924
:10D920000988127839800193A2421BD10100447901
:10D93000F83194420DD908310F00083F3F88B742B3
:10D940001BD130212032920012580132D27F0A427C
:10D9500015D16A463100280007F036FB002808D1AF
:10D96000062407E06A463100280007F02DFB002856
:10D9700000D00324200007B0F0BD0132D9E7102108
:10D980000A4051424A41002002ACE3600CABA36064
:10D99000174B01322680A270A0809D4207D1FFF76D
:10D9A000B7FD03681B69984707F07DFE050021005D
:10D9B000280007F00DFB002482B2A242DAD0112A1F
:10D9C00013D00BD8082ACBD06A463100280007F0C4
:10D9D000FBFA05240028CDD0023CCBE7054B9A4248
:10D9E00003D0054B9A42EFD1BAE70524C2E7C046FF
:10D9F000FFFF00000330000001340000F0B5050017
:10DA000099B008002E240C9100F07EFA06ABE418C1
:10DA10001290220012A9012007F0D4FA002802D0A7
:10DA2000032019B0F0BD23880C9A0B9093830C9BB4
:10DA30000B9A1B7D934200D8C6E06B791D2B01D950
:10DA40000720EEE70C9B9B690D930B9B0D9A9B00A7
:10DA50009C586369002B07D1638B002B04D1631C96
:10DA6000DB7F022B00D1AAE0200000F04DFA23005A
:10DA70000026283312900E960D960F930F9B1B785D
:10DA8000B34221D9626AB3009F58342206AB9B1877
:10DA900000221A700023002113AAD21801335170FA
:10DAA000102BF8D1462206AB9B184A4A13A938001E
:10DAB0001A8007F00CFB002803D07B690D937B8B49
:10DAC0000E930136F6B2D9E76979A31C1F31C9005C
:10DAD0006918621CDB7FD27F089121002A31097806
