:020000021000EC
:108000000040002071100200AD100200AF1002000D
:108010000000000000000000000000000000000060
:10802000000000000000000000000000B11002008D
:108030000000000000000000B3100200B5100200B4
:10804000B710020035BB010029170200B71002006B
:10805000B710020000000000E9100200B710020093
:10806000B710020005190200B1150200B710020096
:10807000B7100200B7100200B7100200B7100200DC
:10808000B7100200B7100200B7100200B7100200CC
:10809000B7100200E9FF0100CD0C0200B71002008A
:1080A000B7100200B710020000000000000000003E
:1080B00000000000000000000000000000000000C0
:1080C00010B5064C2378002B07D1054B002B02D0AE
:1080D000044800E000BF0123237010BDC820002029
:1080E000000000008CBA0200044B10B5002B03D036
:1080F0000349044800E000BF10BDC0460000000076
:10810000CC2000208CBA0200164B002B00D1144B5F
:108110009D46402292029A1A924600218B460F46B3
:108120001348144A121A12F038F80F4B002B00D0E3
:1081300098470E4B002B00D09847002000210400E8
:108140000D000D48002802D00C4800E000BF0EF0E2
:108150002DF92000290011F0E3FD0EF011F9C046C1
:1081600000000800004000200000000000000000A7
:10817000C0200020842A0020000000000000000031
:108180004022F0B5036CD1B00793436C5242089380
:10819000836C079C0993C36C0A93036D0B93436D27
:1081A0000B990C93836D0D93C36D0E9310ABD21886
:1081B0000E9B0F930D9B05930C9B04930A9B0693B8
:1081C000099B0393089B029300230193019B0F2BB0
:1081D00000D978E09B00C718C55CFB782D061D43CD
:1081E0007B781B042B43BD782D022B43136406239D
:1081F0000D000F00DD410533DF413B000F006B40F8
:108200001925EF413D005D40019B3E4F9B00166CE0
:10821000FB58049F9B19EB18059D0F408D437D4033
:108220005B190F9D27005B1902252600EF410B35D6
:10823000EE41162577402600EE41029D7740039ED1
:108240000432754025400F95029E039D2E40350057
:108250000F9E6E40069DBF195D19DF19019B01330A
:108260000193039B0693059B0F93019B402B21D108
:10827000029A079B9446DF19089B039A1C19099BD5
:108280000764634494468364049A0A9B4464634489
:108290009446C3640B9B059A5D190C9B05655918A0
:1082A0000D9B41656344944683650E9B6344C3659F
:1082B00051B0F0BD049B04910593029B29000294E8
:1082C00003933C0082E7936B11261F00F741BC46E5
:1082D0001F000236F74166469B0A77407B40566A8C
:1082E00017685568F719DB1907262F00F741BC46B8
:1082F0002F000B36F7416646ED0877406F40DF19D7
:10830000176474E788A30200002813D00023436693
:1083100003668366084B0364084B4364084B83641D
:10832000084BC364084B0365084B4365084B8365E2
:10833000084BC3657047C04667E6096A85AE67BBF0
:1083400072F36E3C3AF54FA57F520E518C68059B37
:10835000ABD9831F19CDE05B70B5041E1ED0002978
:108360001CD00D008E18B54218D0A36E2A78E254A6
:108370000133A366402B0FD12000FFF701FF236ECE
:10838000074A934202D9626E0132626680229200ED
:108390009B1823660023A3660135E4E770BDC04641
:1083A000FFFDFFFF70B50E000400C4B029A8150042
:1083B000FFF7AAFF3200210029A821ACFFF7CCFF6C
:1083C000210029A80EF04EFBE27F23781E92A27FA7
:1083D00041211D92627F28001C92227F1B92E27E27
:1083E0001A92A27E1992627E1892227E1792E27DE4
:1083F0001692A27D1592627D1492227D1392E27CE8
:108400001292A27C1192627C1092227C0F92E27BEB
:108410000E92A27B0D92627B0C92227B0B92E27AEF
:108420000A92A27A0992627A0892227A0792E279F3
:108430000692A27905926279049222790392E278F7
:108440000292A278019262780092024A0EF020F81D
:1084500044B070BD38B3020010B50400034B036094
:1084600040300EF05AFD200010BDC04690A402001E
:10847000F0B58FB01E4908A801F08EFB1D4D08A96C
:108480007822280002F052FF08A80EF046FD0F23C4
:108490000322072104A803F01BFA012104A803F01A
:1084A00063FA00221E2108A80FF045FC00270723CD
:1084B000114E02AC237022000097053B1C213000B6
:1084C00003F006F80223220000971C21300002F07E
:1084D000EFFF0A4903A801F05FFB227803A92800F7
:1084E00002F024FF03A80EF018FD0FB0F0BDC04647
:1084F000CAB30200E0210020A8210020CFB302006F
:10850000F0B5E6242E4D640085B02859C82602F047
:10851000FFF876002B480EF0F3FF0190285902F087
:10852000D3F9592805DC285902F0CEF9264900284C
:108530001FDA285902F0C8F9B32814DD28590E278C
:1085400002F0C2F9FF37B84232DD285902F0BCF917
:108550006823FF33984217DC285902F0B5F9B84276
:1085600012DD1A4905E0285902F0AEF95928E5DD77
:10857000174903A801F010FB320003A9154802F0C7
:108580000DFE03A80EF0C9FCC82001F0D3F8019B32
:10859000002BBFD0104903A801F0FEFA782203A9EE
:1085A0000C4802F0C3FE03A80EF0B7FC05B0F0BD06
:1085B000285902F089F90949B328C6DDD9E7C04630
:1085C000F02000208022002031B4020035B40200E7
:1085D000E8B90200E021002037B4020033B4020001
:1085E000084A002390420BDB02000133F93207DB1B
:1085F0000133FA2804DD044A0133904200DD0133DF
:108600001800704713FDFFFFEE020000F0B585B0C3
:108610001F4903A801F0C0FA1E4D782203A92800C3
:1086200002F084FEE42703A80EF077FC7F001A4CCA
:10863000E0590EF031FFFFF7D3FF0190E0590EF043
:1086400032FFFFF7CDFF154E040030000EF062FD43
:108650006B4622B20421595E3000FF2301F04CFB2F
:108660000F480EF04DFF0400642001F063F8002C69
:10867000DDD00C4903A801F08FFA782203A9280065
:1086800002F054FE03A80EF048FC05B0F0BDC04651
:10869000D7B30200E0210020F02000205422002067
:1086A0008022002037B40200F7B50700C8266846CC
:1086B00001F0DEFA00247600781E03280FD809F0B6
:1086C00021FA023B3D3F1F4BE15C01A80EF04FFC3D
:1086D00001A968460EF08BFC01A80EF01EFC69464D
:1086E00001A80EF07CFC184D01A928000FF00BFE2C
:1086F00001A80EF012FC694601A80EF070FC3200D1
:1087000001A9124802F04AFD01A80EF006FC01344E
:10871000642001F00FF8402CCED10D4901A801F0E2
:108720003BFA01A928000FF0EEFD01A80EF0F5FBC1
:1087300068460EF0F2FBF7BD064BC5E7064BC3E7F4
:10874000064BC1E7EA27002054240020E021002046
:10875000C3B302002B2800206C280020AD28002085
:1087600010B507480EF0CCFE002806D105480EF0E3
:10877000C7FE0028F5D0022010BD0120FCE7C0464E
:108780005822002080220020F0B587B00A220190F4
:108790001F4903A811F0E5FC00211E480EF0ADFEB4
:1087A000962000254000962600F0C4FF2C0076009D
:1087B00003AB1F5D02A839000EF0D9FBC82202A945
:1087C0005200154802F0EAFC02A80EF0A6FB13487E
:1087D0000EF096FE002807D0019B5F55032D14D0A4
:1087E0003000013500F0A6FF0A480EF089FE00288F
:1087F000DED0092C04D1300000F09CFF0024D7E724
:108800003000013400F096FFD2E7002007B0F0BD41
:10881000B9B3020080220020E0210020582200206D
:10882000032370B505000600CC171C406418A41083
:10883000731B9C4213DD0DF0DDFD0CF025F80022CA
:10884000084B0BF031FAF82300229B050BF02CFAB1
:108850000BF0E4FF044B1B5C33700136E8E70020AB
:1088600070BDC04600004F403CB4020010B50C4A39
:108870000C4B117819705178597091789970D278A1
:10888000DA700022845C991801320C711D2AF9D12A
:108890001800054A2421FFF785FD002010BDC046C1
:1088A000902000202F290020EE28002000B593B052
:1088B0006946234B1A780A705A784A709A788A70F7
:1088C000DB78CB7004231F4968461A1F8A5CC254A8
:1088D0000133452BF8D11C4A2421FFF763FD69467B
:1088E0001A4B68461A780A705A784A709A788A70D1
:1088F000DB78174ACB702421FFF754FD6946154BEE
:1089000068461A780A705A784A709A788A70DB78C2
:10891000114ACB702421FFF745FD69460F4B68468D
:108920001A780A705A784A709A788A70DB780C4AFA
:10893000CB702421FFF736FD002013B000BDC046E8
:1089400080200020EE280020EA270020842000203C
:108950002B280020882000206C2800208C2000205C
:10896000AD28002070B588B0644907A803F02AFA42
:1089700007A905A801F020F907A80EF069FC604CD2
:108980002368022B04D100225E4B1A60012323606E
:108990005D4907A801F000F907A905A80EF036FB0C
:1089A000050007A80EF0B9FA002D14D05748FFF7BC
:1089B0005DFFFFF77BFF02210022524B07A81A60E0
:1089C00021600EF0C7FA782207A9514802F0AEFCE8
:1089D00007A80EF0A2FA4F4907A801F0DDF807A991
:1089E00005A80EF013FB050007A80EF096FA002D5F
:1089F0001DD0494D4949280011F005FC002854D1EB
:108A0000474906A801F0E6F906A907A80EF06BFB96
:108A1000012378225B4207A93D4802F0ADFC07A87C
:108A20000EF054FB06A80EF051FB022323602168D0
:108A3000002918D105A80EF00FFB0EF084F8394D6F
:108A4000324B2E680100985507A80EF090FAC82204
:108A500007A952002E4802F0A1FB07A80EF05DFA0C
:108A60002B6801332B602368012B19D1002105A845
:108A70000EF0F2FA0EF067F8224C274B2568010041
:108A8000585507A80EF073FAC82207A952002048CB
:108A900002F084FB07A80EF040FA2368013323603C
:108AA00005A80EF03AFA08B070BD1F49280011F071
:108AB000AAFB002802D1FFF7DBFCB6E71B49280020
:108AC00011F0A1FB002802D1FFF7A0FDADE7184986
:108AD000280011F098FB002802D1FFF711FDA4E750
:108AE000144907A801F058F8782207A9084802F0AD
:108AF0001DFC07A80EF011FA97E7C0465424002089
:108B0000EC200020E4200020DDB3020094290020A6
:108B1000E0210020C3B3020053290020EA270020EF
:108B2000E5B30200E82000202B2800206C2800205C
:108B3000AD2800202BB40200F7B5494D8021280054
:108B4000FFF76EFE2800FFF791FEFFF7AFFE4548E6
:108B500003F036F8684601F08BF8434E3468002C79
:108B60003CD142480EF0CCFC0028F6D0295D01A88B
:108B70000EF0FDF901A968460EF039FA01A80EF0D1
:108B8000CCF9694601A80EF02AFA394F01A938003C
:108B90000FF0B9FB01A80EF0C0F9694601A80EF06C
:108BA0001EFAC82201A95200324802F0F7FA01A8C1
:108BB0000EF0B3F90134642000F0BCFD202CD5D1B7
:108BC0002D4901A800F0E8FF01A938000FF09BFB38
:108BD00001A80EF0A2F901233360BEE7642000F083
:108BE000A9FD264901A800F0D7FF782201A9214854
:108BF00002F09CFB962501A80EF08FF901246D0070
:108C00003768012F26D1210001A80EF0A3F9C82250
:108C100001A95200174802F0C1FA01A80EF07DF92F
:108C200012480EF06DFC002806D02000FFF73CFD36
:108C3000280000F07FFDE3E711480EF061FC0028FA
:108C4000DED0042C04D1280000F074FD3C00D7E7EE
:108C50000134EDE768460EF060F90020FEBDC04625
:108C6000942900203C240020EC20002058220020E1
:108C700054240020E0210020DDB302007BB4020078
:108C80008022002010B5054C200000F08BF8044A2B
:108C90000449200011F02BFA10BDC046F02000203E
:108CA00000200020A98C0100CA23144A9B0010B5A3
:108CB000C2501C330400C0180EF02FF9D0239B00C3
:108CC000E0180EF02AF920009130FF3001F00CFC82
:108CD00020006930FF3001F007FC2000F03002F086
:108CE00079F82000D03002F0DFFC2000643008F07A
:108CF0002BF9201DFFF7B0FB200010BD1CA90200BE
:108D000013B5282011F0FAF91023040000931D2157
:108D10000C4B01220EF0A1F821000B4802F058FC88
:108D2000002805D020000EF0AEF8200011F0DBF98D
:108D30000648FA2402F044FFA400200000F0FAFCE8
:108D4000FBE7C04665890100C02100203C240020CB
:108D500037B5114800F0DEF8FFF702FD0F4D0400B3
:108D60002800FFF711FD290001A800F015FF782267
:108D700001A90B4802F0DAFA01A80EF0CEF8012C96
:108D800005D1FFF7D9FE00F04DFD00203EBD022CBD
:108D9000F9D1FFF7B5FFC046F02000209020002059
:108DA000E02100201423F0B5040093B000931922B1
:108DB0001821043003F04CF822002500260064320C
:108DC000B435132110001092B83608F0C9F8280005
:108DD0000FF014FB00221E2130000EF0ACFF20002B
:108DE000D03002F081FC2200F03211920621464A76
:108DF000119802F013F820000027012369301A00AF
:108E000000971121FF3001F07BFB2000913000978B
:108E1000012302221A21FF3001F072FB2000B93039
:108E20001A2301210222FF3002F01AFD300001F066
:108E3000FFF8E4225200A050300001F0BBFBE62313
:108E40005B00E0500100E42220005200D130119B71
:108E5000A2580095FF3001F0F1FE2000E13029001A
:108E60001C22FF3003F08CF9192320000F93013BE3
:108E70000E93013B0D93013B0C93013B0B93013B84
:108E80000A93013B0993013B0893013B0793013B84
:108E90000693013B0593013B0493013B0393013B84
:108EA0000293013B0193F930013B08220093072113
:108EB000013BFF300EF060FFCA239B00E018290041
:108EC00004F070F9D3239B00E0181D2102F0CEFDC1
:108ED000DD239B00E75010982770032110F043FE1C
:108EE00023002200200009499C33A0321C6011603D
:108EF0005760074A80305A610221012208F0A6F922
:108F0000200013B0F0BDC04698A402005F6B0200C1
:108F1000496B02000123F0B5067891B004001E40B1
:108F200060D10300D0331800039300F0E5FA00F09D
:108F3000DDF9282011F0E2F8050010300EF099F864
:108F4000664B18202B6011F0D9F80700644B0460C1
:108F5000082231000C300E930F9611F01EF90EA965
:108F6000381D082211F0FDF85E4BAF607B611223C3
:108F7000EE60AB802E626E622900039802F028FB3F
:108F8000002805D028000DF07EFF280011F0ABF876
:108F9000012322785449134323702300B43318006B
:108FA00004930FF031FA5149029004980FF02CFA13
:108FB00000270690642000F0BDFB3D003E0023002A
:108FC0006933FF33180005930EF09AFA00280BD18D
:108FD000029B002B11D1069B002B0ED14449454822
:108FE00000F088FC11B0F0BD20009130FF300EF091
:108FF00087FA0028ECD0182EEADC2000653029B270
:109000003AB2FF23FF30013500F076FEEDB2322098
:1090100000F090FB0136052D02D100250137FFB28B
:10902000029B192E06D0002BC9D02F49049803F0BB
:109030003BF801E0002BF8D1029811F054F80698A3
:1090400011F051F82A492C4800F054FCCA239B0027
:10905000E3180793DD239B00E3580893002B36D1D8
:1090600000F058F801000AA800F096FD0DF0FCFD94
:1090700008900DF0F9FD6B460990198C0CA80DF0C5
:1090800069FF099B0DA8190C0DF064FF0DAA0CA92E
:109090000BA80DF0CBFF0DA80DF03FFF0CA80DF0B5
:1090A0003CFF01230BAA0AA900930798039B04F035
:1090B000CFF80BA80DF031FF0AA80DF02EFFCC233E
:1090C0009B00E3580893DD23089A9B00E25021009F
:1090D000059AF031079804F0B5FA70E7FD03000037
:1090E000D16B0200916B0200BEB40200C9B4020051
:1090F0000020002008000020001C0020BFF34F8F3C
:10910000024B034ADA60BFF34F8FFEE700ED00E049
:109110000400FA05F0B58DB005AF192215493800E5
:1091200011F01FF80022144B05245A7180225205B9
:10913000566E01222500019402920393019930009A
:1091400008F070FD0800029908F0E6FC019B039905
:109150006B430193029B361A6B430293631E2C1BD5
:109160006C433C19225C1C1ECA54E7D108000DB0A8
:10917000F0BDC046D9B40200B4290020F0B597B0C4
:1091800018220021060010A811F007F8132110A8DA
:1091900010F031FE032110A810F0C3FE4C4B1B68E9
:1091A000002B00D10133DBB202934A4A0123002194
:1091B0000BA808F0B9F9484B9E4200D9002672B6B8
:1091C000464B64211D68464B30000793052408F088
:1091D0002DFD60435030281808900A21300008F017
:1091E00025FD0A2108F008FE6143503169180991F4
:1091F00030000A2108F000FE802361430024503132
:1092000069189B010A910193029B002B5DD00025F8
:1092100000272E1F07AB9B190593032C03D1802336
:1092200000249B01019307AB5B592E4A0393630013
:10923000D31804930023190006205843049A1618E3
:109240007678B4466246039EB25C10269446049A31
:10925000105C62460641164202D00120984001434C
:109260000133092BE8D1C9431F4B059A0901194065
:109270001268039B934225D1312F23DC00210BA8D8
:1092800010F008FFFA23159A1199DB0010680142CB
:109290001BD0013B002BF9D1019B01345B000193F2
:1092A000FA230137E4B25B009F42B6D10435102D9A
:1092B000AED1074B1B68002BA6D0029F013FFBB22B
:1092C0000293A1E7019B1943D9E7FFF717FFC046B7
:1092D0006C240020F0FF0000E703000004200020C1
:1092E00028B50200F2B40200F01F0000F8B5002318
:1092F000124C23600DF0AAFC002808D004212000A5
:109300000DF0A0FC002801D00D4B2360F8BD012218
:10931000A12704250B4B0C491A602268FF00486006
:109320004E68002EFCD0DE591202013D3243002D62
:10933000F5D1226001225A60E8E7C0466824002087
:10934000ED5EBC0B00D00040FCD00040F0B585B015
:109350001F000AAB1B880600029115000393002F23
:109360001BD0282010F0CAFE6B4604001989039B0D
:10937000AAB200933B000DF070FD336821005B68DA
:1093800030009847002806D020000DF07CFD20001A
:1093900010F0A9FE024805B0F0BD0248FBE7C04648
:1093A00016FCFFFF17FCFFFF0B4B70B51C68002C71
:1093B00010D0656D00F0ACFBA36C002901D1834295
:1093C00006D820000DF075FC044920000DF05FFC6C
:1093D0002C00ECE770BDC0467424002094240020CB
:1093E000F0B593B007932A4B04AC1E680490059126
:1093F0000692002E4AD0274B258867881C680023D8
:109400000293002C2ED0636D23480393A36C9AB271
:10941000A36C1B0C99B2854214D12048824211D111
:10942000002B01D0B9420BD1029B002B08D12000A8
:109430000DF03FFC1A4920000DF029FC0123029396
:10944000039CDEE7002A01D09542F9D1002B01D020
:10945000B942F5D120000DF02CFC114920000DF08F
:1094600016FCEDE70F4BEB18012B0FD910233A0038
:10947000009329000C4B08A80DF0EFFC336808A9F5
:109480009B683000984708A80DF0FDFC13B0F0BDB4
:1094900070240020A0240020FE030000FF03000031
:1094A0009424002002FCFFFFE193010010B572B686
:1094B0000B4B1C68002C08D020000DF0FAFB002399
:1094C000E364084B2000E36310BD62B65C2010F03B
:1094D00015FE5C220021040010F05FFEEFE7C0469D
:1094E0009824002000400020024B187801231840E7
:1094F0007047C046BA290020F7B50600FFF7F4FF11
:10950000051E33D11A4C2660FFF7D0FF194B1A49BC
:1095100018600DF0BCFBFFF7C9FF184B1860184B23
:109520004363184B8363206800280ED0C027164E73
:109530002A00330015490097FFF708FF0097330012
:109540002A0013492068FFF701FF0C2010F0D6FD18
:109550000023838083710F4B03600F4B836000F007
:10956000EFFA01230D4A11780B431370F7BDC04683
:1095700070240020A4240020942400209C24002097
:10958000FC3F0020796D0200E1930100FF03000021
:10959000FE030000B8A40200A9930100BA2900202C
:1095A000F7B506000D0017000193002802D1002432
:1095B0002000FEBD0029FAD0FFF778FF041EF6D088
:1095C000074B019A4363066045608760054B002A9C
:1095D00000D0054BA363054920000DF058FBE7E7D9
:1095E000FC3F0020436D0200616D020094240020C6
:1095F000024B1868434258417047C04694240020EB
:10960000002310B504499C006258002A01D00133A0
:10961000F9E76050100010BD7C240020002310B535
:10962000044A99008C58844201D00133F9E70020A4
:10963000885010BD7C24002010B50024084BA200E7
:10964000D058002802D003685B6898470134062C84
:10965000F4D1044B1B68002B00D120BF10BDC046C5
:109660007C24002094240020F8B5FFF73DFF00285B
:109670001CD02A4D2C68E36CDA0718D502273B432F
:10968000E364274B1E680423F26C30001343F36439
:10969000636BF3630DF033FB3000716C04F0C7FBB8
:1096A0002868C36C3B4201D004F0FBFBF8BD1D4FA2
:1096B0001D4E3A683168002A1ED129602A689142FD
:1096C00008D11B0706D52C60FFF7B6FF3B68002BBF
:1096D000FAD02B6029688C42E8D03368994214D1C3
:1096E000124B4B63124B8B6320000DF008FB296873
:1096F000626C4B6C20000DE0206DB84203D1606DB0
:10970000002800D002002A60D8E79C42ECD1002259
:1097100010004B6C04F04AFBC8E7C046A4240020AC
:1097200078240020942400209C240020FC3F00206A
:10973000796D020070B50500FFF7D6FE002803D151
:10974000280010F0E7FB70BD0C4B1C68E36CDB07D6
:1097500006D5FFF7ABFE0A4B1860002800D00400C6
:1097600000F0D6F92D18A56420000DF0A2FA0549E5
:1097700020000DF08CFAFFF777FFE4E7A424002027
:109780007824002074240020F0B51E4B1E4F1C6866
:109790003B6885B006000391002B30D0FFF7A4FE94
:1097A00000282CD0E36CDB070ED5FFF77FFE174BAC
:1097B000051E186008D00DF07CFA154928000DF040
:1097C00066FA2C00FFF750FF039B20001B04334375
:1097D000A3640DF06EFA20000E490DF058FA0E4BFE
:1097E0000024F318012B07D9C0230093039A0B4BD5
:1097F00031003868FFF7AAFD200005B0F0BD084C25
:10980000FAE7C046A4240020702400207824002019
:1098100094240020A024002002FCFFFFE19301001B
:1098200016FCFFFF10B5FFF75FFE002809D0054CBE
:1098300020680DF03EFA044920680DF028FAFFF781
:1098400013FF10BDA424002098240020F7B50700C2
:109850000D0000282ED0FFF747FE00282CD007244B
:10986000164E3068C36C1C4007D0154A29003800DA
:109870000DF036FA00242000FEBD04F0FAFA0221B1
:109880003268D36C1940019103D003218B43D36418
:10989000F1E701242343D3642800B8473268D36C2E
:1098A0001900A143D164019C5B07E4D528000DF0A9
:1098B0004FFAE0E7034CDEE7034CDCE7A42400208A
:1098C000516D020017FCFFFF16FCFFFF020010B5F0
:1098D000014B12CB12C210BDA8240020034B1A6802
:1098E000034B1A607E225A607047C0460420002055
:1098F000A824002070B5114E3278022A1AD0814275
:109900001AD90C1A072C17D90D00032305432B4035
:1099100012D172B60A4DD2005051AA18516080225D
:10992000A40812061443046032780132327062B621
:10993000180070BD0348FCE70348FAE7BC29002083
:10994000B024002013FCFFFF17FCFFFF70B5134C81
:1099500006002378124D002B0CD1124912482B70AF
:10996000FFF7C8FF114B984202D11E20FFF706FCFB
:109970000123237000242B78A34209DD0C49E30066
:10998000C91830000DF0FEF9002805D10134F2E7C6
:109990001420FFF7F3FB002070BDC046BB29002058
:1099A000BC29002000380020882A002017FCFFFF77
:1099B000B024002070B5002819D0104B10491C7835
:1099C00000239C4216DDDA005558854210D28A18D1
:1099D000526882420CD9041F2368002B02DC1E202F
:1099E000FFF7CCFB802322681B061343236070BD66
:1099F0000133E6E71E20FFF7C1FBF8E7BC29002092
:109A0000B024002070B5051E14DD0B4E0B4C3368DE
:109A1000002B02D0206810F008F9FA2120680024F9
:109A2000074B89008361C4626943356010F005F912
:109A3000200070BD0348FCE7C0240020F024002073
:109A4000ED9A010017FCFFFFF8B5114F06003D68C5
:109A5000002D0AD1302010F051FB040007F0DAFA93
:109A60000C4BA5612360E5623C600B4D2B68002B1D
:109A700009D1102010F042FB040010F02AF9200058
:109A80002C6010F000F93000FFF7BCFFF8BDC046B5
:109A9000F0240020C4AC0200EC240020014B186824
:109AA0007047C046C024002070B50D4C2368002BC1
:109AB00003D00C4B1B68002B02D10620FFF7C4FF1C
:109AC000206810F0F7F802000749C3170D684E68C8
:109AD0005219734120680A604B6010F0F1F870BDB4
:109AE000EC240020F0240020C020002010B5FFF757
:109AF000DBFF0024054BA200D058002802D00368E9
:109B00001B68984701340A2CF4D110BDC4240020EE
:109B100010B5FFF7C9FFFA22034B92001868596885
:109B2000002308F0E7F910BDC020002010B5FFF7B2
:109B3000BBFF024B1868596810BDC046C02000200A
:109B40000B4B10B51B680400002B03D0094B1B689E
:109B5000002B02D10620FFF777FF0023064A990069
:109B60008858002801D00133F9E78C5010BDC04659
:109B7000EC240020F0240020C4240020002310B591
:109B8000044A99008C58844201D00133F9E700203F
:109B9000885010BDC424002010B50400002902D054
:109BA0000B78002B03D1034B2360200010BD0DF078
:109BB000BBF9FAE7C8A40200F8B5040008000D00DC
:109BC0000DF082FB002803D1134B23602000F8BD69
:109BD00028000DF079FB0530FFF7B8FE20600DF08E
:109BE00076FB28000DF070FB23685880236828005E
:109BF0001E1D0DF066FB070028000DF065FB390007
:109C00000200300010F0ADFA280026680DF05CFB71
:109C1000002336183371D9E7C8A40200F8B5040050
:109C20000E00150000290AD00B78002B07D0002A5F
:109C300005D0080097B210F0F0FA874203D90B4B19
:109C400023602000F8BD681DFFF780FE20600DF046
:109C50003EFB23682A005F8023683100181D10F046
:109C600080FA23685D1900232B71EAE7C8A402007B
:109C7000014B03607047C046C8A4020010B50548F8
:109C8000054C20600DF026FB044A0549200010F029
:109C90002EFA10BDC8A40200F424002000200020E9
:109CA0001B6F0200084B73B51C680500002C0AD01E
:109CB0000100266808310822684610F052FA0CCDDF
:109CC00031682000884773BDF8240020014B0360F1
:109CD0007047C046D0A4020010B50400002903D18B
:109CE000044B0360200010BD016008000DF0F2FA83
:109CF000F8E7C046D0A4020030B500684488A1420D
:109D00000CDA8588AA4209DA002907DB002A05DB7C
:109D10005443401800198371002030BD0048FCE70F
:109D200017FCFFFFF0B5070085B00E001D000029ED
:109D300021DD002A1FDD002B1DD0046863880393FA
:109D40008B4200DD0391A3880293934200DD0292CF
:109D5000002306340193019B029A93420EDA2900F4
:109D60002000039A10F0FDF93B68AD195B88E418F8
:109D7000019B0133EEE7024805B0F0BD0020FBE790
:109D800017FCFFFFF8B504000D0016001F000029A6
:109D900001DB002A02DA0E4B2360F8BD10004843B5
:109DA0000630FFF7D3FD20600DF091FA23685D8047
:109DB00023689E80002F06D03B003200290020003F
:109DC000FFF7B0FFE9E720000DF0A4F9E5E7C04692
:109DD000D0A40200F7B506000D1E03D1244B03608A
:109DE0003000FEBD00200F000400010001903B7810
:109DF000002B1AD03022524294469C446246092AD3
:109E000011D90A2B0AD1019B241801330193A142D5
:109E100000DA2100002004000137E8E70028FBD029
:109E200001340020F8E70120F6E70127019A09B282
:109E300012B230007F42FFF7A5FF39000A203368D5
:109E40009A1D2C78002CCBD02300303B092B08D84E
:109E5000FB43DB173B4043431B19303B1F000135DD
:109E6000EFE7002FFBDB177001320F00F7E7C0466A
:109E7000D0A40200F0B5040089B006A80E0002923A
:109E80001D00FFF723FD236802995A88914235DAB5
:109E90009B889D4232DA1F2E30D9079B01939E4248
:109EA0002CDC0523002273430393069B0493039B3E
:109EB00004999B18A03BCB5C00210593AE18029B34
:109EC000CF1823685888019087420EDA9888B042EC
:109ED0000BDDDB1910270F41019870431B18059803
:109EE0000740781E87417F429F7101310529E6D1E5
:109EF0000132052ADBD1002009B0F0BD0048FBE7A4
:109F000017FCFFFFF7B50468070063880E1E019376
:109F10001EDD994218DA0023063400933B68009A4C
:109F20009B889A4212DA019BA1199D1B2A002000EE
:109F300010F017F9601931000DF0CFF83B685B881D
:109F4000E418009B0133E8E70DF0E4F8002000E09E
:109F50000048FEBD17FCFFFF10B50548054C20600A
:109F60000DF0B8F9044A0549200010F0C0F810BD02
:109F7000D0A40200FC24002000200020CD700200AC
:109F800010B5054C012120000DF08CF9034A04495D
:109F9000200010F0ACF810BD0025002000200020AB
:109FA000517202000388074A10B50120934208D07D
:109FB000834202D00020DB0703D41E20FFF7DEF827
:109FC000002010BDFFFF00000048704716FCFFFF97
:109FD00010B53220FFF7D2F8004810BD16FCFFFF85
:109FE00010B5124C002308348280046041620224C0
:109FF00014220100837184720363838602813631E7
:10A000000A78C360A243F134224003614361836153
:10A01000C36103620A70020040321370021DD387CD
:10A02000013343878387C38710BDC046F0A4020075
:10A03000F0B5544F97B03B6806000593002B00D055
:10A040008BE006AC0B331C222121200001F040FCE8
:10A050000EAD0B231D2222210AA801F039FC0B238F
:10A060001B222321280001F033FC082010F046F8C1
:10A070000122059B110004900EF0F1FC3A21300002
:10A080000EF047FA00281DD0A38812ADAB80A3794B
:10A090005C20AB713C4B1293A3681493237B2B730E
:10A0A000637B6B73A37BAB7310F028F804230193DD
:10A0B000363300932A00049B3100040002F064FB55
:10A0C0003C604AE0322130000EF051FA00281CD0EA
:10A0D000A38812ADAB80A3795C20AB712A4B12939D
:10A0E000A3681493237B2B73637B6B73A37BAB738A
:10A0F00010F004F8042301932E3300932A00049BEC
:10A100003100040002F0DEFCDAE73C2130000EF002
:10A11000E9F900282CD0AB8812ACA380AB79A4203D
:10A12000A371194B1293AB6814932B7B23736B7B36
:10A130006373AB7BA3730FF0E1FF0523050002936C
:10A14000013B0193383300932200049B310002F05D
:10A1500039FA0E4B3D6044351D600C4B094C1868B4
:10A16000002802D021680DF048FA206817B0F0BD31
:10A1700044200FF0C3FF042204990400FFF730FFCE
:10A180009EE7C04604250020E0A402000825002028
:10A19000F0B56149C56885B08D4254DA03000222EA
:10A1A00036331B78134059D104698C4264DA0200BB
:10A1B00036321278520768D4426901920200019E39
:10A1C00040328E426FDA010036310978090774D4C3
:10A1D000002B7DD113780293002B16D006000127A7
:10A1E000011DCB8F363601339BB2CB870396367871
:10A1F000BC46374000D188E01D2B06D963469E43FC
:10A20000039B1E700023CB8713700DF0ADF8434AFB
:10A210000723904276D94249043B8D4272DBC82223
:10A220000133920095426DDC023B8C426ADB013BBC
:10A23000944267DC01980433884263DB0133904227
:10A2400060DC00235EE0C822002352009542ABDDB3
:10A25000030036331A7800239207A5D401230600A1
:10A260001F00363632785408A7433C0002279C4032
:10A27000BA432243327097E7C822520094429BDDD2
:10A28000020036321278520796D406000122363682
:10A2900033789F08BA439700042293431A003A4345
:10A2A0003270012388E7C821019E49008E428FDD6C
:10A2B00001003631097809078AD4010001263631B8
:10A2C0000B78DF08BE430827F600BB4333430B700F
:10A2D0001378032B00D97DE70133DBB21370012B18
:10A2E00003D10021031DD98774E7042B00D071E747
:10A2F000020036321178033B0B4313700023043005
:10A30000C3870B33180005B0F0BD092B00D87CE7DC
:10A31000029BCF87013B77E770FEFFFFFF700200D3
:10A32000E0FCFFFFF0B5040087B0C0680AF0ACFAAB
:10A330000090019120690AF0A7FA049005916069E4
:10A340000AF0A2FA02000600802000060B180F0097
:10A35000009801990AF04EFC0AF022FBE062051C0D
:10A360000AF00AFC0390281C0AF0C8FB051C03989D
:10A370000AF0C4FA009A019B09F096FC0090019142
:10A38000281C0AF0BBFA32003B0009F08DFC0200E9
:10A390000B000098019909F0F9FE02000B000498E7
:10A3A00005990AF027FC0AF0FBFA0022051C00239D
:10A3B0003000390007F050FD002806D1A5620223C5
:10A3C000A2791343A37107B0F0BD0021281C07F048
:10A3D0007DFD0B4E002811D10A4F281C0AF08EFA81
:10A3E00002000B003000390009F0D0FE32003B00C3
:10A3F00008F034FD0AF0D4FAA062E0E7024FECE77F
:10A40000EA2E4454FB21F9BFFB21F93F70B5C36923
:10A41000C1681A68451D8AB00400EB7F114255D00F
:10A42000002B58D1EB7F082B0DD90122A3791342C1
:10A4300009D11343A371A188130006A80CF023FED1
:10A44000FFF766FB2062EB7F012B23D80123A27963
:10A450001A421FD00025A188A571022202A80CF083
:10A4600012FEA31DDE7F012E14D1FFF751FB2B003E
:10A47000226A801A994100900191019BA188AB4208
:10A4800003D1174B009A9A4227D90123042206A828
:10A490000CF0F9FD0322A3791340012B14D1FFF72F
:10A4A00037FB0023226A801A9941994202D10D4B51
:10A4B000984209D90223A279A1881343A3710522E6
:10A4C000012306A80CF0DFFD0AB070BD0B2BA9D844
:10A4D0000133EB77A6E7013BFBE733000322D6E726
:10A4E000E7030000DB05000010B50400034B083350
:10A4F0000360FFF743FB200010BDC04624A5020007
:10A50000F0B5070000250E00040085B002930AABE9
:10A510001B78083703930F4B019208330360858043
:10A5200085712900182238000FF037FE039A310098
:10A5300038000FF065FC019B029AA380A31DE67111
:10A54000DA77631D25622000DD77FFF7F9FA200036
:10A5500005B0F0BD24A502000048704716FCFFFFBF
:10A5600010B53320FEF70AFE004810BD16FCFFFFB1
:10A57000002310B50400838083710D4821640830E6
:10A5800020608020C000A061E0612062E3602000C4
:10A59000236163616362A362E36223636363A36312
:10A5A000E363636411000CF0F1FF200010BDC046AE
:10A5B0003CA50200F0B5534F97B03B6806000593E9
:10A5C000002B00D08BE00B331C22212106A80AAC03
:10A5D00001F07EF90EAD0B231D222221200001F097
:10A5E00077F90B231B222321280001F071F90820A1
:10A5F0000FF084FD0122059B110004900EF02FFA4C
:10A600001D2130000DF09CFF00281DD0A38812AD45
:10A61000AB80A3796020AB713B4B1293A36814937A
:10A62000237B2B73637B6B73A37BAB730FF066FD94
:10A6300005230193183300932A00049B3100040082
:10A6400002F076F93C604AE03C2130000DF0A6FFB4
:10A6500000281CD0A38812ADAB80A3796020AB7119
:10A66000294B1293A3681493237B2B73637B6B7327
:10A67000A37BAB730FF042FD0523019337330093A7
:10A680002A00049B3100040002F0BEFADAE73C2104
:10A6900030000DF027FF00282AD0AB8812ACA38031
:10A6A000AB79A420A371184B1293AB6814932B7B46
:10A6B00023736B7B6373AB7BA3730FF01FFD0523C9
:10A6C00005000293013B0193383300932200049B61
:10A6D000310001F077FF0D4B1D6044353D600B4BA1
:10A6E000084A1B681068002B00D0436417B0F0BD07
:10A6F00048200FF003FD052204990400FFF738FFFE
:10A70000A0E7C04608250020E0A4020004250020A0
:10A7100030B50425837985B004002B421BD1036832
:10A72000DB69984720000CF059FFA379A1882B43DF
:10A73000A3710322012368460CF0A5FCA079030055
:10A74000AB43A3710223184043425841034B40429C
:10A75000184005B030BD0248FBE7C04614FCFFFFBF
:10A7600015FCFFFFF0B5040089B0406C0CF0AFFEA3
:10A77000071C606C0CF09EFE02222100061C05A83E
:10A780000CF03DFF069808F01FFB051C079808F029
:10A790001BFB041C381C0AF0EFF90390381C0AF06C
:10A7A000ADF90190301C0AF0E7F90290301C0AF074
:10A7B000A5F90399071C201C07F0F0FF0199061C5E
:10A7C000281C07F0EBFF011C301C08F019F9061CCF
:10A7D000059808F0F9FA391C07F0E0FF0299071C08
:10A7E000281C07F0DBFF039907F0D8FF011C381C79
:10A7F00007F062FC0299051C201C07F0CFFF0199AD
:10A8000007F0CCFF011C281C07F056FC311C0AF095
:10A81000F5F90F4907F0C2FF0AF070F80D4A0E4B28
:10A8200008F038FE0AF0BCF8011C0C4808F0E8F803
:10A830000021041C07F036FB002804D0201C04492A
:10A8400007F03AFC041C201C08F09EFA09B0F0BD89
:10A850000000B443EA2E4454FB2119400000B442E6
:10A860001FB50122010001A80CF0C9FE029808F0F2
:10A87000ABFA041C019808F0A7FA211C0AF0BEF9F3
:10A880000D4907F08BFF0AF039F80C4A0C4B08F021
:10A8900001FE0AF085F80021041C07F003FB0028E4
:10A8A00004D0201C074907F007FC041C201C08F0FA
:10A8B0006BFA04B010BDC04600003443EA2E445485
:10A8C000FB2109400000B44310B5837904005A0706
:10A8D0000DD49B0701D4FFF71BFF636C2000002BF6
:10A8E00002D0FFF73FFF10BDFFF7BAFFFBE70148BB
:10A8F000F9E7C04615FCFFFF82B0F0B50400EDB0EB
:10A900006420739372920FF005FB052210A81100CA
:10A910000CF009FC974911A8FFF75CFA002221AB63
:10A920006CA91A605A609A600C339942F9D11922C5
:10A93000002113A80FF031FCA0680DF0F5F90026F6
:10A940000B90FF21A06800F0A9FD8B4FA06800F0DC
:10A950005DFB07960996884B9F4203D0874B9F4229
:10A9600000DBFDE0A0680DF0E1F9A56884491AA8B4
:10A97000FFF712F978221AA9280000F075FC1AA82E
:10A980000CF0CBFA00267C4F0322099B6068013350
:10A990001A4009920CF080FD050060680CF083FD00
:10A9A0000022784B05929D4210DB013205922A006D
:10A9B000C8320BDBAA22042192000591954205DCE6
:10A9C00002220592C82D01DD013205920022069275
:10A9D000984210DB012306930300C8330BDBAA2344
:10A9E00004329B000692984205DC02230693C82895
:10A9F00001DD0133069310A80CF08CFB002513AB8E
:10AA0000EB5C012B08D160496B00CA185278C95C15
:10AA100010A8FF23FFF770F90135192DEFD16B4610
:10AA200018229A5E6B4610A81421595E099BFFF705
:10AA300063F9002F01DB0F2E07D90023A0680093D4
:10AA400074301A0010A90CF07BFB01230893089BBB
:10AA500005995A004C4B9B189A1E12788A4226D1AF
:10AA6000013B1B78069A934221D1089A6CAB9B1844
:10AA7000663BFF3B0A931B78012B18D00C23079AE7
:10AA8000216853431D0000220CA80CF0B8FD21AA38
:10AA90002B0094460CAA634423CA23C301220A9BB9
:10AAA00001361A70079BF6B20133DBB20793089B9D
:10AAB000013308931A2BCAD164200FF02BFA079B9D
:10AAC000643F3FB2182B00D845E71A0021A91AA805
:10AAD0000CF0A3FF6A461DAB23CB23C21B68136097
:10AAE0001A991B9A1C9B20680CF062FDE568002DEA
:10AAF0000CD0264912A8FFF74FF81C231AAA12A956
:10AB000028000DF0BAFC12A80CF007FAA0680DF0AE
:10AB10000DF911A912A8A5680CF0E5FA00221C4B4A
:10AB2000009212A901932800130000F00DFB12A857
:10AB30000CF0CCFAFA2080000FF0ECF9A0680DF0D0
:10AB4000F5F80B99A06800F0A9FC11A80CF0BEFA6A
:10AB500010A80CF0BBFA6DB0F0BC08BC02B01847EE
:10AB6000002F02D00F2E00D00EE7A06800F04EFAA2
:10AB70000AE7C04608B702008C3C0000D18AFFFFFC
:10AB80004DB7020058FDFFFF6DB7020062B702002B
:10AB9000DC050000F0B587B001930EAB1B88060002
:10ABA00003930D9B0D000093019B02920C9F002BC1
:10ABB0003CD0002F02D1009BDB0737D528200FF0B7
:10ABC0009DFA040010300CF054FA029B18202580E6
:10ABD00063800FF093FA0500009B08220593019B08
:10ABE000002103600C3004970FF0D7FA082204A963
:10ABF000281D0FF0B6FA0E4B02226B610023039959
:10AC0000E3602362636233680A43A560A2805B68E5
:10AC1000210030009847002806D020000CF033F9BE
:10AC200020000FF060FA034807B0F0BD0248FBE7D0
:10AC30003F76020016FCFFFF17FCFFFF70B58CB0DB
:10AC40008360109B01604260C360040018491800D3
:10AC50000DF0DAFB051E14D001001C22103105A8EE
:10AC60000FF07FFA6A4608AB43CB43C21B68136000
:10AC700020680599069A079B0CF09AFC28000FF0B3
:10AC800032FA0C4B186800280ED00B4A05AB05921F
:10AC900000220692C03202926A4622CB22C22300D0
:10ACA00003220521FFF776FF20000CB070BDC046DF
:10ACB00062B70200F8240020F9A80100F0B50400F2
:10ACC00085B0637A9C46002B04D120000CF0C3FEB3
:10ACD00005B0F0BDA37A266F01931023019AF356B5
:10ACE00000259B1801229A402900F36803920293E1
:10ACF000029BAB4231DDB368019A6B439B187269CA
:10AD00005B00E77AD3181A785878E379012F14D1C9
:10AD10005F1E3F1A10003A005B004343606F8218C9
:10AD2000D3189B79634500DD6346627B1A4202D0EB
:10AD30000123AB4019430135DAE7022F05D15F1E2D
:10AD4000BA1A277A013F381AE6E7032FE4D1277AA7
:10AD5000013FBF1A02003800DEE71123C943F35652
:10AD6000606C994023691940039B19430FF092F9D5
:10AD7000A27B072AACD8637B0C495B006373531C2E
:10AD8000DBB290004158A373022A03D808000FF0E9
:10AD9000B6F896E7064B2000236300236363054B58
:10ADA000E462236414300EF048FF91E768A50200C6
:10ADB000BDAC0100417A020010B50400044B0360F1
:10ADC0000EF033FF200006F03BF9200010BDC04616
:10ADD000C4AC020010B504000E4B08330360FEF74C
:10ADE000CDFE200074300CF071F9200060300CF0C2
:10ADF0006DF9200058300CF090F8200050300CF025
:10AE00008CF82000044B14306361FFF7D5FF20005D
:10AE100010BDC04688A50200D8AC0200F8B50025D8
:10AE20000400324B858008330360857114301600AE
:10AE30000F0006F0EFF820002D4BE56263612564FA
:10AE40005030FEF715FF20005830FEF711FF2000AC
:10AE50006030FEF73BFF20000423F25E3368266774
:10AE6000590009B274300CF05EF93368226FE37157
:10AE700073680126237210236581A7802561D3564C
:10AE800091685918994204DD300098400133054318
:10AE9000F8E711230120D356D1685918994206DDED
:10AEA00002009A402669013332432261F6E71420FA
:10AEB0000FF024F9226900212A430123060006F03D
:10AEC00033FBFF23220063720133A3810023483246
:10AED0006664A37320001370A366FEF731FE01239E
:10AEE000A27920001343A371F8BDC04688A50200D3
:10AEF000D8AC0200F0B5437A85B00400002B04D131
:10AF000020000CF0A8FD05B0F0BD0122837A1100ED
:10AF10009C461023066F0025F35603926344994024
:10AF200002912900F3680193019BAB422CDDB368C9
:10AF300072696B4363445B00E77AD3181A785878D8
:10AF4000E379012F10D15F1E3F1A10003A005B0019
:10AF50004343606F8218D3189B79002B02D0039B68
:10AF6000AB4019430135DFE7022F05D15F1EBA1A46
:10AF7000277A013F381AEAE7032FE8D1277A013F01
:10AF8000BF1A02003800E2E71123C943F356606C90
:10AF9000994023691940029B19430FF07BF8667AA8
:10AFA000B31EDBB2FC2B14D8FEF778FD0B4B05006B
:10AFB000236300230A4863630A4BFF21E46223648E
:10AFC000704306F033FE29004143200014300EF098
:10AFD00034FE637A012B00D995E791E7577A020096
:10AFE000B6030000417A02001FB5012381881A00D0
:10AFF00068460CF048F8012303491A0068460CF033
:10B0000042F805B000BDC046FE0300001FB50300B6
:10B0100048331A780400002A0DD000221A70012348
:10B0200081881A0068460CF02EF8012304491A00A2
:10B0300068460CF028F8200074300CF06BF81FBD47
:10B04000FF03000010B548300378002B06D00378CA
:10B05000012B03D0012102480BF06AFE10BDC0464F
:10B06000FF03000010B50121040006200BF060FE74
:10B07000064B984208D148342378002B04D023781B
:10B08000012B01D020BFF7E710BDC04616FCFFFF23
:10B0900070B50600141E19DB050048352B78002B0F
:10B0A00002D02B78012B13D1002330001A0074300A
:10B0B000FEF7E0FE002C07D033004A331C8000244A
:10B0C00007234C3634802B70200070BD014CFBE709
:10B0D000014CF9E717FCFFFF12FCFFFFF8B5170062
:10B0E0000A68050052880B00012A09D100211800C6
:10B0F0000BF0B2FF002201002800FFF7C9FFF8BDE6
:10B10000002F19DD060048363278002A02D0327846
:10B11000012A13D12A00002428005C32190014806F
:10B1200058300BF064FF2B004A331F8003234C354B
:10B130002C8020003370E2E70148E0E70148DEE7B9
:10B1400017FCFFFF12FCFFFF73B5079C0500002CE6
:10B150001CDB060048363078002802D03078012801
:10B1600016D106981BB2C0B20090280012B27430FB
:10B170000BF0E6FF002C07D02B004A331C80002484
:10B1800007234C352C803370200076BD014CFBE743
:10B19000014CF9E717FCFFFF12FCFFFFF7B50500B4
:10B1A0000E00171E26DDFFF74DFF2B0048331C78DD
:10B1B000E4B2002C20D133685B88012B09D1210037
:10B1C00030000BF049FF220001002800FFF760FF6C
:10B1D000FEBD310001A80BF002FF3A0001A92800D2
:10B1E000FFF77CFF01A80BF098FE2800FFF73AFF5D
:10B1F0002000EDE70148EBE70148E9E717FCFFFF16
:10B2000011FCFFFFF0B587B00D9C06000F00029205
:10B210000393002C20DBFFF715FF330048331D7824
:10B22000EDB2002D1AD1390005A80BF05CFF0C9B84
:10B2300001940093029A039B05A93000FFF784FF55
:10B2400005A80BF043FF002C03D03000FFF70AFFE6
:10B250002C00200007B0F0BD014CFAE7014CF8E7E4
:10B2600017FCFFFF11FCFFFFF8B50400171E1DDDE2
:10B27000060048363378002B02D03378012B17D1E3
:10B280002200E3795632013B137023000025200091
:10B2900054331D8050300BF0AAFE23004A331F8028
:10B2A000022328004C3425803370F8BD0148FCE7A8
:10B2B0000148FAE717FCFFFF12FCFFFFF8B5040096
:10B2C00017001E00002A29DD050048352B78002BC9
:10B2D00002D02B78012B23D1002E1ADAE379220039
:10B2E000643213802300200066331E7060300BF040
:10B2F00002FF230000226C331A70964200D03E00F9
:10B3000023004A331E80002004234C3420802B70FD
:10B31000F8BD0B685B885B421BB2E0E70148F7E7CA
:10B320000148F5E717FCFFFF12FCFFFFF7B505002A
:10B330000F00161E18DDFFF785FE2B0048331C7822
:10B34000E4B2002C12D1390001A80BF048FE320003
:10B3500001A92800FFF788FF01A80BF0DEFD2800F7
:10B36000FFF780FE2000FEBD0148FCE70148FAE738
:10B3700017FCFFFF11FCFFFFF0B585B005000F00C3
:10B38000161E01931ADDFFF75DFE2B0048331C7873
:10B39000E4B2002C14D1390003A80BF0A4FE019BE9
:10B3A000320003A92800FFF789FF03A80BF08EFEE7
:10B3B0002800FFF757FE200005B0F0BD0148FBE76D
:10B3C0000148F9E717FCFFFF11FCFFFFF8B5040087
:10B3D000171E2DDD060048363278002A02D032785A
:10B3E000012A27D15D42069BFF331FD16B1D22002E
:10B3F0001BB2643213802300200066331D7060305E
:10B400000BF079FE230000226C331A70954200D0B5
:10B410003D0023004A331D80079B00205A1E9341A4
:10B42000013F4C34053327803370F8BD069BDEE7BF
:10B430000148FAE70148F8E717FCFFFF12FCFFFF9D
:10B44000F0B587B005000F00161E03931EDDFFF751
:10B45000F9FD2B0048331C78E4B2002C18D13900D8
:10B4600005A80BF040FE0D9B320001930C9B05A933
:10B4700000932800039BFFF7A9FF05A80BF026FE09
:10B480002800FFF7EFFD200007B0F0BD0148FBE703
:10B490000148F9E717FCFFFF11FCFFFFFF2902D865
:10B4A0004172002070470148FCE7C04617FCFFFFCF
:10B4B00013B5040004A80078009020000EF02BFBC8
:10B4C000002801D1207516BD0048FCE70EFCFFFFE7
:10B4D00013B5040004A80078009020000EF003FBD0
:10B4E000002801D1207516BD0048FCE70EFCFFFFC7
:10B4F0007FB50D0011000F226A4404001E1E11705A
:10B5000016D0089B002B13DD012329000093FFF7C1
:10B51000DFFF002802D0074804B070BD0090089BF0
:10B52000320029002000FFF7C3FF0028F4D0F2E723
:10B530000148F1E70EFCFFFF17FCFFFFF7B507001E
:10B540000D1E3FD00023022604690193002C35D044
:10B55000AA88A3885340334204D1324204D1AB8835
:10B56000334226D0646AF1E7A968A0680DF05CFA5E
:10B570000028F4D02B88002B02D022889A42F1D1E7
:10B580006B88002B02D062889A42EBD1EB68E268AC
:10B59000934201D0002BE5D17B68002B01D0200025
:10B5A0009847A288084B1343A380019B0133019362
:10B5B000D8E7A368AA689342D4D1DBE7019B2000B7
:10B5C000002B00DC0148FEBD0080FFFF17FCFFFFE1
:10B5D000F0B5060085B00D1E5DD001270469002C72
:10B5E00026D00221AA8800230A4202D0A3885B0841
:10B5F0003B40226829688A4214D1A068A968002BC0
:10B600000ED00DF011FA00280CD0EB68E2689342DE
:10B6100008D1A3881AB2002A06DB204805B0F0BD85
:10B620008842F2D0646ADAE75B045B0CA380F4E73B
:10B6300030692A88002807D13561012318496846F6
:10B640000BF021FD0020E9E7010003001C88944273
:10B6500006D25C6A1900002C0DD02300F6E7230007
:10B660001C88944207D15F886C88A74203D85C6A23
:10B670001900002CF3D1884209D10B889A4204D3D7
:10B6800005D148886B88984201D96962D4E74B6A32
:10B690006B624D62D1E70348C0E7C04616FCFFFF6E
:10B6A000FD03000017FCFFFF064B10B51A00040055
:10B6B00008322C33026083600830FDF7AFFF2000B2
:10B6C00010BDC046A0A5020008B4024B9C46083835
:10B6D00008BC6047A9B6010008B4024B9C46083874
:10B6E00008BC60479F7E02000C4A002311002C32E8
:10B6F000083110B5436083818373826003614361C5
:10B700008361C383016004000830FDF779FF044BB7
:10B710001A68002A00D11C60200010BDA0A50200FC
:10B72000F8240020F7B50E00012504690192002CD1
:10B7300036D0238832889A4201D0002B23D16388E7
:10B7400072889A4201D0002B1DD1FDF7CDFE012356
:10B75000002806D0C022A3881340C03B5A42534160
:10B76000DBB2019A934219D1A7883BB2002B15DBBB
:10B7700010223100A0180EF0F4FC40231F4204D028
:10B7800020000CF095FB646AD1E7FDF7ADFE0028C0
:10B79000F6D021000348FEF759F8F4E70025F2E758
:10B7A0002800FEBDB17E020008B4024B9C4608385A
:10B7B00008BC604739800200F0B587B001930EAB3A
:10B7C0001B88060003930D9B0D000093019B0292C2
:10B7D0000C9F002B3CD0002F02D1009BDB0737D5FC
:10B7E00028200EF08BFC040010300BF042FC029B72
:10B7F0001820258063800EF081FC0500009B082244
:10B800000593019B002103600C3004970EF0C5FCEA
:10B81000082204A9281D0EF0A4FC0E4B02226B6125
:10B8200000230399E3602362636233680A43A560DF
:10B83000A2805B68210030009847002806D02000D5
:10B840000BF021FB20000EF04EFC034807B0F0BDCA
:10B850000248FBE77380020016FCFFFF17FCFFFFA6
:10B86000F0B50400160000258380164A164B85713A
:10B870000260218146810573186889B08C46A84210
:10B880001DD0124A05950492C02202926A4604AB6A
:10B8900082CB82C223002A006146FFF78DFFC022BF
:10B8A000094B0A49186802926A46069106AB079549
:10B8B00082CB82C223002A003100FFF77DFF2000E7
:10B8C00009B0F0BDE4A50200F82400209D8102002B
:10B8D00030B5002403730123034D8471056081801A
:10B8E00082734373846030BDE0A4020070B5837935
:10B8F0000400DB0702D580680EF0F5FBA3799B07F7
:10B9000002D5A0680EF0EFFBA3795B0707D5A02353
:10B910000021144ADB00D150A0680EF0E4FBA379AB
:10B920001B0708D5A568002D05D028000DF0EDF8FF
:10B9300028000EF0D8FBA379DB0605D5A068002807
:10B9400002D00368DB6898476023A2791A4205D0C9
:10B95000A068002802D003685B6898470023A360B2
:10B96000A37170BD00700040F7B50227037B04008F
:10B970000D003B4226D0012926D886793E4000960C
:10B9800014D1FFF7B3FF18200EF0B8FB0E2306000A
:10B99000E3561822009901930EF0FFFB0199300045
:10B9A0000EF040FAA379A6603B43A371A3685A68DE
:10B9B000002D04D00025DB681A602800FEBD1B693D
:10B9C0001A60FAE7014DF8E7014DF6E716FCFFFFB4
:10B9D00017FCFFFFF7B50126037B040033422AD092
:10B9E000612385791D4017D1FFF780FF18200EF0E5
:10B9F00085FB0E230700E35618220093637B290082
:10BA000001930EF0CAFB019A009938000EF0F8F984
:10BA1000A379A7603343A3716023A279A0681A4277
:10BA200002D00EF099F8FEBD436940681B681840CB
:10BA3000431E9841F7E70148F5E7C04616FCFFFFB3
:10BA400010B50124837941731C4004D080680EF046
:10BA500068FA002010BD6022134203D080680EF007
:10BA600082F8F6E70048F5E716FCFFFF70B5040022
:10BA700000250C4B0E000833858085710360210082
:10BA800018300CF03CFC2000210020300CF062FC4F
:10BA9000054BA680E5802572E56025616561200083
:10BAA0001C6070BDF4A502000C2500208379DB0723
:10BAB00002D5C160002070470048FCE716FCFFFF7C
:10BAC0008379DB0701D5C06870470148FCE7C046B1
:10BAD00016FCFFFF70B545690400002D22D0037AE3
:10BAE000032B21D8FFF7ECFFA8622C200EF006FBF9
:10BAF0002C22002105000EF050FB002263695A62DF
:10BB00002369934208D1636923610020237A656128
:10BB10000133237270BD13005A6A002AFBD1626997
:10BB20005A62F2E70148F5E70148F3E717FCFFFF27
:10BB300013FCFFFF144B70B55A68144C002A03D055
:10BB400000225A600132A2601A69002A17D000212F
:10BB500019618023DB000E4DE3582868012B0FD1BB
:10BB6000A923DB00E1584942FFF7A0FF2868FFF74F
:10BB7000B1FF2B685A69074BE2500123A36070BDE7
:10BB8000FFF794FFF9E7C046FC10004000100040AA
:10BB90000C2500200405000070B505000C000BF01A
:10BBA00055F8002804D1034A034BEC71D45070BD02
:10BBB0000248FCE7001000402405000016FCFFFFCF
:10BBC000F8B5837905000020DB0768D40BF03EF858
:10BBD000002865D16E69002E08D12C300EF08EFA47
:10BBE00004002C2231000EF0D8FA6C616B69002B36
:10BBF00058D000222C4B01215A608022D2051160BE
:10BC00005A68002AFCD00622284B294C9A56294B08
:10BC10000026E2500722043BE2500833E650264A51
:10BC2000264B2800E250E979FFF7B6FF01220821F0
:10BC3000234B2448E6500433E250234B234FE1507A
:10BC40000433E05002232248235022482750224F39
:10BC5000043827501827214827506F69204827505B
:10BC6000C120800021501F498538FF380B500B60E0
:10BC70008021890060580E33034363501A4B5E6085
:10BC800062605A68002AFCD0002601271E61280045
:10BC9000A760FDF7B5FC3000AB791F43AF71F8BD6D
:10BCA0001248FCE71248FAE7FC0000402AB80200FC
:10BCB000001000400C050000746962751C0500004E
:10BCC0002C0500002000040214050000FFFF000006
:10BCD000340500003C05000021100100540500005F
:10BCE0000405000000E100E0FC10004016FCFFFF2E
:10BCF00013FCFFFF03000069002809D00221054A58
:10BD0000D167426A1A611A7A013A1A72024B1960B3
:10BD10007047C04604E100E000E100E070B50400B7
:10BD20000D000AF093FF00283AD1002D3AD02B786D
:10BD3000232B37D802221C4B1C49DA671C4B013AD3
:10BD400058610A615A69002AFCD00020194A8D50B6
:10BD500058600130086058680028FCD00020186145
:10BD60000130886018690028FCD060698850002282
:10BD70005A6101320A615A69002AFCD000225A60D5
:10BD800001324A605A68002AFCD000201861012361
:10BD90008B60C0210222084B49005A501A6070BDC6
:10BDA0000648FCE70648FAE704E100E0001000401E
:10BDB000FC1000400405000000E100E016FCFFFF5D
:10BDC00017FCFFFF37B54C680500002C04D10C4967
:10BDD0000BF045FA28003EBD636A01A84B6022784B
:10BDE000211D033AA36A0BF066FA20000EF07BF9DE
:10BDF00001A928000BF033FA01A80BF029FAE9E7B2
:10BE00000025002030B505008DB0002912D0232A6E
:10BE100010D801ACD31C002023700123A07002A80D
:10BE20006370E3700EF09DF921002868FFF776FF3C
:10BE30000DB030BD0048FBE717FCFFFF10B500292F
:10BE400003DB024B19600DF0D2FE10BD102500205F
:10BE500070B504001E0004AB1D7805F0A5F82000A5
:10BE60000E4B40302360FDF703FF230001364C33B7
:10BE7000013522001E701D730023E1214E32A364A0
:10BE80006365138053809381D381013B20006364F9
:10BE90004902FFF7D3FF200070BDC04690A4020006
:10BEA000F7B580277F053D697C690822113C6C430A
:10BEB0000600210068460EF054F9104B009A9A4291
:10BEC00019D0009300230193796930001339694335
:10BED0000CF055FA019A009930000CF068FA210034
:10BEE00030000CF04CFA7969AB0813396943220031
:10BEF00030000CF04EFA0198FEBDC046FECA0000AC
:10BF0000F0B50D00A9B00D9200213022060010A856
:10BF10000B930EF042F928000EF07FF9431C0C93AE
:10BF2000102B00D9B5E00B9B202B00D9B1E02900E4
:10BF300030000CF069FA071E50D129000C9A10A8A5
:10BF40000EF00FF90D990B9A14A80EF00AF9802340
:10BF50005B051A695F690C92113F7A4330005D6995
:10BF60000B92FFF79DFF3022002104001CA80EF069
:10BF700014F9290000270C9B1339594330000CF0A9
:10BF8000FEF90D9730257D430B9B0833ED18A74232
:10BF900042DA290030221CA80EF0E3F810A91CA8F0
:10BFA0000EF031F9002827D13C49300022000E91D3
:10BFB0000F940CF0FCF96A46099513AB23CB23C20E
:10BFC00023CB23C223CB23C23000129B1099119A9A
:10BFD0000CF0FBF901230D930137D3E710300B9AD6
:10BFE0000D990EF0AFF8040038000EF07CF8002C2C
:10BFF000A3D1200029B0F0BD6A4609951FAB23CB21
:10C0000023C223CB23C223CB23C230001C991D9A09
:10C010001E9B0CF0DAF9DFE7E5433023ED172540EE
:10C020005D430B9B08355D190D9B002B1DD10C9BAF
:10C030003021981E05F070FDA0422CD01749013424
:10C04000300022000E910F940CF0B1F96A46099568
:10C0500013AB23CB23C223CB23C223CB23C2300079
:10C060001099119A129B0CF0B0F90B9930000CF05A
:10C0700086F980235B0559690C230C9A13396343B5
:10C080004A430233110030000B9A0CF082F900246D
:10C09000AFE7034CADE7034CABE7C046FECA000078
:10C0A00017FCFFFF13FCFFFF8023F0B55B051A6947
:10C0B00095B003925A6905910399113A51435D690C
:10C0C000039B133D040002915D43FFF7E9FE061E4A
:10C0D0003BD0002730220021083508A801950EF03A
:10C0E0005CF8019920000CF04AF9049730237B4357
:10C0F000029D0835ED18B7421FDA2900302208A842
:10C100000EF02FF8059908A80EF07DF800280AD146
:10C110001949721E2000069107920CF048F901237C
:10C1200004930137E2E70C23019A290020000CF068
:10C1300030F9019B30330193F3E7049B002B06D1C8
:10C140000D49320020000CF032F90C4812E002993F
:10C1500020000CF014F980235B0559690C23039A25
:10C1600013394A437343110020000233029A0CF042
:10C1700010F9002015B0F0BDFECA00000CFCFFFF56
:10C1800070B50400A280FA22002308000C49920036
:10C1900008312160A3716061E260A3606382094994
:10C1A0000CF032F9051E09D00100200010310222E6
:10C1B00012300DF0D6FF28000DF095FF200070BD65
:10C1C0000CA602009FB7020030B50225837987B024
:10C1D00004002B4204D1FDF713FAA3791D43A57186
:10C1E00020000CF05BF900281CD06B46DD1C2800F9
:10C1F0000CF04BF92B78002B17D001A80CF043F969
:10C200000321019AD3170B409B189B102382FDF743
:10C210007FFCE368A18818180123A0601A0002A817
:10C220000AF031FF002007B030BD0122064B1A6032
:10C23000064A51680029FCD000215160044A126866
:10C24000019201225A60DBE700C00040FCC00040C0
:10C2500008C50040022802D10122014B1A70704724
:10C26000BD29002070B5064C05002378002B04D1B1
:10C27000044802F0A7FD01232370280070BDC046CA
:10C28000BE29002055C2010070B50C000AF0DEFC8A
:10C29000002810D00023144DA40A2B7020000CF0AD
:10C2A00011F9002803D00A200DF034FEF6E72B78B0
:10C2B000002BFCD070BD02210C4B0D4A99508021FF
:10C2C000C90008005D58002DFCD0A121C9005C50B8
:10C2D00019580029FCD0002199508021C9005A58D2
:10C2E000002AFCD0E6E7C046BD29002000E001405E
:10C2F00004050000F8B50C0015001E000AF0A6FCAD
:10C30000002811D00023174F3B7032002900200075
:10C310000CF0D6F8002803D00A200DF0FBFDF4E75E
:10C320003B78002BFCD0F8BD01210F480F4B844611
:10C3300019508021C9005A58002AFCD080270022B9
:10C34000FF00964207DD910068586050D9590029D6
:10C35000FCD00132F5E7002261465A50DA59002A32
:10C36000FCD0E0E7BD2900200405000000E001400A
:10C3700008B4024B9C46443808BC6047C98402009C
:10C38000FA21F8B50389C9000400594332480CF07A
:10C3900061FBFA21890005F0BFFB304F2081A17AB3
:10C3A00038000CF057FB23002600250022894C336F
:10C3B000A072A0361A808C35317800232A22286892
:10C3C0000BF0C1FC002801D02548F8BD31781F23AF
:10C3D0005B2228680BF0B7FC0028F5D131782023C8
:10C3E0005C2228680BF0AFFC0028EDD131780123E6
:10C3F0002C2228680BF0A7FC0028E5D13178012316
:10C400002D2228680BF09FFC0028DDD13178012314
:10C410002E2228680BF097FC0028D5D1A17A38008D
:10C420000CF013FB3178C3B20E2228680BF08BFCA2
:10C430000028C9D1FA2123898900594306480CF004
:10C4400004FB01230343DBB231782A2228680BF076
:10C450007AFC0028B9D0B7E72CA6020024A6020077
:10C460000EFCFFFF08B4024B9C46443808BC6047F2
:10C4700081C30100074B10B51A00040008323C3399
:10C480000260436444300BF04FF820000AF05EFF76
:10C49000200010BD8CA6020008B4024B9C46443814
:10C4A00008BC604775C4010008B4024B9C46443880
:10C4B00008BC6047D3840200F0B5042583798BB0B3
:10C4C00004002B4204D1FDF79BF8A3791D43A5710D
:10C4D00020009030FFF77EFA0026B0420FD12300F3
:10C4E000A033197820000C2307AD00938C302B006B
:10C4F00001220068FEF7FCFF061E03D02C4E300020
:10C500000BB0F0BD0A2304AA9B182A785A706A78E7
:10C510001A700022985EAA785A70EA781A7000227F
:10C52000995E03912A795A706A791A7000229F5E87
:10C53000AA795A70EA791A7000215A5E04922A7A0E
:10C540005A706A7A1A7000215A5E0592AA7A5A7055
:10C55000EA7A1F251A7000229B5EA27A03999C46F4
:10C56000514349425043CB172B407A435B185B1130
:10C57000A361C3172B401818D3171D406423AD18AF
:10C58000059A5B425343A36764236146049A4011B2
:10C590005A434B43E2676D11221DE0612562200082
:10C5A000D3670AF04CFF200044300AF0C4FFA6E72E
:10C5B0000EFCFFFF08B4024B9C46443808BC6047A1
:10C5C000B9C40100F7B51E00040008AB1B881500B4
:10C5D000019309AB00911A8831000AAB1F88FDF75F
:10C5E000FFFC20003A0031004430FDF7C1FF134B3F
:10C5F00020001A003C336364230008322260009A52
:10C600008C331A60AB8890308380AB79019A837148
:10C610000B4B03210360AB6883602B7B03736B7B45
:10C620004373AB7B83732300A0331A80FFF708FAB0
:10C630002000FFF7A5FE2000FEBDC0468CA602002C
:10C64000E0A40200F8B5FA260189B600040071439F
:10C6500026480CF0FFF9310005F05EFA244F2081E6
:10C66000A17A38000CF0F6F92500A0725835297827
:10C6700000232A22606C0BF066FB002801D01D48C5
:10C68000F8BD297810232B22606C0BF05CFB00288E
:10C69000F5D1297801232D22606C0BF054FB002882
:10C6A000EDD1297801232E22606C0BF04CFB002881
:10C6B000E5D1A17A38000CF0C8F92978C3B20E226E
:10C6C000606C0BF040FB0028D9D1218907487143E9
:10C6D0000CF0BBF901230343DBB229782A22606CFA
:10C6E0000BF031FB0028CBD0C9E7C046F4A602000E
:10C6F000ECA602000EFCFFFF10B50400034B08334C
:10C7000003600AF023FE200010BDC04654A70200BB
:10C710007FB50425837904002B4204D1FCF770FF18
:10C72000A3791D43A57120004830FFF753F9002578
:10C73000A8420DD1230058331978062302AE009386
:10C7400001223300606CFEF7D3FE051E03D00D4DB1
:10C75000280004B070BD022300210420F356A27A01
:10C76000DB00715630565343C000C9005143424369
:10C770005B42A3612368E16122629B6A20009847C3
:10C78000E6E7C0460EFCFFFFF8B50400150006AA58
:10C79000168807AA0F0012881900FDF721FC0F4B1D
:10C7A0006764083323602300AA8848339A80AA79F3
:10C7B00020009A710A4AA264AA6822652A7B1A7329
:10C7C0006A7B5A73AA7B9A730023A37123005833A0
:10C7D0001E80FFF737FF2000F8BDC04654A70200B7
:10C7E000E0A4020010B50400034B083303600AF014
:10C7F0009BFE200010BDC046E8A70200F0B5070070
:10C800005C3787B00400397800231022806C0BF06D
:10C810009AFA0326002802D01F4807B0F0BD0F2562
:10C8200002ABED180123397808220093A06C2B008D
:10C83000FEF75EFE184B9842EED02B78334203D0C1
:10C840006420FCF777FFEAE7FA262189134DB6004A
:10C85000714328000CF0FEF8310005F05DF92081ED
:10C860003978A0231122A06C0BF06DFA0028D3D1E7
:10C87000A36C21890393714328003F780CF0E5F8FD
:10C8800001231843C3B21022390003980BF05BFA5E
:10C890000028C2D0C0E7C0460EFCFFFF88A70200F8
:10C8A00070B50825837986B004002B4204D1FCF7CB
:10C8B000A7FEA3791D43A57120004C30FFF78AF82D
:10C8C000061E0DD023005C331978062304AD0093B7
:10C8D00001222B00A06CFEF70BFE061E03D0134EA8
:10C8E000300006B070BD0E232A786B445A706A7807
:10C8F00020001A700022995E64224A43A263AA783B
:10C900005A70EA781A700022995E642252425143AA
:10C910006163297959706979197000215B5E5A4306
:10C920002368E2631B6A9847DAE7C0460EFCFFFF04
:10C93000F8B50400150006AA168807AA0F00128889
:10C940001900FDF715FE0D4BA76408332360230083
:10C95000AA884C339A80AA7920009A71084AE26426
:10C96000AA6862652A7B1A736A7B5A73AA7B1E8245
:10C970009A73FFF743FF2000F8BDC046E8A7020006
:10C98000E0A40200F7B5FA250189204FAD000400AC
:10C99000694338000CF05EF8290005F0BDF8A17A73
:10C9A00020811B480CF056F82600636CA07200939F
:10C9B0002189583633786943380001930CF045F8E3
:10C9C00007230343DBB22022019900980BF0BBF947
:10C9D000002801D00F48FEBD317810232222606C60
:10C9E0000BF0B1F90028F5D1A17A0948656C3778C8
:10C9F0000CF02BF880235B420343DBB22322390087
:10CA000028000BF0A0F90028E5D0E3E71CA80200FD
:10CA100014A802000EFCFFFF10B50400034B0833FE
:10CA200003600AF093FC200010BDC0468CA80200F1
:10CA3000F0B50425837985B004002B4204D1FCF7BE
:10CA4000DFFDA3791D43A57120004830FEF7C2FF2A
:10CA5000061E0DD0230058331978062302AD00932B
:10CA6000A8222B00606CFEF743FD061E03D0144E77
:10CA7000300005B0F0BD1F200023EA5ED31703404D
:10CA80009B180222A95E5B11CA17024052180421AA
:10CA90006F5E5211F9170140C91949112B806A8044
:10CAA000A980A07A4343424341435B42E361236848
:10CAB0005242A26121629B6A20009847D8E7C04693
:10CAC0000EFCFFFFF8B50400150006AA168807AA99
:10CAD0000F0012881900FDF783FA0F4B67640833C3
:10CAE00023602300AA8848339A80AA7920009A718B
:10CAF0000A4AA264AA6822652A7B1A736A7B5A735F
:10CB0000AA7B9A730023A371230058331E80FFF77A
:10CB100039FF2000F8BDC0468CA80200E0A4020046
:10CB2000F7B5FA2504000189134EAD0069433000C2
:10CB30000BF090FF290004F0EFFF2700A36C208189
:10CB400000935C373B7881B26943300001930BF06E
:10CB50007CFF6022C3B2019900980BF0F4F8002822
:10CB600001D00648FEBD397801236222A06C0BF08B
:10CB7000EAF80028F6D0F4E7C0A802000EFCFFFF98
:10CB800010B50400034B083303600AF0CDFC20000D
:10CB900010BDC046E8A802007FB5082583790400CF
:10CBA0002B4204D1FCF72CFDA3791D43A571200075
:10CBB0004C30FEF70FFF051E0DD023005C331978B3
:10CBC000062302AE0093E8223300A06CFEF790FC2F
:10CBD000051E03D00B4D280004B070BD0223F25E89
:10CBE00096235B425A4362630021725E20005343E6
:10CBF000A3630423F25E96235343E36323681B6A13
:10CC00009847E8E70EFCFFFFF8B50400150006AAF8
:10CC1000168807AA0F0012881900FDF7A9FC0D4B12
:10CC2000A764083323602300AA884C339A80AA792A
:10CC300020009A71084AE264AA6862652A7B1A7326
:10CC40006A7B5A73AA7B1E829A73FFF769FF2000E2
:10CC5000F8BDC046E8A80200E0A4020010B5040038
:10CC6000054B083303601C300AF057F920001830D8
:10CC70000AF053F9200010BD14A90200FF23F0B5FB
:10CC80002C4D8DB02B700023040069460088009362
:10CC900003F086F9002802D16B469B782B70264E54
:10CCA0003368DB68002B07D1002320881A001900A5
:10CCB0000BF07FFC0DB0F0BD2B78032BF4D81F498F
:10CCC00001A8FCF769FF336801A9DE6804A80AF02F
:10CCD00086F904A930000BF0CAFB0027060004A85F
:10CCE0000AF01BF9BE421ED031002022103104A8E8
:10CCF0000DF037FA30000DF0F6F9297804ABC900D1
:10CD00005918082202A80DF02CFA208801230822C5
:10CD100002A90BF04EFC0137002804D12088084AF4
:10CD20000C210BF044FC01A80AF0F7F8002FBBD04F
:10CD3000C0E7C046952000202025002032B8020020
:10CD4000FFFF0000F0B5837991B004005B071BD5AD
:10CD5000FCF7DEFE00232269801A9941994203D133
:10CD6000F423FF3398420FD9A068002808D0364B2F
:10CD70001D880BF0E7FE036815221B6A29009847FF
:10CD80000422A3799343A371A3799B0759D52F4D0F
:10CD90002B68DB68002B50D02D4B1B78032B4CD815
:10CDA000294B2C491B8804A80193FCF7F5FE2B683E
:10CDB00004A9DE6808A80AF012F908A930000BF0EF
:10CDC00056FB070008A80AF0A8F802AB9E1D08232E
:10CDD0003200338006A9073B01980BF0ECFB002FD3
:10CDE00008D039002022103108A80DF0BAF9380017
:10CDF0000DF079F9164B32881B7806A9DE0008ABD6
:10CE00009E1930000DF09EF9002813D0082206A9C3
:10CE100030000DF0A6F92B6804A9DD6805A80AF01A
:10CE2000DEF8202308AA05A928000BF026FB05A898
:10CE30000AF073F804A80AF070F80222A379934369
:10CE4000A37111B0F0BDC0469C2700202025002012
:10CE50009520002032B80200F7B5089E050015297C
:10CE600022D8012007008F40244C27421CD0E97FA4
:10CE7000CC181F2C41DC69183418A14210D80021AD
:10CE8000C8B2834204D9545C701884700131F7E74A
:10CE900032789A183270EA7F9B18EB7700202CE0EA
:10CEA0000878C8540139E8E73478013CE4B2A34279
:10CEB00008D10023D9B28C42F0D9D05CF118887027
:10CEC0000133F7E7EF7F0120FF183F1B1F2F14DC12
:10CED0000227A01C7F423618381B0190E87F2F18CC
:10CEE000BE4204D23078019FF0550136F6E7041BAC
:10CEF000023CEC7728000BF0A8FBFEBDFC002000F4
:10CF0000F0B5040085B001930AAB1E880BAB1B780B
:10CF1000451C02930EAB1B78170003930B7810226D
:10CF200003704B8A0131438228000DF01AF92683E1
:10CF300000260122019B67616383039BE6832377BD
:10CF4000029B2000EB77A31CDA770C9B0C25636215
:10CF500023000D9A28331A705E709E702A003100EB
:10CF60002C300DF01AF92000064BE663A3632A006B
:10CF7000310040300DF011F92000034B2665E364C9
:10CF800005B0F0BDCD850200BF85020070B50D0073
:10CF90000BF0D8FD04000368002D09D15B699847A8
:10CFA000FA2080006843074904F0B6FDE08070BDB8
:10CFB0009B6898478542F3D2236820009B68984776
:10CFC0000500EDE771020000F0B507001600A1B002
:10CFD00002C704006B4918A81D000BF07DFB331E2F
:10CFE00003D030000DF019F983B20122049200221F
:10CFF00003920292023201920093320018A9380083
:10D00000FFF77EFF23006049583318A807930BF001
:10D0100063FB2B1E03D028000DF0FFF883B2012222
:10D0200004920022039202920232019200932A009B
:10D0300018A90798FFF764FF23005449AC3318A8D8
:10D0400008930BF049FB269B002B03D018000DF032
:10D05000E4F883B201220492002203920292023287
:10D0600001920093269A18A90898FFF749FF631CBC
:10D07000FF33474918A809930BF02EFB279B002B81
:10D0800003D018000DF0C9F883B2012204920022E7
:10D09000601C03920292023201920093279A18A90F
:10D0A000FF30FFF72DFF23005533FF33394918A810
:10D0B00009930BF011FB289B002B03D018000DF0F7
:10D0C000ACF883B20122049200220392029202324F
:10D0D00001920093289A18A90998FFF711FF2300DD
:10D0E000A933FF332C4918A80A930BF0F5FA299BB2
:10D0F000002B03D018000DF090F883B201220492A7
:10D10000002218AD03920292023201920093299AF2
:10D1100029000A98FFF7F4FE204B1B780B93002B95
:10D120002CD1079B12971393089B0DAF1493631C8C
:10D13000FF331593099B1A4916930A9B38001793DE
:10D140000BF0CAFA1D2149203B7810222B707B8AF4
:10D1500012AE6B8206ABC918C0180DF002F8062398
:10D160002B750B9B2068AB83AE610BF0EFFC036863
:10D1700029001B6898470122084B1A70200021B033
:10D18000F0BDC046292A0000242A0000252A0000FC
:10D19000272A0000262A0000282A0000BF29002094
:10D1A0000A18000070B5002504000B4B8580083379
:10D1B00085710360C1601830FCF75AFD20001C30F7
:10D1C000FCF756FD0123621CD377044AA560656114
:10D1D00020001460A37170BD14A902002025002056
:10D1E000FA2130B585B00500012302228900684686
:10D1F00009F049FF074C2068002809D00BF0A5FA78
:10D200002988054B22681980022391790B43937179
:10D2100005B030BD202500209C27002010B50C0053
:10D2200007290DD880680BF08DFC064B1957036851
:10D230005B6C9847431E9841034B4042184010BD19
:10D240000248FCE72AB8020016FCFFFF17FCFFFFAC
:10D25000F0B5A44C0D00A544040007939AAB1B78CD
:10D26000A14909A804930692FCF796FC2000290026
:10D270001C3009F0BCFEC020800001F099FD0820A0
:10D280000CF03CFF0600002100F0AEFE15ADA660DC
:10D2900000210C220EA80CF080FF2B000EAA83CADE
:10D2A00083C3924B2900EB60002330002B610BF00D
:10D2B00032FCA0680BF046FC08220021059016A85D
:10D2C0000CF06BFF14200CF019FF29000200884BB2
:10D2D0001593C8C9C8C2874B059EC3600023A436F6
:10D2E00003613368002B00D0F5E03060A0680BF0DC
:10D2F0002DFC08220021060016A80CF04EFF142079
:10D300000CF0FCFE7C4B1593030086CD86C37B4B53
:10D31000C36000230361336B002B00D0DDE030637A
:10D32000A0680BF00FFC08220021050016A80CF0E5
:10D3300034FF14200CF0E2FE714B15AE1593030080
:10D3400086CE86C36F4B9835C360002303612B687C
:10D35000002B00D0C3E02860012504AB1B7C04AA8D
:10D360002B4308A9280013740BF027F9A0680BF0D1
:10D37000F1FB036864495B6A9847A0680BF0EAFB1D
:10D38000036862499B699847A0680BF0E3FB0023A0
:10D3900002680093166804992A00B047049B002B8A
:10D3A0000AD020000BF0DAF9032805DDA0680BF0A5
:10D3B000D1FB0368DB6898470EA80BF03DF92F20DE
:10D3C00004ABC0180BF038F9362004ABC0180BF0D2
:10D3D00033F93D20042504ABC0180BF02DF90EAB3A
:10D3E0000A93A06804AB5D770BF0B4FB03680AA94D
:10D3F0001B699847A0680BF0A5FB03680AA95B6D41
:10D400009847A0680BF09EFB03680021DB6D9847EE
:10D41000A0680BF097FB036802219B6D98470021E1
:10D420002000FFF7FBFE18200CF068FEA16800F05A
:10D4300055FA374B374A1B68A1680393364B15A83A
:10D440001B6800260293354B0CAF1B680193069BAB
:10D450001B685B190093324B12681B68FFF7B4FD21
:10D4600030200CF04BFE079AA16800F0F7FAA06894
:10D470000BF068FB036839009B6A9847294BBE8014
:10D48000A0680C930BF05EFB03683900DB6A9847D9
:10D490002900A0680BF02CF9099A09219378A0685B
:10D4A00052190BF038F9A0680BF04CFB32210671D1
:10D4B000A068FFF76BFD04AB1B7FB34204D0A068EC
:10D4C0000BF040FB0BF0FEF809A809F026FD9523B0
:10D4D0009B009D44F0BD036107E703611FE7036103
:10D4E00039E7C046ACFDFFFF17B90200DB8502003B
:10D4F000E1D10100E98502007DCC0100F785020041
:10D50000258602000586020029D501005DD50100AF
:10D510001C250020182500200820002014250020AC
:10D520000C2000200800100013B506226846FCF706
:10D5300075FB094B1C68002C0AD0694601A809F04C
:10D540004EFD200001A90BF02AF901A809F0E5FC25
:10D55000684609F0E2FC13BD20250020002373B5C6
:10D5600001AE0C0031000500019302F019FD002806
:10D5700002D1B278064B1A70064B1868002806D004
:10D5800061426141044BC9B21D800BF010F973BDBB
:10D5900095200020202500209C27002030B5284C15
:10D5A000A9B06A220D000DA821000CF0DAFD0DA92A
:10D5B00003A8FCF791FB03A906A809F094FD012339
:10D5C0000193013BFF3B00930533FF33642206A91F
:10D5D0002800FDF735FF06A809F078FD2100192283
:10D5E0006A3106A80CF0BDFD05220024110006AB2F
:10D5F00004A809F09FFD04A905A809F074FD019491
:10D6000000942300220005A92800FDF7FBFD05A8D2
:10D6100009F05CFD21002800FDF740FF05340520DE
:10D62000FCF788F8FF2CF5D1FA208000FCF782F88F
:10D6300004A809F04BFD03A809F048FD29B030BD4E
:10D64000A7B70200F0B59C4B95B005921A68082365
:10D6500004000391D16C06A80B43D3649749FCF7EF
:10D660009BFA974907A8FCF797FA220000250DAE10
:10D6700030001C3206A909F0D9FC07AA310008A81D
:10D6800009F0D4FC300009F048FC631CDD77A06889
:10D690000BF058FA03680BAF5B69984730000AF04B
:10D6A000CBFF2B2004ABC0180AF0C6FF322004AB1E
:10D6B000C0180AF0C1FF392004ABC0180AF0BCFF43
:10D6C0008023DB00BB80A0680B960BF03BFA03685D
:10D6D00039005B6D9847A0680BF034FA03682900A5
:10D6E0009B6D9847A0680BF02DFA070006000A37DB
:10D6F0001F22290038000CF050FDFD7730000AF0A1
:10D70000D8FF0621A0680AF0F3FF089A0921937850
:10D71000A06804320AF0FFFFA0680BF013FAC821DA
:10D720000571A068FFF732FCA0680BF00BFAFF2729
:10D730002E000581A0680BF005FA0AF0C3FF0398DC
:10D74000FDF764FC2000FBF75BFF03992000FFF767
:10D7500025FF039920000BF03DF80495012563692E
:10D760001D402DD0574909A8FCF734FB09A90AA888
:10D7700009F0B9FC00220AA9130001920092039853
:10D78000FDF740FD0AA809F0A1FC049B002B42D143
:10D79000043F282F41DD0025FE2F00DC049D059865
:10D7A00009F0AEFE002806D0012362699A431300F7
:10D7B000042213436361002609A809F087FC04953D
:10D7C00004226369134233D0FF210398C826FDF772
:10D7D00065FE0025B600A36902229B5EAB4222DDF6
:10D7E000200029B2183009F037FC0023010003980B
:10D7F0001A007430FCF73EFB3000FBF79BFF0398E8
:10D800000AF094FAC820FBF795FF022263691342DD
:10D8100009D10135DFE70437BBE703980AF086FA40
:10D82000002FBCDDBAE7FA208000FBF783FF00265B
:10D83000022365691D421CD006331D4024D02249B5
:10D8400009A8FCF7C7FA09A90AA809F04CFC0022AC
:10D850000AA90192009213000398FDF7D3FC0AA8CD
:10D8600009F034FC1948FBF765FF09A809F02EFC04
:10D87000174E6420FBF75EFF164B01369E4200DC1C
:10D880006CE709F0F5F969E7134909A8FCF7A2FA72
:10D8900009A90AA809F027FC2B002A000AA901956A
:10D8A00000950398FDF7AEFC0AA809F00FFC09A843
:10D8B00009F00CFCDDE7C046A42400203EB80200BD
:10D8C0004EB8020050B8020095B80200983A000025
:10D8D0008C0A00008B0A0000D2B802000022594BCB
:10D8E000F0B50833060003600F001000A9B0B16066
:10D8F0000BAB991801324870102AFAD10F3A524CEA
:10D900001A700E32105D991A0874013AFAD2997B96
:10D910005A7B09020A4331000C31039125211B78FF
:10D9200013AD2B7002ABC918452302A81B186A82DD
:10D93000180010220CF015FC039B64216B6101237D
:10D94000002402AA2B7752181993093313701DABC8
:10D950001C706D2302AA9B181C706E2321009B185B
:10D960001EA80C22EC836C621C700CF016FC374B6A
:10D970000C22210023A8AB63EC630CF00EFC344BAB
:10D9800002AAEB6446239B180322DA7722002C6557
:10D990000595347306AD2B1901345A70102CFAD149
:10D9A00001232C482B700E33195CEA1A1174013BC9
:10D9B000FAD211212520AA7B6B7B12020BAC1343F8
:10D9C0002A78638202ABC9182270C01810220CF0AA
:10D9D000C8FB0123237505ABA36100233800A38393
:10D9E0000BF0B4F8036821001B68984713ABDB8B7E
:10D9F000B068B3820BF0AAF8002203680092B18AE3
:10DA0000039ADC680123A047B0680BF09FF8070079
:10DA100014200CF073FB0022012304000261069223
:10DA200040C00832290007930CF09BFB0A4BE360CF
:10DA3000BB69002B03D13000BC6129B0F0BD23616C
:10DA4000F9E7C0462CA902003DB90200CD850200CD
:10DA5000BF8502004DB9020035880200F0B50026EE
:10DA60000400724BDDB0083303608160C2608680C1
:10DA7000867132006E4947A80AF07CFF23001433F8
:10DA80000125042708931223009704950193089A0F
:10DA9000330047A9039602961DA8FFF731FA32001A
:10DAA000644947A80AF066FF0C2322000097103251
:10DAB00015AF0495019347A933000396029632A847
:10DAC000FFF71EFA32005C4938000AF053FF2100CC
:10DAD0001C31099104230821049501910093390018
