:020000021000EC
:1080000000400020D50602001107020013070200FD
:108010000000000000000000000000000000000060
:108020000000000000000000000000001507020032
:1080300000000000000000001707020019070200FE
:108040001B07020099B101008D0D02001B07020001
:108050001B070200000000004D0702001B07020082
:108060001B070200690F0200150C02001B0702002B
:108070001B0702001B0702001B0702001B07020070
:108080001B0702001B0702001B0702001B07020060
:108090001B0702004DF60100310302001B0702001E
:1080A0001B0702001B070200000000000000000088
:1080B00000000000000000000000000000000000C0
:1080C00010B5064C2378002B07D1054B002B02D0AE
:1080D000044800E000BF0123237010BDB820002039
:1080E000000000008C850200044B10B5002B03D06B
:1080F0000349044800E000BF10BDC0460000000076
:10810000BC2000208C850200164B002B00D1144BA4
:108110009D46402292029A1A924600218B460F46B3
:108120001348144A121A0FF006F80F4B002B00D018
:1081300098470E4B002B00D09847002000210400E8
:108140000D000D48002802D00C4800E000BF0BF0E5
:1081500035F9200029000EF0B1FD0BF019F9C046E9
:1081600000000800004000200000000000000000A7
:10817000B020002060290020000000000000000066
:108180004022F0B5036CD1B00793436C5242089380
:10819000836C079C0993C36C0A93036D0B93436D27
:1081A0000B990C93836D0D93C36D0E9310ABD21886
:1081B0000E9B0F930D9B05930C9B04930A9B0693B8
:1081C000099B0393089B029300230193019B0F2BB0
:1081D00000D978E09B00C718C55CFB782D061D43CD
:1081E0007B781B042B43BD782D022B43136406239D
:1081F0000D000F00DD410533DF413B000F006B40F8
:108200001925EF413D005D40019B3E4F9B00166CE0
:10821000FB58049F9B19EB18059D0F408D437D4033
:108220005B190F9D27005B1902252600EF410B35D6
:10823000EE41162577402600EE41029D7740039ED1
:108240000432754025400F95029E039D2E40350057
:108250000F9E6E40069DBF195D19DF19019B01330A
:108260000193039B0693059B0F93019B402B21D108
:10827000029A079B9446DF19089B039A1C19099BD5
:108280000764634494468364049A0A9B4464634489
:108290009446C3640B9B059A5D190C9B05655918A0
:1082A0000D9B41656344944683650E9B6344C3659F
:1082B00051B0F0BD049B04910593029B29000294E8
:1082C00003933C0082E7936B11261F00F741BC46E5
:1082D0001F000236F74166469B0A77407B40566A8C
:1082E00017685568F719DB1907262F00F741BC46B8
:1082F0002F000B36F7416646ED0877406F40DF19D7
:10830000176474E7E0720200002813D0002343666C
:1083100003668366084B0364084B4364084B83641D
:10832000084BC364084B0365084B4365084B8365E2
:10833000084BC3657047C04667E6096A85AE67BBF0
:1083400072F36E3C3AF54FA57F520E518C68059B37
:10835000ABD9831F19CDE05B70B5041E1ED0002978
:108360001CD00D008E18B54218D0A36E2A78E254A6
:108370000133A366402B0FD12000FFF701FF236ECE
:10838000074A934202D9626E0132626680229200ED
:108390009B1823660023A3660135E4E770BDC04641
:1083A000FFFDFFFF70B50E000400C4B029A8150042
:1083B000FFF7AAFF3200210029A821ACFFF7CCFF6C
:1083C000210029A80BF056FBE27F23781E92A27FA2
:1083D00041211D92627F28001C92227F1B92E27E27
:1083E0001A92A27E1992627E1892227E1792E27DE4
:1083F0001692A27D1592627D1492227D1392E27CE8
:108400001292A27C1192627C1092227C0F92E27BEB
:108410000E92A27B0D92627B0C92227B0B92E27AEF
:108420000A92A27A0992627A0892227A0792E279F3
:108430000692A27905926279049222790392E278F7
:108440000292A278019262780092024A0BF028F818
:1084500044B070BDA07E020010B50400034B036061
:1084600040300BF061FD200010BDC046E8730200F3
:1084700000B589B005A80E4902F0D6FF05A906A8E7
:108480000BF0E4FE06A907A801F0C8F8C82207A966
:108490005200084802F04CFA07A80BF045FD06A868
:1084A0000BF0CDFE05A80BF0CAFE09B000BDC0461A
:1084B00038240020C421002007B50D4901A801F08F
:1084C0009DF8782201A90B4802F0C2FA01A80BF02E
:1084D0002BFD09480BF0F1FF002806D107480BF0EF
:1084E000ECFF0028F5D002200EBD0120FCE7C046BD
:1084F0002B7F0200C42100203C22002064220020A7
:10850000F0B587B00A2201901F4903A80EF0F7FDCD
:1085100000211E480BF0CEFF962000254000962635
:1085200000F03AFE2C00760003AB1F5D02A8390074
:108530000BF024FDC82202A95200154802F0F8F9F8
:1085400002A80BF0F1FC13480BF0B7FF002807D08E
:10855000019B5F55032D14D03000013500F01CFE47
:108560000A480BF0AAFF0028DED0092C04D1300005
:1085700000F012FE0024D7E73000013400F00CFEBA
:10858000D2E7002007B0F0BD217F02006422002066
:10859000C42100203C22002070B504000E0005001C
:1085A0002B1B9E4213DD0AF02DFF0AF0F5FC002282
:1085B000094B0AF049FAF82300229B050AF044FA15
:1085C0000AF0B4FC054B1B5C2B700135E8E700207A
:1085D0008034207070BDC04600004F403F7F0200D5
:1085E00010B50D4AA2B0117801AB197051785970CD
:1085F00091789970D278DA700022845C99180132EF
:108600000C717D2AF9D11800044A8421FFF7CAFEB3
:10861000002022B010BDC04680200020CE270020C0
:10862000F7B52A4D80212800FFF7B6FF2800FFF795
:10863000D7FF274802F0F6FDC8266846FA2701F062
:1086400049F87600BF0023480BF037FF0024A04212
:108650002BD0295D01A80BF091FC01A968460BF015
:10866000CDFC01A80BF060FC694601A80BF0BEFC34
:1086700001A919480CF015FE01A80BF055FC69463C
:1086800001A80BF0B3FC320001A9144802F050F924
:1086900001A80BF049FC0134380000F07DFD802C6E
:1086A000D7D1642000F078FDCDE70D480BF005FF31
:1086B0000028F6D00B4901A800F0A0FF01A9064848
:1086C0000CF0EFFD01A80BF02FFCEAE70F280020CB
:1086D000202400203C22002038240020C421002037
:1086E000642200207E7F020010B5054C200000F0BF
:1086F0008BF8044A044920000EF0C7FC10BDC046A8
:10870000D4200020002000200D870100CA23144A35
:108710009B0010B5C2501C330400C0180BF004FCC1
:10872000D0239B00E0180BF0FFFB20009130FF30BE
:1087300001F098FB20006930FF3001F093FB20002E
:10874000F03001F011FF2000D03002F015FB2000C6
:10875000643007F02BFF201DFFF77EFE200010BDC8
:108760007478020013B528200EF096FC1023040044
:1087700000931D210C4B01220BF076FB21000B48CE
:1087800002F08EFA002805D020000BF083FB2000B9
:108790000EF077FC0648FA2402F044FDA400200005
:1087A00000F0FAFCFBE7C04671840100A421002020
:1087B0002024002037B5114800F0DEF8FFF77CFEDA
:1087C0000F4D04002800FFF79BFE290001A800F0D0
:1087D00015FF782201A90B4802F03AF901A80BF025
:1087E000A3FB012C01D1FFF71BFF022C01D1FFF7E6
:1087F000B9FF00F049FD00203EBDC046D420002056
:1088000080200020C42100201423F0B5040093B080
:10881000009319221821043002F04CFE220025009A
:1088200026006432B435132110001092B83607F0D8
:10883000C9FE28000CF0B0FD00221E2130000CF013
:1088400048FA2000D03002F0B7FA2200F03211923C
:108850000621464A119801F0ABFE200000270123B3
:1088600069301A0000971121FF3001F007FB20004A
:1088700091300097012302221A21FF3001F0FEFA05
:108880002000B9301A2301210222FF3002F050FBF0
:10889000300001F0FFF8E4225200A050300001F057
:1088A00047FBE6235B00E0500100E4222000520079
:1088B000D130119BA2580095FF3001F089FD2000B6
:1088C000E13029001C22FF3002F08CFF1923200028
:1088D0000F93013B0E93013B0D93013B0C93013B26
:1088E0000B93013B0A93013B0993013B0893013B26
:1088F0000793013B0693013B0593013B0493013B26
:108900000393013B0293013B0193F930013B0822A1
:1089100000930721013BFF300CF0FCF9CA239B00B8
:10892000E018290003F070FFD3239B00E0181D21FD
:1089300002F0CEFBDD239B00E75010982770032147
:108940000EF0DFF823002200200009499C33A032FA
:108950001C6011605760074A80305A610221012271
:1089600007F0A6FF200013B0F0BDC046F073020070
:108970006D3B0200573B02000123F0B5067891B031
:1089800004001E4060D10300D0331800039300F0B0
:10899000E5FA00F0DDF928200EF07EFB050010302E
:1089A0000BF05EFB664B18202B600EF075FB07008A
:1089B000644B0460082231000C300E930F960EF0C9
:1089C000BAFB0EA9381D08220EF099FB5E4BAF6072
:1089D0007B611223EE60AB802E626E6229000398E9
:1089E00002F05EF9002805D028000BF053FA2800A9
:1089F0000EF047FB012322785449134323702300D0
:108A0000B433180004930CF0CDFC51490290049843
:108A10000CF0C8FC00270690642000F0BDFB3D0070
:108A20003E0023006933FF33180005930BF045FD2A
:108A300000280BD1029B002B11D1069B002B0ED1DD
:108A40004449454800F088FC11B0F0BD2000913049
:108A5000FF300BF032FD0028ECD0182EEADC2000AD
:108A6000653029B23AB2FF23FF30013500F076FEBF
:108A7000EDB2322000F090FB0136052D02D1002529
:108A80000137FFB2029B192E06D0002BC9D02F4907
:108A9000049802F03BFE01E0002BF8D102980EF0A2
:108AA000F0FA06980EF0EDFA2A492C4800F054FC32
:108AB000CA239B00E3180793DD239B00E358089328
:108AC000002B36D100F058F801000AA800F096FDFE
:108AD0000BF0D1F808900BF0CEF86B460990198C8A
:108AE0000CA80BF03EFA099B0DA8190C0BF039FAF3
:108AF0000DAA0CA90BA80BF090FA0DA80BF014FA14
:108B00000CA80BF011FA01230BAA0AA900930798ED
:108B1000039B03F0CFFE0BA80BF006FA0AA80BF09C
:108B200003FACC239B00E3580893DD23089A9B00AB
:108B3000E2502100059AF031079804F0B5F870E78B
:108B4000FD030000DF3B02009F3B0200BD7F0200EF
:108B5000C87F02000020002008000020001C002028
:108B6000BFF34F8F024B034ADA60BFF34F8FFEE72C
:108B700000ED00E00400FA05F0B58DB005AF192254
:108B8000154938000EF0BBFA0022144B05245A7127
:108B900080225205566E0122250001940292039311
:108BA0000199300008F070FB0800029908F0E6FA1D
:108BB000019B03996B430193029B361A6B4302930B
:108BC000631E2C1B6C433C19225C1C1ECA54E7D14B
:108BD00008000DB0F0BDC046D87F02008F280020ED
:108BE000F0B597B018220021060010A80EF0A3FAE5
:108BF000132110A80EF0CDF8032110A80EF05FF994
:108C00004C4B1B68002B00D10133DBB202934A4A64
:108C1000012300210BA807F0B9FF484B9E4200D961
:108C2000002672B6464B64211D68464B3000079300
:108C3000052408F02DFB60435030281808900A21C5
:108C4000300008F025FB0A2108F008FC6143503190
:108C50006918099130000A2108F000FC8023614363
:108C60000024503169189B010A910193029B002B4B
:108C70005DD0002500272E1F07AB9B190593032C01
:108C800003D1802300249B01019307AB5B592E4A3B
:108C900003936300D318049300231900062058435C
:108CA000049A16187678B4466246039EB25C102683
:108CB0009446049A105C62460641164202D0012096
:108CC000984001430133092BE8D1C9431F4B059A52
:108CD000090119401268039B934225D1312F23DCEF
:108CE00000210BA80EF0A4F9FA23159A1199DB00C4
:108CF000106801421BD0013B002BF9D1019B0134CC
:108D00005B000193FA230137E4B25B009F42B6D1C6
:108D10000435102DAED1074B1B68002BA6D0029F47
:108D2000013FFBB20293A1E7019B1943D9E7FFF78B
:108D300017FFC04650240020F0FF0000E7030000AA
:108D40000420002027800200F17F0200F01F0000B5
:108D5000F8B50023124C23600AF07FFF002808D0EA
:108D6000042120000AF075FF002801D00D4B23607C
:108D7000F8BD0122A12704250B4B0C491A6022687B
:108D8000FF0048604E68002EFCD0DE591202013D03
:108D90003243002DF5D1226001225A60E8E7C04637
:108DA0004C240020ED5EBC0B00D00040FCD0004005
:108DB000F0B585B01F000AAB1B88060002911500B4
:108DC0000393002F1BD028200EF066F96B46040099
:108DD0001989039BAAB200933B000BF045F8336856
:108DE00021005B6830009847002806D020000BF077
:108DF00051F820000EF045F9024805B0F0BD0248D8
:108E0000FBE7C04616FCFFFF17FCFFFF0B4B70B5DE
:108E10001C68002C10D0656D00F0ACFBA36C002921
:108E200001D1834206D820000AF04AFF04492000FD
:108E30000AF034FF2C00ECE770BDC0465824002037
:108E400078240020F0B593B007932A4B04AC1E6839
:108E5000049005910692002E4AD0274B25886788FA
:108E60001C6800230293002C2ED0636D23480393CB
:108E7000A36C9AB2A36C1B0C99B2854214D1204802
:108E8000824211D1002B01D0B9420BD1029B002BA1
:108E900008D120000AF014FF1A4920000AF0FEFE53
:108EA00001230293039CDEE7002A01D09542F9D109
:108EB000002B01D0B942F5D120000AF001FF114981
:108EC00020000AF0EBFEEDE70F4BEB18012B0FD95A
:108ED00010233A00009329000C4B08A80AF0C4FFA5
:108EE000336808A99B683000984708A80AF0D2FFA9
:108EF00013B0F0BD5424002084240020FE030000A1
:108F0000FF0300007824002002FCFFFF458E0100D3
:108F100010B572B60B4B1C68002C08D020000AF06C
:108F2000CFFE0023E364084B2000E36310BD62B66C
:108F30005C200EF0B1F85C22002104000EF0FBF87A
:108F4000EFE7C0467C24002000400020024B187848
:108F5000012318407047C04695280020F7B5060049
:108F6000FFF7F4FF051E33D11A4C2660FFF7D0FF40
:108F7000194B1A4918600AF091FEFFF7C9FF184B08
:108F80001860184B4363184B8363206800280ED089
:108F9000C027164E2A00330015490097FFF708FF37
:108FA000009733002A0013492068FFF701FF0C20C7
:108FB0000EF072F80023838083710F4B03600F4B18
:108FC000836000F0EFFA01230D4A11780B43137010
:108FD000F7BDC046542400208824002078240020B7
:108FE00080240020FC3F0020873D0200458E0100C8
:108FF000FF030000FE030000107402000D8E01004C
:1090000095280020F7B506000D00170001930028F1
:1090100002D100242000FEBD0029FAD0FFF778FF1E
:10902000041EF6D0074B019A4363066045608760D3
:10903000054B002A00D0054BA363054920000AF028
:109040002DFEE7E7FC3F0020513D02006F3D02008E
:1090500078240020024B1868434258417047C046AC
:1090600078240020002310B504499C006258002A8F
:1090700001D00133F9E76050100010BD60240020DA
:10908000002310B5044A99008C58844201D0013362
:10909000F9E70020885010BD6024002010B500249E
:1090A000084BA200D058002802D003685B6898479C
:1090B0000134062CF4D1044B1B68002B00D120BFD7
:1090C00010BDC0466024002078240020F8B5FFF7CA
:1090D0003DFF00281CD02A4D2C68E36CDA0718D518
:1090E00002273B43E364274B1E680423F26C3000E5
:1090F0001343F364636BF3630AF008FE3000716C92
:1091000004F0C7F92868C36C3B4201D004F0FBF9B6
:10911000F8BD1D4F1D4E3A683168002A1ED12960E6
:109120002A68914208D11B0706D52C60FFF7B6FFCD
:109130003B68002BFAD02B6029688C42E8D033685A
:10914000994214D1124B4B63124B8B6320000AF0EF
:10915000DDFD2968626C4B6C20000DE0206DB8428B
:1091600003D1606D002800D002002A60D8E79C423D
:10917000ECD1002210004B6C04F04AF9C8E7C0465D
:10918000882400205C2400207824002080240020F3
:10919000FC3F0020873D020070B50500FFF7D6FEBA
:1091A000002803D128000DF083FE70BD0C4B1C6815
:1091B000E36CDB0706D5FFF7ABFE0A4B186000280F
:1091C00000D0040000F0D6F92D18A56420000AF0A4
:1091D00077FD054920000AF061FDFFF777FFE4E71E
:1091E000882400205C24002058240020F0B51E4B69
:1091F0001E4F1C683B6885B006000391002B30D0E1
:10920000FFF7A4FE00282CD0E36CDB070ED5FFF798
:109210007FFE174B051E186008D00AF051FD154956
:1092200028000AF03BFD2C00FFF750FF039B2000B5
:109230001B043343A3640AF043FD20000E490AF0E7
:109240002DFD0E4B0024F318012B07D9C0230093EA
:10925000039A0B4B31003868FFF7AAFD200005B0D8
:10926000F0BD084CFAE7C0468824002054240020B2
:109270005C240020782400208424002002FCFFFFCE
:10928000458E010016FCFFFF10B5FFF75FFE0028BA
:1092900009D0054C20680AF013FD044920680AF043
:1092A000FDFCFFF713FF10BD882400207C24002064
:1092B000F7B507000D0000282ED0FFF747FE002865
:1092C0002CD00724164E3068C36C1C4007D0154ABA
:1092D000290038000AF00BFD00242000FEBD04F038
:1092E000FAF802213268D36C1940019103D00321AE
:1092F0008B43D364F1E701242343D3642800B847A8
:109300003268D36C1900A143D164019C5B07E4D59A
:1093100028000AF024FDE0E7034CDEE7034CDCE71D
:10932000882400205F3D020017FCFFFF16FCFFFFB2
:10933000020010B5014B12CB12C210BD8C240020CC
:10934000034B1A68034B1A607E225A607047C0466E
:10935000042000208C24002070B5114E3278022A9F
:109360001AD081421AD90C1A072C17D90D000323E1
:1093700005432B4012D172B60A4DD2005051AA18A3
:1093800051608022A408120614430460327801322E
:10939000327062B6180070BD0348FCE70348FAE774
:1093A000972800209424002013FCFFFF17FCFFFFE8
:1093B00070B5134C06002378124D002B0CD11249C6
:1093C00012482B70FFF7C8FF114B984202D11E20A4
:1093D000FFF706FC0123237000242B78A34209DD4C
:1093E0000C49E300C91830000AF0D3FC002805D16D
:1093F0000134F2E71420FFF7F3FB002070BDC046F4
:10940000962800209728002000380020602900209E
:1094100017FCFFFF9424002070B5002819D0104BD2
:1094200010491C7800239C4216DDDA00555885420D
:1094300010D28A18526882420CD9041F2368002B6C
:1094400002DC1E20FFF7CCFB802322681B0613439F
:10945000236070BD0133E6E71E20FFF7C1FBF8E78C
:10946000972800209424002070B5051E14DD0B4EB3
:109470000B4C3368002B02D020680DF0A4FBFA21BE
:1094800020680024074B89008361C462694335600A
:109490000DF0A1FB200070BD0348FCE7A4240020D0
:1094A000D42400205195010017FCFFFFF8B5114F9F
:1094B00006003D68002D0AD130200DF0EDFD0400BE
:1094C00007F0DAF80C4BA5612360E5623C600B4DB8
:1094D0002B68002B09D110200DF0DEFD04000DF0EB
:1094E000C6FB20002C600DF09CFB3000FFF7BCFF9A
:1094F000F8BDC046D42400201C7C0200D0240020EB
:10950000014B18687047C046A424002070B50D4C6C
:109510002368002B03D00C4B1B68002B02D10620C4
:10952000FFF7C4FF20680DF093FB02000749C31743
:109530000D684E685219734120680A604B600DF047
:109540008DFB70BDD0240020D4240020B02000204A
:1095500010B5FFF7DBFF0024054BA200D058002810
:1095600002D003681B68984701340A2CF4D110BD5F
:10957000A824002010B5FFF7C9FFFA22034B920080
:1095800018685968002307F0A9FF10BDB02000201B
:1095900010B5FFF7BBFF024B1868596810BDC046F5
:1095A000B02000200B4B10B51B680400002B03D02B
:1095B000094B1B68002B02D10620FFF777FF002321
:1095C000064A99008858002801D00133F9E78C50E9
:1095D00010BDC046D0240020D4240020A8240020A0
:1095E000002310B5044A99008C58844201D00133FD
:1095F000F9E70020885010BDA824002010B5040011
:10960000002902D00B78002B03D1034B23602000EC
:1096100010BD0AF090FCFAE720740200F8B50400CF
:1096200008000D000AF047FE002803D1134B236009
:109630002000F8BD28000AF03EFE0530FFF7B8FE16
:1096400020600AF03BFE28000AF035FE23685880AF
:10965000236828001E1D0AF02BFE070028000AF0D0
:109660002AFE3900020030000DF049FD280026686E
:109670000AF021FE002336183371D9E72074020066
:10968000F8B504000E00150000290AD00B78002B55
:1096900007D0002A05D0080097B20DF08CFD874254
:1096A00003D90B4B23602000F8BD681DFFF780FE37
:1096B00020600AF003FE23682A005F8023683100DF
:1096C000181D0DF01CFD23685D1900232B71EAE7BE
:1096D00020740200014B03607047C04620740200F2
:1096E00010B50548054C20600AF0EBFD044A054919
:1096F00020000DF0CAFC10BD20740200D824002008
:1097000000200020293F0200084B73B51C680500AB
:10971000002C0AD0010026680831082268460DF0A6
:10972000EEFC0CCD31682000884773BDDC2400209E
:10973000014B03607047C0462874020010B5040056
:10974000002903D1044B0360200010BD0160080014
:109750000AF0B7FDF8E7C0462874020030B500688B
:109760004488A1420CDA8588AA4209DA002907DB7D
:10977000002A05DB5443401800198371002030BDD6
:109780000048FCE717FCFFFFF0B5070085B00E00AE
:109790001D00002921DD002A1FDD002B1DD00468DB
:1097A000638803938B4200DD0391A3880293934265
:1097B00000DD0292002306340193019B029A93423A
:1097C0000EDA29002000039A0DF099FC3B68AD19D0
:1097D0005B88E418019B0133EEE7024805B0F0BD59
:1097E0000020FBE717FCFFFFF8B504000D00160092
:1097F0001F00002901DB002A02DA0E4B2360F8BDAE
:10980000100048430630FFF7D3FD20600AF056FDF4
:1098100023685D8023689E80002F06D03B003200C5
:1098200029002000FFF7B0FFE9E720000AF069FCFB
:10983000E5E7C04628740200F7B506000D1E03D107
:10984000244B03603000FEBD00200F000400010027
:1098500001903B78002B1AD03022524294469C440F
:109860006246092A11D90A2B0AD1019B2418013317
:109870000193A14200DA2100002004000137E8E74B
:109880000028FBD001340020F8E70120F6E701278B
:10989000019A09B212B230007F42FFF7A5FF3900EA
:1098A0000A2033689A1D2C78002CCBD02300303B43
:1098B000092B08D8FB43DB173B4043431B19303BC4
:1098C0001F000135EFE7002FFBDB177001320F009F
:1098D000F7E7C04628740200F0B5040089B006A876
:1098E0000E0002921D00FFF723FD236802995A889B
:1098F000914235DA9B889D4232DA1F2E30D9079B80
:1099000001939E422CDC0523002273430393069BA4
:109910000493039B04999B18A03BCB5C0021059307
:10992000AE18029BCF1823685888019087420EDA40
:109930009888B0420BDDDB1910270F410198704366
:109940001B1805980740781E87417F429F7101319F
:109950000529E6D10132052ADBD1002009B0F0BD8E
:109960000048FBE717FCFFFFF7B5046807006388B2
:109970000E1E01931EDD994218DA0023063400936F
:109980003B68009A9B889A4212DA019BA1199D1BA1
:109990002A0020000DF0B3FB601931000AF094FB9F
:1099A0003B685B88E418009B0133E8E70AF0A9FBF9
:1099B000002000E00048FEBD17FCFFFF10B5054881
:1099C000054C20600AF07DFC044A054920000DF09A
:1099D0005CFB10BD28740200E02400200020002061
:1099E000BB40020010B5054C012120000AF051FCDB
:1099F000034A044920000DF048FB10BDE424002078
:109A0000002000203F4202000388074A10B50120D1
:109A1000934208D0834202D00020DB0703D41E20EB
:109A2000FFF7DEF8002010BDFFFF00000048704780
:109A300016FCFFFF10B53220FFF7D2F8004810BD2A
:109A400016FCFFFF10B5124C00230834828004601E
:109A500041620224142201008371847203638386AD
:109A6000028136310A78C360A243F1342240036197
:109A700043618361C36103620A7002004032137064
:109A8000021DD387013343878387C38710BDC04638
:109A900048740200F0B5544F97B03B680600059338
:109AA000002B00D08BE006AC0B331C2221212000C0
:109AB00001F076FA0EAD0B231D2222210AA801F037
:109AC0006FFA0B231B222321280001F069FA0820DA
:109AD0000DF0E2FA0122059B110004900BF08DFFBE
:109AE0003A2130000BF0E3FC00281DD0A38812AD12
:109AF000AB80A3795C20AB713C4B1293A3681493A9
:109B0000237B2B73637B6B73A37BAB730DF0C4FA66
:109B100004230193363300932A00049B3100040090
:109B200002F064F93C604AE0322130000BF0EDFCB9
:109B300000281CD0A38812ADAB80A3795C20AB7148
:109B40002A4B1293A3681493237B2B73637B6B7351
:109B5000A37BAB730DF0A0FA042301932E33009383
:109B60002A00049B3100040002F0DEFADAE73C210F
:109B700030000BF085FC00282CD0AB8812ACA38001
:109B8000AB79A420A371194B1293AB6814932B7B70
:109B900023736B7B6373AB7BA3730DF07DFA05239B
:109BA00005000293013B0193383300932200049B8C
:109BB000310002F039F80E4B3D6044351D600C4B0E
:109BC000094C1868002802D021680AF0E4FC2068DB
:109BD00017B0F0BD44200DF05FFA04220499040090
:109BE000FFF730FF9EE7C046E824002038740200EB
:109BF000EC240020F0B56149C56885B08D4254DA87
:109C00000300022236331B78134059D104698C4279
:109C100064DA020036321278520768D4426901923F
:109C20000200019E40328E426FDA0100363109781F
:109C3000090774D4002B7DD113780293002B16D022
:109C400006000127011DCB8F363601339BB2CB872F
:109C500003963678BC46374000D188E01D2B06D9E4
:109C600063469E43039B1E700023CB8713700AF04C
:109C700072FB434A0723904276D94249043B8D4206
:109C800072DBC8220133920095426DDC023B8C42AC
:109C90006ADB013B944267DC01980433884263DB52
:109CA0000133904260DC00235EE0C82200235200B2
:109CB0009542ABDD030036331A7800239207A5D412
:109CC000012306001F00363632785408A7433C00B3
:109CD00002279C40BA432243327097E7C8225200C1
:109CE00094429BDD020036321278520796D4060069
:109CF0000122363633789F08BA43970004229343F3
:109D00001A003A433270012388E7C821019E4900B6
:109D10008E428FDD01003631097809078AD40100AF
:109D2000012636310B78DF08BE430827F600BB4317
:109D300033430B701378032B00D97DE70133DBB27B
:109D40001370012B03D10021031DD98774E7042B65
:109D500000D071E7020036321178033B0B431370D9
:109D600000230430C3870B33180005B0F0BD092B66
:109D700000D87CE7029BCF87013B77E770FEFFFFAF
:109D8000FF700200E0FCFFFF70B5C369C1681A688C
:109D9000451D8AB00400EB7F114255D0002B58D1ED
:109DA000EB7F082B0DD90122A379134209D113436C
:109DB000A371A188130006A80AF05CF9FFF7DAFB8B
:109DC0002062EB7F012B23D80123A2791A421FD0F6
:109DD0000025A188A571022202A80AF04BF9A31D53
:109DE000DE7F012E14D1FFF7C5FB2B00226A801AFB
:109DF000994100900191019BA188AB4203D1174B7F
:109E0000009A9A4227D90123042206A80AF032F9BF
:109E10000322A3791340012B14D1FFF7ABFB0023DE
:109E2000226A801A9941994202D10D4B984209D970
:109E30000223A279A1881343A3710522012306A856
:109E40000AF018F90AB070BD0B2BA9D80133EB77D3
:109E5000A6E7013BFBE733000322D6E7E703000058
:109E6000DB05000010B50400034B08330360FFF767
:109E7000B7FB200010BDC0467C740200F0B507009F
:109E800000250E00040085B002930AAB1B7808374A
:109E900003930F4B0192083303608580857129007D
:109EA000182238000DF047F9039A310038000CF001
:109EB00075FF019B029AA380A31DE671DA77631DEB
:109EC00025622000DD77FFF76DFB200005B0F0BDB7
:109ED0007C7402000048704716FCFFFF10B5332069
:109EE000FEF77EFE004810BD16FCFFFF002310B5F4
:109EF0000400838083710D48216408302060802035
:109F0000C000A061E0612062E36020002361636122
:109F10006362A362E36223636363A363E3636364D3
:109F200011000AF010FB200010BDC046947402001E
:109F3000F0B5534F97B03B6806000593002B00D057
:109F40008BE00B331C22212106A80AAC01F028F873
:109F50000EAD0B231D222221200001F021F80B233E
:109F60001B222321280001F01BF808200DF094F893
:109F70000122059B110004900BF03FFD1D213000D4
:109F80000BF0ACFA00281DD0A38812ADAB80A379EA
:109F90006020AB713B4B1293A3681493237B2B730C
:109FA000637B6B73A37BAB730DF076F80523019392
:109FB000183300932A00049B3100040001F0EAFFEB
:109FC0003C604AE03C2130000BF0B6FA00281CD07F
:109FD000A38812ADAB80A3796020AB71294B12939B
:109FE000A3681493237B2B73637B6B73A37BAB738B
:109FF0000DF052F805230193373300932A00049B98
:10A000003100040002F032F9DAE73C2130000BF0B5
:10A0100037FA00282AD0AB8812ACA380AB79A420F1
:10A02000A371184B1293AB6814932B7B23736B7B38
:10A030006373AB7BA3730DF02FF805230500029328
:10A04000013B0193383300932200049B310001F05F
:10A05000EBFD0D4B1D6044353D600B4B084A1B6802
:10A060001068002B00D0436417B0F0BD48200DF0FD
:10A0700013F8052204990400FFF738FFA0E7C04653
:10A08000EC24002038740200E824002082B0F0B5EF
:10A090000400EDB06420739372920CF009FF052266
:10A0A00010A811000AF036F8974911A8FFF7C4FB71
:10A0B000002221AB6CA91A605A609A600C33994255
:10A0C000F9D11922002113A80DF035F8A0680AF083
:10A0D000F9FD00260B90FF21A06800F047FD8B4F93
:10A0E000A06800F05DFB07960996884B9F4203D05D
:10A0F000874B9F4200DBFDE0A0680AF0E5FDA56804
:10A1000084491AA8FFF77AFA78221AA9280000F0E1
:10A1100075FC1AA809F008FF00267C4F0322099B52
:10A12000606801331A4009920AF0ADF905006068D1
:10A130000AF0B0F90022784B05929D4210DB013203
:10A1400005922A00C8320BDBAA2204219200059155
:10A15000954205DC02220592C82D01DD01320592EF
:10A1600000220692984210DB012306930300C833B5
:10A170000BDBAA2304329B000692984205DC0223E3
:10A180000693C82801DD0133069310A809F0B9FF32
:10A19000002513ABEB5C012B08D160496B00CA189A
:10A1A0005278C95C10A8FF23FFF7D8FA0135192DA2
:10A1B000EFD16B4618229A5E6B4610A81421595EA7
:10A1C000099BFFF7CBFA002F01DB0F2E07D90023E5
:10A1D000A068009374301A0010A909F0A8FF0123A9
:10A1E0000893089B05995A004C4B9B189A1E1278AD
:10A1F0008A4226D1013B1B78069A934221D1089AC4
:10A200006CAB9B18663BFF3B0A931B78012B18D065
:10A210000C23079A216853431D0000220CA80AF062
:10A22000BCF921AA2B0094460CAA634423CA23C379
:10A2300001220A9B01361A70079BF6B20133DBB28A
:10A240000793089B013308931A2BCAD164200CF0A2
:10A250002FFE079B643F3FB2182B00D845E71A003A
:10A2600021A91AA80AF0A7FB6A461DAB23CB23C27B
:10A270001B6813601A991B9A1C9B20680AF075F9D9
:10A28000E568002D0CD0264912A8FFF7B7F91C236A
:10A290001AAA12A928000BF0BEF812A809F044FE71
:10A2A000A0680AF011FD11A912A8A56809F012FF13
:10A2B00000221C4B009212A901932800130000F009
:10A2C0000DFB12A809F0F9FEFA2080000CF0F0FD59
:10A2D000A0680AF0F9FC0B99A06800F047FC11A8EF
:10A2E00009F0EBFE10A809F0E8FE6DB0F0BC08BC68
:10A2F00002B01847002F02D00F2E00D00EE7A06842
:10A3000000F04EFA0AE7C046078202008C3C0000CB
:10A31000D18AFFFF4C82020058FDFFFF6C820200D1
:10A3200061820200DC050000F0B587B001930EAB3E
:10A330001B88060003930D9B0D000093019B029266
:10A340000C9F002B3CD0002F02D1009BDB0737D5A0
:10A3500028200CF0A1FE0400103009F081FE029BC1
:10A360001820258063800CF097FE0500009B0822D2
:10A370000593019B002103600C3004970CF0DBFE79
:10A38000082204A9281D0CF0BAFE0E4B02226B61B4
:10A3900000230399E3602362636233680A43A56084
:10A3A000A2805B68210030009847002806D020007A
:10A3B00009F070FD20000CF064FE034807B0F0BD0A
:10A3C0000248FBE7DB45020016FCFFFF17FCFFFF1E
:10A3D00070B58CB08360109B01604260C360040064
:10A3E000184918000AF0DEFF051E14D001001C22D7
:10A3F000103105A80CF083FE6A4608AB43CB43C27C
:10A400001B68136020680599069A079B0AF0ADF84F
:10A4100028000CF036FE0C4B186800280ED00B4AB2
:10A4200005AB059200220692C03202926A4622CB08
:10A4300022C2230003220521FFF776FF20000CB083
:10A4400070BDC04661820200DC2400208DA00100A6
:10A45000F0B5040085B0637A9C46002B04D120003F
:10A460000AF0C7FA05B0F0BDA37A266F0193102356
:10A47000019AF35600259B1801229A402900F3689F
:10A4800003920293029BAB4231DDB368019A6B43A6
:10A490009B1872695B00E77AD3181A785878E379C9
:10A4A000012F14D15F1E3F1A10003A005B00434396
:10A4B000606F8218D3189B79634500DD6346627B29
:10A4C0001A4202D00123AB4019430135DAE7022FCB
:10A4D00005D15F1EBA1A277A013F381AE6E7032F23
:10A4E000E4D1277A013FBF1A02003800DEE71123CA
:10A4F000C943F356606C994023691940039B194383
:10A500000CF096FDA27B072AACD8637B0C495B005C
:10A510006373531CDBB290004158A373022A03D823
:10A5200008000CF0BAFC96E7064B200023630023DA
:10A530006363054BE462236414300CF04CFB91E739
:10A54000C074020051A40100DD49020010B50400EE
:10A55000044B03600CF037FB200006F0A3F820004A
:10A5600010BDC0461C7C020010B504000E4B083321
:10A570000360FFF735F82000743009F09EFD2000DD
:10A58000603009F09AFD2000583009F0CDFC200021
:10A59000503009F0C9FC2000044B14306361FFF710
:10A5A000D5FF200010BDC046E0740200307C0200E0
:10A5B000F8B500250400324B8580083303608571AF
:10A5C000143016000F0006F057F820002D4BE562FE
:10A5D000636125645030FFF77DF820005830FFF7A5
:10A5E00079F820006030FFF7A3F820000423F25E22
:10A5F00033682667590009B2743009F08BFD33685F
:10A60000226FE37173680126237210236581A7808E
:10A610002561D35691685918994204DD300098405D
:10A6200001330543F8E711230120D356D1685918A7
:10A63000994206DD02009A402669013332432261C5
:10A64000F6E714200CF028FD226900212A4301239B
:10A65000060006F09BFAFF23220063720133A381F8
:10A66000002348326664A37320001370A366FEF7CC
:10A6700099FF0123A27920001343A371F8BDC046BE
:10A68000E0740200307C0200F0B5437A85B004002B
:10A69000002B04D120000AF0ACF905B0F0BD012276
:10A6A000837A11009C461023066F0025F35603920F
:10A6B0006344994002912900F3680193019BAB42E6
:10A6C0002CDDB36872696B4363445B00E77AD3188F
:10A6D0001A785878E379012F10D15F1E3F1A1000C5
:10A6E0003A005B004343606F8218D3189B79002BBC
:10A6F00002D0039BAB4019430135DFE7022F05D1A0
:10A700005F1EBA1A277A013F381AEAE7032FE8D109
:10A71000277A013FBF1A02003800E2E71123C9433C
:10A72000F356606C994023691940029B19430CF061
:10A730007FFC667AB31EDBB2FC2B14D8FEF7E0FE7A
:10A740000B4B0500236300230A4863630A4BFF2178
:10A75000E4622364704306F09BFD2900414320001E
:10A7600014300CF038FA637A012B00D995E791E7A1
:10A77000F3490200B6030000DD4902001FB50123C2
:10A7800081881A00684609F075FC012303491A0004
:10A79000684609F06FFC05B000BDC046FE0300002E
:10A7A0001FB5030048331A780400002A0DD0002298
:10A7B0001A70012381881A00684609F05BFC0123A6
:10A7C00004491A00684609F055FC2000743009F06D
:10A7D00098FC1FBDFF03000010B548300378002B24
:10A7E00006D00378012B03D00121024809F0A7FA13
:10A7F00010BDC046FF03000010B501210400062073
:10A8000009F09DFA064B984208D148342378002B72
:10A8100004D02378012B01D020BFF7E710BDC0463C
:10A8200016FCFFFF70B50600141E19DB0500483545
:10A830002B78002B02D02B78012B13D10023300072
:10A840001A007430FFF748F8002C07D033004A3361
:10A850001C80002407234C3634802B70200070BDF0
:10A86000014CFBE7014CF9E717FCFFFF12FCFFFF6F
:10A87000F8B517000A68050052880B00012A09D1B3
:10A880000021180009F0DFFB002201002800FFF77B
:10A89000C9FFF8BD002F19DD060048363278002ABE
:10A8A00002D03278012A13D12A00002428005C3219
:10A8B00019001480583009F0A1FB2B004A331F8087
:10A8C00003234C352C8020003370E2E70148E0E799
:10A8D0000148DEE717FCFFFF12FCFFFF73B5079C82
:10A8E0000500002C1CDB060048363078002802D01A
:10A8F0003078012816D106981BB2C0B2009028000B
:10A9000012B2743009F013FC002C07D02B004A332C
:10A910001C80002407234C352C803370200076BD2A
:10A92000014CFBE7014CF9E717FCFFFF12FCFFFFAE
:10A93000F7B505000E00171E26DDFFF74DFF2B00B3
:10A9400048331C78E4B2002C20D133685B88012B9B
:10A9500009D12100300009F076FB22000100280017
:10A96000FFF760FFFEBD310001A809F03FFB3A0090
:10A9700001A92800FFF77CFF01A809F0D5FA2800FB
:10A98000FFF73AFF2000EDE70148EBE70148E9E770
:10A9900017FCFFFF11FCFFFFF0B587B00D9C060010
:10A9A0000F0002920393002C20DBFFF715FF33000A
:10A9B00048331D78EDB2002D1AD1390005A809F0F1
:10A9C00089FB0C9B01940093029A039B05A930001C
:10A9D000FFF784FF05A809F070FB002C03D03000BE
:10A9E000FFF70AFF2C00200007B0F0BD014CFAE78A
:10A9F000014CF8E717FCFFFF11FCFFFFF8B504005E
:10AA0000171E1DDD060048363378002B02D0337840
:10AA1000012B17D12200E3795632013B137023003A
:10AA20000025200054331D80503009F0E7FA230040
:10AA30004A331F80022328004C3425803370F8BD30
:10AA40000148FCE70148FAE717FCFFFF12FCFFFF93
:10AA5000F7B505000F00161E18DDFFF7BDFE2B0031
:10AA600048331C78E4B2002C12D1390001A809F057
:10AA7000BDFA320001A92800FFF7C0FF01A809F0C4
:10AA800053FA2800FFF7B8FE2000FEBD0148FCE79E
:10AA90000148FAE717FCFFFF11FCFFFFF8B50400BF
:10AAA000171E2DDD060048363278002A02D0327893
:10AAB000012A27D15D42069BFF331FD16B1D220067
:10AAC0001BB2643213802300200066331D70603097
:10AAD00009F008FB230000226C331A70954200D065
:10AAE0003D0023004A331D80079B00205A1E9341DE
:10AAF000013F4C34053327803370F8BD069BDEE7F9
:10AB00000148FAE70148F8E717FCFFFF12FCFFFFD6
:10AB1000F0B587B005000F00161E03931EDDFFF78A
:10AB20005BFE2B0048331C78E4B2002C18D13900AE
:10AB300005A809F0CFFA0D9B320001930C9B05A9E3
:10AB400000932800039BFFF7A9FF05A809F0B5FAB9
:10AB50002800FFF751FE200007B0F0BD0148FBE7D9
:10AB60000148F9E717FCFFFF11FCFFFFFF2902D89E
:10AB70004172002070470148FCE7C04617FCFFFF08
:10AB800013B5040004A80078009020000BF091FF9A
:10AB9000002801D1207516BD0048FCE70EFCFFFF20
:10ABA00013B5040004A80078009020000BF069FFA2
:10ABB000002801D1207516BD0048FCE70EFCFFFF00
:10ABC0007FB50D0011000F226A4404001E1E117093
:10ABD00016D0089B002B13DD012329000093FFF7FB
:10ABE000DFFF002802D0074804B070BD0090089B2A
:10ABF000320029002000FFF7C3FF0028F4D0F2E75D
:10AC00000148F1E70EFCFFFF17FCFFFFF7B5070057
:10AC10000D1E3FD00023022604690193002C35D07D
:10AC2000AA88A3885340334204D1324204D1AB886E
:10AC3000334226D0646AF1E7A968A0680AF0C2FE30
:10AC40000028F4D02B88002B02D022889A42F1D120
:10AC50006B88002B02D062889A42EBD1EB68E268E5
:10AC6000934201D0002BE5D17B68002B01D020005E
:10AC70009847A288084B1343A380019B013301939B
:10AC8000D8E7A368AA689342D4D1DBE7019B2000F0
:10AC9000002B00DC0148FEBD0080FFFF17FCFFFF1A
:10ACA000F0B5060085B00D1E5DD001270469002CAB
:10ACB00026D00221AA8800230A4202D0A3885B087A
:10ACC0003B40226829688A4214D1A068A968002BF9
:10ACD0000ED00AF077FE00280CD0EB68E2689342B1
:10ACE00008D1A3881AB2002A06DB204805B0F0BDBF
:10ACF0008842F2D0646ADAE75B045B0CA380F4E775
:10AD000030692A88002807D135610123184968462F
:10AD100009F0B0F90020E9E7010003001C88944223
:10AD200006D25C6A1900002C0DD02300F6E7230040
:10AD30001C88944207D15F886C88A74203D85C6A5C
:10AD40001900002CF3D1884209D10B889A4204D310
:10AD500005D148886B88984201D96962D4E74B6A6B
:10AD60006B624D62D1E70348C0E7C04616FCFFFFA7
:10AD7000FD03000017FCFFFF064B10B51A0004008E
:10AD800008322C33026083600830FEF779F9200026
:10AD900010BDC046F874020008B4024B9C46083847
:10ADA00008BC604779AD010008B4024B9C460838E6
:10ADB00008BC60473B4E02000C4A002311002C32B5
:10ADC000083110B5436083818373826003614361FE
:10ADD0008361C383016004000830FEF743F9044B2C
:10ADE0001A68002A00D11C60200010BDF87402000F
:10ADF000DC240020F7B50E00012504690192002C27
:10AE000036D0238832889A4201D0002B23D1638820
:10AE100072889A4201D0002B1DD1FEF797F80123CA
:10AE2000002806D0C022A3881340C03B5A42534199
:10AE3000DBB2019A934219D1A7883BB2002B15DBF4
:10AE400010223100A0180CF05AF940231F4204D000
:10AE5000200009F0FBFF646AD1E7FEF777F80028CD
:10AE6000F6D021000348FEF723FAF4E70025F2E7C5
:10AE70002800FEBD4D4E020008B4024B9C46083827
:10AE800008BC6047D54F0200F0B587B001930EAB08
:10AE90001B88060003930D9B0D000093019B0292FB
:10AEA0000C9F002B3CD0002F02D1009BDB0737D535
:10AEB00028200CF0F1F80400103009F0D1F8029BC2
:10AEC0001820258063800CF0E7F80500009B08221D
:10AED0000593019B002103600C3004970CF02BF9C3
:10AEE000082204A9281D0CF00AF90E4B02226B61FE
:10AEF00000230399E3602362636233680A43A56019
:10AF0000A2805B68210030009847002806D020000E
:10AF100008F0C0FF20000CF0B4F8034807B0F0BD03
:10AF20000248FBE70F50020016FCFFFF17FCFFFF73
:10AF3000F0B50400160000258380164A164B857173
:10AF40000260218146810573186889B08C46A84249
:10AF50001DD0124A05950492C02202926A4604ABA3
:10AF600082CB82C223002A006146FFF78DFFC022F8
:10AF7000094B0A49186802926A46069106AB079582
:10AF800082CB82C223002A003100FFF77DFF200020
:10AF900009B0F0BD3C750200DC24002039510200EC
:10AFA00030B5002403730123034D84710560818053
:10AFB00082734373846030BD3874020070B5837946
:10AFC0000400DB0702D580680CF05BF8A3799B07CF
:10AFD00002D5A0680CF055F8A3795B0707D5A0232C
:10AFE0000021144ADB00D150A0680CF04AF8A37984
:10AFF0001B0708D5A568002D05D028000AF053FDD1
:10B0000028000CF03EF8A379DB0605D5A0680028DF
:10B0100002D00368DB6898476023A2791A4205D002
:10B02000A068002802D003685B6898470023A360EB
:10B03000A37170BD00700040F7B50126037B0400CA
:10B0400033422AD0612385791D4017D1FFF7B6FF1F
:10B0500018200CF021F80E230700E3561822009365
:10B06000637B290001930CF066F8019A009938007F
:10B070000BF094FEA379A7603343A3716023A279F8
:10B08000A0681A4202D00BF035FDFEBD436940684E
:10B090001B681840431E9841F7E70148F5E7C04692
:10B0A00016FCFFFF10B50124837941731C4004D0C6
:10B0B00080680BF004FF002010BD6022134203D013
:10B0C00080680BF01EFDF6E70048F5E716FCFFFF71
:10B0D00070B5040000250C4B0E0008338580857187
:10B0E0000360210018300AF0D8F820002100203039
:10B0F0000AF0FEF8054BA680E5802572E560256123
:10B10000656120001C6070BD4C750200F0240020B9
:10B110008379DB0702D5C160002070470048FCE757
:10B1200016FCFFFF8379DB0701D5C0687047014833
:10B13000FCE7C04616FCFFFF70B545690400002D12
:10B1400022D0037A032B21D8FFF7ECFFA8622C2032
:10B150000BF0A2FF2C22002105000BF0ECFF0022D7
:10B1600063695A622369934208D1636923610020AD
:10B17000237A65610133237270BD13005A6A002A75
:10B18000FBD162695A62F2E70148F5E70148F3E74B
:10B1900017FCFFFF13FCFFFF144B70B55A68144CEB
:10B1A000002A03D000225A600132A2601A69002AE4
:10B1B00017D0002119618023DB000E4DE358286869
:10B1C000012B0FD1A923DB00E1584942FFF7A0FF73
:10B1D0002868FFF7B1FF2B685A69074BE25001233B
:10B1E000A36070BDFFF794FFF9E7C046FC10004074
:10B1F00000100040F02400200405000070B5050098
:10B200000C0008F02AFD002804D1034A034BEC711E
:10B21000D45070BD0248FCE7001000402405000037
:10B2200016FCFFFFF8B5837905000020DB0768D422
:10B2300008F013FD002865D16E69002E08D12C306E
:10B240000BF02AFF04002C2231000BF074FF6C611C
:10B250006B69002B58D000222C4B01215A608022B0
:10B26000D20511605A68002AFCD00622284B294CCE
:10B270009A56294B0026E2500722043BE25008333D
:10B28000E650264A264B2800E250E979FFF7B6FF40
:10B2900001220821234B2448E6500433E250234B7B
:10B2A000234FE1500433E050022322482350224828
:10B2B0002750224F043827501827214827506F69FC
:10B2C00020482750C120800021501F498538FF3871
:10B2D0000B500B608021890060580E33034363508C
:10B2E0001A4B5E6062605A68002AFCD00026012773
:10B2F0001E612800A760FDF7B5FE3000AB791F4343
:10B30000AF71F8BD1248FCE71248FAE7FC000040B4
:10B3100029830200001000400C050000746962756A
:10B320001C0500002C05000020000402140500008C
:10B33000FFFF0000340500003C0500002110010063
:10B34000540500000405000000E100E0FC1000408E
:10B3500016FCFFFF13FCFFFF03000069002809D063
:10B360000221054AD167426A1A611A7A013A1A72B1
:10B37000024B19607047C04604E100E000E100E0C4
:10B3800070B504000D0008F068FC00283AD1002DCB
:10B390003AD02B78232B37D802221C4B1C49DA6772
:10B3A0001C4B013A58610A615A69002AFCD00020FE
:10B3B000194A8D5058600130086058680028FCD048
:10B3C000002018610130886018690028FCD060698D
:10B3D000885000225A6101320A615A69002AFCD061
:10B3E00000225A6001324A605A68002AFCD00020CC
:10B3F000186101238B60C0210222084B49005A507A
:10B400001A6070BD0648FCE70648FAE704E100E070
:10B4100000100040FC1000400405000000E100E0C6
:10B4200016FCFFFF17FCFFFF37B54C680500002C2A
:10B4300004D10C4908F00AFF28003EBD636A01A848
:10B440004B602278211D033AA36A08F02BFF2000ED
:10B450000BF017FE01A9280008F0F8FE01A808F07B
:10B46000EEFEE9E7E424002030B505008DB00029A8
:10B4700012D0232A10D801ACD31C00202370012342
:10B48000A07002A86370E3700BF039FE21002868F9
:10B49000FFF776FF0DB030BD0048FBE717FCFFFF5C
:10B4A00010B5002903DB024B19600BF06EFB10BDD9
:10B4B000F424002070B504001E0004AB1D7805F0D4
:10B4C000A5F820000E4B40302360FEF703F923005F
:10B4D00001364C33013522001E701D730023E1211B
:10B4E0004E32A3646365138053809381D381013B03
:10B4F000200063644902FFF7D3FF200070BDC046FF
:10B50000E8730200F7B580277F053D697C69082252
:10B51000113C6C430600210068460BF0F0FD104B17
:10B52000009A9A4219D00093002301937969300060
:10B530001339694309F0F1FE019A0099300009F0CE
:10B5400004FF2100300009F0E8FE7969AB081339E7
:10B5500069432200300009F0EAFE0198FEBDC046B2
:10B56000FECA0000F0B50D00A9B00D9200213022F6
:10B57000060010A80B930BF0DEFD28000BF01BFE5D
:10B58000431C0C93102B00D9B5E00B9B202B00D94A
:10B59000B1E02900300009F005FF071E50D1290055
:10B5A0000C9A10A80BF0ABFD0D990B9A14A80BF098
:10B5B000A6FD80235B051A695F690C92113F7A43EF
:10B5C00030005D690B92FFF79DFF302200210400DF
:10B5D0001CA80BF0B0FD290000270C9B1339594320
:10B5E000300009F09AFE0D9730257D430B9B083300
:10B5F000ED18A74242DA290030221CA80BF07FFD8B
:10B6000010A91CA80BF0CDFD002827D13C49300023
:10B6100022000E910F9409F098FE6A46099513AB2B
:10B6200023CB23C223CB23C223CB23C23000129BC4
:10B630001099119A09F097FE01230D930137D3E772
:10B6400010300B9A0D990BF04BFD040038000BF0F5
:10B6500018FD002CA3D1200029B0F0BD6A46099541
:10B660001FAB23CB23C223CB23C223CB23C2300067
:10B670001C991D9A1E9B09F076FEDFE7E5433023F7
:10B68000ED1725405D430B9B08355D190D9B002B85
:10B690001DD10C9B3021981E05F070FDA0422CD0CE
:10B6A00017490134300022000E910F9409F04DFE2D
:10B6B0006A46099513AB23CB23C223CB23C223CBEA
:10B6C00023C230001099119A129B09F04CFE0B997D
:10B6D000300009F022FE80235B0559690C230C9A87
:10B6E000133963434A430233110030000B9A09F0C7
:10B6F0001EFE0024AFE7034CADE7034CABE7C046AA
:10B70000FECA000017FCFFFF13FCFFFF8023F0B50B
:10B710005B051A6995B003925A6905910399113A2C
:10B7200051435D69039B133D040002915D43FFF7A4
:10B73000E9FE061E3BD0002730220021083508A86C
:10B7400001950BF0F8FC0199200009F0E6FD049743
:10B7500030237B43029D0835ED18B7421FDA2900DC
:10B76000302208A80BF0CBFC059908A80BF019FDB6
:10B7700000280AD11949721E20000691079209F08B
:10B78000E4FD012304930137E2E70C23019A290029
:10B79000200009F0CCFD019B30330193F3E7049BBB
:10B7A000002B06D10D493200200009F0CEFD0C48D7
:10B7B00012E00299200009F0B0FD80235B05596971
:10B7C0000C23039A13394A437343110020000233B8
:10B7D000029A09F0ACFD002015B0F0BDFECA0000D1
:10B7E0000CFCFFFF70B50400A280FA2200230800C1
:10B7F0000C49920008312160A3716061E260A3608E
:10B800006382094909F0CEFD051E09D00100200020
:10B810001031022212300BF072FC28000BF031FCC8
:10B82000200070BD647502009E82020030B50225C2
:10B83000837987B004002B4204D1FDF713FCA37970
:10B840001D43A571200009F0F7FD00281CD06B46B0
:10B85000DD1C280009F0E7FD2B78002B17D001A88C
:10B8600009F0DFFD0321019AD3170B409B189B10B1
:10B870002382FDF77FFEE368A18818180123A060EA
:10B880001A0002A808F0F6FB002007B030BD012224
:10B89000064B1A60064A51680029FCD0002151600D
:10B8A000044A1268019201225A60DBE700C000409E
:10B8B000FCC0004008C50040022802D10122014B13
:10B8C0001A7070479828002070B5064C0500237840
:10B8D000002B04D1044802F0A7FD012323702800A7
:10B8E00070BDC04699280020B9B8010070B50C00A1
:10B8F00008F0B3F9002810D00023144DA40A2B70CF
:10B90000200009F0ADFD002803D00A200BF0D0FA8A
:10B91000F6E72B78002BFCD070BD02210C4B0D4AB2
:10B9200099508021C90008005D58002DFCD0A1214C
:10B93000C9005C5019580029FCD000219950802181
:10B94000C9005A58002AFCD0E6E7C04698280020D3
:10B9500000E0014004050000F8B50C0015001E00D1
:10B9600008F07BF9002811D00023174F3B703200FC
:10B970002900200009F072FD002803D00A200BF0F6
:10B9800097FAF4E73B78002BFCD0F8BD01210F4873
:10B990000F4B844619508021C9005A58002AFCD008
:10B9A00080270022FF00964207DD91006858605012
:10B9B000D9590029FCD00132F5E7002261465A50DE
:10B9C000DA59002AFCD0E0E798280020040500009E
:10B9D00000E0014008B4024B9C46443808BC604774
:10B9E00065540200FA21F8B50389C90004005943DF
:10B9F000324809F0FDFFFA21890005F0BFFB304F06
:10BA00002081A17A380009F0F3FF230026002500E9
:10BA100022894C33A072A0361A808C3531780023ED
:10BA20002A22286809F05DF9002801D02548F8BDD0
:10BA300031781F235B22286809F053F90028F5D1DB
:10BA4000317820235C22286809F04BF90028EDD1D9
:10BA5000317801232C22286809F043F90028E5D128
:10BA6000317801232D22286809F03BF90028DDD127
:10BA7000317801232E22286809F033F90028D5D126
:10BA8000A17A380009F0AFFF3178C3B20E222868DE
:10BA900009F027F90028C9D1FA21238989005943DF
:10BAA000064809F0A0FF01230343DBB231782A22C4
:10BAB000286809F016F90028B9D0B7E784750200A4
:10BAC0007C7502000EFCFFFF08B4024B9C46443814
:10BAD00008BC6047E5B90100074B10B51A00040027
:10BAE00008323C3302604364443008F0FAFC200022
:10BAF00008F023FC200010BDE475020008B4024BDE
:10BB00009C46443808BC6047D9BA010008B4024BCF
:10BB10009C46443808BC60476F540200F0B50425C9
:10BB200083798BB004002B4204D1FDF79BFAA379F3
:10BB30001D43A57120009030FFF77EFA0026B04229
:10BB40000FD12300A033197820000C2307AD0093F8
:10BB50008C302B0001220068FFF732F8061E03D05C
:10BB60002C4E30000BB0F0BD0A2304AA9B182A7893
:10BB70005A706A781A700022985EAA785A70EA7829
:10BB80001A700022995E03912A795A706A791A70A4
:10BB900000229F5EAA795A70EA791A7000215A5ED3
:10BBA00004922A7A5A706A7A1A7000215A5E0592B3
:10BBB000AA7A5A70EA7A1F251A7000229B5EA27A2E
:10BBC00003999C46514349425043CB172B407A433B
:10BBD0005B185B11A361C3172B401818D3171D40C6
:10BBE0006423AD18059A5B425343A36764236146FF
:10BBF000049A40115A434B43E2676D11221DE061E4
:10BC000025622000D36708F011FC2000443008F0C2
:10BC10006FFCA6E70EFCFFFF08B4024B9C464438BD
:10BC200008BC60471DBB0100F7B51E00040008AB4F
:10BC30001B881500019309AB00911A8831000AABEB
:10BC40001F88FDF7FFFE20003A0031004430FEF768
:10BC50004DF9134B20001A003C3363642300083273
:10BC60002260009A8C331A60AB8890308380AB7965
:10BC7000019A83710B4B03210360AB6883602B7BBC
:10BC800003736B7B4373AB7B83732300A0331A80F6
:10BC9000FFF708FA2000FFF7A5FE2000FEBDC04612
:10BCA000E475020038740200F8B5FA260189B6007E
:10BCB00004007143264809F09BFE310005F05EFA4E
:10BCC000244F2081A17A380009F092FE2500A0724D
:10BCD0005835297800232A22606C09F002F80028E0
:10BCE00001D01D48F8BD297810232B22606C08F084
:10BCF000F8FF0028F5D1297801232D22606C08F087
:10BD0000F0FF0028EDD1297801232E22606C08F085
:10BD1000E8FF0028E5D1A17A380009F064FE29780F
:10BD2000C3B20E22606C08F0DCFF0028D9D1218953
:10BD30000748714309F057FE01230343DBB229781A
:10BD40002A22606C08F0CDFF0028CBD0C9E7C0469E
:10BD50004C760200447602000EFCFFFF10B5040092
:10BD6000034B0833036008F0E8FA200010BDC0461A
:10BD7000AC7602007FB50425837904002B4204D100
:10BD8000FDF770F9A3791D43A57120004830FFF736
:10BD900053F90025A8420DD1230058331978062302
:10BDA00002AE009301223300606CFEF709FF051E0E
:10BDB00003D00D4D280004B070BD022300210420E3
:10BDC000F356A27ADB00715630565343C000C900C7
:10BDD000514342435B42A3612368E16122629B6A53
:10BDE00020009847E6E7C0460EFCFFFFF8B50400C8
:10BDF000150006AA168807AA0F0012881900FDF779
:10BE000021FE0F4B6764083323602300AA88483360
:10BE10009A80AA7920009A710A4AA264AA682265C7
:10BE20002A7B1A736A7B5A73AA7B9A730023A371C5
:10BE3000230058331E80FFF737FF2000F8BDC046AF
:10BE4000AC7602003874020010B50400034B0833CE
:10BE5000036008F046FB200010BDC046407702009A
:10BE6000F0B507005C3787B0040039780023102252
:10BE7000806C08F036FF0326002802D01F4807B068
:10BE8000F0BD0F2502ABED1801233978082200938D
:10BE9000A06C2B00FEF794FE184B9842EED02B7846
:10BEA000334203D06420FDF777F9EAE7FA262189C7
:10BEB000134DB6007143280009F09AFD310005F0DA
:10BEC0005DF920813978A0231122A06C08F009FFC8
:10BED0000028D3D1A36C21890393714328003F78B4
:10BEE00009F081FD01231843C3B2102239000398E1
:10BEF00008F0F7FE0028C2D0C0E7C0460EFCFFFFE6
:10BF0000E076020070B50825837986B004002B42E4
:10BF100004D1FDF7A7F8A3791D43A57120004C308B
:10BF2000FFF78AF8061E0DD023005C33197806232C
:10BF300004AD009301222B00A06CFEF741FE061E0B
:10BF400003D0134E300006B070BD0E232A786B4428
:10BF50005A706A7820001A700022995E64224A435F
:10BF6000A263AA785A70EA781A700022995E642255
:10BF700052425143616329795970697919700021DE
:10BF80005B5E5A432368E2631B6A9847DAE7C04660
:10BF90000EFCFFFFF8B50400150006AA168807AAD4
:10BFA0000F0012881900FDF7A1FF0D4BA76408339D
:10BFB00023602300AA884C339A80AA7920009A71C2
:10BFC000084AE264AA6862652A7B1A736A7B5A731C
:10BFD000AA7B1E829A73FFF743FF2000F8BDC0467C
:10BFE0004077020038740200F7B5FA250189204F26
:10BFF000AD0004006943380009F0FAFC290005F09F
:10C00000BDF8A17A20811B4809F0F2FC2600636C80
:10C01000A072009321895836337869433800019320
:10C0200009F0E1FC07230343DBB2202201990098C9
:10C0300008F057FE002801D00F48FEBD31781023CC
:10C040002222606C08F04DFE0028F5D1A17A094843
:10C05000656C377809F0C7FC80235B420343DBB291
:10C0600023223900280008F03CFE0028E5D0E3E751
:10C07000747702006C7702000EFCFFFF10B504001D
:10C08000034B0833036008F058F9200010BDC04688
:10C09000E4770200F0B50425837985B004002B42D3
:10C0A00004D1FCF7DFFFA3791D43A57120004830C0
:10C0B000FEF7C2FF061E0DD0230058331978062361
:10C0C00002AD0093A8222B00606CFEF779FD061EDE
:10C0D00003D0144E300005B0F0BD1F200023EA5EEF
:10C0E000D31703409B180222A95E5B11CA170240B6
:10C0F000521804216F5E5211F9170140C9194911F4
:10C100002B806A80A980A07A4343424341435B422B
:10C11000E36123685242A26121629B6A2000984732
:10C12000D8E7C0460EFCFFFFF8B50400150006AACC
:10C13000168807AA0F0012881900FDF783FC0F4B21
:10C140006764083323602300AA8848339A80AA7959
:10C1500020009A710A4AA264AA6822652A7B1A738F
:10C160006A7B5A73AA7B9A730023A3712300583306
:10C170001E80FFF739FF2000F8BDC046E4770200BB
:10C1800038740200F7B5FA2504000189134EAD009A
:10C190006943300009F02CFC290004F0EFFF270070
:10C1A000A36C208100935C373B7881B269433000F7
:10C1B000019309F018FC6022C3B20199009808F0BD
:10C1C00090FD002801D00648FEBD39780123622287
:10C1D000A06C08F086FD0028F6D0F4E7187802007D
:10C1E0000EFCFFFF10B50400034B0833036008F09A
:10C1F00078F9200010BDC046407802007FB50825C0
:10C20000837904002B4204D1FCF72CFFA3791D4352
:10C21000A57120004C30FEF70FFF051E0DD0230046
:10C220005C331978062302AE0093E8223300A06C39
:10C23000FEF7C6FC051E03D00B4D280004B070BDF0
:10C240000223F25E96235B425A4362630021725ED0
:10C2500020005343A3630423F25E96235343E36316
:10C2600023681B6A9847E8E70EFCFFFFF8B5040057
:10C27000150006AA168807AA0F0012881900FDF7F4
:10C2800035FE0D4BA764083323602300AA884C3386
:10C290009A80AA7920009A71084AE264AA686265C5
:10C2A0002A7B1A736A7B5A73AA7B1E829A73FFF7E2
:10C2B00069FF2000F8BDC0464078020038740200D3
:10C2C00010B50400054B083303601C3007F02CFE4A
:10C2D0002000183007F028FE200010BD6C78020006
:10C2E000FF23F0B52C4D8DB02B7000230400694660
:10C2F0000088009303F086F9002802D16B469B78F2
:10C300002B70264E3368DB68002B07D10023208872
:10C310001A00190009F01BF90DB0F0BD2B78032BA2
:10C32000F4D81F4901A8FDF769F9336801A9DE684F
:10C3300004A807F05BFE04A9300009F066F80027A6
:10C34000060004A807F0F0FDBE421ED031002022F6
:10C35000103104A80AF0D3FE30000AF092FE2978CA
:10C3600004ABC9005918082202A80AF0C8FE2088A8
:10C370000123082202A909F0EAF80137002804D1B4
:10C380002088084A0C2109F0E0F801A807F0CCFD4C
:10C39000002FBBD0C0E7C046852000200425002028
:10C3A00031830200FFFF0000F0B5837991B00400F3
:10C3B0005B071BD5FDF7DEF800232269801A99413F
:10C3C000994203D1F423FF3398420FD9A068002883
:10C3D00008D0364B1D8809F083FB036815221B6AC1
:10C3E000290098470422A3799343A371A3799B075B
:10C3F00059D52F4D2B68DB68002B50D02D4B1B7867
:10C40000032B4CD8294B2C491B8804A80193FDF71A
:10C41000F5F82B6804A9DE6808A807F0E7FD08A96D
:10C42000300008F0F2FF070008A807F07DFD02AB1E
:10C430009E1D08233200338006A9073B019809F0AE
:10C4400088F8002F08D039002022103108A80AF0FF
:10C4500056FE38000AF015FE164B32881B7806A9E6
:10C46000DE0008AB9E1930000AF03AFE002813D017
:10C47000082206A930000AF042FE2B6804A9DD68F4
:10C4800005A807F0B3FD202308AA05A9280008F095
:10C49000C2FF05A807F048FD04A807F045FD0222E9
:10C4A000A3799343A37111B0F0BDC046802700204B
:10C4B000042500208520002031830200F7B5089E66
:10C4C0000500152922D8012007008F40244C27425F
:10C4D0001CD0E97FCC181F2C41DC69183418A1420C
:10C4E00010D80021C8B2834204D9545C70188470FB
:10C4F0000131F7E732789A183270EA7F9B18EB77B0
:10C5000000202CE00878C8540139E8E73478013C71
:10C51000E4B2A34208D10023D9B28C42F0D9D05C56
:10C52000F11888700133F7E7EF7F0120FF183F1BF8
:10C530001F2F14DC0227A01C7F423618381B0190E5
:10C54000E87F2F18BE4204D23078019FF0550136A3
:10C55000F6E7041B023CEC77280009F044F8FEBD26
:10C56000FC002000F0B5040085B001930AAB1E88E2
:10C570000BAB1B78451C02930EAB1B781700039383
:10C580000B78102203704B8A0131438228000AF095
:10C59000B6FD268300260122019B67616383039B0E
:10C5A000E6832377029B2000EB77A31CDA770C9BB2
:10C5B0000C25636223000D9A28331A705E709E70FA
:10C5C0002A0031002C300AF0B6FD2000064BE6634D
:10C5D000A3632A00310040300AF0ADFD2000034B78
:10C5E0002665E36405B0F0BD695502005B550200A5
:10C5F00070B50D0009F074FA04000368002D09D12C
:10C600005B699847FA2080006843074904F0B6FD4B
:10C61000E08070BD9B6898478542F3D22368200074
:10C620009B6898470500EDE771020000F0B5070030
:10C630001600A1B002C704006B4918A81D0009F03C
:10C6400019F8331E03D030000AF0B5FD83B2012281
:10C65000049200220392029202320192009332006D
:10C6600018A93800FFF77EFF23006049583318A847
:10C67000079308F0FFFF2B1E03D028000AF09BFD54
:10C6800083B20122049200220392029202320192AA
:10C6900000932A0018A90798FFF764FF2300544964
:10C6A000AC3318A8089308F0E5FF269B002B03D0B5
:10C6B00018000AF080FD83B2012204920022039246
:10C6C0000292023201920093269A18A90898FFF765
:10C6D00049FF631CFF33474918A8099308F0CAFFB4
:10C6E000279B002B03D018000AF065FD83B20122BE
:10C6F00004920022601C0392029202320192009383
:10C70000279A18A9FF30FFF72DFF23005533FF3379
:10C71000394918A8099308F0ADFF289B002B03D0D6
:10C7200018000AF048FD83B201220492002203920D
:10C730000292023201920093289A18A90998FFF7F1
:10C7400011FF2300A933FF332C4918A80A9308F0DE
:10C7500091FF299B002B03D018000AF02CFD83B217
:10C7600001220492002218AD039202920232019239
:10C770000093299A29000A98FFF7F4FE204B1B78B2
:10C780000B93002B2CD1079B12971393089B0DAF93
:10C790001493631CFF331593099B1A4916930A9B44
:10C7A0003800179308F066FF1D2149203B781022BE
:10C7B0002B707B8A12AE6B8206ABC918C0180AF0C8
:10C7C0009EFC06232B750B9B2068AB83AE6109F0A2
:10C7D0008BF9036829001B6898470122084B1A70DF
:10C7E000200021B0F0BDC046292A0000242A000004
:10C7F000252A0000272A0000262A0000282A0000F7
:10C800009A2800200A18000070B5002504000B4B80
:10C810008580083385710360C1601830FCF75AFFCA
:10C8200020001C30FCF756FF0123621CD377044A1A
:10C83000A560656120001460A37170BD6C78020072
:10C8400004250020FA2130B585B00500012302221D
:10C850008900684607F00EFC074C2068002809D0C4
:10C8600008F041FF2988054B22681980022391793D
:10C870000B43937105B030BD0425002080270020B4
:10C8800010B50C0007290DD8806809F029F9064B6E
:10C89000195703685B6C9847431E9841034B40420D
:10C8A000184010BD0248FCE72983020016FCFFFF78
:10C8B00017FCFFFFF0B5A44C0D00A544040007933E
:10C8C0009AAB1B78A14909A804930692FCF796FE3F
:10C8D000200029001C3007F091FBC020800001F0EF
:10C8E00099FD08200AF0D8FB0600002100F0AEFEFA
:10C8F00015ADA66000210C220EA80AF01CFC2B002E
:10C900000EAA83CA83C3924B2900EB600023300038
:10C910002B6109F0CEF8A06809F0E2F808220021A6
:10C92000059016A80AF007FC14200AF0B5FB2900B0
:10C930000200884B1593C8C9C8C2874B059EC360C7
:10C940000023A43603613368002B00D0F5E030608B
:10C95000A06809F0C9F808220021060016A80AF00C
:10C96000EAFB14200AF098FB7C4B1593030086CD5C
:10C9700086C37B4BC36000230361336B002B00D065
:10C98000DDE03063A06809F0ABF808220021050063
:10C9900016A80AF0D0FB14200AF07EFB714B15AEEE
:10C9A0001593030086CE86C36F4B9835C360002372
:10C9B00003612B68002B00D0C3E02860012504AB85
:10C9C0001B7C04AA2B4308A92800137408F0C3FD9C
:10C9D000A06809F08DF8036864495B6A9847A0680D
:10C9E00009F086F8036862499B699847A06809F0D6
:10C9F0007FF8002302680093166804992A00B04764
:10CA0000049B002B0AD0200008F076FE032805DDE9
:10CA1000A06809F06DF80368DB6898470EA808F075
:10CA2000D9FD2F2004ABC01808F0D4FD362004AB8C
:10CA3000C01808F0CFFD3D20042504ABC01808F055
:10CA4000C9FD0EAB0A93A06804AB5D7709F050F8FE
:10CA500003680AA91B699847A06809F041F80368B0
:10CA60000AA95B6D9847A06809F03AF803680021AD
:10CA7000DB6D9847A06809F033F8036802219B6DCD
:10CA8000984700212000FFF7FBFE18200AF004FB66
:10CA9000A16800F055FA374B374A1B68A168039329
:10CAA000364B15A81B6800260293354B0CAF1B684C
:10CAB0000193069B1B685B190093324B12681B683D
:10CAC000FFF7B4FD30200AF0E7FA079AA16800F0FA
:10CAD000F7FAA06809F004F8036839009B6A9847E0
:10CAE000294BBE80A0680C9308F0FAFF0368390058
:10CAF000DB6A98472900A06808F0C8FD099A092157
:10CB00009378A068521908F0D4FDA06808F0E8FFF7
:10CB100032210671A068FFF76BFD04AB1B7FB342A7
:10CB200004D0A06808F0DCFF08F09AFD09A807F01F
:10CB3000FBF995239B009D44F0BD036107E703616A
:10CB40001FE7036139E7C046ACFDFFFF1684020012
:10CB50007755020045C8010085550200E1C2010079
:10CB600093550200C1550200A15502008DCB010072
:10CB7000C1CB010000250020FC240020082000205B
:10CB8000F82400200C2000200800100013B5062215
:10CB90006846FCF775FD094B1C68002C0AD06946F5
:10CBA00001A807F023FA200001A908F0C6FD01A89A
:10CBB00007F0BAF9684607F0B7F913BD042500205D
:10CBC000002373B501AE0C0031000500019302F0A3
:10CBD00019FD002802D1B278064B1A70064B18686E
:10CBE000002806D061426141044BC9B21D8008F0A3
:10CBF000ACFD73BD85200020042500208027002087
:10CC000030B5284CA9B06A220D000DA821000AF009
:10CC100076FA0DA903A8FCF791FD03A906A807F071
:10CC200059FA01230193013BFF3B00930533FF3386
:10CC3000642206A92800FDF76BFF06A807F03DFA5D
:10CC4000210019226A3106A80AF059FA05220024A7
:10CC5000110006AB04A807F064FA04A905A807F0C0
:10CC600039FA019400942300220005A92800FDF759
:10CC700093FE05A807F021FA21002800FDF776FFB2
:10CC800005340520FCF788FAFF2CF5D1FA20800046
:10CC9000FCF782FA04A807F010FA03A807F00DFACF
:10CCA00029B030BDA6820200F0B59C4B95B005922C
:10CCB0001A68082304000391D16C06A80B43D364BF
:10CCC0009749FCF79BFC974907A8FCF797FC2200C3
:10CCD00000250DAE30001C3206A907F09EF907AA08
:10CCE000310008A807F099F9300007F01DF9631C1E
:10CCF000DD77A06808F0F4FE03680BAF5B69984726
:10CD0000300008F067FC2B2004ABC01808F062FC70
:10CD1000322004ABC01808F05DFC392004ABC01809
:10CD200008F058FC8023DB00BB80A0680B9608F05D
:10CD3000D7FE036839005B6D9847A06808F0D0FE05
:10CD4000036829009B6D9847A06808F0C9FE07009A
:10CD500006000A371F22290038000AF0ECF9FD7797
:10CD6000300008F074FC0621A06808F08FFC089AD7
:10CD700009219378A068043208F09BFCA06808F0B1
:10CD8000AFFEC8210571A068FFF732FCA06808F06B
:10CD9000A7FEFF272E000581A06808F0A1FE08F07D
:10CDA0005FFC0398FDF7FCFC2000FCF75BF903999E
:10CDB0002000FFF725FF0399200008F0D9FC049517
:10CDC000012563691D402DD0574909A8FCF734FDA2
:10CDD00009A90AA807F07EF900220AA91300019206
:10CDE00000920398FDF7D8FD0AA807F066F9049BA6
:10CDF000002B42D1043F282F41DD0025FE2F00DC0F
:10CE0000049D059807F059FB002806D001236269AC
:10CE10009A431300042213436361002609A807F014
:10CE20004CF9049504226369134233D0FF2103981F
:10CE3000C826FDF79BFE0025B600A36902229B5E73
:10CE4000AB4222DD200029B2183007F0FCF80023A5
:10CE5000010003981A007430FCF73EFD3000FCF727
:10CE60009BF9039807F030FFC820FCF795F90222E0
:10CE70006369134209D10135DFE70437BBE7039843
:10CE800007F022FF002FBCDDBAE7FA208000FCF794
:10CE900083F90026022365691D421CD006331D401C
:10CEA00024D0224909A8FCF7C7FC09A90AA807F061
:10CEB00011F900220AA90192009213000398FDF7CC
:10CEC0006BFD0AA807F0F9F81948FCF765F909A8FD
:10CED00007F0F3F8174E6420FCF75EF9164B0136A5
:10CEE0009E4200DC6CE706F0CAFE69E7134909A818
:10CEF000FCF7A2FC09A90AA807F0ECF82B002A000D
:10CF00000AA9019500950398FDF746FD0AA807F0C8
:10CF1000D4F809A807F0D1F8DDE7C046882400203E
:10CF20003D8302004D8302004F8302009483020080
:10CF3000983A00008C0A00008B0A0000D18302009E
:10CF40000022594BF0B50833060003600F001000B3
:10CF5000A9B0B1600BAB991801324870102AFAD110
:10CF60000F3A524C1A700E32105D991A0874013A39
:10CF7000FAD2997B5A7B09020A4331000C310391A2
:10CF800025211B7813AD2B7002ABC918452302A8CD
:10CF90001B186A82180010220AF0B1F8039B642162
:10CFA0006B610123002402AA2B77521819930933CD
:10CFB00013701DAB1C706D2302AA9B181C706E238E
:10CFC00021009B181EA80C22EC836C621C700AF0D6
:10CFD000B2F8374B0C22210023A8AB63EC630AF0B4
:10CFE000AAF8344B02AAEB6446239B180322DA7793
:10CFF00022002C650595347306AD2B1901345A7047
:10D00000102CFAD101232C482B700E33195CEA1A2C
:10D010001174013BFAD211212520AA7B6B7B1202ED
:10D020000BAC13432A78638202ABC9182270C01874
:10D0300010220AF064F80123237505ABA3610023D5
:10D040003800A38308F050FD036821001B6898474F
:10D0500013ABDB8BB068B38208F046FD0022036897
:10D060000092B18A039ADC680123A047B06808F0F7
:10D070003BFD070014200AF00FF8002201230400F2
:10D080000261069240C00832290007930AF037F87F
:10D090000A4BE360BB69002B03D13000BC6129B0AF
:10D0A000F0BD2361F9E7C046847802003E840200A7
:10D0B000695502005B5502004E840200D157020000
:10D0C000F0B500260400724BDDB0083303608160C8
:10D0D000C2608680867132006E4947A808F018FC4D
:10D0E0002300143301250427089312230097049585
:10D0F0000193089A330047A9039602961DA8FFF7EB
:10D1000031FA3200644947A808F002FC0C232200DF
:10D110000097103215AF0495019347A93300039689
:10D12000029632A8FFF71EFA32005C49380008F078
:10D13000EFFB21001C310991042308210495019182
:10D14000009339003300099A0396029647A8FFF727
:10D1500009FA32005249380008F0DAFB542009F08D
:10D160009BFF21001222042318310791049501929C
:10D1700000930A0033003900039602960690FFF7E9
:10D18000F1F9069A474B1000A262D4620AA908225C
:10D1900030300A930B9609F0B2FF434B069A099977
:10D1A00093632932157026610422E661079809F01D
:10D1B000A6FF04220799089809F0A1FF662203231D
:10D1C00004A95218D377BA225218D3778722520073
:10D1D0005218D377069A35490232D3771DAA0C929A
:10D1E00032AA0D9247AA0E92069AA6850F9210A80F
:10D1F000320008F08DFB3021452004AA5218137824
:10D20000123104AA3B705218138811397B8204AB87
:10D210001022C918C01809F072FF04230CADA068D1
:10D220003B75BD61BE8308F05FFC036839001B6875
:10D230009847822204AB9B181B885432238404AB8A
:10D240009B181B885432A38404AB9B181B88A068CE
:10D25000638408F049FC0700142009F01DFF050055
:10D26000134B0661082210C010A91093119609F003
:10D2700046FF104BEB60BB69B34206D1BD61200095
:10D28000FBF7F0FE20005DB0F0BD2B61F6E7C04675
:10D29000907802007E8402005E8402006E840200A8
:10D2A0008E840200E35802004F5802009E84020060
:10D2B00021D3010079580200F0B504000E001500DA
:10D2C00085B01F000CAB1B881030019306F0C8FE20
:10D2D00026806580182009F0DFFE02AE05003300CD
:10D2E0000AAA03CA03C32F602800082700213A00B6
:10D2F0000C3009F020FF3A003100281D09F0FFFE34
:10D30000064B02226B61200000230199A5600A43AD
:10D31000E360A2802362636205B0F0BDA3580200FF
:10D32000F0B50B898DB00593CB68050004934B884D
:10D33000828C9A420ED1049C049B059A9B181B1B5D
:10D34000032B39DD62882188012308A806F092FEAC
:10D350000434F1E7428C9A422ED1049C049B059A36
:10D360009B181B1B032B27DD23882820069363882B
:10D37000EF680793114B08930023099309F08CFE83
:10D38000C0236A460600029308AB03CB03C22B00FE
:10D390000699079A3000FFF78FFF3B6831005B6802
:10D3A00038009847002805D0300006F073FD3000A3
:10D3B00009F067FE0434D1E70DB0F0BD61590200F9
:10D3C00070B5040090B0806808F0C5FA02210140F1
:10D3D0001AD1A38D002B17D00C4B6A46049310234F
:10D3E000E568A1850591029304AB41CB41C20A00D7
:10D3F000230006A8FFF760FF2B6806A99B6828009A
:10D40000984706A806F046FD10B070BD61590200AD
:10D41000002815D0006041608260C36004614561EE
:10D420008661C761444604624C4644625446846245
:10D430005C46C462644604636E4646637446846315
:10D44000002A06D0C46B043C043A25681560B44237
:10D45000F9D18C6BA6464E6BB546002B06D0CC6B33
:10D46000043C043B1D682560B442F9D10C6BA44612
:10D47000CC6AA3468C6AA2464C6AA1460C6AA046B6
:10D48000CF698E694D690C69CB688A6808684968FC
:10D490007047006041608260C360046145618661DD
:10D4A000C761444604624C464462544684625C460A
:10D4B000C462644604636E46466374468463C46B08
:10D4C000043C043925680D60B442F9D1C769866906
:10D4D000456904697047006041608260C36004610F
:10D4E00045618661C761444604624C4644625446C5
:10D4F00084625C46C462644604636C46446374465A
:10D50000846304697047846BA646446BA546046B2C
:10D51000A446C46AA346846AA246446AA146046A31
:10D52000A046C769866945690469C368826800685E
:10D530004168704710B5041E0CD009F03CFE431E34
:10D54000E3189C4208D222781978013B21705A7066
:10D550000134F6E7014810BD0020FCE717FCFFFF8F
:10D56000F0B585B002900C1E2AD00023C217161AFF
:10D5700056400193019B30005D1C63190A215F1E18
:10D58000039303F06BFF49423031397030000A21B8
:10D5900003F07EFE47420600002F0FD1029B002BB6
:10D5A00004DA2D23019D039A023513700023200015
:10D5B0006355FFF7BFFF380005B0F0BD0195D9E70F
:10D5C000004FF8E717FCFFFF0268084B406810B5F2
:10D5D000C018C000101803009A4205D81C688C427D
:10D5E00002D31800083BF7E710BDC046FFFFFF1F3E
:10D5F00070B5002817D1114D2E68002E11D10830BA
:10D6000009F04AFD066046600D4E04003368002BA9
:10D6100002D108F0A0FC306023682C609B00F35816
:10D620006360286870BD0122064907480B681340F3
:10D63000F8D1026043600A60F4E7C0460C25002080
:10D64000182500200825002010250020002370B593
:10D6500004000160436099420AD1064D2B68002BFB
:10D6600002D108F078FC286023689B00EB586360C7
:10D67000200070BD18250020436810B50400002B61
:10D6800002D1044809F05CFB606803681B69984795
:10D6900010BDC046AE840200436810B50400002BE4
:10D6A00002D1044809F04CFB606803689B69984705
:10D6B00010BDC046AE840200436810B50400002BC4
:10D6C00002D1044809F03CFB606803685B6A984734
:10D6D00010BDC046AE84020000487047FFFF000046
:10D6E000F0B597B00593036807AD1B6804910393E9
:10D6F00011002B00060091C991C30024D3682100BA
:10D700000C220CA8EB602C6109F015FD22000B4BDC
:10D7100010940F9311AB1C70191901344A70102C1E
:10D72000FAD15A820193059B2A00009304990CAB0D
:10D730003000039CA04717B0F0BDC0460F5C02004C
:10D7400070B5FC30046C0500002C0DD1242009F0CC
:10D75000A3FC064B44608361054B8460C460046194
:10D760004461C46103602864286C70BD7C79020048
:10D77000647A020070B5FC30C56B0400002D11D135
:10D78000342009F089FC084B85604360074B4561F4
:10D790000361074B0562C361064BC5628362064B9A
:10D7A000E0630360E06B70BDAC7902009C7902001D
:10D7B0000C7A02001C7A02002C7A02007FB50379F1
:10D7C0001548002B22D0154E154C33782000002B25
:10D7D0001CD102AD280008F0F7F9002810D16B88A1
:10D7E000592B0DD12B78AA88D91F012910D8009266
:10D7F0000C4A2021200005F053FE0123337004E081
:10D8000020220949200009F0DDFC200004B070BD91
:10D810000092064AEDE7C046D1840200BB280020F2
:10D820009B280020F3840200EB8402001085020094
:10D8300010B50400024B08C008F0A6FA200010BD85
:10D840009C79020010B50400024B08C008F0B1FA40
:10D85000200010BDAC790200064B70B504000360D7
:10D860004068002804D0056909F00BFC2800F8E79F
:10D87000200070BD8C790200064B70B50400036077
:10D880004068002804D0056909F0FBFB2800F8E790
:10D89000200070BDBC790200064B70B50400036027
:10D8A0004068002804D0056909F0EBFB2800F8E780
:10D8B000200070BDCC790200064B70B504000360F7
:10D8C0004068002804D0056909F0DBFB2800F8E770
:10D8D000200070BD0C7A0200064B70B50400036096
:10D8E0004068002804D0056909F0CBFB2800F8E760
:10D8F000200070BD1C7A0200064B70B50400036066
:10D900004068002804D0056909F0BBFB2800F8E74F
:10D91000200070BDB0780200064B70B504000360B3
:10D920004068002804D0056909F0ABFB2800F8E73F
:10D93000200070BDC0780200064B70B50400036083
:10D940004068002804D0056909F09BFB2800F8E72F
:10D95000200070BDD0780200064B70B50400036053
:10D960004068002804D0056909F08BFB2800F8E71F
:10D97000200070BDE0780200064B70B50400036023
:10D980004068002804D0056909F07BFB2800F8E70F
:10D99000200070BD7C79020070B5FC30046C05007D
:10D9A000002C0DD1242009F077FB064B44608361E5
:10D9B000054B8460C46004614461C46103602864F1
:10D9C000286C70BD7C790200647A0200104B10B59F
:10D9D000083303600F4B0400C36080230E4A5B00D2
:10D9E000C250C018FCF7B2FD20000C4BB830E36009
:10D9F000FFF7B2FF2000AC30FFF79EFF2000A03001
:10DA0000FFF78AFF20006C30FFF776FF200010BD83
:10DA1000907A0200D87A0200307C0200F07802008E
:10DA2000F8B505000400AC356B68AB60A868002849
:10DA300007D0C36821009847AB68002BF4D01B695E
:10DA4000F3E72500B0352868002804D0066909F0FE
:10DA500018FB3000F8E72200FC21286058321378C8
:10DA60000B40137023005C33187020000A3008F05C
:10DA700069FA2000343008F065FA606E002804D09E
:10DA8000056909F0FEFA2800F8E725009835606678
:10DA90002868002804D0066909F0F3FA3000F8E796
:10DAA0002600A43628603568002D05D02F6928008F
:10DAB00009F0E7FA3D00F7E72000356029000C2265
:10DAC0006C3009F038FB2000074BE567A36729009D
:10DAD0000C22803009F02FFB2300044A8C33903451
