:020000021000EC
:1080000000400020BD020200F9020200FB02020053
:108010000000000000000000000000000000000060
:10802000000000000000000000000000FD0202004F
:108030000000000000000000FF0202000103020037
:1080400003030200FDAF01007509020003030200F3
:1080500003030200000000003503020003030200D6
:1080600003030200510B0200FD070200030302009C
:1080700003030200030302000303020003030200E0
:1080800003030200030302000303020003030200D0
:108090000303020035F2010019FF0100030302008F
:1080A00003030200030302000000000000000000C0
:1080B00000000000000000000000000000000000C0
:1080C00010B5064C2378002B07D1054B002B02D0AE
:1080D000044800E000BF0123237010BDB820002039
:1080E000000000007C810200044B10B5002B03D07F
:1080F0000349044800E000BF10BDC0460000000076
:10810000BC2000207C810200164B002B00D1144BB8
:108110009D46402292029A1A924600218B460F46B3
:108120001348144A121A0EF007FE0F4B002B00D012
:1081300098470E4B002B00D09847002000210400E8
:108140000D000D48002802D00C4800E000BF0AF0E6
:1081500029FF200029000EF0B2FB0AF00DFFC046F7
:1081600000000800004000200000000000000000A7
:10817000B0200020E02800200000000000000000E7
:108180004022F0B5036CD1B00793436C5242089380
:10819000836C079C0993C36C0A93036D0B93436D27
:1081A0000B990C93836D0D93C36D0E9310ABD21886
:1081B0000E9B0F930D9B05930C9B04930A9B0693B8
:1081C000099B0393089B029300230193019B0F2BB0
:1081D00000D978E09B00C718C55CFB782D061D43CD
:1081E0007B781B042B43BD782D022B43136406239D
:1081F0000D000F00DD410533DF413B000F006B40F8
:108200001925EF413D005D40019B3E4F9B00166CE0
:10821000FB58049F9B19EB18059D0F408D437D4033
:108220005B190F9D27005B1902252600EF410B35D6
:10823000EE41162577402600EE41029D7740039ED1
:108240000432754025400F95029E039D2E40350057
:108250000F9E6E40069DBF195D19DF19019B01330A
:108260000193039B0693059B0F93019B402B21D108
:10827000029A079B9446DF19089B039A1C19099BD5
:108280000764634494468364049A0A9B4464634489
:108290009446C3640B9B059A5D190C9B05655918A0
:1082A0000D9B41656344944683650E9B6344C3659F
:1082B00051B0F0BD049B04910593029B29000294E8
:1082C00003933C0082E7936B11261F00F741BC46E5
:1082D0001F000236F74166469B0A77407B40566A8C
:1082E00017685568F719DB1907262F00F741BC46B8
:1082F0002F000B36F7416646ED0877406F40DF19D7
:10830000176474E7E06E0200002813D00023436670
:1083100003668366084B0364084B4364084B83641D
:10832000084BC364084B0365084B4365084B8365E2
:10833000084BC3657047C04667E6096A85AE67BBF0
:1083400072F36E3C3AF54FA57F520E518C68059B37
:10835000ABD9831F19CDE05B70B5041E1ED0002978
:108360001CD00D008E18B54218D0A36E2A78E254A6
:108370000133A366402B0FD12000FFF701FF236ECE
:10838000074A934202D9626E0132626680229200ED
:108390009B1823660023A3660135E4E770BDC04641
:1083A000FFFDFFFF70B50E000400C4B029A8150042
:1083B000FFF7AAFF3200210029A821ACFFF7CCFF6C
:1083C000210029A80BF04AF9E27F23781E92A27FB0
:1083D00041211D92627F28001C92227F1B92E27E27
:1083E0001A92A27E1992627E1892227E1792E27DE4
:1083F0001692A27D1592627D1492227D1392E27CE8
:108400001292A27C1192627C1092227C0F92E27BEB
:108410000E92A27B0D92627B0C92227B0B92E27AEF
:108420000A92A27A0992627A0892227A0792E279F3
:108430000692A27905926279049222790392E278F7
:108440000292A278019262780092024A0AF01CFE1F
:1084500044B070BDA07A020010B50400034B036065
:1084600040300BF07EFB200010BDC046E86F0200DC
:1084700070B504000E0005002B1B9E4213DD0AF0B0
:10848000B5FD0AF07DFB0022094B0AF0D1F8F82374
:1084900000229B050AF0CCF80AF03CFB054B1B5C64
:1084A0002B700135E8E700208034207070BDC04695
:1084B00000004F403F7B020007B50D4901A801F0C5
:1084C00001F8782201A90B4802F0F4F901A80BF099
:1084D00048FB09480BF0FAFD002806D107480BF0CD
:1084E000F5FD0028F5D002200EBD0120FCE7C046B6
:1084F0002B7B0200C42100203C22002064220020AB
:10850000F0B587B00A2201901F4903A80EF0F8FBCE
:1085100000211E480BF0D7FD96200025400096262E
:1085200000F09EFD2C00760003AB1F5D02A8390011
:108530000BF041FBC82202A95200154802F02AF9AB
:1085400002A80BF00EFB13480BF0C0FD002807D06B
:10855000019B5F55032D14D03000013500F080FDE4
:108560000A480BF0B3FD0028DED0092C04D13000FE
:1085700000F076FD0024D7E73000013400F070FDF4
:10858000D2E7002007B0F0BD217B0200642200206A
:10859000C42100203C22002010B50D4AA2B0117861
:1085A00001AB19705178597091789970D278DA705E
:1085B0000022845C991801320C717D2AF9D11800CF
:1085C000044A8421FFF7EEFE002022B010BDC04611
:1085D00080200020CE27002037B5154800F026F96E
:1085E000FFF76AFF134C05002000FFF789FF210009
:1085F00001A800F067FF104C782201A9200002F0CA
:1086000059F901A80BF0ADFA012D01D10BF097F843
:108610000A4901A800F056FF782201A9200002F0C3
:1086200049F901A80BF09DFA00F092FD00203EBD33
:10863000D420002080200020C4210020CE2700204C
:1086400010B5054C200000F039F8044A0449200018
:108650000EF01CFB10BDC046D420002000200020DE
:1086600065860100CA23144A9B0010B5C2501C3312
:108670000400C0180BF075FAD0239B00E0180BF033
:1086800070FA20009130FF3001F01EFB20006930AD
:10869000FF3001F019FB2000F03001F097FE2000C0
:1086A000D03002F09BFA2000643007F073FD201DEB
:1086B000FFF7D2FE200010BD747402001423F0B541
:1086C000040093B0009319221821043002F0E6FC54
:1086D0002200250026006432B435132110001092C8
:1086E000B83607F063FD28000CF057FC00221E216D
:1086F00030000CF0F7F82000D03002F08FFA2200A2
:10870000F03211920621464A119801F083FE2000B2
:108710000027012369301A0000971121FF3001F072
:10872000DFFA200091300097012302221A21FF3046
:1087300001F0D6FA2000B9301A2301210222FF30BD
:1087400002F028FB300001F0D7F8E4225200A050DC
:10875000300001F01FFBE6235B00E0500100E42243
:1087600020005200D130119BA2580095FF3001F03B
:1087700061FD2000E13029001C22FF3002F026FEBE
:10878000192320000F93013B0E93013B0D93013BF6
:108790000C93013B0B93013B0A93013B0993013B73
:1087A0000893013B0793013B0693013B0593013B73
:1087B0000493013B0393013B0293013B0193F93086
:1087C000013B082200930721013BFF300CF0ABF87E
:1087D000CA239B00E018290003F00AFED3239B0064
:1087E000E0181D2102F0A6FBDD239B00E750109846
:1087F000277003210DF086FF230022002000094985
:108800009C33A0321C6011605760074A80305A6167
:108810000221012207F040FE200013B0F0BDC04647
:10882000F06F02006D370200573702000123F0B5E8
:1088300006788FB004001E4000D082E00300D033E1
:108840001800039300F0EEFA00F0E6F928200EF08D
:1088500024FA050010300BF020FA6C4B18202B6026
:108860000EF01BFA07006A4B0460082231000C303E
:108870000C930D960EF060FA0CA9381D08220EF02C
:108880003FFA644BAF607B611223EE60AB802E62D7
:108890006E622900039802F035F9002805D02800FF
:1088A0000BF015F928000EF0EDF9012322785A4952
:1088B000134323702300B433180005930CF073FBAB
:1088C0005649049005980CF06EFB00250690642034
:1088D00000F0C6FB2F002E0023006933FF33180081
:1088E00007930BF0F3FB00282DD1049B002B33D111
:1088F000069B002B30D1DD2549494A48AD0000F0E8
:108900008FFC6359002B1CD100F09AF801000AA8D3
:1089100000F0D8FD0BA80AF09CFFCA239B00E018CA
:10892000069B0BAA0AA90093039B03F0B7FD0BA8B3
:108930000BF017F90AA80BF014F9CC239B00E358AD
:1089400063510FB0F0BD20009130FF300BF0BEFB43
:108950000028CAD0182EC8DC2000653039B22AB2EF
:10896000FF23FF30013700F02BFEFFB2322000F072
:1089700077FB0136052F02D100270135EDB2049BAC
:10898000192E06D0002BA7D02349059802F0B2FC7F
:1089900001E0002BF8D104980EF074F906980EF05F
:1089A00071F91F491F4800F03BFCCA239B00E318E4
:1089B0000893DD239B00E3580993002B1ED100F0A0
:1089C0003FF801000AA800F07DFD0BA80AF041FF66
:1089D00001230BAA0AA900930898039B03F05EFDEC
:1089E0000BA80BF0BEF80AA80BF0BBF8CC239B0039
:1089F000E3580993DD23099A9B00E2502100079A6E
:108A0000F031089803F044FF66E7C046FD0300001C
:108A1000DF3702009F370200B47B0200BF7B0200F9
:108A200000200020001C0020BFF34F8F024B034AA0
:108A3000DA60BFF34F8FFEE700ED00E00400FA05B7
:108A4000F0B58DB005AF1922154938000EF058F970
:108A50000022144B05245A7180225205566E0122C1
:108A600025000194029203930199300008F000FA66
:108A70000800029908F076F9019B03996B43019372
:108A8000029B361A6B430293631E2C1B6C433C19EA
:108A9000225C1C1ECA54E7D108000DB0F0BDC046D0
:108AA000CF7B02000F280020F0B597B018220021DC
:108AB000060010A80EF040F9132110A80DF06AFF6F
:108AC000032110A80DF0FCFF4C4B1B68002B00D1BC
:108AD0000133DBB202934A4A012300210BA807F0BD
:108AE00049FE484B9E4200D9002672B6464B64218F
:108AF0001D68464B30000793052408F0BDF960431C
:108B00005030281808900A21300008F0B5F90A21E1
:108B100008F098FA614350316918099130000A2130
:108B200008F090FA802361430024503169189B01BA
:108B30000A910193029B002B5DD0002500272E1F78
:108B400007AB9B190593032C03D1802300249B01C1
:108B5000019307AB5B592E4A03936300D318049328
:108B60000023190006205843049A16187678B44654
:108B70006246039EB25C10269446049A105C6246DC
:108B80000641164202D00120984001430133092BCF
:108B9000E8D1C9431F4B059A090119401268039B8C
:108BA000934225D1312F23DC00210BA80EF041F890
:108BB000FA23159A1199DB00106801421BD0013B82
:108BC000002BF9D1019B01345B000193FA2301379B
:108BD000E4B25B009F42B6D10435102DAED1074BF5
:108BE0001B68002BA6D0029F013FFBB20293A1E7B6
:108BF000019B1943D9E7FFF717FFC0465024002017
:108C0000F0FF0000E7030000042000201E7C0200AB
:108C1000E87B0200F01F0000F8B50023124C23602F
:108C20000AF038FE002808D0042120000AF02EFEA9
:108C3000002801D00D4B2360F8BD0122A127042597
:108C40000B4B0C491A602268FF0048604E68002EEA
:108C5000FCD0DE591202013D3243002DF5D12260D5
:108C600001225A60E8E7C0464C240020ED5EBC0BB0
:108C700000D00040FCD00040F0B585B01F000AAB2A
:108C80001B880600029115000393002F1BD028209B
:108C90000EF003F86B4604001989039BAAB20093F7
:108CA0003B000AF0FEFE336821005B683000984705
:108CB000002806D020000AF00AFF20000DF0E2FF95
:108CC000024805B0F0BD0248FBE7C04616FCFFFFB6
:108CD00017FCFFFF0B4B70B51C68002C10D0656DA6
:108CE00000F0ACFBA36C002901D1834206D8200020
:108CF0000AF003FE044920000AF0EDFD2C00ECE729
:108D000070BDC0465824002078240020F0B593B0F0
:108D100007932A4B04AC1E68049005910692002E1E
:108D20004AD0274B258867881C6800230293002CB3
:108D30002ED0636D23480393A36C9AB2A36C1B0CD3
:108D400099B2854214D12048824211D1002B01D022
:108D5000B9420BD1029B002B08D120000AF0CDFDB7
:108D60001A4920000AF0B7FD01230293039CDEE7B5
:108D7000002A01D09542F9D1002B01D0B942F5D19A
:108D800020000AF0BAFD114920000AF0A4FDEDE729
:108D90000F4BEB18012B0FD910233A000093290039
:108DA0000C4B08A80AF07DFE336808A99B683000C8
:108DB000984708A80AF08BFE13B0F0BD5424002099
:108DC00084240020FE030000FF030000782400201C
:108DD00002FCFFFF0D8D010010B572B60B4B1C6835
:108DE000002C08D020000AF088FD0023E364084B23
:108DF0002000E36310BD62B65C200DF04EFF5C22E4
:108E0000002104000DF098FFEFE7C0467C2400200D
:108E100000400020024B1878012318407047C046DC
:108E200015280020F7B50600FFF7F4FF051E33D123
:108E30001A4C2660FFF7D0FF194B1A4918600AF048
:108E40004AFDFFF7C9FF184B1860184B4363184BD6
:108E50008363206800280ED0C027164E2A003300F6
:108E600015490097FFF708FF009733002A001349C0
:108E70002068FFF701FF0C200DF00FFF0023838017
:108E800083710F4B03600F4B836000F0EFFA0123F7
:108E90000D4A11780B431370F7BDC04654240020CF
:108EA000882400207824002080240020FC3F00201B
:108EB000C13902000D8D0100FF030000FE03000018
:108EC00010700200D58C010015280020F7B50600AF
:108ED0000D0017000193002802D100242000FEBDE0
:108EE0000029FAD0FFF778FF041EF6D0074B019A4D
:108EF0004363066045608760054B002A00D0054B40
:108F0000A363054920000AF0E6FCE7E7FC3F0020E8
:108F10008B390200A939020078240020024B18681E
:108F2000434258417047C04678240020002310B5C2
:108F300004499C006258002A01D00133F9E76050CF
:108F4000100010BD60240020002310B5044A9900D1
:108F50008C58844201D00133F9E70020885010BDBD
:108F60006024002010B50024084BA200D05800282F
:108F700002D003685B6898470134062CF4D1044B97
:108F80001B68002B00D120BF10BDC046602400200C
:108F900078240020F8B5FFF73DFF00281CD02A4DAB
:108FA0002C68E36CDA0718D502273B43E364274BB0
:108FB0001E680423F26C30001343F364636BF363A5
:108FC0000AF0C1FC3000716C04F057F82868C36CDB
:108FD0003B4201D004F08BF8F8BD1D4F1D4E3A689E
:108FE0003168002A1ED129602A68914208D11B07E6
:108FF00006D52C60FFF7B6FF3B68002BFAD02B603C
:1090000029688C42E8D03368994214D1124B4B63E3
:10901000124B8B6320000AF096FC2968626C4B6C43
:1090200020000DE0206DB84203D1606D002800D013
:1090300002002A60D8E79C42ECD1002210004B6C61
:1090400003F0DAFFC8E7C046882400205C24002033
:109050007824002080240020FC3F0020C139020039
:1090600070B50500FFF7D6FE002803D128000DF0EB
:1090700020FD70BD0C4B1C68E36CDB0706D5FFF7C9
:10908000ABFE0A4B1860002800D0040000F0D6F9AF
:109090002D18A56420000AF030FC054920000AF0D4
:1090A0001AFCFFF777FFE4E7882400205C24002007
:1090B00058240020F0B51E4B1E4F1C683B6885B03D
:1090C00006000391002B30D0FFF7A4FE00282CD01F
:1090D000E36CDB070ED5FFF77FFE174B051E18600C
:1090E00008D00AF00AFC154928000AF0F4FB2C000D
:1090F000FFF750FF039B20001B043343A3640AF0D7
:10910000FCFB20000E490AF0E6FB0E4B0024F3188E
:10911000012B07D9C0230093039A0B4B3100386809
:10912000FFF7AAFD200005B0F0BD084CFAE7C046E5
:1091300088240020542400205C240020782400206F
:109140008424002002FCFFFF0D8D010016FCFFFFB0
:1091500010B5FFF75FFE002809D0054C20680AF023
:10916000CCFB044920680AF0B6FBFFF713FF10BDE3
:10917000882400207C240020F7B507000D0000287B
:109180002ED0FFF747FE00282CD00724164E30685B
:10919000C36C1C4007D0154A290038000AF0C4FBF4
:1091A00000242000FEBD03F08AFF02213268D36C48
:1091B0001940019103D003218B43D364F1E70124CB
:1091C0002343D3642800B8473268D36C1900A14305
:1091D000D164019C5B07E4D528000AF0DDFBE0E7E1
:1091E000034CDEE7034CDCE78824002099390200B9
:1091F00017FCFFFF16FCFFFF020010B5014B12CB5E
:1092000012C210BD8C240020034B1A68034B1A6055
:109210007E225A607047C046042000208C24002023
:1092200070B5114E3278022A1AD081421AD90C1A1E
:10923000072C17D90D00032305432B4012D172B61A
:109240000A4DD2005051AA1851608022A40812067B
:109250001443046032780132327062B6180070BD77
:109260000348FCE70348FAE717280020942400206D
:1092700013FCFFFF17FCFFFF70B5134C06002378AB
:10928000124D002B0CD1124912482B70FFF7C8FF6A
:10929000114B984202D11E20FFF706FC01232370D8
:1092A00000242B78A34209DD0C49E300C9183000E3
:1092B0000AF08CFB002805D10134F2E71420FFF7F7
:1092C000F3FB002070BDC0461628002017280020A0
:1092D00000380020E028002017FCFFFF9424002025
:1092E00070B5002819D0104B10491C7800239C42FF
:1092F00016DDDA005558854210D28A18526882422B
:109300000CD9041F2368002B02DC1E20FFF7CCFBC6
:10931000802322681B061343236070BD0133E6E7F8
:109320001E20FFF7C1FBF8E7172800209424002037
:1093300070B5051E14DD0B4E0B4C3368002B02D0AC
:1093400020680DF041FAFA2120680024074B8900BB
:109350008361C462694335600DF03EFA200070BD40
:109360000348FCE7A4240020D42400201994010021
:1093700017FCFFFFF8B5114F06003D68002D0AD11C
:1093800030200DF08AFC040006F06AFF0C4BA5614A
:109390002360E5623C600B4D2B68002B09D1102047
:1093A0000DF07BFC04000DF063FA20002C600DF042
:1093B00039FA3000FFF7BCFFF8BDC046D4240020C6
:1093C0001C780200D0240020014B18687047C0466A
:1093D000A424002070B50D4C2368002B03D00C4B47
:1093E0001B68002B02D10620FFF7C4FF20680DF098
:1093F00030FA02000749C3170D684E6852197341CD
:1094000020680A604B600DF02AFA70BDD02400205D
:10941000D4240020B020002010B5FFF7DBFF00248B
:10942000054BA200D058002802D003681B6898475B
:1094300001340A2CF4D110BDA824002010B5FFF788
:10944000C9FFFA22034B920018685968002307F0FD
:1094500039FE10BDB020002010B5FFF7BBFF024B56
:109460001868596810BDC046B02000200B4B10B5DD
:109470001B680400002B03D0094B1B68002B02D192
:109480000620FFF777FF0023064A99008858002836
:1094900001D00133F9E78C5010BDC046D024002024
:1094A000D4240020A8240020002310B5044A9900E9
:1094B0008C58844201D00133F9E70020885010BD58
:1094C000A824002010B50400002902D00B78002B3E
:1094D00003D1034B2360200010BD0AF049FBFAE7DB
:1094E00020700200F8B504000E00150000290AD013
:1094F0000B78002B07D0002A05D0080097B20DF09A
:109500005BFC874203D90B4B23602000F8BD681D2C
:10951000FFF7B2FE20600AF0DAFC23682A005F80C1
:1095200023683100181D0DF0EBFB23685D19002343
:109530002B71EAE720700200014B03607047C046C0
:109540002070020010B50548054C20600AF0C2FCEE
:10955000044A054920000DF099FB10BD207002005F
:10956000D824002000200020633B0200084B73B584
:109570001C680500002C0AD001002668083108226A
:1095800068460DF0BDFB0CCD31682000884773BDE7
:10959000DC240020014B03607047C04628700200A5
:1095A00010B50400002903D1044B0360200010BD56
:1095B000016008000AF08EFCF8E7C046287002003F
:1095C00030B500684488A1420CDA8588AA4209DADD
:1095D000002907DB002A05DB54434018001983717A
:1095E000002030BD0048FCE717FCFFFFF0B5070086
:1095F00085B00E001D00002921DD002A1FDD002B93
:109600001DD00468638803938B4200DD0391A38817
:109610000293934200DD0292002306340193019BE2
:10962000029A93420EDA29002000039A0DF068FB9B
:109630003B68AD195B88E418019B0133EEE70248F3
:1096400005B0F0BD0020FBE717FCFFFFF8B50400F4
:109650000D0016001F00002901DB002A02DA0E4B64
:109660002360F8BD100048430630FFF705FE206078
:109670000AF02DFC23685D8023689E80002F06D0B1
:109680003B00320029002000FFF7B0FFE9E720008F
:109690000AF054FBE5E7C04628700200F7B5060063
:1096A0000D1E03D1244B03603000FEBD00200F00CF
:1096B0000400010001903B78002B1AD03022524266
:1096C00094469C446246092A11D90A2B0AD1019B6F
:1096D000241801330193A14200DA21000020040084
:1096E0000137E8E70028FBD001340020F8E701202B
:1096F000F6E70127019A09B212B230007F42FFF764
:10970000A5FF39000A2033689A1D2C78002CCBD095
:109710002300303B092B08D8FB43DB173B40434376
:109720001B19303B1F000135EFE7002FFBDB1770E3
:1097300001320F00F7E7C04628700200F0B50400C0
:1097400089B006A80E0002921D00FFF755FD2368A0
:1097500002995A88914235DA9B889D4232DA1F2E4F
:1097600030D9079B01939E422CDC052300227343D2
:109770000393069B0493039B04999B18A03BCB5C2B
:1097800000210593AE18029BCF18236858880190DA
:1097900087420EDA9888B0420BDDDB1910270F41A3
:1097A000019870431B1805980740781E87417F4237
:1097B0009F7101310529E6D10132052ADBD1002054
:1097C00009B0F0BD0048FBE717FCFFFFF7B50468E0
:1097D000070063880E1E01931EDD994218DA0023EC
:1097E000063400933B68009A9B889A4212DA019BE8
:1097F000A1199D1B2A0020000DF082FA601931008A
:109800000AF07FFA3B685B88E418009B0133E8E7C5
:109810000AF094FA002000E00048FEBD17FCFFFFAC
:1098200010B50548054C20600AF054FB044A054970
:1098300020000DF02BFA10BD28700200E02400205B
:1098400000200020F53C020010B5054C012120004D
:109850000AF034FB034A044920000DF017FA10BD4A
:10986000E424002000200020793E02000388074AFB
:1098700010B50120934208D0834202D00020DB07BC
:1098800003D41E20FFF710F9002010BDFFFF0000D9
:109890000048704716FCFFFF10B53220FFF704F9AF
:1098A000004810BD16FCFFFF10B5124C0023083411
:1098B0008280046041620224142201008371847258
:1098C00003638386028136310A78C360A243F13490
:1098D0002240036143618361C36103620A70020035
:1098E00040321370021DD387013343878387C387B8
:1098F00010BDC04648700200F0B5544F97B03B68A9
:1099000006000593002B00D08BE006AC0B331C2225
:109910002121200001F076FA0EAD0B231D22222119
:109920000AA801F06FFA0B231B222321280001F063
:1099300069FA08200DF0B1F90122059B110004908D
:109940000BF05CFE3A2130000BF0B2FB00281DD07A
:10995000A38812ADAB80A3795C20AB713C4B129312
:10996000A3681493237B2B73637B6B73A37BAB7311
:109970000DF093F904230193363300932A00049BDE
:109980003100040002F026F83C604AE03221300049
:109990000BF0BCFB00281CD0A38812ADAB80A379D0
:1099A0005C20AB712A4B1293A3681493237B2B7317
:1099B000637B6B73A37BAB730DF06FF9042301938F
:1099C0002E3300932A00049B3100040002F0A0F91A
:1099D000DAE73C2130000BF054FB00282CD0AB8898
:1099E00012ACA380AB79A420A371194B1293AB687E
:1099F00014932B7B23736B7B6373AB7BA3730DF08F
:109A00004CF9052305000293013B01933833009381
:109A10002200049B310001F0FBFE0E4B3D604435FB
:109A20001D600C4B094C1868002802D021680AF010
:109A3000BBFB206817B0F0BD44200DF02EF90422C6
:109A400004990400FFF730FF9EE7C046E824002099
:109A500038700200EC240020F0B56149C56885B07B
:109A60008D4254DA0300022236331B78134059D159
:109A700004698C4264DA020036321278520768D4E4
:109A8000426901920200019E40328E426FDA01006B
:109A900036310978090774D4002B7DD113780293ED
:109AA000002B16D006000127011DCB8F363601335F
:109AB0009BB2CB8703963678BC46374000D188E00E
:109AC0001D2B06D963469E43039B1E700023CB8744
:109AD00013700AF049FA434A0723904276D9424963
:109AE000043B8D4272DBC8220133920095426DDC4B
:109AF000023B8C426ADB013B944267DC01980433F1
:109B0000884263DB0133904260DC00235EE0C822C0
:109B1000002352009542ABDD030036331A78002350
:109B20009207A5D4012306001F0036363278540868
:109B3000A7433C0002279C40BA432243327097E778
:109B4000C822520094429BDD02003632127852073E
:109B500096D406000122363633789F08BA43970020
:109B6000042293431A003A433270012388E7C82144
:109B7000019E49008E428FDD0100363109780907C8
:109B80008AD40100012636310B78DF08BE4308274E
:109B9000F600BB4333430B701378032B00D97DE7EA
:109BA0000133DBB21370012B03D10021031DD987D0
:109BB00074E7042B00D071E7020036321178033BC2
:109BC0000B43137000230430C3870B33180005B018
:109BD000F0BD092B00D87CE7029BCF87013B77E7DC
:109BE00070FEFFFFFF700200E0FCFFFF70B5C3696D
:109BF000C1681A68451D8AB00400EB7F114255D038
:109C0000002B58D1EB7F082B0DD90122A3791342E9
:109C100009D11343A371A188130006A80AF047F8DD
:109C2000FFF70CFC2062EB7F012B23D80123A279E4
:109C30001A421FD00025A188A571022202A80AF0AD
:109C400036F8A31DDE7F012E14D1FFF7F7FB2B00A2
:109C5000226A801A994100900191019BA188AB4230
:109C600003D1174B009A9A4227D90123042206A850
:109C70000AF01DF80322A3791340012B14D1FFF73A
:109C8000DDFB0023226A801A9941994202D10D4BD3
:109C9000984209D90223A279A1881343A37105220E
:109CA000012306A80AF003F80AB070BD0B2BA9D84F
:109CB0000133EB77A6E7013BFBE733000322D6E74E
:109CC000E7030000DB05000010B50400034B083378
:109CD0000360FFF7E9FB200010BDC0467C70020066
:109CE000F0B5070000250E00040085B002930AAB12
:109CF0001B78083703930F4B01920833036085806C
:109D000085712900182238000DF016F8039A3100E9
:109D100038000CF044FE019B029AA380A31DE6715B
:109D2000DA77631D25622000DD77FFF79FFB2000B7
:109D300005B0F0BD7C7002000048704716FCFFFFC4
:109D400010B53320FEF7B0FE004810BD16FCFFFF33
:109D5000002310B50400838083710D48216408300E
:109D600020608020C000A061E0612062E3602000EC
:109D7000236163616362A362E36223636363A3633A
:109D8000E363636411000AF0E7F9200010BDC046E8
:109D900094700200F0B5534F97B03B6806000593EE
:109DA000002B00D08BE00B331C22212106A80AAC2B
:109DB00001F028F80EAD0B231D222221200001F016
:109DC00021F80B231B222321280001F01BF8082077
:109DD0000CF063FF0122059B110004900BF00EFCB8
:109DE0001D2130000BF07BF900281DD0A38812AD97
:109DF000AB80A3796020AB713B4B1293A3681493A3
:109E0000237B2B73637B6B73A37BAB730CF045FFDE
:109E100005230193183300932A00049B31000400AA
:109E200001F0ACFE3C604AE03C2130000BF085F9CB
:109E300000281CD0A38812ADAB80A3796020AB7141
:109E4000294B1293A3681493237B2B73637B6B734F
:109E5000A37BAB730CF021FF0523019337330093F1
:109E60002A00049B3100040001F0F4FFDAE73C21F2
:109E700030000BF006F900282AD0AB8812ACA38082
:109E8000AB79A420A371184B1293AB6814932B7B6E
:109E900023736B7B6373AB7BA3730CF0FEFE052314
:109EA00005000293013B0193383300932200049B89
:109EB000310001F0ADFC0D4B1D6044353D600B4B96
:109EC000084A1B681068002B00D0436417B0F0BD2F
:109ED00048200CF0E2FE052204990400FFF738FF49
:109EE000A0E7C046EC24002038700200E8240020DF
:109EF00082B0F0B50400EDB06420739372920CF060
:109F0000D8FD052210A8110009F021FF974911A8DA
:109F1000FFF7C4FB002221AB6CA91A605A609A605B
:109F20000C339942F9D11922002113A80CF004FF37
:109F3000A0680AF0D0FC00260B90FF21A06800F07A
:109F400047FD8B4FA06800F05DFB07960996884B94
:109F50009F4203D0874B9F4200DBFDE0A0680AF0E0
:109F6000BCFCA56884491AA8FFF7ACFA78221AA9A4
:109F7000280000F075FC1AA809F0F3FD00267C4FBC
:109F80000322099B606801331A4009920AF084F8A1
:109F9000050060680AF087F80022784B05929D4220
:109FA00010DB013205922A00C8320BDBAA22042101
:109FB00092000591954205DC02220592C82D01DD33
:109FC0000132059200220692984210DB012306938B
:109FD0000300C8330BDBAA2304329B00069298428D
:109FE00005DC02230693C82801DD0133069310A87F
:109FF00009F0A4FE002513ABEB5C012B08D16049EE
:10A000006B00CA185278C95C10A8FF23FFF7D8FA72
:10A010000135192DEFD16B4618229A5E6B4610A8B8
:10A020001421595E099BFFF7CBFA002F01DB0F2E9D
:10A0300007D90023A068009374301A0010A909F012
:10A0400093FE01230893089B05995A004C4B9B18DB
:10A050009A1E12788A4226D1013B1B78069A9342B7
:10A0600021D1089A6CAB9B18663BFF3B0A931B7887
:10A07000012B18D00C23079A216853431D0000229E
:10A080000CA80AF093F821AA2B0094460CAA63446A
:10A0900023CA23C301220A9B01361A70079BF6B21A
:10A0A0000133DBB20793089B013308931A2BCAD103
:10A0B00064200CF0FEFC079B643F3FB2182B00D8D5
:10A0C00045E71A0021A91AA80AF07EFA6A461DABD4
:10A0D00023CB23C21B6813601A991B9A1C9B206810
:10A0E0000AF04CF8E568002D0CD0264912A8FFF7BD
:10A0F000E9F91C231AAA12A928000AF08DFF12A858
:10A1000009F02FFDA0680AF0E8FB11A912A8A568C4
:10A1100009F0FDFD00221C4B009212A901932800BA
:10A12000130000F00DFB12A809F0E4FDFA208000F6
:10A130000CF0BFFCA0680AF0D0FB0B99A06800F0FF
:10A1400047FC11A809F0D6FD10A809F0D3FD6DB0A9
:10A15000F0BC08BC02B01847002F02D00F2E00D070
:10A160000EE7A06800F04EFA0AE7C046FE7D020046
:10A170008C3C0000D18AFFFF437E020058FDFFFFA8
:10A18000637E0200587E0200DC050000F0B587B057
:10A1900001930EAB1B88060003930D9B0D000093EB
:10A1A000019B02920C9F002B3CD0002F02D1009B00
:10A1B000DB0737D528200CF070FD0400103009F0C3
:10A1C0006CFD029B1820258063800CF066FD050065
:10A1D000009B08220593019B002103600C3004972B
:10A1E0000CF0AAFD082204A9281D0CF089FD0E4BD5
:10A1F00002226B6100230399E36023626362336888
:10A200000A43A560A2805B682100300098470028BF
:10A2100006D0200009F05BFC20000CF033FD034861
:10A2200007B0F0BD0248FBE7ED41020016FCFFFF5E
:10A2300017FCFFFF70B58CB08360109B016042601B
:10A24000C3600400184918000AF0ADFE051E14D0C2
:10A2500001001C22103105A80CF052FD6A4608AB23
:10A2600043CB43C21B68136020680599069A079B7D
:10A2700009F084FF28000CF005FD0C4B186800283D
:10A280000ED00B4A05AB059200220692C032029214
:10A290006A4622CB22C2230003220521FFF776FF64
:10A2A00020000CB070BDC046587E0200DC240020A7
:10A2B000F19E0100F0B5040085B0637A9C46002B46
:10A2C00004D120000AF09EF905B0F0BDA37A266FF4
:10A2D00001931023019AF35600259B1801229A40FE
:10A2E0002900F36803920293029BAB4231DDB3680D
:10A2F000019A6B439B1872695B00E77AD3181A784E
:10A300005878E379012F14D15F1E3F1A10003A00EC
:10A310005B004343606F8218D3189B79634500DD6F
:10A320006346627B1A4202D00123AB4019430135D8
:10A33000DAE7022F05D15F1EBA1A277A013F381AD1
:10A34000E6E7032FE4D1277A013FBF1A0200380065
:10A35000DEE71123C943F356606C99402369194025
:10A36000039B19430CF065FCA27B072AACD8637BE6
:10A370000C495B006373531CDBB290004158A3731C
:10A38000022A03D808000CF089FB96E7064B200050
:10A39000236300236363054BE462236414300CF0F1
:10A3A0001BFA91E7C0700200B5A20100EF45020060
:10A3B00010B50400044B03600CF006FA200005F011
:10A3C00065FF200010BDC0461C78020010B50400D7
:10A3D0000E4B08330360FFF767F82000743009F074
:10A3E00089FC2000603009F085FC2000583009F01D
:10A3F000B8FB2000503009F0B4FB2000044B1430AF
:10A400006361FFF7D5FF200010BDC046E070020079
:10A4100030780200F8B500250400324B85800833FF
:10A4200003608571143016000F0005F019FF20003D
:10A430002D4BE562636125645030FFF77DF8200005
:10A440005830FFF779F820006030FFF7A3F82000BC
:10A450000423F25E33682667590009B2743009F0AC
:10A4600076FC3368226FE371736801262372102330
:10A470006581A7802561D35691685918994204DDFA
:10A480003000984001330543F8E711230120D356EB
:10A49000D1685918994206DD02009A4026690133B5
:10A4A00032432261F6E714200CF0F7FB2269002109
:10A4B0002A430123060006F05DF9FF2322006372A0
:10A4C0000133A381002348326664A3732000137014
:10A4D000A366FEF7CBFF0123A27920001343A371EB
:10A4E000F8BDC046E070020030780200F0B5437A53
:10A4F00085B00400002B04D120000AF083F805B0D9
:10A50000F0BD0122837A11009C461023066F0025BE
:10A51000F35603926344994002912900F368019332
:10A52000019BAB422CDDB36872696B4363445B00F3
:10A53000E77AD3181A785878E379012F10D15F1E83
:10A540003F1A10003A005B004343606F8218D31833
:10A550009B79002B02D0039BAB4019430135DFE709
:10A56000022F05D15F1EBA1A277A013F381AEAE78F
:10A57000032FE8D1277A013FBF1A02003800E2E733
:10A580001123C943F356606C994023691940029B1B
:10A5900019430CF04EFB667AB31EDBB2FC2B14D8C9
:10A5A000FEF712FF0B4B0500236300230A48636389
:10A5B0000A4BFF21E4622364704306F05DFC29002E
:10A5C0004143200014300CF007F9637A012B00D9C5
:10A5D00095E791E705460200B6030000EF4502004B
:10A5E0001FB5012381881A00684609F060FB01232A
:10A5F00003491A00684609F05AFB05B000BDC04681
:10A60000FE0300001FB5030048331A780400002A37
:10A610000DD000221A70012381881A00684609F0C3
:10A6200046FB012304491A00684609F040FB20005C
:10A63000743009F083FB1FBDFF03000010B54830E4
:10A640000378002B06D00378012B03D001210248A8
:10A6500009F092F910BDC046FF03000010B50121BA
:10A660000400062009F088F9064B984208D14834C6
:10A670002378002B04D02378012B01D020BFF7E7EB
:10A6800010BDC04616FCFFFF70B50600141E19DB96
:10A69000050048352B78002B02D02B78012B13D1E5
:10A6A000002330001A007430FFF748F8002C07D060
:10A6B00033004A331C80002407234C3634802B702F
:10A6C000200070BD014CFBE7014CF9E717FCFFFFD0
:10A6D00012FCFFFFF8B517000A68050052880B004E
:10A6E000012A09D10021180009F0CAFA002201004C
:10A6F0002800FFF7C9FFF8BD002F19DD0600483616
:10A700003278002A02D03278012A13D12A0000249C
:10A7100028005C3219001480583009F08CFA2B00A4
:10A720004A331F8003234C352C8020003370E2E72E
:10A730000148E0E70148DEE717FCFFFF12FCFFFFDE
:10A7400073B5079C0500002C1CDB060048363078EA
:10A75000002802D03078012816D106981BB2C0B26A
:10A760000090280012B2743009F0FEFA002C07D0D5
:10A770002B004A331C80002407234C352C80337077
:10A78000200076BD014CFBE7014CF9E717FCFFFF09
:10A7900012FCFFFFF7B505000E00171E26DDFFF7C0
:10A7A0004DFF2B0048331C78E4B2002C20D13368D5
:10A7B0005B88012B09D12100300009F061FA2200E9
:10A7C00001002800FFF760FFFEBD310001A809F07D
:10A7D0002AFA3A0001A92800FFF77CFF01A809F036
:10A7E000C0F92800FFF73AFF2000EDE70148EBE74A
:10A7F0000148E9E717FCFFFF11FCFFFFF0B587B048
:10A800000D9C06000F0002920393002C20DBFFF743
:10A8100015FF330048331D78EDB2002D1AD13900F1
:10A8200005A809F074FA0C9B01940093029A039B0B
:10A8300005A93000FFF784FF05A809F05BFA002C9A
:10A8400003D03000FFF70AFF2C00200007B0F0BD56
:10A85000014CFAE7014CF8E717FCFFFF11FCFFFF82
:10A86000F8B50400171E1DDD060048363378002BAE
:10A8700002D03378012B17D12200E3795632013B05
:10A88000137023000025200054331D80503009F040
:10A89000D2F923004A331F80022328004C3425803C
:10A8A0003370F8BD0148FCE70148FAE717FCFFFFE9
:10A8B00012FCFFFFF7B505000F00161E18DDFFF7AD
:10A8C000BDFE2B0048331C78E4B2002C12D13900B5
:10A8D00001A809F0A8F9320001A92800FFF7C0FF7C
:10A8E00001A809F03EF92800FFF7B8FE2000FEBDE0
:10A8F0000148FCE70148FAE717FCFFFF11FCFFFFE6
:10A90000F8B50400171E2DDD060048363278002AFF
:10A9100002D03278012A27D15D42069BFF331FD136
:10A920006B1D22001BB264321380230020006633AB
:10A930001D70603009F0F3F9230000226C331A70A7
:10A94000954200D03D0023004A331D80079B002024
:10A950005A1E9341013F4C34053327803370F8BDB4
:10A96000069BDEE70148FAE70148F8E717FCFFFF1E
:10A9700012FCFFFFF0B587B005000F00161E039311
:10A980001EDDFFF75BFE2B0048331C78E4B2002C81
:10A9900018D1390005A809F0BAF90D9B32000193CE
:10A9A0000C9B05A900932800039BFFF7A9FF05A8AE
:10A9B00009F0A0F92800FFF751FE200007B0F0BD14
:10A9C0000148FBE70148F9E717FCFFFF11FCFFFF17
:10A9D000FF2902D84172002070470148FCE7C046B9
:10A9E00017FCFFFF13B5040004A8007800902000B6
:10A9F0000BF060FE002801D1207516BD0048FCE771
:10AA00000EFCFFFF13B5040004A80078009020009E
:10AA10000BF038FE002801D1207516BD0048FCE778
:10AA20000EFCFFFF7FB50D0011000F226A440400E9
:10AA30001E1E117016D0089B002B13DD0123290068
:10AA40000093FFF7DFFF002802D0074804B070BD75
:10AA50000090089B320029002000FFF7C3FF002868
:10AA6000F4D0F2E70148F1E70EFCFFFF17FCFFFF0F
:10AA7000F7B507000D1E3FD000230226046901939D
:10AA8000002C35D0AA88A3885340334204D13242E7
:10AA900004D1AB88334226D0646AF1E7A968A06884
:10AAA0000AF091FD0028F4D02B88002B02D02288D8
:10AAB0009A42F1D16B88002B02D062889A42EBD186
:10AAC000EB68E268934201D0002BE5D17B68002B54
:10AAD00001D020009847A288084B1343A380019B14
:10AAE00001330193D8E7A368AA689342D4D1DBE786
:10AAF000019B2000002B00DC0148FEBD0080FFFF11
:10AB000017FCFFFFF0B5060085B00D1E5DD00127D4
:10AB10000469002C26D00221AA8800230A4202D010
:10AB2000A3885B083B40226829688A4214D1A06848
:10AB3000A968002B0ED00AF046FD00280CD0EB6867
:10AB4000E268934208D1A3881AB2002A06DB2048A3
:10AB500005B0F0BD8842F2D0646ADAE75B045B0CB2
:10AB6000A380F4E730692A88002807D135610123E2
:10AB70001849684609F09BF80020E9E70100030046
:10AB80001C88944206D25C6A1900002C0DD0230068
:10AB9000F6E723001C88944207D15F886C88A7429F
:10ABA00003D85C6A1900002CF3D1884209D10B88C4
:10ABB0009A4204D305D148886B88984201D96962CA
:10ABC000D4E74B6A6B624D62D1E70348C0E7C046E9
:10ABD00016FCFFFFFD03000017FCFFFF064B10B53E
:10ABE0001A00040008322C33026083600830FEF73C
:10ABF000ABF9200010BDC046F870020008B4024B4B
:10AC00009C46083808BC6047DDAB010008B4024B25
:10AC10009C46083808BC60474D4A02000C4A002395
:10AC200011002C32083110B5436083818373826038
:10AC3000036143618361C383016004000830FEF750
:10AC400075F9044B1A68002A00D11C60200010BD61
:10AC5000F8700200DC240020F7B50E00012504691D
:10AC60000192002C36D0238832889A4201D0002BE2
:10AC700023D1638872889A4201D0002B1DD1FEF740
:10AC8000C9F80123002806D0C022A3881340C03B86
:10AC90005A425341DBB2019A934219D1A7883BB281
:10ACA000002B15DB10223100A0180CF029F84023EE
:10ACB0001F4204D0200009F0D2FE646AD1E7FEF7FB
:10ACC000A9F80028F6D021000348FEF755FAF4E76A
:10ACD0000025F2E72800FEBD5F4A020008B4024BDF
:10ACE0009C46083808BC6047E74B0200F0B587B0C7
:10ACF00001930EAB1B88060003930D9B0D00009380
:10AD0000019B02920C9F002B3CD0002F02D1009B94
:10AD1000DB0737D528200BF0C0FF0400103008F007
:10AD2000BCFF029B1820258063800BF0B6FF050056
:10AD3000009B08220593019B002103600C300497BF
:10AD40000BF0FAFF082204A9281D0BF0D9FF0E4BC7
:10AD500002226B6100230399E3602362636233681C
:10AD60000A43A560A2805B68210030009847002854
:10AD700006D0200008F0ABFE20000BF083FF034854
:10AD800007B0F0BD0248FBE7214C020016FCFFFFB4
:10AD900017FCFFFFF0B50400160000258380164A5B
:10ADA000164B85710260218146810573186889B050
:10ADB0008C46A8421DD0124A05950492C0220292E8
:10ADC0006A4604AB82CB82C223002A006146FFF7A9
:10ADD0008DFFC022094B0A49186802926A46069103
:10ADE00006AB079582CB82C223002A003100FFF711
:10ADF0007DFF200009B0F0BD3C710200DC24002082
:10AE00004B4D020030B5002403730123034D8471C0
:10AE10000560818082734373846030BD38700200A6
:10AE200070B583790400DB0702D580680BF02AFF38
:10AE3000A3799B0702D5A0680BF024FFA3795B07D9
:10AE400007D5A0230021144ADB00D150A0680BF0E5
:10AE500019FFA3791B0708D5A568002D05D0280088
:10AE60000AF022FC28000BF00DFFA379DB0605D5C4
:10AE7000A068002802D00368DB6898476023A279A5
:10AE80001A4205D0A068002802D003685B68984782
:10AE90000023A360A37170BD00700040F7B50126C8
:10AEA000037B040033422AD0612385791D4017D1EA
:10AEB000FFF7B6FF18200BF0F0FE0E230700E35655
:10AEC00018220093637B290001930BF035FF019A50
:10AED000009938000BF063FDA379A7603343A37199
:10AEE0006023A279A0681A4202D00BF004FCFEBDD8
:10AEF000436940681B681840431E9841F7E70148C2
:10AF0000F5E7C04616FCFFFF10B5012483794173B5
:10AF10001C4004D080680BF0D3FD002010BD6022DF
:10AF2000134203D080680BF0EDFBF6E70048F5E72D
:10AF300016FCFFFF70B5040000250C4B0E00083313
:10AF40008580857103602100183009F0AFFF200073
:10AF50002100203009F0CDFF054BA680E580257249
:10AF6000E5602561656120001C6070BD4C710200C8
:10AF7000F02400208379DB0702D5C16000207047F0
:10AF80000048FCE716FCFFFF8379DB0701D5C068AA
:10AF900070470148FCE7C04616FCFFFF70B54569E5
:10AFA0000400002D22D0037A032B21D8FFF7ECFFF9
:10AFB000A8622C200BF071FE2C22002105000BF062
:10AFC000BBFE002263695A622369934208D1636918
:10AFD00023610020237A65610133237270BD130061
:10AFE0005A6A002AFBD162695A62F2E70148F5E722
:10AFF0000148F3E717FCFFFF13FCFFFF144B70B58C
:10B000005A68144C002A03D000225A600132A26010
:10B010001A69002A17D0002119618023DB000E4D28
:10B02000E3582868012B0FD1A923DB00E1584942DE
:10B03000FFF7A0FF2868FFF7B1FF2B685A69074B9D
:10B04000E2500123A36070BDFFF794FFF9E7C0460B
:10B05000FC10004000100040F02400200405000017
:10B0600003000069002809D00221054AD167426A1D
:10B070001A611A7A013A1A72024B19607047C04677
:10B0800004E100E000E100E010B5002903DB024B21
:10B0900019600BF07BFB10BDF424002070B5040098
:10B0A0001E0004AB1D7805F0A5F820000E4B4030C3
:10B0B0002360FEF741FA230001364C3301352200AC
:10B0C0001E701D730023E1214E32A364636513805B
:10B0D00053809381D381013B200063644902FFF7D1
:10B0E000D3FF200070BDC046E86F0200F7B580278F
:10B0F0007F053D697C690822113C6C4306002100F4
:10B1000068460BF0FDFD104B009A9A4219D000934F
:10B1100000230193796930001339694309F0FEFE79
:10B12000019A0099300009F011FF2100300009F068
:10B13000F5FE7969AB08133969432200300009F044
:10B14000F7FE0198FEBDC046FECA0000F0B50D0036
:10B15000A9B00D9200213022060010A80B930BF02D
:10B16000EBFD28000BF028FE431C0C93102B00D99C
:10B17000B5E00B9B202B00D9B1E02900300009F08D
:10B1800012FF071E50D129000C9A10A80BF0B8FD31
:10B190000D990B9A14A80BF0B3FD80235B051A6977
:10B1A0005F690C92113F7A4330005D690B92FFF7A3
:10B1B0009DFF3022002104001CA80BF0BDFD2900DA
:10B1C00000270C9B13395943300009F0A7FE0D9757
:10B1D00030257D430B9B0833ED18A74242DA290046
:10B1E00030221CA80BF08CFD10A91CA80BF0DAFD76
:10B1F000002827D13C49300022000E910F9409F01D
:10B20000A5FE6A46099513AB23CB23C223CB23C2E9
:10B2100023CB23C23000129B1099119A09F0A4FE8F
:10B2200001230D930137D3E710300B9A0D990BF0E2
:10B2300058FD040038000BF025FD002CA3D12000A0
:10B2400029B0F0BD6A4609951FAB23CB23C223CB9F
:10B2500023C223CB23C230001C991D9A1E9B09F0E8
:10B2600083FEDFE7E5433023ED1725405D430B9B6D
:10B2700008355D190D9B002B1DD10C9B3021981EAC
:10B2800005F070FDA0422CD0174901343000220097
:10B290000E910F9409F05AFE6A46099513AB23CB21
:10B2A00023C223CB23C223CB23C230001099119A8F
:10B2B000129B09F059FE0B99300009F02FFE8023F4
:10B2C0005B0559690C230C9A133963434A430233D3
:10B2D000110030000B9A09F02BFE0024AFE7034C5D
:10B2E000ADE7034CABE7C046FECA000017FCFFFF0A
:10B2F00013FCFFFF8023F0B55B051A6995B003923C
:10B300005A6905910399113A51435D69039B133DB5
:10B31000040002915D43FFF7E9FE061E3BD00027C3
:10B3200030220021083508A801950BF005FD019990
:10B33000200009F0F3FD049730237B43029D08357C
:10B34000ED18B7421FDA2900302208A80BF0D8FC0C
:10B35000059908A80BF026FD00280AD11949721E8C
:10B3600020000691079209F0F1FD012304930137B3
:10B37000E2E70C23019A2900200009F0D9FD019B86
:10B3800030330193F3E7049B002B06D10D493200C3
:10B39000200009F0DBFD0C4812E00299200009F0C2
:10B3A000BDFD80235B0559690C23039A13394A4379
:10B3B0007343110020000233029A09F0B9FD002006
:10B3C00015B0F0BDFECA00000CFCFFFF70B5040014
:10B3D000A280FA22002308000C4992000831216063
:10B3E000A3716061E260A3606382094909F0DBFD3B
:10B3F000051E09D0010020001031022212300BF08E
:10B400007FFC28000BF03EFC200070BD6471020040
:10B41000957E020030B50225837987B004002B4267
:10B4200004D1FDF783FDA3791D43A571200009F028
:10B4300004FE00281CD06B46DD1C280009F0F4FD3A
:10B440002B78002B17D001A809F0ECFD0321019AFD
:10B45000D3170B409B189B102382FDF7EFFFE36887
:10B46000A18818180123A0601A0002A808F01FFC88
:10B47000002007B030BD0122064B1A60064A516811
:10B480000029FCD000215160044A12680192012277
:10B490005A60DBE700C00040FCC0004008C5004027
:10B4A000022802D10122014B1A707047182800208F
:10B4B00070B5064C05002378002B04D1044802F037
:10B4C000A7FD01232370280070BDC0461928002065
:10B4D000A1B4010070B50C0008F0DCF9002810D010
:10B4E0000023144DA40A2B70200009F0BAFD002897
:10B4F00003D00A200BF0DDFAF6E72B78002BFCD006
:10B5000070BD02210C4B0D4A99508021C9000800E2
:10B510005D58002DFCD0A121C9005C5019580029AC
:10B52000FCD0002199508021C9005A58002AFCD033
:10B53000E6E7C0461828002000E0014004050000AE
:10B54000F8B50C0015001E0008F0A4F9002811D071
:10B550000023174F3B7032002900200009F07FFDC7
:10B56000002803D00A200BF0A4FAF4E73B78002B64
:10B57000FCD0F8BD01210F480F4B844619508021A3
:10B58000C9005A58002AFCD080270022FF009642AA
:10B5900007DD910068586050D9590029FCD001326C
:10B5A000F5E7002261465A50DA59002AFCD0E0E75C
:10B5B000182800200405000000E0014008B4024BF8
:10B5C0009C46443808BC604767500200FA21F8B531
:10B5D0000389C9000400594332480AF00AF8FA21E5
:10B5E000890005F0BFFB304F2081A17A38000AF0B6
:10B5F00000F823002600250022894C33A072A036D3
:10B600001A808C35317800232A22286809F072F9D3
:10B61000002801D02548F8BD31781F235B22286817
:10B6200009F068F90028F5D1317820235C222868D8
:10B6300009F060F90028EDD1317801232C22286827
:10B6400009F058F90028E5D1317801232D22286826
:10B6500009F050F90028DDD1317801232E22286825
:10B6600009F048F90028D5D1A17A380009F0BCFFCB
:10B670003178C3B20E22286809F03CF90028C9D1FC
:10B68000FA21238989005943064809F0ADFF0123B7
:10B690000343DBB231782A22286809F02BF900280D
:10B6A000B9D0B7E7847102007C7102000EFCFFFF85
:10B6B00008B4024B9C46443808BC6047CDB5010035
:10B6C000074B10B51A00040008323C330260436493
:10B6D000443008F00FFD200008F038FC200010BDB9
:10B6E000E471020008B4024B9C46443808BC604731
:10B6F000C1B6010008B4024B9C46443808BC604700
:10B7000071500200F0B5042583798BB004002B4200
:10B7100004D1FDF70BFCA3791D43A57120009030E7
:10B72000FFF7BCFB0026B0420FD12300A0331978ED
:10B7300020000C2307AD00938C302B000122006801
:10B74000FFF770F9061E03D02C4E30000BB0F0BD91
:10B750000A2304AA9B182A785A706A781A70002261
:10B76000985EAA785A70EA781A700022995E03915E
:10B770002A795A706A791A7000229F5EAA795A70E3
:10B78000EA791A7000215A5E04922A7A5A706A7A0B
:10B790001A7000215A5E0592AA7A5A70EA7A1F2519
:10B7A0001A7000229B5EA27A03999C46514349423B
:10B7B0005043CB172B407A435B185B11A361C3172F
:10B7C0002B401818D3171D406423AD18059A5B420F
:10B7D0005343A36764236146049A40115A434B4381
:10B7E000E2676D11221DE06125622000D36708F039
:10B7F00026FC2000443008F084FCA6E70EFCFFFF86
:10B8000008B4024B9C46443808BC604705B70100A9
:10B81000F7B51E00040008AB1B881500019309ABA7
:10B8200000911A8831000AAB1F88FEF73DF820000E
:10B830003A0031004430FEF78BFA134B20001A0017
:10B840003C336364230008322260009A8C331A6010
:10B85000AB8890308380AB79019A83710B4B0321C5
:10B860000360AB6883602B7B03736B7B4373AB7BA1
:10B8700083732300A0331A80FFF746FB2000FFF7F5
:10B88000A5FE2000FEBDC046E47102003870020033
:10B89000F8B5FA260189B60004007143264809F07C
:10B8A000A8FE310005F05EFA244F2081A17A38000D
:10B8B00009F09FFE2500A0725835297800232A221E
:10B8C000606C09F017F8002801D01D48F8BD2978F0
:10B8D00010232B22606C09F00DF80028F5D129788F
:10B8E00001232D22606C09F005F80028EDD129789C
:10B8F00001232E22606C08F0FDFF0028E5D1A17A1B
:10B90000380009F071FE2978C3B20E22606C08F08D
:10B91000F1FF0028D9D121890748714309F064FE5D
:10B9200001230343DBB229782A22606C08F0E2FF8E
:10B930000028CBD0C9E7C0464C7202004472020016
:10B940000EFCFFFF10B50400034B0833036008F042
:10B95000FDFA200010BDC046AC7202007FB5042580
:10B96000837904002B4204D1FDF7E0FAA3791D434B
:10B97000A57120004830FFF791FA0025A8420DD1AB
:10B98000230058331978062302AE009301223300B6
:10B99000606CFFF747F8051E03D00D4D280004B07A
:10B9A00070BD022300210420F356A27ADB007156F9
:10B9B00030565343C000C900514342435B42A36128
:10B9C0002368E16122629B6A20009847E6E7C0464F
:10B9D0000EFCFFFFF8B50400150006AA168807AA9A
:10B9E0000F0012881900FDF75FFF0F4B67640833E3
:10B9F00023602300AA8848339A80AA7920009A718C
:10BA00000A4AA264AA6822652A7B1A736A7B5A735F
:10BA1000AA7B9A730023A371230058331E80FFF77B
:10BA200037FF2000F8BDC046AC720200387002003B
:10BA300010B50400034B0833036008F05BFB2000E3
:10BA400010BDC04640730200F0B507005C3787B0F8
:10BA50000400397800231022806C08F04BFF032685
:10BA6000002802D01F4807B0F0BD0F2502ABED182B
:10BA70000123397808220093A06C2B00FEF7D2FF37
:10BA8000184B9842EED02B78334203D06420FDF758
:10BA9000E7FAEAE7FA262189134DB6007143280038
:10BAA00009F0A7FD310005F05DF920813978A02368
:10BAB0001122A06C08F01EFF0028D3D1A36C2189AD
:10BAC0000393714328003F7809F08EFD012318434A
:10BAD000C3B210223900039808F00CFF0028C2D02E
:10BAE000C0E7C0460EFCFFFFE072020070B50825FB
:10BAF000837986B004002B4204D1FDF717FAA379AD
:10BB00001D43A57120004C30FFF7C8F9061E0DD06B
:10BB100023005C331978062304AD009301222B0027
:10BB2000A06CFEF77FFF061E03D0134E300006B058
:10BB300070BD0E232A786B445A706A7820001A7000
:10BB40000022995E64224A43A263AA785A70EA7876
:10BB50001A700022995E642252425143616329792E
:10BB600059706979197000215B5E5A432368E2635A
:10BB70001B6A9847DAE7C0460EFCFFFFF8B50400E1
:10BB8000150006AA168807AA0F0012881900FEF7EA
:10BB9000DFF80D4BA764083323602300AA884C33D9
:10BBA0009A80AA7920009A71084AE264AA686265BC
:10BBB0002A7B1A736A7B5A73AA7B1E829A73FFF7D9
:10BBC00043FF2000F8BDC0464073020038700200F9
:10BBD000F7B5FA250189204FAD000400694338000C
:10BBE00009F007FD290005F0BDF8A17A20811B4866
:10BBF00009F0FFFC2600636CA0720093218958367F
:10BC0000337869433800019309F0EEFC07230343BE
:10BC1000DBB220220199009808F06CFE002801D0C8
:10BC20000F48FEBD317810232222606C08F062FEBE
:10BC30000028F5D1A17A0948656C377809F0D4FC61
:10BC400080235B420343DBB223223900280008F043
:10BC500051FE0028E5D0E3E7747302006C73020024
:10BC60000EFCFFFF10B50400034B0833036008F01F
:10BC70006DF9200010BDC046E4730200F0B5042544
:10BC8000837985B004002B4204D1FDF74FF9A379E5
:10BC90001D43A57120004830FFF700F9061E0DD0A6
:10BCA000230058331978062302AD0093A8222B00F5
:10BCB000606CFEF7B7FE061E03D0144E300005B0D0
:10BCC000F0BD1F200023EA5ED31703409B18022219
:10BCD000A95E5B11CA170240521804216F5E52110F
:10BCE000F9170140C91949112B806A80A980A07AEF
:10BCF0004343424341435B42E36123685242A261B2
:10BD000021629B6A20009847D8E7C0460EFCFFFFDF
:10BD1000F8B50400150006AA168807AA0F001288B5
:10BD20001900FDF7C1FD0F4B676408332360230042
:10BD3000AA8848339A80AA7920009A710A4AA26494
:10BD4000AA6822652A7B1A736A7B5A73AA7B9A7344
:10BD50000023A371230058331E80FFF739FF200012
:10BD6000F8BDC046E473020038700200F7B5FA254A
:10BD700004000189134EAD006943300009F039FC1D
:10BD8000290004F0EFFF2700A36C208100935C37AB
:10BD90003B7881B269433000019309F025FC6022B1
:10BDA000C3B20199009808F0A5FD002801D006480B
:10BDB000FEBD397801236222A06C08F09BFD0028AB
:10BDC000F6D0F4E7187402000EFCFFFF10B5040073
:10BDD000034B0833036008F08DF9200010BDC04606
:10BDE000407402007FB50825837904002B4204D1FA
:10BDF000FDF79CF8A3791D43A57120004C30FFF797
:10BE00004DF8051E0DD023005C331978062302AED1
:10BE10000093E8223300A06CFEF704FE051E03D059
:10BE20000B4D280004B070BD0223F25E96235B42E6
:10BE30005A4362630021725E20005343A3630423CC
:10BE4000F25E96235343E36323681B6A9847E8E74F
:10BE50000EFCFFFFF8B50400150006AA168807AA15
:10BE60000F0012881900FDF773FF0D4BA76408330C
:10BE700023602300AA884C339A80AA7920009A7103
:10BE8000084AE264AA6862652A7B1A736A7B5A735D
:10BE9000AA7B1E829A73FFF769FF2000F8BDC04697
:10BEA000407402003870020010B50400054B0833DE
:10BEB00003601C3007F055FE2000183007F051FEDB
:10BEC000200010BD6C740200FF23F0B52C4D8DB026
:10BED0002B700023040069460088009303F086F964
:10BEE000002802D16B469B782B70264E3368DB68A6
:10BEF000002B07D1002320881A00190009F028F927
:10BF00000DB0F0BD2B78032BF4D81F4901A8FDF725
:10BF1000D9FA336801A9DE6804A807F084FE04A9F1
:10BF2000300009F073F80027060004A807F019FE96
:10BF3000BE421ED031002022103104A80AF0E0FEDB
:10BF400030000AF09FFE297804ABC9005918082276
:10BF500002A80AF0D5FE20880123082202A909F0D0
:10BF6000F7F80137002804D12088084A0C2109F08D
:10BF7000EDF801A807F0F5FD002FBBD0C0E7C046E3
:10BF80008520002004250020287F0200FFFF0000FC
:10BF9000F0B5837991B004005B071BD5FDF74EFA2D
:10BFA00000232269801A9941994203D1F423FF3377
:10BFB00098420FD9A068002808D0364B1D8809F098
:10BFC00090FB036815221B6A290098470422A37975
:10BFD0009343A371A3799B0759D52F4D2B68DB6839
:10BFE000002B50D02D4B1B78032B4CD8294B2C49C0
:10BFF0001B8804A80193FDF765FA2B6804A9DE6885
:10C0000008A807F010FE08A9300008F0FFFF07009D
:10C0100008A807F0A6FD02AB9E1D0823320033805E
:10C0200006A9073B019809F095F8002F08D03900C0
:10C030002022103108A80AF063FE38000AF022FE20
:10C04000164B32881B7806A9DE0008AB9E1930001B
:10C050000AF047FE002813D0082206A930000AF093
:10C060004FFE2B6804A9DD6805A807F0DCFD20233E
:10C0700008AA05A9280008F0CFFF05A807F071FD60
:10C0800004A807F06EFD0222A3799343A37111B0B7
:10C09000F0BDC04680270020042500208520002018
:10C0A000287F0200F7B5089E0500152922D8012037
:10C0B00007008F40244C27421CD0E97FCC181F2C4E
:10C0C00041DC69183418A14210D80021C8B283425B
:10C0D00004D9545C701884700131F7E732789A18EB
:10C0E0003270EA7F9B18EB7700202CE00878C85468
:10C0F0000139E8E73478013CE4B2A34208D10023D7
:10C10000D9B28C42F0D9D05CF11888700133F7E7CE
:10C11000EF7F0120FF183F1B1F2F14DC0227A01CFC
:10C120007F423618381B0190E87F2F18BE4204D298
:10C130003078019FF0550136F6E7041B023CEC779E
:10C14000280009F051F8FEBDFC002000F0B5040005
:10C1500085B001930AAB1E880BAB1B78451C02937C
:10C160000EAB1B78170003930B78102203704B8AD9
:10C170000131438228000AF0C3FD268300260122F4
:10C18000019B67616383039BE6832377029B200007
:10C19000EB77A31CDA770C9B0C25636223000D9AC6
:10C1A00028331A705E709E702A0031002C300AF01D
:10C1B000C3FD2000064BE663A3632A003100403034
:10C1C0000AF0BAFD2000034B2665E36405B0F0BD1C
:10C1D0006B5102005D51020070B50D0009F081FA4B
:10C1E00004000368002D09D15B699847FA2080009C
:10C1F0006843074904F0B6FDE08070BD9B6898472E
:10C200008542F3D2236820009B6898470500EDE73C
:10C2100071020000F0B507001600A1B002C70400CB
:10C220006B4918A81D0009F026F8331E03D0300012
:10C230000AF0C2FD83B2012204920022039202920C
:10C24000023201920093320018A93800FFF77EFFF6
:10C2500023006049583318A8079309F00CF82B1EE7
:10C2600003D028000AF0A8FD83B201220492002224
:10C27000039202920232019200932A0018A90798B1
:10C28000FFF764FF23005449AC3318A8089308F063
:10C29000F2FF269B002B03D018000AF08DFD83B21D
:10C2A0000122049200220392029202320192009330
:10C2B000269A18A90898FFF749FF631CFF334749DE
:10C2C00018A8099308F0D7FF279B002B03D018006C
:10C2D0000AF072FD83B2012204920022601C0392D4
:10C2E0000292023201920093279A18A9FF30FFF7B9
:10C2F0002DFF23005533FF33394918A8099308F05F
:10C30000BAFF289B002B03D018000AF055FD83B21A
:10C3100001220492002203920292023201920093BF
:10C32000289A18A90998FFF711FF2300A933FF33B2
:10C330002C4918A80A9308F09EFF299B002B03D0D4
:10C3400018000AF039FD83B201220492002218ADD0
:10C3500003920292023201920093299A29000A98CC
:10C36000FFF7F4FE204B1B780B93002B2CD1079B7F
:10C3700012971393089B0DAF1493631CFF3315930F
:10C38000099B1A4916930A9B3800179308F073FF0C
:10C390001D2149203B7810222B707B8A12AE6B82C4
:10C3A00006ABC918C0180AF0ABFC06232B750B9B13
:10C3B0002068AB83AE6109F098F9036829001B6817
:10C3C00098470122084B1A70200021B0F0BDC046EA
:10C3D000292A0000242A0000252A0000272A00001C
:10C3E000262A0000282A00001A2800200A18000027
:10C3F00070B5002504000B4B858008338571036000
:10C40000C1601830FDF798F820001C30FDF794F853
:10C410000123621CD377044AA56065612000146083
:10C42000A37170BD6C74020004250020FA2130B5A0
:10C4300085B00500012302228900684607F037FC19
:10C44000074C2068002809D008F04EFF2988054BCA
:10C4500022681980022391790B43937105B030BD96
:10C46000042500208027002010B50C0007290DD8D6
:10C47000806809F036F9064B195703685B6C9847DA
:10C48000431E9841034B4042184010BD0248FCE750
:10C49000207F020016FCFFFF17FCFFFFF0B5A44C45
:10C4A0000D00A544040007939AAB1B78A14909A885
:10C4B00004930692FDF706F8200029001C3007F0CF
:10C4C000BAFBC020800001F099FD08200AF0E5FBCE
:10C4D0000600002100F0AEFE15ADA66000210C2282
:10C4E0000EA80AF029FC2B000EAA83CA83C3924B24
:10C4F0002900EB60002330002B6109F0DBF8A06815
:10C5000009F0EFF808220021059016A80AF014FCA3
:10C5100014200AF0C2FB29000200884B1593C8C9F9
:10C52000C8C2874B059EC3600023A43603613368ED
:10C53000002B00D0F5E03060A06809F0D6F80822A2
:10C540000021060016A80AF0F7FB14200AF0A5FB4C
:10C550007C4B1593030086CD86C37B4BC3600023C1
:10C560000361336B002B00D0DDE03063A06809F07D
:10C57000B8F808220021050016A80AF0DDFB1420F7
:10C580000AF08BFB714B15AE1593030086CE86C364
:10C590006F4B9835C360002303612B68002B00D0DC
:10C5A000C3E02860012504AB1B7C04AA2B4308A927
:10C5B0002800137408F0D0FDA06809F09AF8036809
:10C5C00064495B6A9847A06809F093F80368624978
:10C5D0009B699847A06809F08CF8002302680093D3
:10C5E000166804992A00B047049B002B0AD020004B
:10C5F00008F083FE032805DDA06809F07AF80368D7
:10C60000DB6898470EA808F0E6FD2F2004ABC018A1
:10C6100008F0E1FD362004ABC01808F0DCFD3D2039
:10C62000042504ABC01808F0D6FD0EAB0A93A06831
:10C6300004AB5D7709F05DF803680AA91B699847A8
:10C64000A06809F04EF803680AA95B6D9847A068D6
:10C6500009F047F803680021DB6D9847A06809F0EE
:10C6600040F8036802219B6D984700212000FFF7E6
:10C67000FBFE18200AF011FBA16800F055FA374BB9
:10C68000374A1B68A1680393364B15A81B68002620
:10C690000293354B0CAF1B680193069B1B685B191B
:10C6A0000093324B12681B68FFF7B4FD30200AF08C
:10C6B000F4FA079AA16800F0F7FAA06809F011F8F7
:10C6C000036839009B6A9847294BBE80A0680C9389
:10C6D00009F007F803683900DB6A98472900A06869
:10C6E00008F0D5FD099A09219378A068521908F03D
:10C6F000E1FDA06808F0F5FF32210671A068FFF7A0
:10C700006BFD04AB1B7FB34204D0A06808F0E9FFC7
:10C7100008F0A7FD09A807F024FA95239B009D4483
:10C72000F0BD036107E703611FE7036139E7C04616
:10C73000ACFDFFFF0D800200795102002DC4010005
:10C7400087510200C9BE010095510200C351020089
:10C75000A351020075C70100A9C7010000250020F0
:10C76000FC24002008200020F82400200C200020B9
:10C770000800100013B506226846FCF7B3FE094B0B
:10C780001C68002C0AD0694601A807F04CFA20006A
:10C7900001A908F0D3FD01A807F0E3F9684607F006
:10C7A000E0F913BD04250020002373B501AE0C0091
:10C7B00031000500019302F019FD002802D1B27882
:10C7C000064B1A70064B1868002806D0614261417A
:10C7D000044BC9B21D8008F0B9FD73BD852000204F
:10C7E000042500208027002030B5284CA9B06A22FB
:10C7F0000D000DA821000AF083FA0DA903A8FCF78B
:10C80000CFFE03A906A807F082FA01230193013B9A
:10C81000FF3B00930533FF33642206A92800FEF78F
:10C82000A9F806A807F066FA210019226A3106A8BD
:10C830000AF066FA05220024110006AB04A807F0EE
:10C840008DFA04A905A807F062FA01940094230068
:10C85000220005A92800FDF7D1FF05A807F04AFA34
:10C8600021002800FEF7B4F805340520FCF7F8FB9A
:10C87000FF2CF5D1FA208000FCF7F2FB04A807F0AA
:10C8800039FA03A807F036FA29B030BD9D7E0200C0
:10C89000F0B59C4B95B005921A68082304000391EB
:10C8A000D16C06A80B43D3649749FCF70BFE97495C
:10C8B00007A8FCF707FE220000250DAE30001C3251
:10C8C00006A907F0C7F907AA310008A807F0C2F9BE
:10C8D000300007F046F9631CDD77A06808F001FF1F
:10C8E00003680BAF5B699847300008F074FC2B209D
:10C8F00004ABC01808F06FFC322004ABC01808F07D
:10C900006AFC392004ABC01808F065FC8023DB000A
:10C91000BB80A0680B9608F0E4FE036839005B6DED
:10C920009847A06808F0DDFE036829009B6D9847D2
:10C93000A06808F0D6FE070006000A371F2229006B
:10C9400038000AF0F9F9FD77300008F081FC062183
:10C95000A06808F09CFC089A09219378A06804322A
:10C9600008F0A8FCA06808F0BCFEC8210571A0680A
:10C97000FFF732FCA06808F0B4FEFF272E00058107
:10C98000A06808F0AEFE08F06CFC0398FDF73AFED4
:10C990002000FCF7CBFA03992000FFF725FF03994D
:10C9A000200008F0E6FC0495012563691D402DD0A8
:10C9B000574909A8FCF772FE09A90AA807F0A7F9C8
:10C9C00000220AA91300019200920398FDF716FFB6
:10C9D0000AA807F08FF9049B002B42D1043F282FAF
:10C9E00041DD0025FE2F00DC049D059807F06EFB5D
:10C9F000002806D0012362699A43130004221343DE
:10CA00006361002609A807F075F90495042263699B
:10CA1000134233D0FF210398C826FDF7D9FF002524
:10CA2000B600A36902229B5EAB4222DD200029B240
:10CA3000183007F025F90023010003981A0074301C
:10CA4000FCF77CFE3000FCF70BFB039807F045FF7A
:10CA5000C820FCF705FB02226369134209D10135A6
:10CA6000DFE70437BBE7039807F037FF002FBCDD93
:10CA7000BAE7FA208000FCF7F3FA00260223656982
:10CA80001D421CD006331D4024D0224909A8FCF7C2
:10CA900005FE09A90AA807F03AF900220AA901929D
:10CAA000009213000398FDF7A9FE0AA807F022F9E7
:10CAB0001948FCF7D5FA09A807F01CF9174E6420AD
:10CAC000FCF7CEFA164B01369E4200DC6CE706F00E
:10CAD000F3FE69E7134909A8FCF7E0FD09A90AA8D4
:10CAE00007F015F92B002A000AA901950095039873
:10CAF000FDF784FE0AA807F0FDF809A807F0FAF888
:10CB0000DDE7C04688240020347F0200447F020015
:10CB1000467F02008B7F0200983A00008C0A0000DA
:10CB20008B0A0000C87F02000022594BF0B5083381
:10CB3000060003600F001000A9B0B1600BAB99189C
:10CB400001324870102AFAD10F3A524C1A700E3244
:10CB5000105D991A0874013AFAD2997B5A7B09023E
:10CB60000A4331000C31039125211B7813AD2B7042
:10CB700002ABC918452302A81B186A8218001022AC
:10CB80000AF0BEF8039B64216B610123002402AA12
:10CB90002B7752181993093313701DAB1C706D233A
:10CBA00002AA9B181C706E2321009B181EA80C2241
:10CBB000EC836C621C700AF0BFF8374B0C2221002A
:10CBC00023A8AB63EC630AF0B7F8344B02AAEB641A
:10CBD00046239B180322DA7722002C6505953473CF
:10CBE00006AD2B1901345A70102CFAD101232C48B0
:10CBF0002B700E33195CEA1A1174013BFAD2112121
:10CC00002520AA7B6B7B12020BAC13432A7863822C
:10CC100002ABC9182270C01810220AF071F8012363
:10CC2000237505ABA36100233800A38308F05DFDE5
:10CC3000036821001B68984713ABDB8BB068B38295
:10CC400008F053FD002203680092B18A039ADC6861
:10CC50000123A047B06808F048FD070014200AF03F
:10CC60001CF80022012304000261069240C0083231
:10CC7000290007930AF044F80A4BE360BB69002BD4
:10CC800003D13000BC6129B0F0BD2361F9E7C04693
:10CC9000847402002E8002006B5102005D5102007C
:10CCA0003E800200D3530200F0B500260400724B10
:10CCB000DDB0083303608160C26086808671320017
:10CCC0006E4947A808F025FC2300143301250427EA
:10CCD00008931223009704950193089A330047A9FB
:10CCE000039602961DA8FFF731FA3200644947A85F
:10CCF00008F00FFC0C2322000097103215AF0495AA
:10CD0000019347A933000396029632A8FFF71EFA53
:10CD100032005C49380008F0FCFB21001C3109910D
:10CD20000423082104950191009339003300099AE6
:10CD30000396029647A8FFF709FA320052493800D5
:10CD400008F0E7FB542009F0A8FF21001222042379
:10CD5000183107910495019200930A0033003900BD
:10CD6000039602960690FFF7F1F9069A474B1000DA
:10CD7000A262D4620AA9082230300A930B9609F005
:10CD8000BFFF434B069A09999363293215702661B8
:10CD90000422E661079809F0B3FF04220799089876
:10CDA00009F0AEFF6622032304A95218D377BA22F2
:10CDB0005218D377872252005218D377069A3549F2
:10CDC0000232D3771DAA0C9232AA0D9247AA0E9274
:10CDD000069AA6850F9210A8320008F09AFB30211F
:10CDE000452004AA52181378123104AA3B70521835
:10CDF000138811397B8204AB1022C918C01809F0BE
:10CE00007FFF04230CADA0683B75BD61BE8308F0B5
:10CE10006CFC036839001B689847822204AB9B189E
:10CE20001B885432238404AB9B181B885432A38480
:10CE300004AB9B181B88A068638408F056FC0700AD
:10CE4000142009F02AFF0500134B0661082210C0C8
:10CE500010A91093119609F053FF104BEB60BB69BA
:10CE6000B34206D1BD612000FCF760F820005DB040
:10CE7000F0BD2B61F6E7C046907402006E800200A0
:10CE80004E8002005E8002007E800200E5540200B7
:10CE9000515402008E80020009CF01007B54020031
:10CEA000F0B504000E00150085B01F000CAB1B8808
:10CEB0001030019306F0F1FE26806580182009F0FD
:10CEC000ECFE02AE050033000AAA03CA03C32F60BA
:10CED0002800082700213A000C3009F02DFF3A0005
:10CEE0003100281D09F00CFF064B02226B61200067
:10CEF00000230199A5600A43E360A2802362636274
:10CF000005B0F0BDA5540200F0B50B898DB00593B6
:10CF1000CB68050004934B88828C9A420ED1049C06
:10CF2000049B059A9B181B1B032B39DD6288218803
:10CF3000012308A806F0BBFE0434F1E7428C9A42B4
:10CF40002ED1049C049B059A9B181B1B032B27DDE9
:10CF50002388282006936388EF680793114B089372
:10CF60000023099309F099FEC0236A460600029344
:10CF700008AB03CB03C22B000699079A3000FFF7DA
:10CF80008FFF3B6831005B6838009847002805D068
:10CF9000300006F09CFD300009F074FE0434D1E747
:10CFA0000DB0F0BD6355020070B5040090B080680C
:10CFB00008F0D2FA022101401AD1A38D002B17D01C
:10CFC0000C4B6A4604931023E568A18505910293F2
:10CFD00004AB41CB41C20A00230006A8FFF760FF63
:10CFE0002B6806A99B682800984706A806F06FFDE5
:10CFF00010B070BD63550200002815D0006041607C
:10D000008260C360046145618661C7614446046211
:10D010004C464462544684625C46C462644604637F
:10D020006E46466374468463002A06D0C46B043C93
:10D03000043A25681560B442F9D18C6BA6464E6B54
:10D04000B546002B06D0CC6B043C043B1D68256024
:10D05000B442F9D10C6BA446CC6AA3468C6AA246B2
:10D060004C6AA1460C6AA046CF698E694D690C696D
:10D07000CB688A68086849687047006041608260D0
:10D08000C360046145618661C761444604624C46E1
:10D090004462544684625C46C462644604636E46DD
:10D0A000466374468463C46B043C043925680D6090
:10D0B000B442F9D1C769866945690469704700605F
:10D0C00041608260C360046145618661C761444616
:10D0D00004624C464462544684625C46C4626446C0
:10D0E00004636C4644637446846304697047846BCC
:10D0F000A646446BA546046BA446C46AA346846A4C
:10D10000A246446AA146046AA046C7698669456981
:10D110000469C368826800684168704710B5041EDE
:10D120000CD009F049FE431EE3189C4208D2227835
:10D130001978013B21705A700134F6E7014810BD9F
:10D140000020FCE717FCFFFFF0B585B002900C1E35
:10D150002AD00023C217161A56400193019B3000B3
:10D160005D1C63190A215F1E039303F06BFF4942A4
:10D170003031397030000A2103F07EFE474206004C
:10D18000002F0FD1029B002B04DA2D23019D039A5F
:10D1900002351370002320006355FFF7BFFF3800EE
:10D1A00005B0F0BD0195D9E7004FF8E717FCFFFF88
:10D1B0000268084B406810B5C018C0001018030082
:10D1C0009A4205D81C688C4202D31800083BF7E746
:10D1D00010BDC046FFFFFF1F70B5002817D1114DCD
:10D1E0002E68002E11D1083009F057FD0660466008
:10D1F0000D4E04003368002B02D108F0ADFC306006
:10D2000023682C609B00F3586360286870BD01227E
:10D21000064907480B681340F8D1026043600A6072
:10D22000F4E7C0460C250020182500200825002022
:10D2300010250020002370B504000160436099426E
:10D240000AD1064D2B68002B02D108F085FC28601E
:10D2500023689B00EB586360200070BD18250020F8
:10D26000436810B50400002B02D1044809F069FBA3
:10D27000606803681B69984710BDC0469E80020025
:10D28000436810B50400002B02D1044809F059FB93
:10D29000606803689B69984710BDC0469E80020085
:10D2A000436810B50400002B02D1044809F049FB83
:10D2B000606803685B6A984710BDC0469E800200A4
:10D2C00000487047FFFF0000F0B597B00593036872
:10D2D00007AD1B680491039311002B00060091C950
:10D2E00091C30024D36821000C220CA8EB602C61B0
:10D2F00009F022FD22000B4B10940F9311AB1C7010
:10D30000191901344A70102CFAD15A820193059BE5
:10D310002A00009304990CAB3000039CA04717B07F
:10D32000F0BDC0461158020070B5FC30046C050019
:10D33000002C0DD1242009F0B0FC064B4460836121
:10D34000054B8460C46004614461C4610360286467
:10D35000286C70BD7C7502006476020070B5FC30EC
:10D36000C56B0400002D11D1342009F096FC084B48
:10D3700085604360074B45610361074B0562C361EC
:10D38000064BC5628362064BE0630360E06B70BDD1
:10D39000AC7502009C7502000C7602001C7602003F
:10D3A0002C7602007FB503791548002B22D0154E4C
:10D3B000154C33782000002B1CD102AD280008F05A
:10D3C00004FA002810D16B88592B0DD12B78AA882C
:10D3D000D91F012910D800920C4A2021200005F005
:10D3E00053FE0123337004E020220949200009F094
:10D3F000EAFC200004B070BD0092064AEDE7C0468A
:10D40000C18002003B2800201B280020E38002008E
:10D41000DB8002000081020010B50400024B08C04E
:10D4200008F0B3FA200010BD9C75020010B504008E
:10D43000024B08C008F0BEFA200010BDAC75020017
:10D44000064B70B5040003604068002804D00569ED
:10D4500009F018FC2800F8E7200070BD8C75020068
:10D46000064B70B5040003604068002804D00569CD
:10D4700009F008FC2800F8E7200070BDBC75020028
:10D48000064B70B5040003604068002804D00569AD
:10D4900009F0F8FB2800F8E7200070BDCC75020009
:10D4A000064B70B5040003604068002804D005698D
:10D4B00009F0E8FB2800F8E7200070BD0C760200B8
:10D4C000064B70B5040003604068002804D005696D
:10D4D00009F0D8FB2800F8E7200070BD1C76020098
:10D4E000064B70B5040003604068002804D005694D
:10D4F00009F0C8FB2800F8E7200070BDB0740200F6
:10D50000064B70B5040003604068002804D005692C
:10D5100009F0B8FB2800F8E7200070BDC0740200D5
:10D52000064B70B5040003604068002804D005690C
:10D5300009F0A8FB2800F8E7200070BDD0740200B5
:10D54000064B70B5040003604068002804D00569EC
:10D5500009F098FB2800F8E7200070BDE074020095
:10D56000064B70B5040003604068002804D00569CC
:10D5700009F088FB2800F8E7200070BD7C750200E8
:10D5800070B5FC30046C0500002C0DD1242009F08E
:10D5900084FB064B44608361054B8460C460046176
:10D5A0004461C46103602864286C70BD7C7502000E
:10D5B00064760200104B10B5083303600F4B040073
:10D5C000C36080230E4A5B00C250C018FCF7F0FE17
:10D5D00020000C4BB830E360FFF7B2FF2000AC3006
:10D5E000FFF79EFF2000A030FFF78AFF20006C307D
:10D5F000FFF776FF200010BD90760200D87602007B
:10D6000030780200F0740200F8B505000400AC3573
:10D610006B68AB60A868002807D0C36821009847F2
:10D62000AB68002BF4D01B69F3E72500B035286800
:10D63000002804D0066909F025FB3000F8E7220035
:10D64000FC212860583213780B40137023005C33A0
:10D65000187020000A3008F076FA2000343008F004
:10D6600072FA606E002804D0056909F00BFB2800EF
:10D67000F8E72500983560662868002804D0066918
:10D6800009F000FB3000F8E72600A4362860356872
:10D69000002D05D02F69280009F0F4FA3D00F7E7C6
:10D6A0002000356029000C226C3009F045FB200079
:10D6B000074BE567A36729000C22803009F03CFB8B
:10D6C0002300044A8C33903428001A602560F8BD8A
:10D6D000F5570200E7570200444AF0B50600C26061
:10D6E000A022434B16360833036001000023428218
:10D6F0000400320085B00371836003748382353186
:10D70000137001329142FBD1802580222000AD00B0
:10D71000D201F3773584110000933830002300F0F4
:10D7200035FF23002100403303931A002B0000250E
:10D730005F31157001328A42FBD1039AFC21D57703
:10D74000220060321380137920000B4013712300F4
:10D7500068331D70274B2567E3660C220021783063
:10D7600009F0EAFA2300270088331D60224B0837AE
:10D77000FB67843700210C22380009F0DDFA1F4BCB
:10D780001F4AFB602300A0333D611A601D4A5D60A3
:10D79000DA601D4A1D619A61DD61300008F0D3F93D
:10D7A000039808F0D0F9194B601CE3602300C433E0
:10D7B0001D705D709D70FF3002F052FD8C235B0088
:10D7C000E55023001933FF335D618023104A5B006D
:10D7D000E250230001222000FE3352425A86023BCF
:10D7E0009D63DD631D6405B0F0BDC046F0740200AA
:10D7F00090760200B0740200F5570200E75702006D
:10D80000C0740200D0740200E0740200D8760200F6
:10D810003078020070B5074C2368002B07D1A02098
:10D82000400009F03AFA0500FFF756FF256020682E
:10D8300070BDC0461C25002070B50C220D000021D3
:10D84000040009F079FA00232361024B25602000CF
:10D85000E36070BD0358020070B500250400254B3D
:10D8600085800360244BC5608360244B85614361E0
:10D87000234B45620362234B0563C362224BC5639E
:10D88000836329004430FFF7D7FF20002900583078
:10D89000FFF7D2FF200029006C30FFF7CDFF1B4BB4
:10D8A0002200236023008032F83320C29342FCD14F
:10D8B00026001D00E936FF36280008220021083521
:10D8C00009F03AFAAE42F7D18E2300229B00E1180C
:10D8D00004C6B142FCD18E2300219B00E2540C4BC4
:10D8E0000C4AE318A218198002339A42FBD1200097
:10D8F00070BDC046DC7502008C7502009C7502008C
:10D90000AC750200BC750200CC75020064770200A1
:10D910003A02000062020000024B0B600923136010
:10D920007047C0462581020010B504000020FFF7B3
:10D9300071FF03681B6998470300F3331C7086234B
:10D940005B00C05003000021044AFC335A61044AC2
:10D9500099615A62F43008F03FFF10BD215E020069
:10D96000335E0200012110B5044A080001F072FC88
:10D970000023984200D00B33180010BD29D90100B4
:10D98000F0B593B0019000200C00FFF743FF03684F
:10D990005B6A984700F082F906AB00280ED000229F
:10D9A0001A7105AA0692082218001A730AAA9A6028
:10D9B00000F042FA002803D013B0F0BD18711873BC
:10D9C000002727732771019BBA331B78BB4242D9CA
:10D9D00007237B431A000199BB32CB18BB331B785A
:10D9E0008A180292022B2ED1002506AE337BAB4261
:10D9F00023D9AB000393089BAA009958029808F01A
:10DA0000BBFA00281CD0B3689C46AB001900237BEE
:10DA1000614402939A000868A368D050029B0133C6
:10DA20002373337B5A1E954205D00C481B18604661
:10DA30009B001B580B6006AB1A730137FFB2C2E79D
:10DA40000135EDB2D1E72379216802989A000133BC
:10DA500050502371F1E70020AEE7C046FFFFFF3FC3
:10DA6000F0B50A7804009BB00D000220012A08D00E
:10DA70004B88032A07D1A03B21499BB210008B425F
:10DA800007D91BB0F0BD203B1E4A9BB20320934236
:10DA9000F7D81D4BAA8803209A42F2D80AAB00930C
:10DAA00012AB02936A460023260013711373B83633
:10DAB0003378002B1DD104AF18220021380009F063
:10DAC0003BF92B7838003B7033783B726B46FB6038
:10DAD0006B883B82AB887B8208F0C6F8020003208B
