:020000021000EC
:1080000000400020110A02004D0A02004F0A02003F
:108010000000000000000000000000000000000060
:10802000000000000000000000000000510A0200F3
:108030000000000000000000530A0200550A020080
:10804000570A0200D5B40100C9100200570A020005
:10805000570A020000000000890A0200570A0200C5
:10806000570A0200A5120200510F0200570A02002F
:10807000570A0200570A0200570A0200570A020074
:10808000570A0200570A0200570A0200570A020064
:10809000570A020089F901006D060200570A020022
:1080A000570A0200570A020000000000000000000A
:1080B00000000000000000000000000000000000C0
:1080C00010B5064C2378002B07D1054B002B02D0AE
:1080D000044800E000BF0123237010BDC820002029
:1080E0000000000000890200044B10B5002B03D0F3
:1080F0000349044800E000BF10BDC0460000000076
:10810000CC20002000890200164B002B00D1144B1C
:108110009D46402292029A1A924600218B460F46B3
:108120001348144A121A0FF0B5F90F4B002B00D068
:1081300098470E4B002B00D09847002000210400E8
:108140000D000D48002802D00C4800E000BF0BF0E5
:10815000D3FA200029000EF060FF0BF0B7FAC046FA
:1081600000000800004000200000000000000000A7
:10817000C0200020842A0020000000000000000031
:108180004022F0B5036CD1B00793436C5242089380
:10819000836C079C0993C36C0A93036D0B93436D27
:1081A0000B990C93836D0D93C36D0E9310ABD21886
:1081B0000E9B0F930D9B05930C9B04930A9B0693B8
:1081C000099B0393089B029300230193019B0F2BB0
:1081D00000D978E09B00C718C55CFB782D061D43CD
:1081E0007B781B042B43BD782D022B43136406239D
:1081F0000D000F00DD410533DF413B000F006B40F8
:108200001925EF413D005D40019B3E4F9B00166CE0
:10821000FB58049F9B19EB18059D0F408D437D4033
:108220005B190F9D27005B1902252600EF410B35D6
:10823000EE41162577402600EE41029D7740039ED1
:108240000432754025400F95029E039D2E40350057
:108250000F9E6E40069DBF195D19DF19019B01330A
:108260000193039B0693059B0F93019B402B21D108
:10827000029A079B9446DF19089B039A1C19099BD5
:108280000764634494468364049A0A9B4464634489
:108290009446C3640B9B059A5D190C9B05655918A0
:1082A0000D9B41656344944683650E9B6344C3659F
:1082B00051B0F0BD049B04910593029B29000294E8
:1082C00003933C0082E7936B11261F00F741BC46E5
:1082D0001F000236F74166469B0A77407B40566A8C
:1082E00017685568F719DB1907262F00F741BC46B8
:1082F0002F000B36F7416646ED0877406F40DF19D7
:10830000176474E73C760200002813D0002343660C
:1083100003668366084B0364084B4364084B83641D
:10832000084BC364084B0365084B4365084B8365E2
:10833000084BC3657047C04667E6096A85AE67BBF0
:1083400072F36E3C3AF54FA57F520E518C68059B37
:10835000ABD9831F19CDE05B70B5041E1ED0002978
:108360001CD00D008E18B54218D0A36E2A78E254A6
:108370000133A366402B0FD12000FFF701FF236ECE
:10838000074A934202D9626E0132626680229200ED
:108390009B1823660023A3660135E4E770BDC04641
:1083A000FFFDFFFF70B50E000400C4B029A8150042
:1083B000FFF7AAFF3200210029A821ACFFF7CCFF6C
:1083C000210029A80BF0F4FCE27F23781E92A27F03
:1083D00041211D92627F28001C92227F1B92E27E27
:1083E0001A92A27E1992627E1892227E1792E27DE4
:1083F0001692A27D1592627D1492227D1392E27CE8
:108400001292A27C1192627C1092227C0F92E27BEB
:108410000E92A27B0D92627B0C92227B0B92E27AEF
:108420000A92A27A0992627A0892227A0792E279F3
:108430000692A27905926279049222790392E278F7
:108440000292A278019262780092024A0BF0C6F979
:1084500044B070BDFC81020010B50400034B036002
:1084600040300BF000FF200010BDC04644770200F2
:10847000F7B50700C826684601F0CAFA002476005E
:10848000781E03280FD809F00DF8023B3D3F1F4B23
:10849000E15C01A80BF011FF01A968460BF04DFF4C
:1084A00001A80BF0E0FE694601A80BF03EFF184D55
:1084B00001A928000DF0A4F801A80BF0D4FE69462C
:1084C00001A80BF032FF320001A9124802F0CEFBE6
:1084D00001A80BF0C8FE0134642000F0FBFF402C23
:1084E000CED10D4901A801F027FA01A928000DF00D
:1084F00087F801A80BF0B7FE68460BF0B4FEF7BD95
:10850000064BC5E7064BC3E7064BC1E7EA27002049
:1085100054240020E0210020878202002B28002024
:108520006C280020AD28002010B507480CF074F925
:10853000002806D105480CF06FF90028F5D002207C
:1085400010BD0120FCE7C0465822002080220020F8
:10855000F0B587B00A2201901F4903A80EF07EFFF4
:1085600000211E480CF055F9962000254000962663
:1085700000F0B0FF2C00760003AB1F5D02A83900AD
:108580000BF09BFEC82202A95200154802F06EFBB8
:1085900002A80BF068FE13480CF03EF9002807D043
:1085A000019B5F55032D14D03000013500F092FF80
:1085B0000A480CF031F90028DED0092C04D1300033
:1085C00000F088FF0024D7E73000013400F082FF7C
:1085D000D2E7002007B0F0BD7D820200802200209B
:1085E000E021002058220020032370B5050006007A
:1085F000CC171C406418A410731B9C4213DD0BF0B5
:108600009FF80AF067FE0022084B0AF0BBFBF82334
:1086100000229B050AF0B6FB0AF026FE044B1B5C09
:1086200033700136E8E7002070BDC04600004F40BF
:10863000AF82020010B50C4A0C4B117819705178BA
:10864000597091789970D278DA700022845C991808
:1086500001320C711D2AF9D11800054A2421FFF7B7
:10866000A1FE002010BDC046902000202F29002030
:10867000EE28002000B593B06946234B1A780A70A3
:108680005A784A709A788A70DB78CB7004231F4935
:1086900068461A1F8A5CC2540133452BF8D11C4A24
:1086A0002421FFF77FFE69461A4B68461A780A7044
:1086B0005A784A709A788A70DB78174ACB702421EE
:1086C000FFF770FE6946154B68461A780A705A78AB
:1086D0004A709A788A70DB78114ACB702421FFF7B0
:1086E00061FE69460F4B68461A780A705A784A70DC
:1086F0009A788A70DB780C4ACB702421FFF752FEFF
:10870000002013B000BDC04680200020EE280020CD
:10871000EA270020842000202B2800208820002029
:108720006C2800208C200020AD28002070B586B079
:10873000574905A803F016F805A904A801F00CF99B
:1087400005A80BF02BFF534C2368022B04D1002209
:10875000514B1A6001232360504905A801F0ECF841
:1087600005A904A80BF0F8FD050005A80BF07BFD9A
:10877000002D14D04A48FFF75DFFFFF77BFF022171
:108780000022454B05A81A6021600BF089FD782274
:1087900005A9444802F0FAFA05A80BF064FD424925
:1087A00005A801F0C9F805A904A80BF0D5FD05003E
:1087B00005A80BF058FD002D2BD03C4E3C49300055
:1087C0000EF09EFE374D3B49002815D03A49300047
:1087D0000EF096FE394900280ED0394930000EF0CF
:1087E0008FFE3849002807D0374930000EF088FE48
:1087F0003649002800D0364905A801F09DF87822B6
:1088000005A9280002F0C2FA05A80BF02CFD0223EE
:1088100023602168002918D104A80BF0C3FD0BF0D8
:1088200038FB2C4D1E4B2E680100985505A80BF007
:1088300044FDC82205A952001A4802F017FA05A8FB
:108840000BF011FD2B6801332B602368012B19D12C
:10885000002104A80BF0A6FD0BF01BFB0E4C134BE4
:1088600025680100585505A80BF027FDC82205A969
:1088700052000C4802F0FAF905A80BF0F4FC23684A
:108880000133236004A80BF0EEFC06B070BDC046B7
:1088900054240020EC200020E42000208E820200DE
:1088A00094290020E0210020878202005329002023
:1088B000EA270020968202002B2800209A820200DC
:1088C0006C2800209E820200AD280020A4820200B5
:1088D000A9820200E8200020F7B5494D8021280038
:1088E000FFF782FE2800FFF7A5FEFFF7C3FE45480D
:1088F00002F036FE684601F08BF8434E3468002CD7
:108900003CD142480BF088FF0028F6D0295D01A831
:108910000BF0D3FC01A968460BF00FFD01A80BF08A
:10892000A2FC694601A80BF000FD394F01A93800EF
:108930000CF066FE01A80BF096FC694601A80BF04E
:10894000F4FCC82201A95200324802F08FF901A8B4
:108950000BF089FC0134642000F0BCFD202CD5D143
:108960002D4901A800F0E8FF01A938000CF048FEED
:1089700001A80BF078FC01233360BEE7642000F00F
:10898000A9FD264901A800F0D7FF782201A92148B6
:1089900002F0FCF9962501A80BF065FC01246D009E
:1089A0003768012F26D1210001A80BF079FCC822DD
:1089B00001A95200174802F059F901A80BF053FC25
:1089C00012480BF029FF002806D02000FFF750FDC9
:1089D000280000F07FFDE3E711480BF01DFF0028A1
:1089E000DED0042C04D1280000F074FD3C00D7E751
:1089F0000134EDE768460BF036FC0020FEBDC046B2
:108A0000942900203C240020EC2000205822002043
:108A100054240020E02100208E820200EE82020019
:108A20008022002010B5054C200000F08BF8044A8D
:108A3000044920000EF0D8FC10BDC046F0200020F4
:108A400000200020498A0100CA23144A9B0010B567
:108A5000C2501C330400C0180BF005FCD0239B004F
:108A6000E0180BF000FC20009130FF3001F098FB83
:108A700020006930FF3001F093FB2000F03001F05E
:108A800011FF2000D03002F015FB2000643007F009
:108A90002BFF201DFFF7E0FC200010BDD07B020063
:108AA00013B528200EF0A7FC1023040000931D210D
:108AB0000C4B01220BF077FB21000B4802F08EFAE1
:108AC000002805D020000BF084FB20000EF088FC6D
:108AD0000648FA2402F044FDA400200000F0FAFC4D
:108AE000FBE7C0462D870100C02100203C24002068
:108AF00037B5114800F0DEF8FFF716FD0F4D040002
:108B00002800FFF725FD290001A800F015FF7822B5
:108B100001A90B4802F03AF901A80BF0A4FB012CC3
:108B200005D1FFF7D9FE00F04DFD00203EBD022C1F
:108B3000F9D1FFF7B5FFC046F020002090200020BB
:108B4000E02100201423F0B5040093B00093192213
:108B50001821043002F04CFE220025002600643269
:108B6000B435132110001092B83607F0C9FE280062
:108B70000CF0C1FD00221E2130000CF059FA20003B
:108B8000D03002F0B7FA2200F03211920621464AA4
:108B9000119801F0ABFE20000027012369301A0074
:108BA00000971121FF3001F007FB20009130009762
:108BB000012302221A21FF3001F0FEFA2000B93011
:108BC0001A2301210222FF3002F050FB300001F095
:108BD000FFF8E4225200A050300001F047FBE623EA
:108BE0005B00E0500100E42220005200D130119BD4
:108BF000A2580095FF3001F089FD2000E1302900E6
:108C00001C22FF3002F08CFF192320000F93013B40
:108C10000E93013B0D93013B0C93013B0B93013BE6
:108C20000A93013B0993013B0893013B0793013BE6
:108C30000693013B0593013B0493013B0393013BE6
:108C40000293013B0193F930013B08220093072175
:108C5000013BFF300CF00DFACA239B00E0182900FD
:108C600003F070FFD3239B00E0181D2102F0CEFB20
:108C7000DD239B00E7501098277003210EF0F0F8D9
:108C800023002200200009499C33A0321C6011609F
:108C90005760074A80305A610221012207F0A6FF7F
:108CA000200013B0F0BDC0464C770200AB3E02007E
:108CB000953E02000123F0B5067891B004001E40F5
:108CC00060D10300D0331800039300F0E5FA00F000
:108CD000DDF928200EF08FFB050010300BF06FFB44
:108CE000664B18202B600EF086FB0700644B046077
:108CF000082231000C300E930F960EF0CBFB0EA91C
:108D0000381D08220EF0AAFB5E4BAF607B61122378
:108D1000EE60AB802E626E622900039802F05EF96D
:108D2000002805D028000BF054FA28000EF058FB5C
:108D3000012322785449134323702300B4331800CD
:108D400004930CF0DEFC5149029004980CF0D9FC1D
:108D500000270690642000F0BDFB3D003E0023008C
:108D60006933FF33180005930BF056FD00280BD133
:108D7000029B002B11D1069B002B0ED14449454884
:108D800000F088FC11B0F0BD20009130FF300BF0F6
:108D900043FD0028ECD0182EEADC2000653029B213
:108DA0003AB2FF23FF30013500F076FEEDB23220FB
:108DB00000F090FB0136052D02D100250137FFB2EE
:108DC000029B192E06D0002BC9D02F49049802F01F
:108DD0003BFE01E0002BF8D102980EF001FB069853
:108DE0000EF0FEFA2A492C4800F054FCCA239B00DE
:108DF000E3180793DD239B00E3580893002B36D13B
:108E000000F058F801000AA800F096FD0BF0D2F827
:108E100008900BF0CFF86B460990198C0CA80BF05A
:108E20003FFA099B0DA8190C0BF03AFA0DAA0CA9F0
:108E30000BA80BF0A1FA0DA80BF015FA0CA80BF07B
:108E400012FA01230BAA0AA900930798039B03F0C7
:108E5000CFFE0BA80BF007FA0AA80BF004FACC23FC
:108E60009B00E3580893DD23089A9B00E250210001
:108E7000059AF031079804F0B5F870E7FD0300009B
:108E80001D3F0200DD3E0200318302003C830200F0
:108E90000020002008000020001C0020BFF34F8F9E
:108EA000024B034ADA60BFF34F8FFEE700ED00E0AC
:108EB0000400FA05F0B58DB005AF19221549380048
:108EC0000EF0CCFA0022144B05245A718022520570
:108ED000566E0122250001940292039301993000FD
:108EE00008F070FB0800029908F0E6FA019B03996C
:108EF0006B430193029B361A6B430293631E2C1B38
:108F00006C433C19225C1C1ECA54E7D108000DB00A
:108F1000F0BDC0464C830200B4290020F0B597B0E4
:108F200018220021060010A80EF0B4FA132110A890
:108F30000EF0DEF8032110A80EF070F94C4B1B6800
:108F4000002B00D10133DBB202934A4A01230021F6
:108F50000BA807F0B9FF484B9E4200D9002672B615
:108F6000464B64211D68464B30000793052408F0EA
:108F70002DFB60435030281808900A21300008F07B
:108F800025FB0A2108F008FC61435031691809915A
:108F900030000A2108F000FC802361430024503196
:108FA00069189B010A910193029B002B5DD000255B
:108FB00000272E1F07AB9B190593032C03D1802399
:108FC00000249B01019307AB5B592E4A0393630076
:108FD000D31804930023190006205843049A161846
:108FE0007678B4466246039EB25C10269446049A94
:108FF000105C62460641164202D0012098400143AF
:109000000133092BE8D1C9431F4B059A09011940C7
:109010001268039B934225D1312F23DC00210BA83A
:109020000EF0B5F9FA23159A1199DB001068014288
:109030001BD0013B002BF9D1019B01345B00019354
:10904000FA230137E4B25B009F42B6D10435102DFC
:10905000AED1074B1B68002BA6D0029F013FFBB28D
:109060000293A1E7019B1943D9E7FFF717FFC04619
:109070006C240020F0FF0000E70300000420002023
:109080009B83020065830200F01F0000F8B50023F7
:10909000124C23600AF080FF002808D00421200031
:1090A0000AF076FF002801D00D4B2360F8BD0122A5
:1090B000A12704250B4B0C491A602268FF00486069
:1090C0004E68002EFCD0DE591202013D3243002DC5
:1090D000F5D1226001225A60E8E7C04668240020EA
:1090E000ED5EBC0B00D00040FCD00040F0B585B078
:1090F0001F000AAB1B880600029115000393002F86
:109100001BD028200EF077F96B4604001989039BC9
:10911000AAB200933B000BF046F8336821005B686D
:1091200030009847002806D020000BF052F82000AD
:109130000EF056F9024805B0F0BD0248FBE7C04604
:1091400016FCFFFF17FCFFFF0B4B70B51C68002CD3
:1091500010D0656D00F0ACFBA36C002901D18342F7
:1091600006D820000AF04BFF044920000AF035FF22
:109170002C00ECE770BDC04674240020942400202D
:10918000F0B593B007932A4B04AC1E680490059188
:109190000692002E4AD0274B258867881C6800233A
:1091A0000293002C2ED0636D23480393A36C9AB2D4
:1091B000A36C1B0C99B2854214D12048824211D174
:1091C000002B01D0B9420BD1029B002B08D120000B
:1091D0000AF015FF1A4920000AF0FFFE012302934E
:1091E000039CDEE7002A01D09542F9D1002B01D083
:1091F000B942F5D120000AF002FF114920000AF01F
:10920000ECFEEDE70F4BEB18012B0FD910233A00C2
:10921000009329000C4B08A80AF0C5FF336808A981
:109220009B683000984708A80AF0D3FF13B0F0BD40
:1092300070240020A0240020FE030000FF03000093
:109240009424002002FCFFFF8191010010B572B64A
:109250000B4B1C68002C08D020000AF0D0FE002325
:10926000E364084B2000E36310BD62B65C200EF09F
:10927000C2F85C22002104000EF00CF9EFE7C046B2
:109280009824002000400020024B18780123184049
:109290007047C046BA290020F7B50600FFF7F4FF73
:1092A000051E33D11A4C2660FFF7D0FF194B1A491F
:1092B00018600AF092FEFFF7C9FF184B1860184BB0
:1092C0004363184B8363206800280ED0C027164ED6
:1092D0002A00330015490097FFF708FF0097330075
:1092E0002A0013492068FFF701FF0C200EF083F8D5
:1092F0000023838083710F4B03600F4B836000F06A
:10930000EFFA01230D4A11780B431370F7BDC046E5
:1093100070240020A4240020942400209C240020F9
:10932000FC3F0020C540020081910100FF030000C6
:10933000FE0300006C77020049910100BA29002069
:10934000F7B506000D0017000193002802D1002494
:109350002000FEBD0029FAD0FFF778FF041EF6D0EA
:10936000074B019A4363066045608760054B002AFE
:1093700000D0054BA363054920000AF02EFEE7E765
:10938000FC3F00208F400200AD40020094240020EA
:10939000024B1868434258417047C046942400204D
:1093A000002310B504499C006258002A01D0013303
:1093B000F9E76050100010BD7C240020002310B598
:1093C000044A99008C58844201D00133F9E7002007
:1093D000885010BD7C24002010B50024084BA2004A
:1093E000D058002802D003685B6898470134062CE7
:1093F000F4D1044B1B68002B00D120BF10BDC04628
:109400007C24002094240020F8B5FFF73DFF0028BD
:109410001CD02A4D2C68E36CDA0718D502273B4391
:10942000E364274B1E680423F26C30001343F3649B
:10943000636BF3630AF009FE3000716C04F0C7F946
:109440002868C36C3B4201D004F0FBF9F8BD1D4F06
:109450001D4E3A683168002A1ED129602A6891425F
:1094600008D11B0706D52C60FFF7B6FF3B68002B21
:10947000FAD02B6029688C42E8D03368994214D125
:10948000124B4B63124B8B6320000AF0DEFD296800
:10949000626C4B6C20000DE0206DB84203D1606D12
:1094A000002800D002002A60D8E79C42ECD10022BC
:1094B00010004B6C04F04AF9C8E7C046A424002011
:1094C00078240020942400209C240020FC3F0020CD
:1094D000C540020070B50500FFF7D6FE002803D195
:1094E00028000DF094FE70BD0C4B1C68E36CDB078C
:1094F00006D5FFF7ABFE0A4B1860002800D0040029
:1095000000F0D6F92D18A56420000AF078FD054971
:1095100020000AF062FDFFF777FFE4E7A4240020B3
:109520007824002074240020F0B51E4B1E4F1C68C8
:109530003B6885B006000391002B30D0FFF7A4FEF6
:1095400000282CD0E36CDB070ED5FFF77FFE174B0E
:10955000051E186008D00AF052FD154928000AF0CF
:109560003CFD2C00FFF750FF039B20001B043343FE
:10957000A3640AF044FD20000E490AF02EFD0E4BB4
:109580000024F318012B07D9C0230093039A0B4B37
:1095900031003868FFF7AAFD200005B0F0BD084C87
:1095A000FAE7C046A424002070240020782400207C
:1095B00094240020A024002002FCFFFF81910100E0
:1095C00016FCFFFF10B5FFF75FFE002809D0054C21
:1095D00020680AF014FD044920680AF0FEFCFFF739
:1095E00013FF10BDA424002098240020F7B5070025
:1095F0000D0000282ED0FFF747FE00282CD00724AE
:10960000164E3068C36C1C4007D0154A290038003C
:109610000AF00CFD00242000FEBD04F0FAF802213F
:109620003268D36C1940019103D003218B43D3647A
:10963000F1E701242343D3642800B8473268D36C90
:109640001900A143D164019C5B07E4D528000AF00E
:1096500025FDE0E7034CDEE7034CDCE7A424002013
:109660009D40020017FCFFFF16FCFFFF020010B533
:10967000014B12CB12C210BDA8240020034B1A6864
:10968000034B1A607E225A607047C04604200020B7
:10969000A824002070B5114E3278022A1AD08142D7
:1096A0001AD90C1A072C17D90D00032305432B4098
:1096B00012D172B60A4DD2005051AA1851608022C0
:1096C000A40812061443046032780132327062B684
:1096D000180070BD0348FCE70348FAE7BC290020E6
:1096E000B024002013FCFFFF17FCFFFF70B5134CE4
:1096F00006002378124D002B0CD1124912482B7012
:10970000FFF7C8FF114B984202D11E20FFF706FC5D
:109710000123237000242B78A34209DD0C49E300C8
:10972000C91830000AF0D4FC002805D10134F2E752
:109730001420FFF7F3FB002070BDC046BB290020BA
:10974000BC29002000380020882A002017FCFFFFD9
:10975000B024002070B5002819D0104B10491C7897
:1097600000239C4216DDDA005558854210D28A1833
:10977000526882420CD9041F2368002B02DC1E2091
:10978000FFF7CCFB802322681B061343236070BDC8
:109790000133E6E71E20FFF7C1FBF8E7BC290020F4
:1097A000B024002070B5051E14DD0B4E0B4C336841
:1097B000002B02D020680DF0B5FBFA2120680024B0
:1097C000074B89008361C462694335600DF0B2FBC9
:1097D000200070BD0348FCE7C0240020F0240020D6
:1097E0008D98010017FCFFFFF8B5114F06003D688A
:1097F000002D0AD130200DF0FEFD040007F0DAF84C
:109800000C4BA5612360E5623C600B4D2B68002B7F
:1098100009D110200DF0EFFD04000DF0D7FB200062
:109820002C600DF0ADFB3000FFF7BCFFF8BDC0466B
:10983000F0240020787F0200EC240020014B1868FF
:109840007047C046C024002070B50D4C2368002B23
:1098500003D00C4B1B68002B02D10620FFF7C4FF7E
:1098600020680DF0A4FB02000749C3170D684E687D
:109870005219734120680A604B600DF09EFB70BD69
:10988000EC240020F0240020C020002010B5FFF7B9
:10989000DBFF0024054BA200D058002802D003684B
:1098A0001B68984701340A2CF4D110BDC424002051
:1098B00010B5FFF7C9FFFA22034B920018685968E8
:1098C000002307F0A9FF10BDC020002010B5FFF74E
:1098D000BBFF024B1868596810BDC046C02000206D
:1098E0000B4B10B51B680400002B03D0094B1B6801
:1098F000002B02D10620FFF777FF0023064A9900CC
:109900008858002801D00133F9E78C5010BDC046BB
:10991000EC240020F0240020C4240020002310B5F3
:10992000044A99008C58844201D00133F9E70020A1
:10993000885010BDC424002010B50400002902D0B6
:109940000B78002B03D1034B2360200010BD0AF0DD
:1099500091FCFAE77C770200F8B5040008000D00DE
:109960000AF058FE002803D1134B23602000F8BDF5
:1099700028000AF04FFE0530FFF7B8FE20600AF01D
:109980004CFE28000AF046FE236858802368280011
:109990001E1D0AF03CFE070028000AF03BFE3900BD
:1099A000020030000DF05AFD280026680AF032FE51
:1099B000002336183371D9E77C770200F8B504002C
:1099C0000E00150000290AD00B78002B07D0002AC2
:1099D00005D0080097B20DF09DFD874203D90B4BCF
:1099E00023602000F8BD681DFFF780FE20600AF0AC
:1099F00014FE23682A005F8023683100181D0DF0D3
:109A00002DFD23685D1900232B71EAE77C770200A6
:109A1000014B03607047C0467C77020010B50548D3
:109A2000054C20600AF0FCFD044A054920000DF0B9
:109A3000DBFC10BD7C770200F42400200020002015
:109A400067420200084B73B51C680500002C0AD061
:109A5000010026680831082268460DF0FFFC0CCD95
:109A600031682000884773BDF8240020014B036053
:109A70007047C0468477020010B50400002903D166
:109A8000044B0360200010BD016008000AF0C8FD0F
:109A9000F8E7C0468477020030B500684488A142E8
:109AA0000CDA8588AA4209DA002907DB002A05DBDF
:109AB0005443401800198371002030BD0048FCE772
:109AC00017FCFFFFF0B5070085B00E001D00002950
:109AD00021DD002A1FDD002B1DD00468638803935D
:109AE0008B4200DD0391A3880293934200DD029232
:109AF000002306340193019B029A93420EDA290057
:109B00002000039A0DF0AAFC3B68AD195B88E418AD
:109B1000019B0133EEE7024805B0F0BD0020FBE7F2
:109B200017FCFFFFF8B504000D0016001F00002908
:109B300001DB002A02DA0E4B2360F8BD1000484317
:109B40000630FFF7D3FD20600AF067FD23685D80D3
:109B500023689E80002F06D03B00320029002000A1
:109B6000FFF7B0FFE9E720000AF07AFCE5E7C0461E
:109B700084770200F7B506000D1E03D1244B036065
:109B80003000FEBD00200F000400010001903B7872
:109B9000002B1AD03022524294469C446246092A35
:109BA00011D90A2B0AD1019B241801330193A14238
:109BB00000DA2100002004000137E8E70028FBD08C
:109BC00001340020F8E70120F6E70127019A09B2E5
:109BD00012B230007F42FFF7A5FF39000A20336838
:109BE0009A1D2C78002CCBD02300303B092B08D8B1
:109BF000FB43DB173B4043431B19303B1F00013540
:109C0000EFE7002FFBDB177001320F00F7E7C046CC
:109C100084770200F0B5040089B006A80E00029215
:109C20001D00FFF723FD236802995A88914235DA17
:109C30009B889D4232DA1F2E30D9079B01939E42AA
:109C40002CDC0523002273430393069B0493039BA0
:109C500004999B18A03BCB5C00210593AE18029B96
:109C6000CF1823685888019087420EDA9888B0424E
:109C70000BDDDB1910270F41019870431B18059865
:109C80000740781E87417F429F7101310529E6D147
:109C90000132052ADBD1002009B0F0BD0048FBE706
:109CA00017FCFFFFF7B50468070063880E1E0193D9
:109CB0001EDD994218DA0023063400933B68009AAF
:109CC0009B889A4212DA019BA1199D1B2A00200051
:109CD0000DF0C4FB601931000AF0A5FB3B685B88FE
:109CE000E418009B0133E8E70AF0BAFB002000E02B
:109CF0000048FEBD17FCFFFF10B50548054C20606D
:109D00000AF08EFC044A054920000DF06DFB10BDE1
:109D100084770200FC240020002000201944020067
:109D200010B5054C012120000AF062FC034A0449E9
:109D300020000DF059FB10BD002500200020002060
:109D40009D4502000388074A10B50120934208D0C0
:109D5000834202D00020DB0703D41E20FFF7DEF889
:109D6000002010BDFFFF00000048704716FCFFFFF9
:109D700010B53220FFF7D2F8004810BD16FCFFFFE7
:109D800010B5124C00230834828004604162022422
:109D90001422010083718472036383860281363149
:109DA0000A78C360A243F1342240036143618361B6
:109DB000C36103620A70020040321370021DD38730
:109DC000013343878387C38710BDC046A477020051
:109DD000F0B5544F97B03B6806000593002B00D0B8
:109DE0008BE006AC0B331C222121200001F076FA17
:109DF0000EAD0B231D2222210AA801F06FFA0B23BE
:109E00001B222321280001F069FA08200DF0F3FA43
:109E10000122059B110004900BF09EFF3A213000B7
:109E20000BF0F4FC00281DD0A38812ADAB80A37901
:109E30005C20AB713C4B1293A3681493237B2B7370
:109E4000637B6B73A37BAB730DF0D5FA0423019393
:109E5000363300932A00049B3100040002F064F9B9
:109E60003C604AE0322130000BF0FEFC00281CD0A0
:109E7000A38812ADAB80A3795C20AB712A4B1293FF
:109E8000A3681493237B2B73637B6B73A37BAB73EC
:109E90000DF0B1FA042301932E3300932A00049BA2
:109EA0003100040002F0DEFADAE73C2130000BF06A
:109EB00096FC00282CD0AB8812ACA380AB79A420F0
:109EC000A371194B1293AB6814932B7B23736B7B99
:109ED0006373AB7BA3730DF08EFA05230500029329
:109EE000013B0193383300932200049B310002F0C0
:109EF00039F80E4B3D6044351D600C4B094C186819
:109F0000002802D021680AF0F5FC206817B0F0BDE7
:109F100044200DF070FA042204990400FFF730FF8A
:109F20009EE7C04604250020947702000825002003
:109F3000F0B56149C56885B08D4254DA030002224C
:109F400036331B78134059D104698C4264DA02001D
:109F500036321278520768D4426901920200019E9B
:109F600040328E426FDA010036310978090774D425
:109F7000002B7DD113780293002B16D00600012709
:109F8000011DCB8F363601339BB2CB8703963678D3
:109F9000BC46374000D188E01D2B06D963469E435E
:109FA000039B1E700023CB8713700AF083FB434A88
:109FB0000723904276D94249043B8D4272DBC82286
:109FC0000133920095426DDC023B8C426ADB013B1F
:109FD000944267DC01980433884263DB013390428A
:109FE00060DC00235EE0C822002352009542ABDD16
:109FF000030036331A7800239207A5D40123060004
:10A000001F00363632785408A7433C0002279C4094
:10A01000BA432243327097E7C822520094429BDD34
:10A02000020036321278520796D4060001223636E4
:10A0300033789F08BA439700042293431A003A43A7
:10A040003270012388E7C821019E49008E428FDDCE
:10A0500001003631097809078AD40100012636311A
:10A060000B78DF08BE430827F600BB4333430B7071
:10A070001378032B00D97DE70133DBB21370012B7A
:10A0800003D10021031DD98774E7042B00D071E7A9
:10A09000020036321178033B0B4313700023043067
:10A0A000C3870B33180005B0F0BD092B00D87CE73F
:10A0B000029BCF87013B77E770FEFFFFFF70020036
:10A0C000E0FCFFFF70B5C369C1681A68451D8AB01E
:10A0D0000400EB7F114255D0002B58D1EB7F082BA9
:10A0E0000DD90122A379134209D11343A371A18889
:10A0F000130006A80AF06DF9FFF7DAFB2062EB7F88
:10A10000012B23D80123A2791A421FD00025A18850
:10A11000A571022202A80AF05CF9A31DDE7F012EC0
:10A1200014D1FFF7C5FB2B00226A801A99410090D9
:10A130000191019BA188AB4203D1174B009A9A422F
:10A1400027D90123042206A80AF043F90322A379A0
:10A150001340012B14D1FFF7ABFB0023226A801AB6
:10A160009941994202D10D4B984209D90223A27913
:10A17000A1881343A3710522012306A80AF029F937
:10A180000AB070BD0B2BA9D80133EB77A6E7013BD2
:10A19000FBE733000322D6E7E7030000DB050000FE
:10A1A00010B50400034B08330360FFF7B7FB200032
:10A1B00010BDC046D8770200F0B5070000250E009C
:10A1C000040085B002930AAB1B78083703930F4B4A
:10A1D00001920833036085808571290018223800B8
:10A1E0000DF058F9039A310038000CF086FF019BFE
:10A1F000029AA380A31DE671DA77631D2562200011
:10A20000DD77FFF76DFB200005B0F0BDD8770200C9
:10A210000048704716FCFFFF10B53320FEF77EFEA6
:10A22000004810BD16FCFFFF002310B5040083801A
:10A2300083710D482164083020608020C000A06137
:10A24000E0612062E3602000236163616362A362D6
:10A25000E36223636363A363E363636411000AF04F
:10A2600021FB200010BDC046F0770200F0B5534F2F
:10A2700097B03B6806000593002B00D08BE00B33B2
:10A280001C22212106A80AAC01F028F80EAD0B23F0
:10A290001D222221200001F021F80B231B22232163
:10A2A000280001F01BF808200DF0A5F80122059BFD
:10A2B000110004900BF050FD1D2130000BF0BDFA91
:10A2C00000281DD0A38812ADAB80A3796020AB71AC
:10A2D0003B4B1293A3681493237B2B73637B6B73A9
:10A2E000A37BAB730DF087F805230193183300931C
:10A2F0002A00049B3100040001F0EAFF3C604AE0C0
:10A300003C2130000BF0C7FA00281CD0A38812AD06
:10A31000AB80A3796020AB71294B1293A36814938F
:10A32000237B2B73637B6B73A37BAB730DF063F8A1
:10A3300005230193373300932A00049B3100040066
:10A3400002F032F9DAE73C2130000BF048FA00283D
:10A350002AD0AB8812ACA380AB79A420A371184B90
:10A360001293AB6814932B7B23736B7B6373AB7B70
:10A37000A3730DF040F8052305000293013B019300
:10A38000383300932200049B310001F0EBFD0D4BAC
:10A390001D6044353D600B4B084A1B681068002B5C
:10A3A00000D0436417B0F0BD48200DF024F805221A
:10A3B00004990400FFF738FFA0E7C04608250020F5
:10A3C000947702000425002082B0F0B50400EDB0BF
:10A3D0006420739372920CF01AFF052210A81100EA
:10A3E0000AF047F8974911A8FFF7C4FB002221ABF8
:10A3F0006CA91A605A609A600C339942F9D11922FB
:10A40000002113A80DF046F8A0680AF00AFE002605
:10A410000B90FF21A06800F047FD8B4FA06800F073
:10A420005DFB07960996884B9F4203D0874B9F425E
:10A4300000DBFDE0A0680AF0F6FDA56884491AA8D3
:10A44000FFF77AFA78221AA9280000F075FC1AA8FA
:10A4500009F009FF00267C4F0322099B6068013345
:10A460001A4009920AF0BEF9050060680AF0C1F9C5
:10A470000022784B05929D4210DB013205922A00A2
:10A48000C8320BDBAA22042192000591954205DC1B
:10A4900002220592C82D01DD0132059200220692AA
:10A4A000984210DB012306930300C8330BDBAA2379
:10A4B00004329B000692984205DC02230693C828CA
:10A4C00001DD0133069310A809F0CAFF002513AB84
:10A4D000EB5C012B08D160496B00CA185278C95C4B
:10A4E00010A8FF23FFF7D8FA0135192DEFD16B46DD
:10A4F00018229A5E6B4610A81421595E099BFFF73B
:10A50000CBFA002F01DB0F2E07D90023A0680093A0
:10A5100074301A0010A909F0B9FF01230893089BB1
:10A5200005995A004C4B9B189A1E12788A4226D1E4
:10A53000013B1B78069A934221D1089A6CAB9B1879
:10A54000663BFF3B0A931B78012B18D00C23079A1C
:10A55000216853431D0000220CA80AF0CDF921AA5E
:10A560002B0094460CAA634423CA23C301220A9BEE
:10A5700001361A70079BF6B20133DBB20793089BD2
:10A58000013308931A2BCAD164200CF040FE079BBC
:10A59000643F3FB2182B00D845E71A0021A91AA83A
:10A5A0000AF0B8FB6A461DAB23CB23C21B681360BD
:10A5B0001A991B9A1C9B20680AF086F9E568002D01
:10A5C0000CD0264912A8FFF7B7F91C231AAA12A922
:10A5D00028000BF0CFF812A809F045FEA0680AF099
:10A5E00022FD11A912A8A56809F023FF00221C4B27
:10A5F000009212A901932800130000F00DFB12A88D
:10A6000009F00AFFFA2080000CF001FEA0680AF0B1
:10A610000AFD0B99A06800F047FC11A809F0FCFEA8
:10A6200010A809F0F9FE6DB0F0BC08BC02B01847E4
:10A63000002F02D00F2E00D00EE7A06800F04EFAD7
:10A640000AE7C0467B8502008C3C0000D18AFFFFF0
:10A65000C085020058FDFFFFE0850200D58502009D
:10A66000DC050000F0B587B001930EAB1B88060037
:10A6700003930D9B0D000093019B02920C9F002BF6
:10A680003CD0002F02D1009BDB0737D528200CF0EF
:10A69000B2FE0400103009F092FE029B18202580C3
:10A6A00063800CF0A8FE0500009B08220593019B27
:10A6B000002103600C3004970CF0ECFE082204A982
:10A6C000281D0CF0CBFE0E4B02226B610023039978
:10A6D000E3602362636233680A43A560A2805B681B
:10A6E000210030009847002806D0200009F071FDB5
:10A6F00020000CF075FE034807B0F0BD0248FBE7F0
:10A700003949020016FCFFFF17FCFFFF70B58CB043
:10A710008360109B01604260C36004001849180008
:10A720000AF0EFFF051E14D001001C22103105A80D
:10A730000CF094FE6A4608AB43CB43C21B6813601F
:10A7400020680599069A079B0AF0BEF828000CF0CD
:10A7500047FE0C4B186800280ED00B4A05AB05923B
:10A7600000220692C03202926A4622CB22C2230005
:10A7700003220521FFF776FF20000CB070BDC04614
:10A78000D5850200F8240020C9A30100F0B504001B
:10A7900085B0637A9C46002B04D120000AF0D8FAD9
:10A7A00005B0F0BDA37A266F01931023019AF356EA
:10A7B00000259B1801229A402900F3680392029316
:10A7C000029BAB4231DDB368019A6B439B187269FF
:10A7D0005B00E77AD3181A785878E379012F14D1FF
:10A7E0005F1E3F1A10003A005B004343606F8218FF
:10A7F000D3189B79634500DD6346627B1A4202D021
:10A800000123AB4019430135DAE7022F05D15F1E62
:10A81000BA1A277A013F381AE6E7032FE4D1277ADC
:10A82000013FBF1A02003800DEE71123C943F35687
:10A83000606C994023691940039B19430CF0A7FDF4
:10A84000A27B072AACD8637B0C495B006373531C63
:10A85000DBB290004158A373022A03D808000CF021
:10A86000CBFC96E7064B2000236300236363054B74
:10A87000E462236414300CF05DFB91E71C78020065
:10A880008DA701003B4D020010B50400044B03608E
:10A890000CF048FB200006F0A3F8200010BDC046D5
:10A8A000787F020010B504000E4B08330360FFF7F9
:10A8B00035F82000743009F0AFFD2000603009F059
:10A8C000ABFD2000583009F0CEFC2000503009F0DC
:10A8D000CAFC2000044B14306361FFF7D5FF200051
:10A8E00010BDC0463C7802008C7F0200F8B5002500
:10A8F0000400324B858008330360857114301600E4
:10A900000F0006F057F820002D4BE56263612564C7
:10A910005030FFF77DF820005830FFF779F820001D
:10A920006030FFF7A3F820000423F25E3368266747
:10A93000590009B2743009F09CFD3368226FE3714D
:10A9400073680126237210236581A7802561D35681
:10A9500091685918994204DD30009840013305434D
:10A96000F8E711230120D356D1685918994206DD22
:10A9700002009A402669013332432261F6E714202F
:10A980000CF039FD226900212A430123060006F05C
:10A990009BFAFF23220063720133A3810023483214
:10A9A0006664A37320001370A366FEF799FF01236A
:10A9B000A27920001343A371F8BDC0463C78020081
:10A9C0008C7F0200F0B5437A85B00400002B04D1DF
:10A9D00020000AF0BDF905B0F0BD0122837A110014
:10A9E0009C461023066F0025F3560392634499405A
:10A9F00002912900F3680193019BAB422CDDB368FF
:10AA000072696B4363445B00E77AD3181A7858780D
:10AA1000E379012F10D15F1E3F1A10003A005B004E
:10AA20004343606F8218D3189B79002B02D0039B9D
:10AA3000AB4019430135DFE7022F05D15F1EBA1A7B
:10AA4000277A013F381AEAE7032FE8D1277A013F36
:10AA5000BF1A02003800E2E71123C943F356606CC5
:10AA6000994023691940029B19430CF090FC667AC7
:10AA7000B31EDBB2FC2B14D8FEF7E0FE0B4B050037
:10AA8000236300230A4863630A4BFF21E4622364C3
:10AA9000704306F09BFD29004143200014300CF068
:10AAA00049FA637A012B00D995E791E7514D0200ED
:10AAB000B60300003B4D02001FB5012381881A0038
:10AAC000684609F086FC012303491A00684609F02C
:10AAD00080FC05B000BDC046FE0300001FB50300AA
:10AAE00048331A780400002A0DD000221A7001237E
:10AAF00081881A00684609F06CFC012304491A0099
:10AB0000684609F066FC2000743009F0A9FC1FBDFE
:10AB1000FF03000010B548300378002B06D00378FF
:10AB2000012B03D00121024809F0A8FA10BDC0464C
:10AB3000FF03000010B501210400062009F09EFA71
:10AB4000064B984208D148342378002B04D0237850
:10AB5000012B01D020BFF7E710BDC04616FCFFFF58
:10AB600070B50600141E19DB050048352B78002B44
:10AB700002D02B78012B13D1002330001A0074303F
:10AB8000FFF748F8002C07D033004A331C8000241C
:10AB900007234C3634802B70200070BD014CFBE73E
:10ABA000014CF9E717FCFFFF12FCFFFFF8B5170097
:10ABB0000A68050052880B00012A09D100211800FB
:10ABC00009F0F0FB002201002800FFF7C9FFF8BDE3
:10ABD000002F19DD060048363278002A02D032787C
:10ABE000012A13D12A00002428005C3219001480A5
:10ABF000583009F0A2FB2B004A331F8003234C3549
:10AC00002C8020003370E2E70148E0E70148DEE7EE
:10AC100017FCFFFF12FCFFFF73B5079C0500002C1B
:10AC20001CDB060048363078002802D03078012836
:10AC300016D106981BB2C0B20090280012B2743030
:10AC400009F024FC002C07D02B004A331C80002480
:10AC500007234C352C803370200076BD014CFBE778
:10AC6000014CF9E717FCFFFF12FCFFFFF7B50500E9
:10AC70000E00171E26DDFFF74DFF2B0048331C7812
:10AC8000E4B2002C20D133685B88012B09D121006C
:10AC9000300009F087FB220001002800FFF760FF69
:10ACA000FEBD310001A809F040FB3A0001A92800CF
:10ACB000FFF77CFF01A809F0D6FA2800FFF73AFF5A
:10ACC0002000EDE70148EBE70148E9E717FCFFFF4B
:10ACD00011FCFFFFF0B587B00D9C06000F0002923B
:10ACE0000393002C20DBFFF715FF330048331D785A
:10ACF000EDB2002D1AD1390005A809F09AFB0C9B82
:10AD000001940093029A039B05A93000FFF784FF8A
:10AD100005A809F081FB002C03D03000FFF70AFFE3
:10AD20002C00200007B0F0BD014CFAE7014CF8E719
:10AD300017FCFFFF11FCFFFFF8B50400171E1DDD17
:10AD4000060048363378002B02D03378012B17D118
:10AD50002200E3795632013B1370230000252000C6
:10AD600054331D80503009F0E8FA23004A331F8025
:10AD7000022328004C3425803370F8BD0148FCE7DD
:10AD80000148FAE717FCFFFF12FCFFFFF7B50500CB
:10AD90000F00161E18DDFFF7BDFE2B0048331C7890
:10ADA000E4B2002C12D1390001A809F0BEFA320039
:10ADB00001A92800FFF7C0FF01A809F054FA2800F4
:10ADC000FFF7B8FE2000FEBD0148FCE70148FAE7A6
:10ADD00017FCFFFF11FCFFFFF8B50400171E2DDD67
:10ADE000060048363278002A02D03278012A27D16C
:10ADF0005D42069BFF331FD16B1D22001BB26432E4
:10AE000013802300200066331D70603009F019FBA9
:10AE1000230000226C331A70954200D03D002300BD
:10AE20004A331D80079B00205A1E9341013F4C343A
:10AE3000053327803370F8BD069BDEE70148FAE74B
:10AE40000148F8E717FCFFFF12FCFFFFF0B587B0E1
:10AE500005000F00161E03931EDDFFF75BFE2B009F
:10AE600048331C78E4B2002C18D1390005A809F049
:10AE7000E0FA0D9B320001930C9B05A9009328007A
:10AE8000039BFFF7A9FF05A809F0C6FA2800FFF702
:10AE900051FE200007B0F0BD0148FBE70148F9E78B
:10AEA00017FCFFFF11FCFFFFFF2902D841720020B1
:10AEB00070470148FCE7C04617FCFFFF13B50400CC
:10AEC00004A80078009020000BF0A2FF002801D118
:10AED000207516BD0048FCE70EFCFFFF13B504000B
:10AEE00004A80078009020000BF07AFF002801D120
:10AEF000207516BD0048FCE70EFCFFFF7FB50D0076
:10AF000011000F226A4404001E1E117016D0089B07
:10AF1000002B13DD012329000093FFF7DFFF00283A
:10AF200002D0074804B070BD0090089B3200290091
:10AF30002000FFF7C3FF0028F4D0F2E70148F1E753
:10AF40000EFCFFFF17FCFFFFF7B507000D1E3FD0FB
:10AF50000023022604690193002C35D0AA88A38817
:10AF60005340334204D1324204D1AB88334226D01D
:10AF7000646AF1E7A968A0680AF0D3FE0028F4D05B
:10AF80002B88002B02D022889A42F1D16B88002BAB
:10AF900002D062889A42EBD1EB68E268934201D01A
:10AFA000002BE5D17B68002B01D020009847A288B8
:10AFB000084B1343A380019B01330193D8E7A36897
:10AFC000AA689342D4D1DBE7019B2000002B00DC70
:10AFD0000148FEBD0080FFFF17FCFFFFF0B5060033
:10AFE00085B00D1E5DD001270469002C26D00221FA
:10AFF000AA8800230A4202D0A3885B083B4022684B
:10B0000029688A4214D1A068A968002B0ED00AF0E2
:10B0100088FE00280CD0EB68E268934208D1A38830
:10B020001AB2002A06DB204805B0F0BD8842F2D0F3
:10B03000646ADAE75B045B0CA380F4E730692A8872
:10B04000002807D1356101231849684609F0C1F984
:10B050000020E9E7010003001C88944206D25C6AE4
:10B060001900002C0DD02300F6E723001C88944221
:10B0700007D15F886C88A74203D85C6A1900002C4E
:10B08000F3D1884209D10B889A4204D305D148886C
:10B090006B88984201D96962D4E74B6A6B624D6252
:10B0A000D1E70348C0E7C04616FCFFFFFD030000E0
:10B0B00017FCFFFF064B10B51A00040008322C33B2
:10B0C000026083600830FEF779F9200010BDC046A9
:10B0D0005478020008B4024B9C46083808BC60470C
:10B0E000B5B0010008B4024B9C46083808BC604764
:10B0F000995102000C4A002311002C32083110B57E
:10B100004360838183738260036143618361C3838E
:10B11000016004000830FEF743F9044B1A68002A66
:10B1200000D11C60200010BD54780200F8240020DB
:10B13000F7B50E00012504690192002C36D0238852
:10B1400032889A4201D0002B23D1638872889A42B8
:10B1500001D0002B1DD1FEF797F80123002806D05F
:10B16000C022A3881340C03B5A425341DBB2019A2C
:10B17000934219D1A7883BB2002B15DB1022310076
:10B18000A0180CF06BF940231F4204D020000AF0F5
:10B190000CF8646AD1E7FEF777F80028F6D02100B2
:10B1A0000348FEF723FAF4E70025F2E72800FEBD86
:10B1B000AB51020008B4024B9C46083808BC6047FB
:10B1C00033530200F0B587B001930EAB1B88060025
:10B1D00003930D9B0D000093019B02920C9F002B8B
:10B1E0003CD0002F02D1009BDB0737D528200CF084
:10B1F00002F90400103009F0E2F8029B18202580C3
:10B2000063800CF0F8F80500009B08220593019B71
:10B21000002103600C3004970CF03CF9082204A9CB
:10B22000281D0CF01BF90E4B02226B6100230399C1
:10B23000E3602362636233680A43A560A2805B68AF
:10B24000210030009847002806D0200008F0C1FFF8
:10B2500020000CF0C5F8034807B0F0BD0248FBE73A
:10B260006D53020016FCFFFF17FCFFFFF0B5040052
:10B27000160000258380164A164B857102602181D5
:10B2800046810573186889B08C46A8421DD0124AC1
:10B2900005950492C02202926A4604AB82CB82C218
:10B2A00023002A006146FFF78DFFC022094B0A499F
:10B2B000186802926A46069106AB079582CB82C255
:10B2C00023002A003100FFF77DFF200009B0F0BD08
:10B2D00098780200F82400209754020030B500242A
:10B2E00003730123034D847105608180827343736E
:10B2F000846030BD9477020070B583790400DB0769
:10B3000002D580680CF06CF8A3799B0702D5A06881
:10B310000CF066F8A3795B0707D5A0230021144A37
:10B32000DB00D150A0680CF05BF8A3791B0708D5AF
:10B33000A568002D05D028000AF064FD28000CF057
:10B340004FF8A379DB0605D5A068002802D0036872
:10B35000DB6898476023A2791A4205D0A0680028CC
:10B3600002D003685B6898470023A360A37170BD97
:10B3700000700040F7B50126037B040033422AD059
:10B38000612385791D4017D1FFF7B6FF18200CF017
:10B3900032F80E230700E35618220093637B29003E
:10B3A00001930CF077F8019A009938000BF0A5FE94
:10B3B000A379A7603343A3716023A279A0681A42DE
:10B3C00002D00BF046FDFEBD436940681B68184083
:10B3D000431E9841F7E70148F5E7C04616FCFFFF1A
:10B3E00010B50124837941731C4004D080680BF0B0
:10B3F00015FF002010BD6022134203D080680BF0BF
:10B400002FFDF6E70048F5E716FCFFFF70B50400D6
:10B4100000250C4B0E0008338580857103602100E8
:10B4200018300AF0E9F82000210020300AF00FF966
:10B43000054BA680E5802572E560256165612000E9
:10B440001C6070BDA87802000C2500208379DB0702
:10B4500002D5C160002070470048FCE716FCFFFFE2
:10B460008379DB0701D5C06870470148FCE7C04617
:10B4700016FCFFFF70B545690400002D22D0037A49
:10B48000032B21D8FFF7ECFFA8622C200BF0B3FFB1
:10B490002C22002105000BF0FDFF002263695A6297
:10B4A0002369934208D1636923610020237A65618F
:10B4B0000133237270BD13005A6A002AFBD16269FE
:10B4C0005A62F2E70148F5E70148F3E717FCFFFF8E
:10B4D00013FCFFFF144B70B55A68144C002A03D0BC
:10B4E00000225A600132A2601A69002A17D0002196
:10B4F00019618023DB000E4DE3582868012B0FD122
:10B50000A923DB00E1584942FFF7A0FF2868FFF7B5
:10B51000B1FF2B685A69074BE2500123A36070BD4D
:10B52000FFF794FFF9E7C046FC1000400010004010
:10B530000C2500200405000070B505000C0008F083
:10B540002BFD002804D1034A034BEC71D45070BD8D
:10B550000248FCE7001000402405000016FCFFFF35
:10B56000F8B5837905000020DB0768D408F014FDE6
:10B57000002865D16E69002E08D12C300BF03BFFFE
:10B5800004002C2231000BF085FF6C616B69002BED
:10B5900058D000222C4B01215A608022D205116024
:10B5A0005A68002AFCD00622284B294C9A56294B6F
:10B5B0000026E2500722043BE2500833E650264AB8
:10B5C000264B2800E250E979FFF7B6FF0122082157
:10B5D000234B2448E6500433E250234B234FE150E1
:10B5E0000433E05002232248235022482750224FA0
:10B5F000043827501827214827506F6920482750C2
:10B60000C120800021501F498538FF380B500B6046
:10B610008021890060580E33034363501A4B5E60EB
:10B6200062605A68002AFCD0002601271E612800AB
:10B63000A760FDF7B5FE3000AB791F43AF71F8BDD1
:10B640001248FCE71248FAE7FC0000409D86020021
:10B65000001000400C050000746962751C050000B4
:10B660002C0500002000040214050000FFFF00006C
:10B67000340500003C0500002110010054050000C5
:10B680000405000000E100E0FC10004016FCFFFF94
:10B6900013FCFFFF03000069002809D00221054ABE
:10B6A000D167426A1A611A7A013A1A72024B19601A
:10B6B0007047C04604E100E000E100E070B504001E
:10B6C0000D0008F069FC00283AD1002D3AD02B7803
:10B6D000232B37D802221C4B1C49DA671C4B013A3A
:10B6E00058610A615A69002AFCD00020194A8D501D
:10B6F00058600130086058680028FCD000201861AC
:10B700000130886018690028FCD0606988500022E8
:10B710005A6101320A615A69002AFCD000225A603B
:10B7200001324A605A68002AFCD0002018610123C7
:10B730008B60C0210222084B49005A501A6070BD2C
:10B740000648FCE70648FAE704E100E00010004084
:10B75000FC1000400405000000E100E016FCFFFFC3
:10B7600017FCFFFF37B54C680500002C04D10C49CD
:10B7700008F01BFF28003EBD636A01A84B602278D9
:10B78000211D033AA36A08F03CFF20000BF028FEBD
:10B7900001A9280008F009FF01A808F0FFFEE9E769
:10B7A0000025002030B505008DB0002912D0232AD5
:10B7B00010D801ACD31C002023700123A07002A874
:10B7C0006370E3700BF04AFE21002868FFF776FFF4
:10B7D0000DB030BD0048FBE717FCFFFF10B5002996
:10B7E00003DB024B19600BF07FFB10BD102500201E
:10B7F00070B504001E0004AB1D7805F0A5F820000C
:10B800000E4B40302360FEF703F9230001364C3322
:10B81000013522001E701D730023E1214E32A36406
:10B820006365138053809381D381013B200063645F
:10B830004902FFF7D3FF200070BDC04644770200E5
:10B84000F7B580277F053D697C690822113C6C4370
:10B850000600210068460BF001FE104B009A9A4248
:10B8600019D000930023019379693000133969439B
:10B8700009F002FF019A0099300009F015FF21003C
:10B88000300009F0F9FE7969AB08133969432200E9
:10B89000300009F0FBFE0198FEBDC046FECA000064
:10B8A000F0B50D00A9B00D9200213022060010A8BD
:10B8B0000B930BF0EFFD28000BF02CFE431C0C93B8
:10B8C000102B00D9B5E00B9B202B00D9B1E029004B
:10B8D000300009F016FF071E50D129000C9A10A85D
:10B8E0000BF0BCFD0D990B9A14A80BF0B7FD80234B
:10B8F0005B051A695F690C92113F7A4330005D69FC
:10B900000B92FFF79DFF3022002104001CA80BF0D2
:10B91000C1FD290000270C9B13395943300009F061
:10B92000ABFE0D9730257D430B9B0833ED18A742E6
:10B9300042DA290030221CA80BF090FD10A91CA8A7
:10B940000BF0DEFD002827D13C49300022000E918B
:10B950000F9409F0A9FE6A46099513AB23CB23C2C5
:10B9600023CB23C223CB23C23000129B1099119A00
:10B9700009F0A8FE01230D930137D3E710300B9A8D
:10B980000D990BF05CFD040038000BF029FD002C34
:10B99000A3D1200029B0F0BD6A4609951FAB23CB87
:10B9A00023C223CB23C223CB23C230001C991D9A70
:10B9B0001E9B09F087FEDFE7E5433023ED172540A6
:10B9C0005D430B9B08355D190D9B002B1DD10C9B16
:10B9D0003021981E05F070FDA0422CD0174901348B
:10B9E000300022000E910F9409F05EFE6A46099520
:10B9F00013AB23CB23C223CB23C223CB23C23000E0
:10BA00001099119A129B09F05DFE0B99300009F014
:10BA100033FE80235B0559690C230C9A1339634369
:10BA20004A430233110030000B9A09F02FFE002424
:10BA3000AFE7034CADE7034CABE7C046FECA0000DE
:10BA400017FCFFFF13FCFFFF8023F0B55B051A69AD
:10BA500095B003925A6905910399113A51435D6972
:10BA6000039B133D040002915D43FFF7E9FE061EB0
:10BA70003BD0002730220021083508A801950BF0A3
:10BA800009FD0199200009F0F7FD049730237B435D
:10BA9000029D0835ED18B7421FDA2900302208A8A8
:10BAA0000BF0DCFC059908A80BF02AFD00280AD150
:10BAB0001949721E20000691079209F0F5FD012335
:10BAC00004930137E2E70C23019A2900200009F0D2
:10BAD000DDFD019B30330193F3E7049B002B06D17E
:10BAE0000D493200200009F0DFFD0C4812E00299F8
:10BAF000200009F0C1FD80235B0559690C23039ADE
:10BB000013394A437343110020000233029A09F0AB
:10BB1000BDFD002015B0F0BDFECA00000CFCFFFF0B
:10BB200070B50400A280FA22002308000C4992009C
:10BB300008312160A3716061E260A36063820949FA
:10BB400009F0DFFD051E09D001002000103102229E
:10BB500012300BF083FC28000BF042FC200070BD7B
:10BB6000C07802001286020030B50225837987B0C2
:10BB700004002B4204D1FDF713FCA3791D43A571EA
:10BB8000200009F008FE00281CD06B46DD1C2800B0
:10BB900009F0F8FD2B78002B17D001A809F0F0FD73
:10BBA0000321019AD3170B409B189B102382FDF7AA
:10BBB0007FFEE368A18818180123A0601A0002A87C
:10BBC00008F007FC002007B030BD0122064B1A60C8
:10BBD000064A51680029FCD000215160044A1268CD
:10BBE000019201225A60DBE700C00040FCC0004027
:10BBF00008C50040022802D10122014B1A7070478B
:10BC0000BD29002070B5064C05002378002B04D117
:10BC1000044802F0A7FD01232370280070BDC04630
:10BC2000BE290020F5BB010070B50C0008F0B4F986
:10BC3000002810D00023144DA40A2B70200009F016
:10BC4000BEFD002803D00A200BF0E1FAF6E72B78BE
:10BC5000002BFCD070BD02210C4B0D4A9950802165
:10BC6000C90008005D58002DFCD0A121C9005C501E
:10BC700019580029FCD0002199508021C9005A5838
:10BC8000002AFCD0E6E7C046BD29002000E00140C4
:10BC900004050000F8B50C0015001E0008F07CF942
:10BCA000002811D00023174F3B70320029002000DC
:10BCB00009F083FD002803D00A200BF0A8FAF4E76E
:10BCC0003B78002BFCD0F8BD01210F480F4B844678
:10BCD00019508021C9005A58002AFCD08027002220
:10BCE000FF00964207DD910068586050D95900293D
:10BCF000FCD00132F5E7002261465A50DA59002A99
:10BD0000FCD0E0E7BD2900200405000000E0014070
:10BD100008B4024B9C46443808BC6047C357020035
:10BD2000FA21F8B50389C9000400594332480AF0E2
:10BD30000EF8FA21890005F0BFFB304F2081A17A6F
:10BD400038000AF004F823002600250022894C332D
:10BD5000A072A0361A808C35317800232A222868F8
:10BD600009F06EF9002801D02548F8BD31781F236D
:10BD70005B22286809F064F90028F5D13178202386
:10BD80005C22286809F05CF90028EDD131780123A4
:10BD90002C22286809F054F90028E5D131780123D4
:10BDA0002D22286809F04CF90028DDD131780123D3
:10BDB0002E22286809F044F90028D5D1A17A38004C
:10BDC00009F0C0FF3178C3B20E22286809F038F9B3
:10BDD0000028C9D1FA21238989005943064809F06E
:10BDE000B1FF01230343DBB231782A22286809F02E
:10BDF00027F90028B9D0B7E7E0780200D878020028
:10BE00000EFCFFFF08B4024B9C46443808BC604758
:10BE100021BD0100074B10B51A00040008323C3365
:10BE200002604364443008F00BFD200008F034FC4D
:10BE3000200010BD4079020008B4024B9C464438F3
:10BE400008BC604715BE010008B4024B9C4644384C
:10BE500008BC6047CD570200F0B5042583798BB04C
:10BE600004002B4204D1FDF79BFAA3791D43A57171
:10BE700020009030FFF77EFA0026B0420FD1230059
:10BE8000A033197820000C2307AD00938C302B00D1
:10BE900001220068FFF732F8061E03D02C4E300056
:10BEA0000BB0F0BD0A2304AA9B182A785A706A784E
:10BEB0001A700022985EAA785A70EA781A700022E6
:10BEC000995E03912A795A706A791A7000229F5EEE
:10BED000AA795A70EA791A7000215A5E04922A7A75
:10BEE0005A706A7A1A7000215A5E0592AA7A5A70BC
:10BEF000EA7A1F251A7000229B5EA27A03999C465B
:10BF0000514349425043CB172B407A435B185B1196
:10BF1000A361C3172B401818D3171D406423AD1815
:10BF2000059A5B425343A36764236146049A401118
:10BF30005A434B43E2676D11221DE06125622000E8
:10BF4000D36708F022FC2000443008F080FCA6E70C
:10BF50000EFCFFFF08B4024B9C46443808BC604707
:10BF600059BE0100F7B51E00040008AB1B88150080
:10BF7000019309AB00911A8831000AAB1F88FDF7C5
:10BF8000FFFE20003A0031004430FEF74DF9134B1C
:10BF900020001A003C336364230008322260009AB8
:10BFA0008C331A60AB8890308380AB79019A8371AF
:10BFB0000B4B03210360AB6883602B7B03736B7BAC
:10BFC0004373AB7B83732300A0331A80FFF708FA17
:10BFD0002000FFF7A5FE2000FEBDC046407902000C
:10BFE00094770200F8B5FA260189B600040071437F
:10BFF000264809F0ACFE310005F05EFA244F20819E
:10C00000A17A380009F0A3FE2500A07258352978DE
:10C0100000232A22606C09F013F8002801D01D4883
:10C02000F8BD297810232B22606C09F009F800284C
:10C03000F5D1297801232D22606C09F001F8002840
:10C04000EDD1297801232E22606C08F0F9FF002839
:10C05000E5D1A17A380009F075FE2978C3B20E2225
:10C06000606C08F0EDFF0028D9D1218907487143A1
:10C0700009F068FE01230343DBB229782A22606CB1
:10C0800008F0DEFF0028CBD0C9E7C046A87902003F
:10C09000A07902000EFCFFFF10B50400034B08332B
:10C0A000036008F0F9FA200010BDC046087A0200CB
:10C0B0007FB50425837904002B4204D1FDF770F984
:10C0C000A3791D43A57120004830FFF753F90025DF
:10C0D000A8420DD1230058331978062302AE0093ED
:10C0E00001223300606CFEF709FF051E03D00D4DE1
:10C0F000280004B070BD022300210420F356A27A68
:10C10000DB00715630565343C000C90051434243CF
:10C110005B42A3612368E16122629B6A2000984729
:10C12000E6E7C0460EFCFFFFF8B50400150006AABE
:10C13000168807AA0F0012881900FDF721FE0F4B81
:10C140006764083323602300AA8848339A80AA7959
:10C1500020009A710A4AA264AA6822652A7B1A738F
:10C160006A7B5A73AA7B9A730023A3712300583306
:10C170001E80FFF737FF2000F8BDC046087A020096
:10C180009477020010B50400034B0833036008F0F5
:10C1900057FB200010BDC0469C7A0200F0B5070096
:10C1A0005C3787B00400397800231022806C08F0D7
:10C1B00047FF0326002802D01F4807B0F0BD0F2517
:10C1C00002ABED180123397808220093A06C2B00F4
:10C1D000FEF794FE184B9842EED02B78334203D0F2
:10C1E0006420FDF777F9EAE7FA262189134DB600B6
:10C1F0007143280009F0ABFD310005F05DF92081A5
:10C200003978A0231122A06C08F01AFF0028D3D19E
:10C21000A36C21890393714328003F7809F092FDB4
:10C2200001231843C3B210223900039808F008FF15
:10C230000028C2D0C0E7C0460EFCFFFF3C7A0200D7
:10C2400070B50825837986B004002B4204D1FDF730
:10C25000A7F8A3791D43A57120004C30FFF78AF899
:10C26000061E0DD023005C331978062304AD00931D
:10C2700001222B00A06CFEF741FE061E03D0134ED8
:10C28000300006B070BD0E232A786B445A706A786D
:10C2900020001A700022995E64224A43A263AA78A1
:10C2A0005A70EA781A700022995E64225242514311
:10C2B0006163297959706979197000215B5E5A436D
:10C2C0002368E2631B6A9847DAE7C0460EFCFFFF6B
:10C2D000F8B50400150006AA168807AA0F001288F0
:10C2E0001900FDF7A1FF0D4BA7640833236023005D
:10C2F000AA884C339A80AA7920009A71084AE2648D
:10C30000AA6862652A7B1A736A7B5A73AA7B1E82AB
:10C310009A73FFF743FF2000F8BDC0469C7A0200E5
:10C3200094770200F7B5FA250189204FAD0004008B
:10C330006943380009F00BFD290005F0BDF8A17A2A
:10C3400020811B4809F003FD2600636CA072009356
:10C3500021895836337869433800019309F0F2FC9B
:10C3600007230343DBB220220199009808F068FEFE
:10C37000002801D00F48FEBD317810232222606CC6
:10C3800008F05EFE0028F5D1A17A0948656C37787F
:10C3900009F0D8FC80235B420343DBB2232239003F
:10C3A000280008F04DFE0028E5D0E3E7D07A02002F
:10C3B000C87A02000EFCFFFF10B50400034B0833DF
:10C3C000036008F069F9200010BDC046407B020000
:10C3D000F0B50425837985B004002B4204D1FCF725
:10C3E000DFFFA3791D43A57120004830FEF7C2FF8F
:10C3F000061E0DD0230058331978062302AD009392
:10C40000A8222B00606CFEF779FD061E03D0144EA7
:10C41000300005B0F0BD1F200023EA5ED3170340B3
:10C420009B180222A95E5B11CA1702405218042110
:10C430006F5E5211F9170140C91949112B806A80AA
:10C44000A980A07A4343424341435B42E3612368AE
:10C450005242A26121629B6A20009847D8E7C046F9
:10C460000EFCFFFFF8B50400150006AA168807AAFF
:10C470000F0012881900FDF783FC0F4B6764083327
:10C4800023602300AA8848339A80AA7920009A71F1
:10C490000A4AA264AA6822652A7B1A736A7B5A73C5
:10C4A000AA7B9A730023A371230058331E80FFF7E1
:10C4B00039FF2000F8BDC046407B0200947702009F
:10C4C000F7B5FA2504000189134EAD006943300029
:10C4D00009F03DFC290004F0EFFF2700A36C208148
:10C4E00000935C373B7881B269433000019309F0D7
:10C4F00029FC6022C3B20199009808F0A1FD002830
:10C5000001D00648FEBD397801236222A06C08F0F4
:10C5100097FD0028F6D0F4E7747B02000EFCFFFFC5
:10C5200010B50400034B0833036008F089F92000BC
:10C5300010BDC0469C7B02007FB5082583790400AE
:10C540002B4204D1FCF72CFFA3791D43A5712000D9
:10C550004C30FEF70FFF051E0DD023005C33197819
:10C56000062302AE0093E8223300A06CFEF7C6FC5F
:10C57000051E03D00B4D280004B070BD0223F25EEF
:10C5800096235B425A4362630021725E200053434C
:10C59000A3630423F25E96235343E36323681B6A79
:10C5A0009847E8E70EFCFFFFF8B50400150006AA5F
:10C5B000168807AA0F0012881900FDF735FE0D4BEB
:10C5C000A764083323602300AA884C339A80AA7991
:10C5D00020009A71084AE264AA6862652A7B1A738D
:10C5E0006A7B5A73AA7B1E829A73FFF769FF200049
:10C5F000F8BDC0469C7B02009477020010B5040091
:10C60000054B083303601C3007F02DFE2000183066
:10C6100007F029FE200010BDC87B0200FF23F0B503
:10C620002C4D8DB02B7000230400694600880093C8
:10C6300003F086F9002802D16B469B782B70264EBA
:10C640003368DB68002B07D1002320881A0019000B
:10C6500009F02CF90DB0F0BD2B78032BF4D81F494D
:10C6600001A8FDF769F9336801A9DE6804A807F09D
:10C670005CFE04A9300009F077F80027060004A842
:10C6800007F0F1FDBE421ED031002022103104A877
:10C690000AF0E4FE30000AF0A3FE297804ABC900DA
:10C6A0005918082202A80AF0D9FE2088012308227E
:10C6B00002A909F0FBF80137002804D12088084AB4
:10C6C0000C2109F0F1F801A807F0CDFD002FBBD037
:10C6D000C0E7C0469520002020250020A586020046
:10C6E000FFFF0000F0B5837991B004005B071BD514
:10C6F000FDF7DEF800232269801A9941994203D19F
:10C70000F423FF3398420FD9A068002808D0364B95
:10C710001D8809F094FB036815221B6A29009847BD
:10C720000422A3799343A371A3799B0759D52F4D75
:10C730002B68DB68002B50D02D4B1B78032B4CD87B
:10C74000294B2C491B8804A80193FDF7F5F82B68A9
:10C7500004A9DE6808A807F0E8FD08A9300009F080
:10C7600003F8070008A807F07EFD02AB9E1D082312
:10C770003200338006A9073B019809F099F8002F91
:10C7800008D039002022103108A80AF067FE3800CE
:10C790000AF026FE164B32881B7806A9DE0008AB8D
:10C7A0009E1930000AF04BFE002813D0082206A97B
:10C7B00030000AF053FE2B6804A9DD6805A807F0D5
:10C7C000B4FD202308AA05A9280008F0D3FF05A876
:10C7D00007F049FD04A807F046FD0222A379934320
:10C7E000A37111B0F0BDC0469C2700202025002079
:10C7F00095200020A5860200F7B5089E05001529A2
:10C8000022D8012007008F40244C27421CD0E97F0A
:10C81000CC181F2C41DC69183418A14210D8002113
:10C82000C8B2834204D9545C701884700131F7E7B0
:10C8300032789A183270EA7F9B18EB7700202CE050
:10C840000878C8540139E8E73478013CE4B2A342DF
:10C8500008D10023D9B28C42F0D9D05CF11888708D
:10C860000133F7E7EF7F0120FF183F1B1F2F14DC78
:10C870000227A01C7F423618381B0190E87F2F1832
:10C88000BE4204D23078019FF0550136F6E7041B12
:10C89000023CEC77280009F055F8FEBDFC002000B2
:10C8A000F0B5040085B001930AAB1E880BAB1B7872
:10C8B000451C02930EAB1B78170003930B781022D4
:10C8C00003704B8A0131438228000AF0C7FD26839A
:10C8D00000260122019B67616383039BE683237724
:10C8E000029B2000EB77A31CDA770C9B0C2563627C
:10C8F00023000D9A28331A705E709E702A00310052
:10C900002C300AF0C7FD2000064BE663A3632A0023
:10C91000310040300AF0BEFD2000034B2665E36481
:10C9200005B0F0BDC7580200B958020070B50D003F
:10C9300009F085FA04000368002D09D15B69984766
:10C94000FA2080006843074904F0B6FDE08070BD1E
:10C950009B6898478542F3D2236820009B689847DC
:10C960000500EDE771020000F0B507001600A1B068
:10C9700002C704006B4918A81D0009F02AF8331EED
:10C9800003D030000AF0C6FD83B2012204920022D7
:10C9900003920292023201920093320018A93800E9
:10C9A000FFF77EFF23006049583318A8079309F06A
:10C9B00010F82B1E03D028000AF0ACFD83B2012230
:10C9C00004920022039202920232019200932A0002
:10C9D00018A90798FFF764FF23005449AC3318A83F
:10C9E000089308F0F6FF269B002B03D018000AF0EE
:10C9F00091FD83B20122049200220392029202323C
:10CA000001920093269A18A90898FFF749FF631C22
:10CA1000FF33474918A8099308F0DBFF279B002B39
:10CA200003D018000AF076FD83B20122049200229E
:10CA3000601C03920292023201920093279A18A975
:10CA4000FF30FFF72DFF23005533FF33394918A876
:10CA5000099308F0BEFF289B002B03D018000AF0B2
:10CA600059FD83B201220492002203920292023203
:10CA700001920093289A18A90998FFF711FF230043
:10CA8000A933FF332C4918A80A9308F0A2FF299B69
:10CA9000002B03D018000AF03DFD83B2012204925E
:10CAA000002218AD03920292023201920093299A59
:10CAB00029000A98FFF7F4FE204B1B780B93002BFC
:10CAC0002CD1079B12971393089B0DAF1493631CF3
:10CAD000FF331593099B1A4916930A9B3800179345
:10CAE00008F077FF1D2149203B7810222B707B8AAC
:10CAF00012AE6B8206ABC918C0180AF0AFFC062351
:10CB00002B750B9B2068AB83AE6109F09CF9036821
:10CB100029001B6898470122084B1A70200021B099
:10CB2000F0BDC046292A0000242A0000252A000062
:10CB3000272A0000262A0000282A0000BF290020FA
:10CB40000A18000070B5002504000B4B85800833DF
:10CB500085710360C1601830FCF75AFF20001C305B
:10CB6000FCF756FF0123621CD377044AA560656178
:10CB700020001460A37170BDC87B02002025002036
:10CB8000FA2130B585B005000123022289006846EC
:10CB900007F01FFC074C2068002809D008F052FF5E
:10CBA0002988054B22681980022391790B439371E0
:10CBB00005B030BD202500209C27002010B50C00BA
:10CBC00007290DD8806809F03AF9064B1957036810
:10CBD0005B6C9847431E9841034B4042184010BD80
:10CBE0000248FCE79D86020016FCFFFF17FCFFFFD2
:10CBF000F0B5A44C0D00A544040007939AAB1B7834
:10CC0000A14909A804930692FCF796FE200029008A
:10CC10001C3007F092FBC020800001F099FD082035
:10CC20000AF0E9FB0600002100F0AEFE15ADA6609B
:10CC300000210C220EA80AF02DFC2B000EAA83CA9C
:10CC400083C3924B2900EB60002330002B6109F075
:10CC5000DFF8A06809F0F3F808220021059016A873
:10CC60000AF018FC14200AF0C6FB29000200884BC9
:10CC70001593C8C9C8C2874B059EC3600023A4365C
:10CC800003613368002B00D0F5E03060A06809F044
:10CC9000DAF808220021060016A80AF0FBFB14208F
:10CCA0000AF0A9FB7C4B1593030086CD86C37B4B12
:10CCB000C36000230361336B002B00D0DDE03063E1
:10CCC000A06809F0BCF808220021050016A80AF0A7
:10CCD000E1FB14200AF08FFB714B15AE1593030096
:10CCE00086CE86C36F4B9835C360002303612B68E3
:10CCF000002B00D0C3E02860012504AB1B7C04AAF4
:10CD00002B4308A92800137408F0D4FDA06809F08B
:10CD10009EF8036864495B6A9847A06809F097F831
:10CD2000036862499B699847A06809F090F800235E
:10CD300002680093166804992A00B047049B002BF0
:10CD40000AD0200008F087FE032805DDA06809F05E
:10CD50007EF80368DB6898470EA808F0EAFD2F20EC
:10CD600004ABC01808F0E5FD362004ABC01808F08D
:10CD7000E0FD3D20042504ABC01808F0DAFD0EAB41
:10CD80000A93A06804AB5D7709F061F803680AA90B
:10CD90001B699847A06809F052F803680AA95B6DFF
:10CDA0009847A06809F04BF803680021DB6D9847AD
:10CDB000A06809F044F8036802219B6D98470021A0
:10CDC0002000FFF7FBFE18200AF015FBA16800F019
:10CDD00055FA374B374A1B68A1680393364B15A8A1
:10CDE0001B6800260293354B0CAF1B680193069B12
:10CDF0001B685B190093324B12681B68FFF7B4FD88
:10CE000030200AF0F8FA079AA16800F0F7FAA06853
:10CE100009F015F8036839009B6A9847294BBE80D2
:10CE2000A0680C9309F00BF803683900DB6A984797
:10CE30002900A06808F0D9FD099A09219378A06813
:10CE4000521908F0E5FDA06808F0F9FF32210671DB
:10CE5000A068FFF76BFD04AB1B7FB34204D0A06852
:10CE600008F0EDFF08F0ABFD09A807F0FCF99523E9
:10CE70009B009D44F0BD036107E703611FE7036169
:10CE800039E7C046ACFDFFFF8A870200D558020093
:10CE900081CB0100E35802001DC60100F1580200D9
:10CEA0001F590200FF580200C9CE0100FDCE01004B
:10CEB0001C25002018250020082000201425002013
:10CEC0000C2000200800100013B506226846FCF76D
:10CED00075FD094B1C68002C0AD0694601A807F0B3
:10CEE00024FA200001A908F0D7FD01A807F0BBF93A
:10CEF000684607F0B8F913BD20250020002373B55C
:10CF000001AE0C0031000500019302F019FD00286C
:10CF100002D1B278064B1A70064B1868002806D06A
:10CF200061426141044BC9B21D8008F0BDFD73BD73
:10CF300095200020202500209C27002030B5284C7B
:10CF4000A9B06A220D000DA821000AF087FA0DA9E8
:10CF500003A8FCF791FD03A906A807F06AFA0123CC
:10CF60000193013BFF3B00930533FF33642206A985
:10CF70002800FDF76BFF06A807F04EFA21001922E2
:10CF80006A3106A80AF06AFA05220024110006ABED
:10CF900004A807F075FA04A905A807F04AFA019455
:10CFA00000942300220005A92800FDF793FE05A8A0
:10CFB00007F032FA21002800FDF776FF053405203E
:10CFC000FCF788FAFF2CF5D1FA208000FCF782FAF2
:10CFD00004A807F021FA03A807F01EFA29B030BD13
:10CFE0001A860200F0B59C4B95B005921A6808238A
:10CFF00004000391D16C06A80B43D3649749FCF756
:10D000009BFC974907A8FCF797FC220000250DAE72
:10D0100030001C3206A907F0AFF907AA310008A8B2
:10D0200007F0AAF9300007F01EF9631CDD77A0684D
:10D0300008F005FF03680BAF5B699847300008F004
:10D0400078FC2B2004ABC01808F073FC322004AB32
:10D05000C01808F06EFC392004ABC01808F069FC59
:10D060008023DB00BB80A0680B9608F0E8FE036815
:10D0700039005B6D9847A06808F0E1FE036829005D
:10D080009B6D9847A06808F0DAFE070006000A3793
:10D090001F22290038000AF0FDF9FD77300008F062
:10D0A00085FC0621A06808F0A0FC089A0921937865
:10D0B000A068043208F0ACFCA06808F0C0FEC821EB
:10D0C0000571A068FFF732FCA06808F0B8FEFF27E2
:10D0D0002E000581A06808F0B2FE08F070FC0398ED
:10D0E000FDF7FCFC2000FCF75BF903992000FFF73B
:10D0F00025FF0399200008F0EAFC049501256369E7
:10D100001D402DD0574909A8FCF734FD09A90AA8EC
:10D1100007F08FF900220AA91300019200920398E8
:10D12000FDF7D8FD0AA807F077F9049B002B42D140
:10D13000043F282F41DD0025FE2F00DC049D0598CB
:10D1400007F06AFB002806D0012362699A431300A6
:10D15000042213436361002609A807F05DF90495D2
:10D1600004226369134233D0FF210398C826FDF7D8
:10D170009BFE0025B600A36902229B5EAB4222DD26
:10D18000200029B2183007F00DF9002301000398A0
:10D190001A007430FCF73EFD3000FCF79BF9039851
:10D1A00007F041FFC820FCF795F90222636913429A
:10D1B00009D10135DFE70437BBE7039807F033FFF8
:10D1C000002FBCDDBAE7FA208000FCF783F90026C7
:10D1D000022365691D421CD006331D4024D022491C
:10D1E00009A8FCF7C7FC09A90AA807F022F9002240
:10D1F0000AA90192009213000398FDF76BFD0AA89B
:10D2000007F00AF91948FCF765F909A807F004F9CD
:10D21000174E6420FCF75EF9164B01369E4200DC87
:10D220006CE706F0CBFE69E7134909A8FCF7A2FCFE
:10D2300009A90AA807F0FDF82B002A000AA9019500
:10D2400000950398FDF746FD0AA807F0E5F809A840
:10D2500007F0E2F8DDE7C046A4240020B186020012
:10D26000C1860200C386020008870200983A0000C7
:10D270008C0A00008B0A0000458702000022594BEF
:10D28000F0B50833060003600F001000A9B0B160CC
:10D290000BAB991801324870102AFAD10F3A524C50
:10D2A0001A700E32105D991A0874013AFAD2997BFD
:10D2B0005A7B09020A4331000C31039125211B7866
:10D2C00013AD2B7002ABC918452302A81B186A8244
:10D2D000180010220AF0C2F8039B64216B6101233D
:10D2E000002402AA2B7752181993093313701DAB2F
:10D2F0001C706D2302AA9B181C706E2321009B18C2
:10D300001EA80C22EC836C621C700AF0C3F8374B29
:10D310000C22210023A8AB63EC630AF0BBF8344B6A
:10D3200002AAEB6446239B180322DA7722002C65BD
:10D330000595347306AD2B1901345A70102CFAD1AF
:10D3400001232C482B700E33195CEA1A1174013B2F
:10D35000FAD211212520AA7B6B7B12020BAC13435E
:10D360002A78638202ABC9182270C01810220AF012
:10D3700075F80123237505ABA36100233800A3834F
:10D3800008F061FD036821001B68984713ABDB8B35
:10D39000B068B38208F057FD002203680092B18A9A
:10D3A000039ADC680123A047B06808F04CFD070031
:10D3B00014200AF020F800220123040002610692E2
:10D3C00040C00832290007930AF048F80A4BE3608E
:10D3D000BB69002B03D13000BC6129B0F0BD2361D3
:10D3E000F9E7C046E07B0200B2870200C75802009E
:10D3F000B9580200C28702002F5B0200F0B5002678
:10D400000400724BDDB0083303608160C260868027
:10D41000867132006E4947A808F029FC23001433B6
:10D420000125042708931223009704950193089A75
:10D43000330047A9039602961DA8FFF731FA320080
:10D44000644947A808F013FC0C232200009710320F
:10D4500015AF0495019347A933000396029632A8AD
:10D46000FFF71EFA32005C49380008F000FC21008A
:10D470001C3109910423082104950191009339007E
:10D480003300099A0396029647A8FFF709FA32007B
:10D490005249380008F0EBFB542009F0ACFF2100A2
:10D4A00012220423183107910495019200930A0077
:10D4B00033003900039602960690FFF7F1F9069AB9
:10D4C000474B1000A262D4620AA9082230300A93A6
:10D4D0000B9609F0C3FF434B069A099993632932CF
:10D4E000157026610422E661079809F0B7FF04224F
:10D4F0000799089809F0B2FF6622032304A952187D
:10D50000D377BA225218D377872252005218D37792
:10D51000069A35490232D3771DAA0C9232AA0D928F
:10D5200047AA0E92069AA6850F9210A8320008F01C
:10D530009EFB3021452004AA52181378123104AA08
:10D540003B705218138811397B8204AB1022C91822
:10D55000C01809F083FF04230CADA0683B75BD61C2
:10D56000BE8308F070FC036839001B68984782226C
:10D5700004AB9B181B885432238404AB9B181B8874
:10D580005432A38404AB9B181B88A068638408F002
:10D590005AFC0700142009F02EFF0500134B06610A
:10D5A000082210C010A91093119609F057FF104BD4
:10D5B000EB60BB69B34206D1BD612000FBF7F0FE12
:10D5C00020005DB0F0BD2B61F6E7C046EC7B0200A9
:10D5D000F2870200D2870200E2870200028802007E
:10D5E000415C0200AD5B0200128802005DD60100C2
:10D5F000D75B0200F0B504000E00150085B01F00D7
:10D600000CAB1B881030019306F0D9FE2680658094
:10D61000182009F0F0FE02AE050033000AAA03CA82
:10D6200003C32F602800082700213A000C3009F0BE
:10D6300031FF3A003100281D09F010FF064B02228D
:10D640006B61200000230199A5600A43E360A2807A
:10D650002362636205B0F0BD015C0200F0B50B8986
:10D660008DB00593CB68050004934B88828C9A4259
:10D670000ED1049C049B059A9B181B1B032B39DDC0
:10D6800062882188012308A806F0A3FE0434F1E78C
:10D69000428C9A422ED1049C049B059A9B181B1B1A
:10D6A000032B27DD2388282006936388EF680793E0
:10D6B000114B08930023099309F09DFEC0236A468D
:10D6C0000600029308AB03CB03C22B000699079A0E
:10D6D0003000FFF78FFF3B6831005B6838009847E8
:10D6E000002805D0300006F074FD300009F078FE07
:10D6F0000434D1E70DB0F0BDBF5C020070B504008A
:10D7000090B0806808F0D6FA022101401AD1A38DAA
:10D71000002B17D00C4B6A4604931023E568A185B3
:10D720000591029304AB41CB41C20A00230006A835
:10D73000FFF760FF2B6806A99B682800984706A89A
:10D7400006F047FD10B070BDBF5C0200002815D088
:10D75000006041608260C360046145618661C761A9
:10D76000444604624C464462544684625C46C46249
:10D77000644604636E46466374468463002A06D09A
:10D78000C46B043C043A25681560B442F9D18C6B33
:10D79000A6464E6BB546002B06D0CC6B043C043B32
:10D7A0001D682560B442F9D10C6BA446CC6AA3462F
:10D7B0008C6AA2464C6AA1460C6AA046CF698E6963
:10D7C0004D690C69CB688A680868496870470060D1
:10D7D00041608260C360046145618661C7614446FF
:10D7E00004624C464462544684625C46C4626446A9
:10D7F00004636E46466374468463C46B043C043918
:10D8000025680D60B442F9D1C76986694569046924
:10D810007047006041608260C36004614561866159
:10D82000C761444604624C464462544684625C4686
:10D83000C462644604636C4644637446846304694A
:10D840007047846BA646446BA546046BA446C46A25
:10D85000A346846AA246446AA146046AA046C769F0
:10D86000866945690469C3688268006841687047D1
:10D8700010B5041E0CD009F04DFE431EE3189C4267
:10D8800008D222781978013B21705A700134F6E7EA
:10D89000014810BD0020FCE717FCFFFFF0B585B084
:10D8A00002900C1E2AD00023C217161A564001936C
:10D8B000019B30005D1C63190A215F1E039303F076
:10D8C0006BFF49423031397030000A2103F07EFE8F
:10D8D00047420600002F0FD1029B002B04DA2D23B4
:10D8E000019D039A02351370002320006355FFF752
:10D8F000BFFF380005B0F0BD0195D9E7004FF8E74C
:10D9000017FCFFFF0268084B406810B5C018C00044
:10D91000101803009A4205D81C688C4202D31800E4
:10D92000083BF7E710BDC046FFFFFF1F70B500289A
:10D9300017D1114D2E68002E11D1083009F05BFD72
:10D94000066046600D4E04003368002B02D108F0DB
:10D95000B1FC306023682C609B00F358636028683A
:10D9600070BD0122064907480B681340F8D10260D8
:10D9700043600A60F4E7C0462825002034250020D3
:10D98000242500202C250020002370B50400016010
:10D99000436099420AD1064D2B68002B02D108F052
:10D9A00089FC286023689B00EB586360200070BDF1
:10D9B00034250020436810B50400002B02D1044830
:10D9C00009F06DFB606803681B69984710BDC0468D
:10D9D00022880200436810B50400002B02D10448DD
:10D9E00009F05DFB606803689B69984710BDC046FD
:10D9F00022880200436810B50400002B02D10448BD
:10DA000009F04DFB606803685B6A984710BDC0462B
:10DA10002288020000487047FFFF0000F0B597B071
:10DA20000593036807AD1B680491039311002B0055
:10DA3000060091C991C30024D36821000C220CA8D0
:10DA4000EB602C6109F026FD22000B4B10940F9324
:10DA500011AB1C70191901344A70102CFAD15A827A
:10DA60000193059B2A00009304990CAB3000039CA2
:10DA7000A04717B0F0BDC0466D5F020070B5FC3026
:10DA8000046C0500002C0DD1242009F0B4FC064BD9
:10DA900044608361054B8460C46004614461C46177
:10DAA00003602864286C70BDD87C0200C07D020031
:10DAB00070B5FC30C56B0400002D11D1342009F085
:10DAC0009AFC084B85604360074B45610361074B37
:10DAD0000562C361064BC5628362064BE063036067
