:020000021000EC
:1080000000400020C908020005090200070902001B
:108010000000000000000000000000000000000060
:10802000000000000000000000000000090902003C
:1080300000000000000000000B0902000D09020012
:108040000F0902008DB30100810F02000F09020029
:108050000F09020000000000410902000F090200A0
:108060000F0902005D110200090E02000F09020053
:108070000F0902000F0902000F0902000F09020098
:108080000F0902000F0902000F0902000F09020088
:108090000F09020041F80100250502000F09020046
:1080A0000F0902000F09020000000000000000009C
:1080B00000000000000000000000000000000000C0
:1080C00010B5064C2378002B07D1054B002B02D0AE
:1080D000044800E000BF0123237010BDB820002039
:1080E00000000000A4870200044B10B5002B03D051
:1080F0000349044800E000BF10BDC0460000000076
:10810000BC200020A4870200164B002B00D1144B8A
:108110009D46402292029A1A924600218B460F46B3
:108120001348144A121A0FF010F90F4B002B00D00D
:1081300098470E4B002B00D09847002000210400E8
:108140000D000D48002802D00C4800E000BF0BF0E5
:108150002FFA200029000EF0BBFE0BF013FAC046E8
:1081600000000800004000200000000000000000A7
:10817000B0200020EC2900200000000000000000DA
:108180004022F0B5036CD1B00793436C5242089380
:10819000836C079C0993C36C0A93036D0B93436D27
:1081A0000B990C93836D0D93C36D0E9310ABD21886
:1081B0000E9B0F930D9B05930C9B04930A9B0693B8
:1081C000099B0393089B029300230193019B0F2BB0
:1081D00000D978E09B00C718C55CFB782D061D43CD
:1081E0007B781B042B43BD782D022B43136406239D
:1081F0000D000F00DD410533DF413B000F006B40F8
:108200001925EF413D005D40019B3E4F9B00166CE0
:10821000FB58049F9B19EB18059D0F408D437D4033
:108220005B190F9D27005B1902252600EF410B35D6
:10823000EE41162577402600EE41029D7740039ED1
:108240000432754025400F95029E039D2E40350057
:108250000F9E6E40069DBF195D19DF19019B01330A
:108260000193039B0693059B0F93019B402B21D108
:10827000029A079B9446DF19089B039A1C19099BD5
:108280000764634494468364049A0A9B4464634489
:108290009446C3640B9B059A5D190C9B05655918A0
:1082A0000D9B41656344944683650E9B6344C3659F
:1082B00051B0F0BD049B04910593029B29000294E8
:1082C00003933C0082E7936B11261F00F741BC46E5
:1082D0001F000236F74166469B0A77407B40566A8C
:1082E00017685568F719DB1907262F00F741BC46B8
:1082F0002F000B36F7416646ED0877406F40DF19D7
:10830000176474E7F4740200002813D00023436656
:1083100003668366084B0364084B4364084B83641D
:10832000084BC364084B0365084B4365084B8365E2
:10833000084BC3657047C04667E6096A85AE67BBF0
:1083400072F36E3C3AF54FA57F520E518C68059B37
:10835000ABD9831F19CDE05B70B5041E1ED0002978
:108360001CD00D008E18B54218D0A36E2A78E254A6
:108370000133A366402B0FD12000FFF701FF236ECE
:10838000074A934202D9626E0132626680229200ED
:108390009B1823660023A3660135E4E770BDC04641
:1083A000FFFDFFFF70B50E000400C4B029A8150042
:1083B000FFF7AAFF3200210029A821ACFFF7CCFF6C
:1083C000210029A80BF050FCE27F23781E92A27FA7
:1083D00041211D92627F28001C92227F1B92E27E27
:1083E0001A92A27E1992627E1892227E1792E27DE4
:1083F0001692A27D1592627D1492227D1392E27CE8
:108400001292A27C1192627C1092227C0F92E27BEB
:108410000E92A27B0D92627B0C92227B0B92E27AEF
:108420000A92A27A0992627A0892227A0792E279F3
:108430000692A27905926279049222790392E278F7
:108440000292A278019262780092024A0BF022F91D
:1084500044B070BDB480020010B50400034B03604B
:1084600040300BF05BFE200010BDC046FC750200E2
:1084700010B507480CF02BF9002806D105480CF080
:1084800026F90028F5D0022010BD0120FCE7C046E7
:10849000442200206C220020F0B587B00A2201900F
:1084A0001F4903A80EF035FF00211E480CF00CF9FF
:1084B000962000254000962600F068FF2C007600EC
:1084C00003AB1F5D02A839000BF052FEC82202A9BF
:1084D0005200154802F026FB02A80BF01FFE1348BD
:1084E0000CF0F5F8002807D0019B5F55032D14D040
:1084F0003000013500F04AFF0A480CF0E8F8002887
:10850000DED0092C04D1300000F040FF0024D7E772
:108510003000013400F03AFFD2E7002007B0F0BD90
:10852000358102006C220020CC2100204422002052
:1085300073B5050068460E002C0001F0C5F9631BF9
:108540009E4221DD0BF058F80AF020FE0022114B6C
:108550000AF074FBF82300229B050AF06FFB0AF077
:10856000DFFD0D4B195C01A80BF002FE01A9684666
:108570000BF03EFE01A80BF0D1FD002168460BF088
:108580006CFE20700134DAE768460BF0C7FD00206E
:1085900076BDC04600004F406081020010B50C4A15
:1085A0000C4B117819705178597091789970D27874
:1085B000DA700022845C991801320C717D2AF9D19D
:1085C0001800054A8421FFF7EDFE002010BDC046CB
:1085D0008020002017280020D627002070B586B004
:1085E0004D4905A803F01AF805A904A801F010F9EF
:1085F00005A80BF02EFF494905A801F0F9F805A9D7
:1086000004A80BF004FE040005A80BF087FD444D00
:10861000002C10D0012343482B60FFF7BFFF4249D5
:1086200005A801F0E5F8782205A9404802F00AFB08
:1086300005A80BF073FD2968002917D13C4C04A84C
:1086400026680BF00AFE374B22689855995C05A8FE
:108650000BF08EFDC82205A95200344802F062FAE0
:1086600005A80BF05BFD2368013323602B68012B09
:108670004CD1304905A801F0BBF805A904A80BF0BE
:10868000C6FD040005A80BF049FD002C20D02A49A6
:1086900005A801F0ADF8254C782205A9200002F0CC
:1086A000D1FA05A80BF03AFD9620400000F06EFECE
:1086B0001C4905A801F09CF8782205A9200002F0C9
:1086C000C1FA05A80BF02AFD9620400000F05EFEDE
:1086D0001A4905A801F08CF805A904A80BF097FD2C
:1086E000040005A80BF01AFD002C0FD0144905A8B2
:1086F00001F07EF8782205A90C4802F0A3FA05A83B
:108700000BF00CFD9620400000F040FE04A80BF09A
:1087100005FD06B070BDC046402400203F81020028
:10872000D42000209B28002047810200CC2100207B
:10873000D820002054810200802000205A810200AD
:10874000D6270020F7B5584D80212800FFF7F0FE0E
:108750002800FFF723FF554802F05EFE684601F04F
:10876000B3F8534E3468002C3CD152480BF0AFFFA5
:108770000028F6D0295D01A80BF0FAFC01A9684693
:108780000BF036FD01A80BF0C9FC694601A80BF0FF
:1087900027FD494F01A938000CF08DFE01A80BF010
:1087A000BDFC694601A80BF01BFDC82201A95200BF
:1087B000424802F0B7F901A80BF0B0FC0134C82020
:1087C00000F0E4FD802CD5D13D4901A801F010F85E
:1087D00001A938000CF06FFE01A80BF09FFC0123EB
:1087E0003360BEE7642000F0D1FD364901A800F0F7
:1087F000FFFF782201A9314802F024FA962401A84B
:108800000BF08CFC64003368012B47D129480BF036
:108810005EFF00282AD02C4901A800F0E9FF01A939
:1088200025480CF048FE01A80BF078FC274901A868
:1088300000F0DEFF214F782201A9380002F002FA91
:1088400001A80BF06BFC200000F0A0FD290001A89E
:1088500000F0CEFF7822380001A902F0F3F901A858
:108860000BF05CFC200000F091FDCCE718480BF009
:108870002EFF0028C7D0174901A800F0B9FF01A9B1
:108880000D480CF018FE01A80BF048FC124901A895
:1088900000F0AEFF782201A90848DEE768460BF039
:1088A0003DFC0020FEBDC0469B280020282400205F
:1088B000D42000204422002040240020CC2100208D
:1088C0003F81020047810200548102008020002085
:1088D0006C2200205A810200D627002010B5054CDA
:1088E000200000F08BF8044A044920000EF0D7FC69
:1088F00010BDC046DC2000200020002001890100BE
:10890000CA23144A9B0010B5C2501C330400C0187F
:108910000BF004FCD0239B00E0180BF0FFFB2000C1
:108920009130FF3001F098FB20006930FF3001F0FA
:1089300093FB2000F03001F011FF2000D03002F056
:1089400015FB2000643007F02BFF201DFFF784FD8E
:10895000200010BD887A020013B528200EF0A6FC76
:108960001023040000931D210C4B01220BF076FB19
:1089700021000B4802F08EFA002805D020000BF0F1
:1089800083FB20000EF087FC0648FA2402F044FD29
:10899000A400200000F0FAFCFBE7C046DD850100E2
:1089A000AC2100202824002037B5114800F0DEF863
:1089B000FFF75EFD0F4D04002800FFF76DFD290055
:1089C00001A800F015FF782201A90B4802F03AF93E
:1089D00001A80BF0A3FB012C05D1FFF7B3FE00F0BB
:1089E0004DFD00203EBD022CF9D1FFF7B5FFC0467A
:1089F000DC20002080200020CC2100201423F0B5B2
:108A0000040093B0009319221821043002F04CFEA8
:108A10002200250026006432B43513211000109284
:108A2000B83607F0C9FE28000CF0C0FD00221E2158
:108A300030000CF058FA2000D03002F0B7FA2200D3
:108A4000F03211920621464A119801F0ABFE200047
:108A50000027012369301A0000971121FF3001F02F
:108A600007FB200091300097012302221A21FF30DA
:108A700001F0FEFA2000B9301A2301210222FF3052
:108A800002F050FB300001F0FFF8E4225200A05049
:108A9000300001F047FBE6235B00E0500100E422D8
:108AA00020005200D130119BA2580095FF3001F0F8
:108AB00089FD2000E13029001C22FF3002F08CFFEC
:108AC000192320000F93013B0E93013B0D93013BB3
:108AD0000C93013B0B93013B0A93013B0993013B30
:108AE0000893013B0793013B0693013B0593013B30
:108AF0000493013B0393013B0293013B0193F93043
:108B0000013B082200930721013BFF300CF00CFAD7
:108B1000CA239B00E018290003F070FFD3239B00B9
:108B2000E0181D2102F0CEFBDD239B00E7501098DA
:108B3000277003210EF0EFF82300220020000949DE
:108B40009C33A0321C6011605760074A80305A6124
:108B50000221012207F0A6FF200013B0F0BDC0469D
:108B600004760200613D02004B3D02000123F0B596
:108B7000067891B004001E4060D10300D033180085
:108B8000039300F0E5FA00F0DDF928200EF08EFBEB
:108B9000050010300BF06EFB664B18202B600EF0BA
:108BA00085FB0700644B0460082231000C300E93F3
:108BB0000F960EF0CAFB0EA9381D08220EF0A9FB75
:108BC0005E4BAF607B611223EE60AB802E626E6203
:108BD0002900039802F05EF9002805D028000BF068
:108BE00053FA28000EF057FB01232278544913430F
:108BF00023702300B433180004930CF0DDFC5149BA
:108C0000029004980CF0D8FC00270690642000F035
:108C1000BDFB3D003E0023006933FF331800059380
:108C20000BF055FD00280BD1029B002B11D1069BA8
:108C3000002B0ED14449454800F088FC11B0F0BD2E
:108C400020009130FF300BF042FD0028ECD0182EB0
:108C5000EADC2000653029B23AB2FF23FF3001354B
:108C600000F076FEEDB2322000F090FB0136052DCB
:108C700002D100250137FFB2029B192E06D0002B2E
:108C8000C9D02F49049802F03BFE01E0002BF8D137
:108C900002980EF000FB06980EF0FDFA2A492C48C7
:108CA00000F054FCCA239B00E3180793DD239B00CC
:108CB000E3580893002B36D100F058F801000AA8B9
:108CC00000F096FD0BF0D1F808900BF0CEF86B4653
:108CD0000990198C0CA80BF03EFA099B0DA8190CF1
:108CE0000BF039FA0DAA0CA90BA80BF0A0FA0DA8ED
:108CF0000BF014FA0CA80BF011FA01230BAA0AA925
:108D000000930798039B03F0CFFE0BA80BF006FA25
:108D10000AA80BF003FACC239B00E3580893DD2349
:108D2000089A9B00E2502100059AF031079804F060
:108D3000B5F870E7FD030000D33D0200933D02004B
:108D4000D5810200E0810200002000200800002000
:108D5000001C0020BFF34F8F024B034ADA60BFF3C1
:108D60004F8FFEE700ED00E00400FA05F0B58DB08E
:108D700005AF1922154938000EF0CBFA0022144B2A
:108D800005245A7180225205566E01222500019455
:108D9000029203930199300008F070FB08000299D9
:108DA00008F0E6FA019B03996B430193029B361A84
:108DB0006B430293631E2C1B6C433C19225C1C1EEC
:108DC000CA54E7D108000DB0F0BDC046F0810200E2
:108DD0001B290020F0B597B018220021060010A82A
:108DE0000EF0B3FA132110A80EF0DDF8032110A83D
:108DF0000EF06FF94C4B1B68002B00D10133DBB236
:108E000002934A4A012300210BA807F0B9FF484BFF
:108E10009E4200D9002672B6464B64211D68464B1F
:108E200030000793052408F02DFB604350302818CC
:108E300008900A21300008F025FB0A2108F008FC00
:108E4000614350316918099130000A2108F000FC93
:108E5000802361430024503169189B010A910193DA
:108E6000029B002B5DD0002500272E1F07AB9B190E
:108E70000593032C03D1802300249B01019307ABAE
:108E80005B592E4A03936300D318049300231900FF
:108E900006205843049A16187678B4466246039E14
:108EA000B25C10269446049A105C62460641164253
:108EB00002D00120984001430133092BE8D1C94376
:108EC0001F4B059A090119401268039B934225D153
:108ED000312F23DC00210BA80EF0B4F9FA23159AE8
:108EE0001199DB00106801421BD0013B002BF9D126
:108EF000019B01345B000193FA230137E4B25B006C
:108F00009F42B6D10435102DAED1074B1B68002B04
:108F1000A6D0029F013FFBB20293A1E7019B194338
:108F2000D9E7FFF717FFC04658240020F0FF0000E4
:108F3000E7030000042000203F82020009820200B3
:108F4000F01F0000F8B50023124C23600AF07FFFE9
:108F5000002808D0042120000AF075FF002801D065
:108F60000D4B2360F8BD0122A12704250B4B0C49B2
:108F70001A602268FF0048604E68002EFCD0DE595F
:108F80001202013D3243002DF5D1226001225A60C8
:108F9000E8E7C04654240020ED5EBC0B00D0004042
:108FA000FCD00040F0B585B01F000AAB1B8806005E
:108FB000029115000393002F1BD028200EF076F9A4
:108FC0006B4604001989039BAAB200933B000BF087
:108FD00045F8336821005B6830009847002806D0C8
:108FE00020000BF051F820000EF055F9024805B0B2
:108FF000F0BD0248FBE7C04616FCFFFF17FCFFFF71
:109000000B4B70B51C68002C10D0656D00F0ACFBEC
:10901000A36C002901D1834206D820000AF04AFF40
:10902000044920000AF034FF2C00ECE770BDC04674
:109030006024002080240020F0B593B007932A4BD1
:1090400004AC1E68049005910692002E4AD0274B6E
:10905000258867881C6800230293002C2ED0636D3E
:1090600023480393A36C9AB2A36C1B0C99B285425C
:1090700014D12048824211D1002B01D0B9420BD12A
:10908000029B002B08D120000AF014FF1A4920008F
:109090000AF0FEFE01230293039CDEE7002A01D0C2
:1090A0009542F9D1002B01D0B942F5D120000AF048
:1090B00001FF114920000AF0EBFEEDE70F4BEB1822
:1090C000012B0FD910233A00009329000C4B08A85C
:1090D0000AF0C4FF336808A99B683000984708A8C5
:1090E0000AF0D2FF13B0F0BD5C2400208C240020D5
:1090F000FE030000FF0300008024002002FCFFFFAD
:109100003990010010B572B60B4B1C68002C08D0CA
:1091100020000AF0CFFE0023E364084B2000E36345
:1091200010BD62B65C200EF0C1F85C220021040084
:109130000EF00BF9EFE7C046842400200040002029
:10914000024B1878012318407047C046212900209F
:10915000F7B50600FFF7F4FF051E33D11A4C266061
:10916000FFF7D0FF194B1A4918600AF091FEFFF77C
:10917000C9FF184B1860184B4363184B8363206872
:1091800000280ED0C027164E2A003300154900973C
:10919000FFF708FF009733002A0013492068FFF704
:1091A00001FF0C200EF082F80023838083710F4BA7
:1091B00003600F4B836000F0EFFA01230D4A117832
:1091C0000B431370F7BDC0465C24002090240020A0
:1091D0008024002088240020FC3F00207B3F0200E8
:1091E00039900100FF030000FE0300002476020016
:1091F0000190010021290020F7B506000D0017009D
:109200000193002802D100242000FEBD0029FAD0DD
:10921000FFF778FF041EF6D0074B019A4363066000
:1092200045608760054B002A00D0054BA3630549C4
:1092300020000AF02DFEE7E7FC3F0020453F02003A
:10924000633F020080240020024B186843425841CB
:109250007047C04680240020002310B504499C00BC
:109260006258002A01D00133F9E76050100010BDA8
:1092700068240020002310B5044A99008C588442C9
:1092800001D00133F9E70020885010BD6824002088
:1092900010B50024084BA200D058002802D0036863
:1092A0005B6898470134062CF4D1044B1B68002BF3
:1092B00000D120BF10BDC0466824002080240020BB
:1092C000F8B5FFF73DFF00281CD02A4D2C68E36C51
:1092D000DA0718D502273B43E364274B1E680423B3
:1092E000F26C30001343F364636BF3630AF008FE1F
:1092F0003000716C04F0C7F92868C36C3B4201D0A0
:1093000004F0FBF9F8BD1D4F1D4E3A683168002A84
:109310001ED129602A68914208D11B0706D52C600E
:10932000FFF7B6FF3B68002BFAD02B6029688C4210
:10933000E8D03368994214D1124B4B63124B8B63C4
:1093400020000AF0DDFD2968626C4B6C20000DE006
:10935000206DB84203D1606D002800D002002A6061
:10936000D8E79C42ECD1002210004B6C04F04AF983
:10937000C8E7C046902400206424002080240020F8
:1093800088240020FC3F00207B3F020070B50500D0
:10939000FFF7D6FE002803D128000DF093FE70BD24
:1093A0000C4B1C68E36CDB0706D5FFF7ABFE0A4BE2
:1093B0001860002800D0040000F0D6F92D18A5642C
:1093C00020000AF077FD054920000AF061FDFFF753
:1093D00077FFE4E79024002064240020602400202C
:1093E000F0B51E4B1E4F1C683B6885B0060003910C
:1093F000002B30D0FFF7A4FE00282CD0E36CDB0755
:109400000ED5FFF77FFE174B051E186008D00AF037
:1094100051FD154928000AF03BFD2C00FFF750FFD5
:10942000039B20001B043343A3640AF043FD200088
:109430000E490AF02DFD0E4B0024F318012B07D91D
:10944000C0230093039A0B4B31003868FFF7AAFD45
:10945000200005B0F0BD084CFAE7C046902400207B
:109460005C24002064240020802400208C24002020
:1094700002FCFFFF3990010016FCFFFF10B5FFF75B
:109480005FFE002809D0054C20680AF013FD04494E
:1094900020680AF0FDFCFFF713FF10BD90240020A8
:1094A00084240020F7B507000D0000282ED0FFF718
:1094B00047FE00282CD00724164E3068C36C1C4091
:1094C00007D0154A290038000AF00BFD00242000BF
:1094D000FEBD04F0FAF802213268D36C1940019104
:1094E00003D003218B43D364F1E701242343D364E6
:1094F0002800B8473268D36C1900A143D164019C9D
:109500005B07E4D528000AF024FDE0E7034CDEE722
:10951000034CDCE790240020533F020017FCFFFFC0
:1095200016FCFFFF020010B5014B12CB12C210BD9A
:1095300094240020034B1A68034B1A607E225A6061
:109540007047C046042000209424002070B5114EBE
:109550003278022A1AD081421AD90C1A072C17D94C
:109560000D00032305432B4012D172B60A4DD200E1
:109570005051AA1851608022A408120614430460B6
:1095800032780132327062B6180070BD0348FCE7D1
:109590000348FAE7232900209C24002013FCFFFF46
:1095A00017FCFFFF70B5134C06002378124D002BFB
:1095B0000CD1124912482B70FFF7C8FF114B98428B
:1095C00002D11E20FFF706FC0123237000242B7814
:1095D000A34209DD0C49E300C91830000AF0D3FCAE
:1095E000002805D10134F2E71420FFF7F3FB002037
:1095F00070BDC04622290020232900200038002009
:10960000F029002017FCFFFF9C24002070B50028E3
:1096100019D0104B10491C7800239C4216DDDA004B
:109620005558854210D28A18526882420CD9041FBC
:109630002368002B02DC1E20FFF7CCFB802322686E
:109640001B061343236070BD0133E6E71E20FFF7BE
:10965000C1FBF8E7232900209C24002070B5051EDB
:1096600014DD0B4E0B4C3368002B02D020680DF03C
:10967000B4FBFA2120680024074B89008361C4628F
:10968000694335600DF0B1FB200070BD0348FCE775
:10969000AC240020DC2400204597010017FCFFFFCC
:1096A000F8B5114F06003D68002D0AD130200DF0AD
:1096B000FDFD040007F0DAF80C4BA5612360E562BC
:1096C0003C600B4D2B68002B09D110200DF0EEFDF6
:1096D00004000DF0D6FB20002C600DF0ACFB300038
:1096E000FFF7BCFFF8BDC046DC240020307E02003E
:1096F000D8240020014B18687047C046AC240020D5
:1097000070B50D4C2368002B03D00C4B1B68002B4D
:1097100002D10620FFF7C4FF20680DF0A3FB020072
:109720000749C3170D684E685219734120680A60D3
:109730004B600DF09DFB70BDD8240020DC24002080
:10974000B020002010B5FFF7DBFF0024054BA2007E
:10975000D058002802D003681B68984701340A2CAF
:10976000F4D110BDB024002010B5FFF7C9FFFA22D4
:10977000034B920018685968002307F0A9FF10BD39
:10978000B020002010B5FFF7BBFF024B18685968E6
:1097900010BDC046B02000200B4B10B51B68040064
:1097A000002B03D0094B1B68002B02D10620FFF7CA
:1097B00077FF0023064A99008858002801D001331A
:1097C000F9E78C5010BDC046D8240020DC240020CE
:1097D000B0240020002310B5044A99008C5884421C
:1097E00001D00133F9E70020885010BDB0240020DB
:1097F00010B50400002902D00B78002B03D1034BD5
:109800002360200010BD0AF090FCFAE734760200D5
:10981000F8B5040008000D000AF057FE002803D137
:10982000134B23602000F8BD28000AF04EFE0530DF
:10983000FFF7B8FE20600AF04BFE28000AF045FE54
:1098400023685880236828001E1D0AF03BFE07008D
:1098500028000AF03AFE3900020030000DF059FDF0
:10986000280026680AF031FE002336183371D9E744
:1098700034760200F8B504000E00150000290AD065
:109880000B78002B07D0002A05D0080097B20DF006
:109890009CFD874203D90B4B23602000F8BD681D57
:1098A000FFF780FE20600AF013FE23682A005F8025
:1098B00023683100181D0DF02CFD23685D1900236D
:1098C0002B71EAE734760200014B03607047C04613
:1098D0003476020010B50548054C20600AF0FBFD07
:1098E000044A054920000DF0DAFC10BD3476020070
:1098F000E0240020002000201D410200084B73B529
:109900001C680500002C0AD00100266808310822D6
:1099100068460DF0FEFC0CCD31682000884773BD11
:10992000E4240020014B03607047C0463C760200EF
:1099300010B50400002903D1044B0360200010BDC2
:10994000016008000AF0C7FDF8E7C0463C76020057
:1099500030B500684488A1420CDA8588AA4209DA49
:10996000002907DB002A05DB5443401800198371E6
:10997000002030BD0048FCE717FCFFFFF0B50700F2
:1099800085B00E001D00002921DD002A1FDD002BFF
:109990001DD00468638803938B4200DD0391A38884
:1099A0000293934200DD0292002306340193019B4F
:1099B000029A93420EDA29002000039A0DF0A9FCC6
:1099C0003B68AD195B88E418019B0133EEE7024860
:1099D00005B0F0BD0020FBE717FCFFFFF8B5040061
:1099E0000D0016001F00002901DB002A02DA0E4BD1
:1099F0002360F8BD100048430630FFF7D3FD206018
:109A00000AF066FD23685D8023689E80002F06D0E3
:109A10003B00320029002000FFF7B0FFE9E72000FB
:109A20000AF079FCE5E7C0463C760200F7B506008F
:109A30000D1E03D1244B03603000FEBD00200F003B
:109A40000400010001903B78002B1AD030225242D2
:109A500094469C446246092A11D90A2B0AD1019BDB
:109A6000241801330193A14200DA210000200400F0
:109A70000137E8E70028FBD001340020F8E7012097
:109A8000F6E70127019A09B212B230007F42FFF7D0
:109A9000A5FF39000A2033689A1D2C78002CCBD002
:109AA0002300303B092B08D8FB43DB173B404343E3
:109AB0001B19303B1F000135EFE7002FFBDB177050
:109AC00001320F00F7E7C0463C760200F0B5040013
:109AD00089B006A80E0002921D00FFF723FD23683F
:109AE00002995A88914235DA9B889D4232DA1F2EBC
:109AF00030D9079B01939E422CDC0523002273433F
:109B00000393069B0493039B04999B18A03BCB5C97
:109B100000210593AE18029BCF1823685888019046
:109B200087420EDA9888B0420BDDDB1910270F410F
:109B3000019870431B1805980740781E87417F42A3
:109B40009F7101310529E6D10132052ADBD10020C0
:109B500009B0F0BD0048FBE717FCFFFFF7B504684C
:109B6000070063880E1E01931EDD994218DA002358
:109B7000063400933B68009A9B889A4212DA019B54
:109B8000A1199D1B2A0020000DF0C3FB60193100B4
:109B90000AF0A4FB3B685B88E418009B0133E8E70C
:109BA0000AF0B9FB002000E00048FEBD17FCFFFFF3
:109BB00010B50548054C20600AF08DFC044A0549A3
:109BC00020000DF06CFB10BD3C760200E824002064
:109BD00000200020CF42020010B5054C01212000DA
:109BE0000AF061FC034A044920000DF058FB10BD47
:109BF000EC24002000200020534402000388074A80
:109C000010B50120934208D0834202D00020DB0728
:109C100003D41E20FFF7DEF8002010BDFFFF000078
:109C20000048704716FCFFFF10B53220FFF7D2F84E
:109C3000004810BD16FCFFFF10B5124C002308347D
:109C400082800460416202241422010083718472C4
:109C500003638386028136310A78C360A243F134FC
:109C60002240036143618361C36103620A700200A1
:109C700040321370021DD387013343878387C38724
:109C800010BDC0465C760200F0B5544F97B03B68FB
:109C900006000593002B00D08BE006AC0B331C2292
:109CA0002121200001F076FA0EAD0B231D22222186
:109CB0000AA801F06FFA0B231B222321280001F0D0
:109CC00069FA08200DF0F2FA0122059B11000490B8
:109CD0000BF09DFF3A2130000BF0F3FC00281DD063
:109CE000A38812ADAB80A3795C20AB713C4B12937F
:109CF000A3681493237B2B73637B6B73A37BAB737E
:109D00000DF0D4FA04230193363300932A00049B08
:109D10003100040002F064F93C604AE03221300076
:109D20000BF0FDFC00281CD0A38812ADAB80A379FA
:109D30005C20AB712A4B1293A3681493237B2B7383
:109D4000637B6B73A37BAB730DF0B0FA04230193B9
:109D50002E3300932A00049B3100040002F0DEFA47
:109D6000DAE73C2130000BF095FC00282CD0AB88C2
:109D700012ACA380AB79A420A371194B1293AB68EA
:109D800014932B7B23736B7B6373AB7BA3730DF0FB
:109D90008DFA052305000293013B019338330093AC
:109DA0002200049B310002F039F80E4B3D6044352F
:109DB0001D600C4B094C1868002802D021680AF07D
:109DC000F4FC206817B0F0BD44200DF06FFA0422B7
:109DD00004990400FFF730FF9EE7C046F0240020FE
:109DE0004C760200F4240020F0B56149C56885B0C6
:109DF0008D4254DA0300022236331B78134059D1C6
:109E000004698C4264DA020036321278520768D450
:109E1000426901920200019E40328E426FDA0100D7
:109E200036310978090774D4002B7DD11378029359
:109E3000002B16D006000127011DCB8F36360133CB
:109E40009BB2CB8703963678BC46374000D188E07A
:109E50001D2B06D963469E43039B1E700023CB87B0
:109E600013700AF082FB434A0723904276D9424995
:109E7000043B8D4272DBC8220133920095426DDCB7
:109E8000023B8C426ADB013B944267DC019804335D
:109E9000884263DB0133904260DC00235EE0C8222D
:109EA000002352009542ABDD030036331A780023BD
:109EB0009207A5D4012306001F00363632785408D5
:109EC000A7433C0002279C40BA432243327097E7E5
:109ED000C822520094429BDD0200363212785207AB
:109EE00096D406000122363633789F08BA4397008D
:109EF000042293431A003A433270012388E7C821B1
:109F0000019E49008E428FDD010036310978090734
:109F10008AD40100012636310B78DF08BE430827BA
:109F2000F600BB4333430B701378032B00D97DE756
:109F30000133DBB21370012B03D10021031DD9873C
:109F400074E7042B00D071E7020036321178033B2E
:109F50000B43137000230430C3870B33180005B084
:109F6000F0BD092B00D87CE7029BCF87013B77E748
:109F700070FEFFFFFF700200E0FCFFFF70B5C369D9
:109F8000C1681A68451D8AB00400EB7F114255D0A4
:109F9000002B58D1EB7F082B0DD90122A379134256
:109FA00009D11343A371A188130006A80AF06CF924
:109FB000FFF7DAFB2062EB7F012B23D80123A27984
:109FC0001A421FD00025A188A571022202A80AF01A
:109FD0005BF9A31DDE7F012E14D1FFF7C5FB2B001B
:109FE000226A801A994100900191019BA188AB429D
:109FF00003D1174B009A9A4227D90123042206A8BD
:10A000000AF042F90322A3791340012B14D1FFF780
:10A01000ABFB0023226A801A9941994202D10D4B71
:10A02000984209D90223A279A1881343A37105227A
:10A03000012306A80AF028F90AB070BD0B2BA9D895
:10A040000133EB77A6E7013BFBE733000322D6E7BA
:10A05000E7030000DB05000010B50400034B0833E4
:10A060000360FFF7B7FB200010BDC04690760200EA
:10A07000F0B5070000250E00040085B002930AAB7E
:10A080001B78083703930F4B0192083303608580D8
:10A0900085712900182238000DF057F9039A310014
:10A0A00038000CF085FF019B029AA380A31DE67186
:10A0B000DA77631D25622000DD77FFF76DFB200056
:10A0C00005B0F0BD907602000048704716FCFFFF17
:10A0D00010B53320FEF77EFE004810BD16FCFFFFD2
:10A0E000002310B50400838083710D48216408307B
:10A0F00020608020C000A061E0612062E360200059
:10A10000236163616362A362E36223636363A363A6
:10A11000E363636411000AF020FB200010BDC04619
:10A12000A8760200F0B5534F97B03B680600059340
:10A13000002B00D08BE00B331C22212106A80AAC97
:10A1400001F028F80EAD0B231D222221200001F082
:10A1500021F80B231B222321280001F01BF80820E3
:10A160000DF0A4F80122059B110004900BF04FFDA7
:10A170001D2130000BF0BCFA00281DD0A38812ADC1
:10A18000AB80A3796020AB713B4B1293A36814930F
:10A19000237B2B73637B6B73A37BAB730DF086F810
:10A1A00005230193183300932A00049B3100040017
:10A1B00001F0EAFF3C604AE03C2130000BF0C6FAB7
:10A1C00000281CD0A38812ADAB80A3796020AB71AE
:10A1D000294B1293A3681493237B2B73637B6B73BC
:10A1E000A37BAB730DF062F8052301933733009323
:10A1F0002A00049B3100040002F032F9DAE73C2126
:10A2000030000BF047FA00282AD0AB8812ACA380AC
:10A21000AB79A420A371184B1293AB6814932B7BDA
:10A2200023736B7B6373AB7BA3730DF03FF8052344
:10A2300005000293013B0193383300932200049BF5
:10A24000310001F0EBFD0D4B1D6044353D600B4BC3
:10A25000084A1B681068002B00D0436417B0F0BD9B
:10A2600048200DF023F8052204990400FFF738FF79
:10A27000A0E7C046F42400204C760200F024002021
:10A2800082B0F0B50400EDB06420739372920CF0CC
:10A2900019FF052210A811000AF046F8974911A8E5
:10A2A000FFF7C4FB002221AB6CA91A605A609A60C8
:10A2B0000C339942F9D11922002113A80DF045F869
:10A2C000A0680AF009FE00260B90FF21A06800F0AC
:10A2D00047FD8B4FA06800F05DFB07960996884B01
:10A2E0009F4203D0874B9F4200DBFDE0A0680AF04D
:10A2F000F5FDA56884491AA8FFF77AFA78221AA909
:10A30000280000F075FC1AA809F008FF00267C4F11
:10A310000322099B606801331A4009920AF0BDF9D3
:10A32000050060680AF0C0F90022784B05929D4252
:10A3300010DB013205922A00C8320BDBAA2204216D
:10A3400092000591954205DC02220592C82D01DD9F
:10A350000132059200220692984210DB01230693F7
:10A360000300C8330BDBAA2304329B0006929842F9
:10A3700005DC02230693C82801DD0133069310A8EB
:10A3800009F0C9FF002513ABEB5C012B08D1604934
:10A390006B00CA185278C95C10A8FF23FFF7D8FADF
:10A3A0000135192DEFD16B4618229A5E6B4610A825
:10A3B0001421595E099BFFF7CBFA002F01DB0F2E0A
:10A3C00007D90023A068009374301A0010A909F07F
:10A3D000B8FF01230893089B05995A004C4B9B1822
:10A3E0009A1E12788A4226D1013B1B78069A934224
:10A3F00021D1089A6CAB9B18663BFF3B0A931B78F4
:10A40000012B18D00C23079A216853431D0000220A
:10A410000CA80AF0CCF921AA2B0094460CAA63449C
:10A4200023CA23C301220A9B01361A70079BF6B286
:10A430000133DBB20793089B013308931A2BCAD16F
:10A4400064200CF03FFE079B643F3FB2182B00D8FE
:10A4500045E71A0021A91AA80AF0B7FB6A461DAB06
:10A4600023CB23C21B6813601A991B9A1C9B20687C
:10A470000AF085F9E568002D0CD0264912A8FFF7EF
:10A48000B7F91C231AAA12A928000BF0CEF812A8BB
:10A4900009F044FEA0680AF021FD11A912A8A568E0
:10A4A00009F022FF00221C4B009212A90193280000
:10A4B000130000F00DFB12A809F009FFFA2080003C
:10A4C0000CF000FEA0680AF009FD0B99A06800F0EE
:10A4D00047FC11A809F0FBFE10A809F0F8FE6DB0CA
:10A4E000F0BC08BC02B01847002F02D00F2E00D0DD
:10A4F0000EE7A06800F04EFA0AE7C0461F8402008B
:10A500008C3C0000D18AFFFF6484020058FDFFFFED
:10A510008484020079840200DC050000F0B587B075
:10A5200001930EAB1B88060003930D9B0D00009357
:10A53000019B02920C9F002B3CD0002F02D1009B6C
:10A54000DB0737D528200CF0B1FE0400103009F0ED
:10A5500091FE029B1820258063800CF0A7FE050069
:10A56000009B08220593019B002103600C30049797
:10A570000CF0EBFE082204A9281D0CF0CAFE0E4BBD
:10A5800002226B6100230399E360236263623368F4
:10A590000A43A560A2805B6821003000984700282C
:10A5A00006D0200009F070FD20000CF074FE034876
:10A5B00007B0F0BD0248FBE7EF47020016FCFFFFC3
:10A5C00017FCFFFF70B58CB08360109B0160426088
:10A5D000C3600400184918000AF0EEFF051E14D0ED
:10A5E00001001C22103105A80CF093FE6A4608AB4E
:10A5F00043CB43C21B68136020680599069A079BEA
:10A600000AF0BDF828000CF046FE0C4B1868002834
:10A610000ED00B4A05AB059200220692C032029280
:10A620006A4622CB22C2230003220521FFF776FFD0
:10A6300020000CB070BDC04679840200E4240020E4
:10A6400081A20100F0B5040085B0637A9C46002B1E
:10A6500004D120000AF0D7FA05B0F0BDA37A266F26
:10A6600001931023019AF35600259B1801229A406A
:10A670002900F36803920293029BAB4231DDB36879
:10A68000019A6B439B1872695B00E77AD3181A78BA
:10A690005878E379012F14D15F1E3F1A10003A0059
:10A6A0005B004343606F8218D3189B79634500DDDC
:10A6B0006346627B1A4202D00123AB401943013545
:10A6C000DAE7022F05D15F1EBA1A277A013F381A3E
:10A6D000E6E7032FE4D1277A013FBF1A02003800D2
:10A6E000DEE71123C943F356606C99402369194092
:10A6F000039B19430CF0A6FDA27B072AACD8637B11
:10A700000C495B006373531CDBB290004158A37388
:10A71000022A03D808000CF0CAFC96E7064B20007A
:10A72000236300236363054BE462236414300CF05D
:10A730005CFB91E7D476020045A60100F14B0200D4
:10A7400010B50400044B03600CF047FB200006F03A
:10A75000A3F8200010BDC046307E020010B50400F2
:10A760000E4B08330360FFF735F82000743009F012
:10A77000AEFD2000603009F0AAFD2000583009F03D
:10A78000CDFC2000503009F0C9FC2000044B1430EF
:10A790006361FFF7D5FF200010BDC046F4760200CC
:10A7A000447E0200F8B500250400324B8580083352
:10A7B00003608571143016000F0006F057F8200072
:10A7C0002D4BE562636125645030FFF77DF8200072
:10A7D0005830FFF779F820006030FFF7A3F8200029
:10A7E0000423F25E33682667590009B2743009F019
:10A7F0009BFD3368226FE371736801262372102377
:10A800006581A7802561D35691685918994204DD66
:10A810003000984001330543F8E711230120D35657
:10A82000D1685918994206DD02009A402669013321
:10A8300032432261F6E714200CF038FD2269002132
:10A840002A430123060006F09BFAFF2322006372CD
:10A850000133A381002348326664A3732000137080
:10A86000A366FEF799FF0123A27920001343A37189
:10A87000F8BDC046F4760200447E0200F0B5437A8B
:10A8800085B00400002B04D120000AF0BCF905B00B
:10A89000F0BD0122837A11009C461023066F00252B
:10A8A000F35603926344994002912900F36801939F
:10A8B000019BAB422CDDB36872696B4363445B0060
:10A8C000E77AD3181A785878E379012F10D15F1EF0
:10A8D0003F1A10003A005B004343606F8218D318A0
:10A8E0009B79002B02D0039BAB4019430135DFE776
:10A8F000022F05D15F1EBA1A277A013F381AEAE7FC
:10A90000032FE8D1277A013FBF1A02003800E2E79F
:10A910001123C943F356606C994023691940029B87
:10A9200019430CF08FFC667AB31EDBB2FC2B14D8F3
:10A93000FEF7E0FE0B4B0500236300230A48636328
:10A940000A4BFF21E4622364704306F09BFD29005B
:10A950004143200014300CF048FA637A012B00D9EF
:10A9600095E791E7074C0200B6030000F14B0200A7
:10A970001FB5012381881A00684609F085FC012370
:10A9800003491A00684609F07FFC05B000BDC046C7
:10A99000FE0300001FB5030048331A780400002AA4
:10A9A0000DD000221A70012381881A00684609F030
:10A9B0006BFC012304491A00684609F065FC20007D
:10A9C000743009F0A8FC1FBDFF03000010B548302B
:10A9D0000378002B06D00378012B03D00121024815
:10A9E00009F0A7FA10BDC046FF03000010B5012111
:10A9F0000400062009F09DFA064B984208D148341D
:10AA00002378002B04D02378012B01D020BFF7E757
:10AA100010BDC04616FCFFFF70B50600141E19DB02
:10AA2000050048352B78002B02D02B78012B13D151
:10AA3000002330001A007430FFF748F8002C07D0CC
:10AA400033004A331C80002407234C3634802B709B
:10AA5000200070BD014CFBE7014CF9E717FCFFFF3C
:10AA600012FCFFFFF8B517000A68050052880B00BA
:10AA7000012A09D10021180009F0EFFB0022010092
:10AA80002800FFF7C9FFF8BD002F19DD0600483682
:10AA90003278002A02D03278012A13D12A00002409
:10AAA00028005C3219001480583009F0A1FB2B00FB
:10AAB0004A331F8003234C352C8020003370E2E79B
:10AAC0000148E0E70148DEE717FCFFFF12FCFFFF4B
:10AAD00073B5079C0500002C1CDB06004836307857
:10AAE000002802D03078012816D106981BB2C0B2D7
:10AAF0000090280012B2743009F023FC002C07D01B
:10AB00002B004A331C80002407234C352C803370E3
:10AB1000200076BD014CFBE7014CF9E717FCFFFF75
:10AB200012FCFFFFF7B505000E00171E26DDFFF72C
:10AB30004DFF2B0048331C78E4B2002C20D1336841
:10AB40005B88012B09D12100300009F086FB22002F
:10AB500001002800FFF760FFFEBD310001A809F0E9
:10AB60003FFB3A0001A92800FFF77CFF01A809F08C
:10AB7000D5FA2800FFF73AFF2000EDE70148EBE7A0
:10AB80000148E9E717FCFFFF11FCFFFFF0B587B0B4
:10AB90000D9C06000F0002920393002C20DBFFF7B0
:10ABA00015FF330048331D78EDB2002D1AD139005E
:10ABB00005A809F099FB0C9B01940093029A039B52
:10ABC00005A93000FFF784FF05A809F080FB002CE1
:10ABD00003D03000FFF70AFF2C00200007B0F0BDC3
:10ABE000014CFAE7014CF8E717FCFFFF11FCFFFFEF
:10ABF000F8B50400171E1DDD060048363378002B1B
:10AC000002D03378012B17D12200E3795632013B71
:10AC1000137023000025200054331D80503009F0AC
:10AC2000E7FA23004A331F80022328004C34258092
:10AC30003370F8BD0148FCE70148FAE717FCFFFF55
:10AC400012FCFFFFF7B505000F00161E18DDFFF719
:10AC5000BDFE2B0048331C78E4B2002C12D1390021
:10AC600001A809F0BDFA320001A92800FFF7C0FFD2
:10AC700001A809F053FA2800FFF7B8FE2000FEBD36
:10AC80000148FCE70148FAE717FCFFFF11FCFFFF52
:10AC9000F8B50400171E2DDD060048363278002A6C
:10ACA00002D03278012A27D15D42069BFF331FD1A3
:10ACB0006B1D22001BB26432138023002000663318
:10ACC0001D70603009F018FB230000226C331A70ED
:10ACD000954200D03D0023004A331D80079B002091
:10ACE0005A1E9341013F4C34053327803370F8BD21
:10ACF000069BDEE70148FAE70148F8E717FCFFFF8B
:10AD000012FCFFFFF0B587B005000F00161E03937D
:10AD10001EDDFFF75BFE2B0048331C78E4B2002CED
:10AD200018D1390005A809F0DFFA0D9B3200019314
:10AD30000C9B05A900932800039BFFF7A9FF05A81A
:10AD400009F0C5FA2800FFF751FE200007B0F0BD5A
:10AD50000148FBE70148F9E717FCFFFF11FCFFFF83
:10AD6000FF2902D84172002070470148FCE7C04625
:10AD700017FCFFFF13B5040004A800780090200022
:10AD80000BF0A1FF002801D1207516BD0048FCE79B
:10AD90000EFCFFFF13B5040004A80078009020000B
:10ADA0000BF079FF002801D1207516BD0048FCE7A3
:10ADB0000EFCFFFF7FB50D0011000F226A44040056
:10ADC0001E1E117016D0089B002B13DD01232900D5
:10ADD0000093FFF7DFFF002802D0074804B070BDE2
:10ADE0000090089B320029002000FFF7C3FF0028D5
:10ADF000F4D0F2E70148F1E70EFCFFFF17FCFFFF7C
:10AE0000F7B507000D1E3FD0002302260469019309
:10AE1000002C35D0AA88A3885340334204D1324253
:10AE200004D1AB88334226D0646AF1E7A968A068F0
:10AE30000AF0D2FE0028F4D02B88002B02D0228802
:10AE40009A42F1D16B88002B02D062889A42EBD1F2
:10AE5000EB68E268934201D0002BE5D17B68002BC0
:10AE600001D020009847A288084B1343A380019B80
:10AE700001330193D8E7A368AA689342D4D1DBE7F2
:10AE8000019B2000002B00DC0148FEBD0080FFFF7D
:10AE900017FCFFFFF0B5060085B00D1E5DD0012741
:10AEA0000469002C26D00221AA8800230A4202D07D
:10AEB000A3885B083B40226829688A4214D1A068B5
:10AEC000A968002B0ED00AF087FE00280CD0EB6892
:10AED000E268934208D1A3881AB2002A06DB204810
:10AEE00005B0F0BD8842F2D0646ADAE75B045B0C1F
:10AEF000A380F4E730692A88002807D1356101234F
:10AF00001849684609F0C0F90020E9E7010003008C
:10AF10001C88944206D25C6A1900002C0DD02300D4
:10AF2000F6E723001C88944207D15F886C88A7420B
:10AF300003D85C6A1900002CF3D1884209D10B8830
:10AF40009A4204D305D148886B88984201D9696236
:10AF5000D4E74B6A6B624D62D1E70348C0E7C04655
:10AF600016FCFFFFFD03000017FCFFFF064B10B5AA
:10AF70001A00040008322C33026083600830FEF7A8
:10AF800079F9200010BDC0460C77020008B4024BCE
:10AF90009C46083808BC60476DAF010008B4024BFE
:10AFA0009C46083808BC60474F5002000C4A0023FA
:10AFB00011002C32083110B54360838183738260A5
:10AFC000036143618361C383016004000830FEF7BD
:10AFD00043F9044B1A68002A00D11C60200010BD00
:10AFE0000C770200E4240020F7B50E000125046967
:10AFF0000192002C36D0238832889A4201D0002B4F
:10B0000023D1638872889A4201D0002B1DD1FEF7AC
:10B0100097F80123002806D0C022A3881340C03B24
:10B020005A425341DBB2019A934219D1A7883BB2ED
:10B03000002B15DB10223100A0180CF06AF9402318
:10B040001F4204D020000AF00BF8646AD1E7FEF733
:10B0500077F80028F6D021000348FEF723FAF4E73A
:10B060000025F2E72800FEBD6150020008B4024B43
:10B070009C46083808BC6047E9510200F0B587B02B
:10B0800001930EAB1B88060003930D9B0D000093EC
:10B09000019B02920C9F002B3CD0002F02D1009B01
:10B0A000DB0737D528200CF001F90400103009F037
:10B0B000E1F8029B1820258063800CF0F7F805006A
:10B0C000009B08220593019B002103600C3004972C
:10B0D0000CF03BF9082204A9281D0CF01AF90E4BBC
:10B0E00002226B6100230399E36023626362336889
:10B0F0000A43A560A2805B682100300098470028C1
:10B1000006D0200008F0C0FF20000CF0C4F803486F
:10B1100007B0F0BD0248FBE72352020016FCFFFF18
:10B1200017FCFFFFF0B50400160000258380164AC7
:10B13000164B85710260218146810573186889B0BC
:10B140008C46A8421DD0124A05950492C022029254
:10B150006A4604AB82CB82C223002A006146FFF715
:10B160008DFFC022094B0A49186802926A4606916F
:10B1700006AB079582CB82C223002A003100FFF77D
:10B180007DFF200009B0F0BD50770200E4240020CC
:10B190004D53020030B5002403730123034D847125
:10B1A0000560818082734373846030BD4C760200F9
:10B1B00070B583790400DB0702D580680CF06BF86A
:10B1C000A3799B0702D5A0680CF065F8A3795B070B
:10B1D00007D5A0230021144ADB00D150A0680CF051
:10B1E0005AF8A3791B0708D5A568002D05D02800BB
:10B1F0000AF063FD28000CF04EF8A379DB0605D5B4
:10B20000A068002802D00368DB6898476023A27911
:10B210001A4205D0A068002802D003685B689847EE
:10B220000023A360A37170BD00700040F7B5012634
:10B23000037B040033422AD0612385791D4017D156
:10B24000FFF7B6FF18200CF031F80E230700E35685
:10B2500018220093637B290001930CF076F8019A81
:10B26000009938000BF0A4FEA379A7603343A371C3
:10B270006023A279A0681A4202D00BF045FDFEBD02
:10B28000436940681B681840431E9841F7E701482E
:10B29000F5E7C04616FCFFFF10B501248379417322
:10B2A0001C4004D080680BF014FF002010BD602209
:10B2B000134203D080680BF02EFDF6E70048F5E757
:10B2C00016FCFFFF70B5040000250C4B0E00083380
:10B2D000858085710360210018300AF0E8F82000AD
:10B2E000210020300AF00EF9054BA680E58025727A
:10B2F000E5602561656120001C6070BD607702001B
:10B30000F82400208379DB0702D5C1600020704754
:10B310000048FCE716FCFFFF8379DB0701D5C06816
:10B3200070470148FCE7C04616FCFFFF70B5456951
:10B330000400002D22D0037A032B21D8FFF7ECFF65
:10B34000A8622C200BF0B2FF2C22002105000BF08C
:10B35000FCFF002263695A622369934208D1636942
:10B3600023610020237A65610133237270BD1300CD
:10B370005A6A002AFBD162695A62F2E70148F5E78E
:10B380000148F3E717FCFFFF13FCFFFF144B70B5F8
:10B390005A68144C002A03D000225A600132A2607D
:10B3A0001A69002A17D0002119618023DB000E4D95
:10B3B000E3582868012B0FD1A923DB00E15849424B
:10B3C000FFF7A0FF2868FFF7B1FF2B685A69074B0A
:10B3D000E2500123A36070BDFFF794FFF9E7C04678
:10B3E000FC10004000100040F8240020040500007C
:10B3F00070B505000C0008F02AFD002804D1034AAE
:10B40000034BEC71D45070BD0248FCE700100040C3
:10B410002405000016FCFFFFF8B583790500002025
:10B42000DB0768D408F013FD002865D16E69002E93
:10B4300008D12C300BF03AFF04002C2231000BF025
:10B4400084FF6C616B69002B58D000222C4B0121CA
:10B450005A608022D20511605A68002AFCD0062268
:10B46000284B294C9A56294B0026E2500722043BD0
:10B47000E2500833E650264A264B2800E250E9798C
:10B48000FFF7B6FF01220821234B2448E65004337E
:10B49000E250234B234FE1500433E0500223224873
:10B4A000235022482750224F04382750182721487C
:10B4B00027506F6920482750C120800021501F4924
:10B4C0008538FF380B500B608021890060580E339F
:10B4D000034363501A4B5E6062605A68002AFCD0D6
:10B4E000002601271E612800A760FDF7B5FE300089
:10B4F000AB791F43AF71F8BD1248FCE71248FAE779
:10B50000FC00004041850200001000400C050000D6
:10B51000746962751C0500002C05000020000402FF
:10B5200014050000FFFF0000340500003C0500008A
:10B5300021100100540500000405000000E100E0B6
:10B54000FC10004016FCFFFF13FCFFFF0300006926
:10B55000002809D00221054AD167426A1A611A7A85
:10B56000013A1A72024B19607047C04604E100E0CC
:10B5700000E100E070B504000D0008F068FC002850
:10B580003AD1002D3AD02B78232B37D802221C4BEE
:10B590001C49DA671C4B013A58610A615A69002A52
:10B5A000FCD00020194A8D5058600130086058685E
:10B5B0000028FCD00020186101308860186900283C
:10B5C000FCD06069885000225A6101320A615A69D0
:10B5D000002AFCD000225A6001324A605A68002AD0
:10B5E000FCD00020186101238B60C0210222084B8F
:10B5F00049005A501A6070BD0648FCE70648FAE751
:10B6000004E100E000100040FC10004004050000D0
:10B6100000E100E016FCFFFF17FCFFFF37B54C68A8
:10B620000500002C04D10C4908F01AFF28003EBD8B
:10B63000636A01A84B602278211D033AA36A08F0CF
:10B640003BFF20000BF027FE01A9280008F008FFAF
:10B6500001A808F0FEFEE9E7EC24002030B5050063
:10B660008DB0002912D0232A10D801ACD31C0020A1
:10B6700023700123A07002A86370E3700BF049FEF1
:10B6800021002868FFF776FF0DB030BD0048FBE7CA
:10B6900017FCFFFF10B5002903DB024B19600BF00C
:10B6A0007EFB10BDFC24002070B504001E0004AB1E
:10B6B0001D7805F0A5F820000E4B40302360FEF702
:10B6C00003F9230001364C33013522001E701D732F
:10B6D0000023E1214E32A36463651380538093817C
:10B6E000D381013B200063644902FFF7D3FF2000B0
:10B6F00070BDC046FC750200F7B580277F053D6927
:10B700007C690822113C6C430600210068460BF05E
:10B7100000FE104B009A9A4219D000930023019327
:10B72000796930001339694309F001FF019A0099E2
:10B73000300009F014FF2100300009F0F8FE7969AB
:10B74000AB08133969432200300009F0FAFE019872
:10B75000FEBDC046FECA0000F0B50D00A9B00D92B6
:10B7600000213022060010A80B930BF0EEFD2800FC
:10B770000BF02BFE431C0C93102B00D9B5E00B9B58
:10B78000202B00D9B1E02900300009F015FF071E79
:10B7900050D129000C9A10A80BF0BBFD0D990B9A03
:10B7A00014A80BF0B6FD80235B051A695F690C9243
:10B7B000113F7A4330005D690B92FFF79DFF302205
:10B7C000002104001CA80BF0C0FD290000270C9BE1
:10B7D00013395943300009F0AAFE0D9730257D43F7
:10B7E0000B9B0833ED18A74242DA290030221CA82F
:10B7F0000BF08FFD10A91CA80BF0DDFD002827D150
:10B800003C49300022000E910F9409F0A8FE6A46D0
:10B81000099513AB23CB23C223CB23C223CB23C253
:10B820003000129B1099119A09F0A7FE01230D9385
:10B830000137D3E710300B9A0D990BF05BFD040034
:10B8400038000BF028FD002CA3D1200029B0F0BD5A
:10B850006A4609951FAB23CB23C223CB23C223CB3C
:10B8600023C230001C991D9A1E9B09F086FEDFE75B
:10B87000E5433023ED1725405D430B9B08355D19EB
:10B880000D9B002B1DD10C9B3021981E05F070FDE7
:10B89000A0422CD017490134300022000E910F94A1
:10B8A00009F05DFE6A46099513AB23CB23C223CB77
:10B8B00023C223CB23C230001099119A129B09F0A6
:10B8C0005CFE0B99300009F032FE80235B0559695C
:10B8D0000C230C9A133963434A430233110030009E
:10B8E0000B9A09F02EFE0024AFE7034CADE7034CA2
:10B8F000ABE7C046FECA000017FCFFFF13FCFFFFCA
:10B900008023F0B55B051A6995B003925A690591D9
:10B910000399113A51435D69039B133D0400029161
:10B920005D43FFF7E9FE061E3BD0002730220021D1
:10B93000083508A801950BF008FD0199200009F0D1
:10B94000F6FD049730237B43029D0835ED18B7427E
:10B950001FDA2900302208A80BF0DBFC059908A8A3
:10B960000BF029FD00280AD11949721E200006910A
:10B97000079209F0F4FD012304930137E2E70C2359
:10B98000019A2900200009F0DCFD019B303301936E
:10B99000F3E7049B002B06D10D493200200009F08B
:10B9A000DEFD0C4812E00299200009F0C0FD802362
:10B9B0005B0559690C23039A13394A4373431100F9
:10B9C00020000233029A09F0BCFD002015B0F0BD42
:10B9D000FECA00000CFCFFFF70B50400A280FA2232
:10B9E000002308000C49920008312160A3716061B6
:10B9F000E260A3606382094909F0DEFD051E09D0FB
:10BA0000010020001031022212300BF082FC2800CD
:10BA10000BF041FC200070BD78770200B684020074
:10BA200030B50225837987B004002B4204D1FDF79D
:10BA300013FCA3791D43A571200009F007FE00281F
:10BA40001CD06B46DD1C280009F0F7FD2B78002B7D
:10BA500017D001A809F0EFFD0321019AD3170B407D
:10BA60009B189B102382FDF77FFEE368A1881818BE
:10BA70000123A0601A0002A808F006FC002007B00D
:10BA800030BD0122064B1A60064A51680029FCD0DD
:10BA900000215160044A1268019201225A60DBE7DA
:10BAA00000C00040FCC0004008C50040022802D190
:10BAB0000122014B1A7070472429002070B5064CF2
:10BAC00005002378002B04D1044802F0A7FD0123D0
:10BAD0002370280070BDC04625290020ADBA0100A2
:10BAE00070B50C0008F0B3F9002810D00023144DF5
:10BAF000A40A2B70200009F0BDFD002803D00A2005
:10BB00000BF0E0FAF6E72B78002BFCD070BD022199
:10BB10000C4B0D4A99508021C90008005D58002D3A
:10BB2000FCD0A121C9005C5019580029FCD000218B
:10BB300099508021C9005A58002AFCD0E6E7C04637
:10BB40002429002000E0014004050000F8B50C00A5
:10BB500015001E0008F07BF9002811D00023174FB4
:10BB60003B7032002900200009F082FD002803D03C
:10BB70000A200BF0A7FAF4E73B78002BFCD0F8BDC5
:10BB800001210F480F4B844619508021C9005A5893
:10BB9000002AFCD080270022FF00964207DD91009A
:10BBA00068586050D9590029FCD00132F5E70022CD
:10BBB00061465A50DA59002AFCD0E0E724290020D7
:10BBC0000405000000E0014008B4024B9C464438E4
:10BBD00008BC604779560200FA21F8B50389C9000C
:10BBE0000400594332480AF00DF8FA21890005F0A3
:10BBF000BFFB304F2081A17A38000AF003F8230000
:10BC00002600250022894C33A072A0361A808C357C
:10BC1000317800232A22286809F06DF9002801D024
:10BC20002548F8BD31781F235B22286809F063F9A5
:10BC30000028F5D1317820235C22286809F05BF9CF
:10BC40000028EDD1317801232C22286809F053F91E
:10BC50000028E5D1317801232D22286809F04BF91D
:10BC60000028DDD1317801232E22286809F043F91C
:10BC70000028D5D1A17A380009F0BFFF3178C3B2CE
:10BC80000E22286809F037F90028C9D1FA21238942
:10BC900089005943064809F0B0FF01230343DBB292
:10BCA00031782A22286809F026F90028B9D0B7E7A8
:10BCB00098770200907702000EFCFFFF08B4024B59
:10BCC0009C46443808BC6047D9BB0100074B10B5FF
:10BCD0001A00040008323C3302604364443008F028
:10BCE0000AFD200008F033FC200010BDF8770200A8
:10BCF00008B4024B9C46443808BC6047CDBC0100E8
:10BD000008B4024B9C46443808BC60478356020086
:10BD1000F0B5042583798BB004002B4204D1FDF7E4
:10BD20009BFAA3791D43A57120009030FFF77EFA9E
:10BD30000026B0420FD12300A033197820000C2335
:10BD400007AD00938C302B0001220068FFF732F81A
:10BD5000061E03D02C4E30000BB0F0BD0A2304AAFF
:10BD60009B182A785A706A781A700022985EAA780E
:10BD70005A70EA781A700022995E03912A795A70F3
:10BD80006A791A7000229F5EAA795A70EA791A704D
:10BD900000215A5E04922A7A5A706A7A1A70002137
:10BDA0005A5E0592AA7A5A70EA7A1F251A70002202
:10BDB0009B5EA27A03999C46514349425043CB175C
:10BDC0002B407A435B185B11A361C3172B401818F3
:10BDD000D3171D406423AD18059A5B425343A367F4
:10BDE00064236146049A40115A434B43E2676D1144
:10BDF000221DE06125622000D36708F021FC2000AD
:10BE0000443008F07FFCA6E70EFCFFFF08B4024BAD
:10BE10009C46443808BC604711BD0100F7B51E00C0
:10BE2000040008AB1B881500019309AB00911A8828
:10BE300031000AAB1F88FDF7FFFE20003A003100F9
:10BE40004430FEF74DF9134B20001A003C33636475
:10BE5000230008322260009A8C331A60AB8890303D
:10BE60008380AB79019A83710B4B03210360AB682C
:10BE700083602B7B03736B7B4373AB7B83732300E8
:10BE8000A0331A80FFF708FA2000FFF7A5FE200074
:10BE9000FEBDC046F87702004C760200F8B5FA26DF
:10BEA0000189B60004007143264809F0ABFE310059
:10BEB00005F05EFA244F2081A17A380009F0A2FE35
:10BEC0002500A0725835297800232A22606C09F0D9
:10BED00012F8002801D01D48F8BD297810232B2224
:10BEE000606C09F008F80028F5D1297801232D228B
:10BEF000606C09F000F80028EDD1297801232E228A
:10BF0000606C08F0F8FF0028E5D1A17A380009F04C
:10BF100074FE2978C3B20E22606C08F0ECFF002892
:10BF2000D9D121890748714309F067FE01230343F2
:10BF3000DBB229782A22606C08F0DDFF0028CBD024
:10BF4000C9E7C04660780200587802000EFCFFFF87
:10BF500010B50400034B0833036008F0F8FA200022
:10BF600010BDC046C07802007FB504258379040067
:10BF70002B4204D1FDF770F9A3791D43A571200070
:10BF80004830FFF753F90025A8420DD1230058335C
:10BF90001978062302AE009301223300606CFEF78D
:10BFA00009FF051E03D00D4D280004B070BD02230B
:10BFB00000210420F356A27ADB0071563056534319
:10BFC000C000C900514342435B42A3612368E16161
:10BFD00022629B6A20009847E6E7C0460EFCFFFFFE
:10BFE000F8B50400150006AA168807AA0F001288E3
:10BFF0001900FDF721FE0F4B67640833236023000F
:10C00000AA8848339A80AA7920009A710A4AA264C1
:10C01000AA6822652A7B1A736A7B5A73AA7B9A7371
:10C020000023A371230058331E80FFF737FF200041
:10C03000F8BDC046C07802004C76020010B504007E
:10C04000034B0833036008F056FB200010BDC046C8
:10C0500054790200F0B507005C3787B004003978E6
:10C0600000231022806C08F046FF0326002802D02F
:10C070001F4807B0F0BD0F2502ABED18012339783A
:10C0800008220093A06C2B00FEF794FE184B9842F8
:10C09000EED02B78334203D06420FDF777F9EAE73E
:10C0A000FA262189134DB6007143280009F0AAFD34
:10C0B000310005F05DF920813978A0231122A06CB0
:10C0C00008F019FF0028D3D1A36C21890393714391
:10C0D00028003F7809F091FD01231843C3B21022D4
:10C0E0003900039808F007FF0028C2D0C0E7C04617
:10C0F0000EFCFFFFF478020070B50825837986B046
:10C1000004002B4204D1FDF7A7F8A3791D43A571C4
:10C1100020004C30FFF78AF8061E0DD023005C3358
:10C120001978062304AD009301222B00A06CFEF7C2
:10C1300041FE061E03D0134E300006B070BD0E2324
:10C140002A786B445A706A7820001A700022995E2F
:10C1500064224A43A263AA785A70EA781A700022CD
:10C16000995E642252425143616329795970697919
:10C17000197000215B5E5A432368E2631B6A98478B
:10C18000DAE7C0460EFCFFFFF8B50400150006AA6A
:10C19000168807AA0F0012881900FDF7A1FF0D4BA2
:10C1A000A764083323602300AA884C339A80AA79B5
:10C1B00020009A71084AE264AA6862652A7B1A73B1
:10C1C0006A7B5A73AA7B1E829A73FFF743FF200093
:10C1D000F8BDC046547902004C760200F7B5FA2546
:10C1E0000189204FAD0004006943380009F00AFDC1
:10C1F000290005F0BDF8A17A20811B4809F002FD55
:10C200002600636CA0720093218958363378694305
:10C210003800019309F0F1FC07230343DBB220222D
:10C220000199009808F067FE002801D00F48FEBD74
:10C23000317810232222606C08F05DFE0028F5D1D1
:10C24000A17A0948656C377809F0D7FC80235B42F6
:10C250000343DBB223223900280008F04CFE0028FB
:10C26000E5D0E3E788790200807902000EFCFFFF49
:10C2700010B50400034B0833036008F068F9200090
:10C2800010BDC046F8790200F0B50425837985B069
:10C2900004002B4204D1FCF7DFFFA3791D43A571F5
:10C2A00020004830FEF7C2FF061E0DD02300583391
:10C2B0001978062302AD0093A8222B00606CFEF7CC
:10C2C00079FD061E03D0144E300005B0F0BD1F20CE
:10C2D0000023EA5ED31703409B180222A95E5B117C
:10C2E000CA170240521804216F5E5211F91701401B
:10C2F000C91949112B806A80A980A07A434342431F
:10C3000041435B42E36123685242A26121629B6A1E
:10C3100020009847D8E7C0460EFCFFFFF8B50400A0
:10C32000150006AA168807AA0F0012881900FDF743
:10C3300083FC0F4B6764083323602300AA884833CB
:10C340009A80AA7920009A710A4AA264AA68226592
:10C350002A7B1A736A7B5A73AA7B9A730023A37190
:10C36000230058331E80FFF739FF2000F8BDC04678
:10C37000F87902004C760200F7B5FA25040001892D
:10C38000134EAD006943300009F03CFC290004F075
:10C39000EFFF2700A36C208100935C373B7881B2CC
:10C3A00069433000019309F028FC6022C3B201996F
:10C3B000009808F0A0FD002801D00648FEBD39789D
:10C3C00001236222A06C08F096FD0028F6D0F4E765
:10C3D0002C7A02000EFCFFFF10B50400034B08335B
:10C3E000036008F088F9200010BDC046547A0200AE
:10C3F0007FB50825837904002B4204D1FCF72CFF7C
:10C40000A3791D43A57120004C30FEF70FFF051ED8
:10C410000DD023005C331978062302AE0093E82286
:10C420003300A06CFEF7C6FC051E03D00B4D2800A0
:10C4300004B070BD0223F25E96235B425A436263EE
:10C440000021725E20005343A3630423F25E96230F
:10C450005343E36323681B6A9847E8E70EFCFFFF3A
:10C46000F8B50400150006AA168807AA0F0012885E
:10C470001900FDF735FE0D4BA76408332360230038
:10C48000AA884C339A80AA7920009A71084AE264FB
:10C49000AA6862652A7B1A736A7B5A73AA7B1E821A
:10C4A0009A73FFF769FF2000F8BDC046547A020076
:10C4B0004C76020010B50400054B083303601C30B5
:10C4C00007F02CFE2000183007F028FE200010BDD9
:10C4D000807A0200FF23F0B52C4D8DB02B70002325
:10C4E000040069460088009303F086F9002802D111
:10C4F0006B469B782B70264E3368DB68002B07D188
:10C50000002320881A00190009F02BF90DB0F0BDA6
:10C510002B78032BF4D81F4901A8FDF769F933687C
:10C5200001A9DE6804A807F05BFE04A9300009F049
:10C5300076F80027060004A807F0F0FDBE421ED0E2
:10C5400031002022103104A80AF0E3FE30000AF086
:10C55000A2FE297804ABC9005918082202A80AF0E3
:10C56000D8FE20880123082202A909F0FAF8013731
:10C57000002804D12088084A0C2109F0F0F801A80D
:10C5800007F0CCFD002FBBD0C0E7C04685200020BF
:10C590000C25002049850200FFFF0000F0B58379DB
:10C5A00091B004005B071BD5FDF7DEF8002322697C
:10C5B000801A9941994203D1F423FF3398420FD94D
:10C5C000A068002808D0364B1D8809F093FB03684B
:10C5D00015221B6A290098470422A3799343A3716B
:10C5E000A3799B0759D52F4D2B68DB68002B50D0C2
:10C5F0002D4B1B78032B4CD8294B2C491B8804A8A6
:10C600000193FDF7F5F82B6804A9DE6808A807F088
:10C61000E7FD08A9300009F002F8070008A807F0B4
:10C620007DFD02AB9E1D08233200338006A9073B27
:10C63000019809F098F8002F08D039002022103115
:10C6400008A80AF066FE38000AF025FE164B32886C
:10C650001B7806A9DE0008AB9E1930000AF04AFEDE
:10C66000002813D0082206A930000AF052FE2B68D9
:10C6700004A9DD6805A807F0B3FD202308AA05A9D1
:10C68000280008F0D2FF05A807F048FD04A807F02D
:10C6900045FD0222A3799343A37111B0F0BDC046BA
:10C6A000882700200C2500208520002049850200D5
:10C6B000F7B5089E0500152922D8012007008F40F4
:10C6C000244C27421CD0E97FCC181F2C41DC691870
:10C6D0003418A14210D80021C8B2834204D9545C56
:10C6E000701884700131F7E732789A183270EA7F57
:10C6F0009B18EB7700202CE00878C8540139E8E754
:10C700003478013CE4B2A34208D10023D9B28C4270
:10C71000F0D9D05CF11888700133F7E7EF7F012082
:10C72000FF183F1B1F2F14DC0227A01C7F42361866
:10C73000381B0190E87F2F18BE4204D23078019F49
:10C74000F0550136F6E7041B023CEC77280009F0AF
:10C7500054F8FEBDFC002000F0B5040085B0019344
:10C760000AAB1E880BAB1B78451C02930EAB1B78E3
:10C77000170003930B78102203704B8A0131438218
:10C7800028000AF0C6FD268300260122019B67616E
:10C790006383039BE6832377029B2000EB77A31C34
:10C7A000DA770C9B0C25636223000D9A28331A70EC
:10C7B0005E709E702A0031002C300AF0C6FD200009
:10C7C000064BE663A3632A00310040300AF0BDFD4A
:10C7D0002000034B2665E36405B0F0BD7D570200E1
:10C7E0006F57020070B50D0009F084FA0400036869
:10C7F000002D09D15B699847FA20800068430749FA
:10C8000004F0B6FDE08070BD9B6898478542F3D286
:10C81000236820009B6898470500EDE7710200003F
:10C82000F0B507001600A1B002C704006B4918A8B4
:10C830001D0009F029F8331E03D030000AF0C5FDB1
:10C8400083B20122049200220392029202320192E8
:10C850000093320018A93800FFF77EFF23006049DB
:10C86000583318A8079309F00FF82B1E03D028009F
:10C870000AF0ABFD83B201220492002203920292DD
:10C880000232019200932A0018A90798FFF764FF6B
:10C8900023005449AC3318A8089308F0F5FF269BF1
:10C8A000002B03D018000AF090FD83B201220492FD
:10C8B000002203920292023201920093269A18A952
:10C8C0000898FFF749FF631CFF33474918A80993ED
:10C8D00008F0DAFF279B002B03D018000AF075FD43
:10C8E00083B2012204920022601C0392029202325F
:10C8F00001920093279A18A9FF30FFF72DFF23001C
:10C900005533FF33394918A8099308F0BDFF289B18
:10C91000002B03D018000AF058FD83B201220492C4
:10C92000002203920292023201920093289A18A9DF
:10C930000998FFF711FF2300A933FF332C4918A8EA
:10C940000A9308F0A1FF299B002B03D018000AF0DE
:10C950003CFD83B201220492002218AD03920292A0
:10C96000023201920093299A29000A98FFF7F4FEF7
:10C97000204B1B780B93002B2CD1079B1297139302
:10C98000089B0DAF1493631CFF331593099B1A4941
:10C9900016930A9B3800179308F076FF1D21492053
:10C9A0003B7810222B707B8A12AE6B8206ABC918C3
:10C9B000C0180AF0AEFC06232B750B9B2068AB83D6
:10C9C000AE6109F09BF9036829001B6898470122B2
:10C9D000084B1A70200021B0F0BDC046292A000083
:10C9E000242A0000252A0000272A0000262A000009
:10C9F000282A0000262900200A18000070B500250A
:10CA000004000B4B8580083385710360C1601830CA
:10CA1000FCF75AFF20001C30FCF756FF0123621C74
:10CA2000D377044AA560656120001460A37170BDCE
:10CA3000807A02000C250020FA2130B585B005006F
:10CA4000012302228900684607F01EFC074C20687B
:10CA5000002809D008F051FF2988054B2268198069
:10CA6000022391790B43937105B030BD0C25002052
:10CA70008827002010B50C0007290DD8806809F020
:10CA800039F9064B195703685B6C9847431E984168
:10CA9000034B4042184010BD0248FCE741850200AC
:10CAA00016FCFFFF17FCFFFFF0B5A44C0D00A544DA
:10CAB000040007939AAB1B78A14909A80493069236
:10CAC000FCF796FE200029001C3007F091FBC020E7
:10CAD000800001F099FD08200AF0E8FB0600002123
:10CAE00000F0AEFE15ADA66000210C220EA80AF0E3
:10CAF0002CFC2B000EAA83CA83C3924B2900EB6047
:10CB0000002330002B6109F0DEF8A06809F0F2F88C
:10CB100008220021059016A80AF017FC14200AF03C
:10CB2000C5FB29000200884B1593C8C9C8C2874BB2
:10CB3000059EC3600023A43603613368002B00D038
:10CB4000F5E03060A06809F0D9F80822002106005D
:10CB500016A80AF0FAFB14200AF0A8FB7C4B1593E8
:10CB6000030086CD86C37B4BC36000230361336B18
:10CB7000002B00D0DDE03063A06809F0BBF808228C
:10CB80000021050016A80AF0E0FB14200AF08EFB35
:10CB9000714B15AE1593030086CE86C36F4B983547
:10CBA000C360002303612B68002B00D0C3E0286022
:10CBB000012504AB1B7C04AA2B4308A9280013748D
:10CBC00008F0D3FDA06809F09DF8036864495B6A2A
:10CBD0009847A06809F096F8036862499B699847EE
:10CBE000A06809F08FF80023026800931668049982
:10CBF0002A00B047049B002B0AD0200008F086FED4
:10CC0000032805DDA06809F07DF80368DB68984714
:10CC10000EA808F0E9FD2F2004ABC01808F0E4FDD1
:10CC2000362004ABC01808F0DFFD3D20042504AB1E
:10CC3000C01808F0D9FD0EAB0A93A06804AB5D776D
:10CC400009F060F803680AA91B699847A06809F011
:10CC500051F803680AA95B6D9847A06809F04AF883
:10CC600003680021DB6D9847A06809F043F803686A
:10CC700002219B6D984700212000FFF7FBFE182042
:10CC80000AF014FBA16800F055FA374B374A1B68CD
:10CC9000A1680393364B15A81B6800260293354BF9
:10CCA0000CAF1B680193069B1B685B190093324B0A
:10CCB00012681B68FFF7B4FD30200AF0F7FA079AF4
:10CCC000A16800F0F7FAA06809F014F803683900C9
:10CCD0009B6A9847294BBE80A0680C9309F00AF81C
:10CCE00003683900DB6A98472900A06808F0D8FD7E
:10CCF000099A09219378A068521908F0E4FDA06808
:10CD000008F0F8FF32210671A068FFF76BFD04AB55
:10CD10001B7FB34204D0A06808F0ECFF08F0AAFD26
:10CD200009A807F0FBF995239B009D44F0BD036122
:10CD300007E703611FE7036139E7C046ACFDFFFF6A
:10CD40002E8602008B57020039CA01009957020053
:10CD5000D5C40100A7570200D5570200B5570200FD
:10CD600081CD0100B5CD010008250020042500205B
:10CD700008200020002500200C20002008001000C2
:10CD800013B506226846FCF775FD094B1C68002C9C
:10CD90000AD0694601A807F023FA200001A908F08B
:10CDA000D6FD01A807F0BAF9684607F0B7F913BD38
:10CDB0000C250020002373B501AE0C0031000500E6
:10CDC000019302F019FD002802D1B278064B1A70C7
:10CDD000064B1868002806D061426141044BC9B275
:10CDE0001D8008F0BCFD73BD852000200C250020AF
:10CDF0008827002030B5284CA9B06A220D000DA864
:10CE000021000AF086FA0DA903A8FCF791FD03A9F9
:10CE100006A807F069FA01230193013BFF3B009349
:10CE20000533FF33642206A92800FDF76BFF06A82F
:10CE300007F04DFA210019226A3106A80AF069FAB2
:10CE400005220024110006AB04A807F074FA04A917
:10CE500005A807F049FA019400942300220005A9CF
:10CE60002800FDF793FE05A807F031FA21002800FD
:10CE7000FDF776FF05340520FCF788FAFF2CF5D185
:10CE8000FA208000FCF782FA04A807F020FA03A831
:10CE900007F01DFA29B030BDBE840200F0B59C4BEE
:10CEA00095B005921A68082304000391D16C06A876
:10CEB0000B43D3649749FCF79BFC974907A8FCF701
:10CEC00097FC220000250DAE30001C3206A907F0A9
:10CED000AEF907AA310008A807F0A9F9300007F059
:10CEE0001DF9631CDD77A06808F004FF03680BAF31
:10CEF0005B699847300008F077FC2B2004ABC01822
:10CF000008F072FC322004ABC01808F06DFC392028
:10CF100004ABC01808F068FC8023DB00BB80A0686D
:10CF20000B9608F0E7FE036839005B6D9847A06830
:10CF300008F0E0FE036829009B6D9847A06808F0A0
:10CF4000D9FE070006000A371F22290038000AF020
:10CF5000FCF9FD77300008F084FC0621A06808F099
:10CF60009FFC089A09219378A068043208F0ABFC72
:10CF7000A06808F0BFFEC8210571A068FFF732FC69
:10CF8000A06808F0B7FEFF272E000581A06808F012
:10CF9000B1FE08F06FFC0398FDF7FCFC2000FCF7E5
:10CFA0005BF903992000FFF725FF0399200008F0A3
:10CFB000E9FC0495012563691D402DD0574909A856
:10CFC000FCF734FD09A90AA807F08EF900220AA986
:10CFD0001300019200920398FDF7D8FD0AA807F00C
:10CFE00076F9049B002B42D1043F282F41DD002518
:10CFF000FE2F00DC049D059807F069FB002806D091
:10D00000012362699A4313000422134363610026DB
:10D0100009A807F05CF9049504226369134233D030
:10D02000FF210398C826FDF79BFE0025B600A369E3
:10D0300002229B5EAB4222DD200029B2183007F0AD
:10D040000CF90023010003981A007430FCF73EFD30
:10D050003000FCF79BF9039807F040FFC820FCF76D
:10D0600095F902226369134209D10135DFE70437DC
:10D07000BBE7039807F032FF002FBCDDBAE7FA20C8
:10D080008000FCF783F90026022365691D421CD04D
:10D0900006331D4024D0224909A8FCF7C7FC09A982
:10D0A0000AA807F021F900220AA9019200921300B0
:10D0B0000398FDF76BFD0AA807F009F91948FCF77A
:10D0C00065F909A807F003F9174E6420FCF75EF92B
:10D0D000164B01369E4200DC6CE706F0CAFE69E79B
:10D0E000134909A8FCF7A2FC09A90AA807F0FCF853
:10D0F0002B002A000AA9019500950398FDF746FD2B
:10D100000AA807F0E4F809A807F0E1F8DDE7C0464F
:10D110009024002055850200658502006785020085
:10D12000AC850200983A00008C0A00008B0A0000CF
:10D13000E98502000022594BF0B508330600036070
:10D140000F001000A9B0B1600BAB99180132487004
:10D15000102AFAD10F3A524C1A700E32105D991AF9
:10D160000874013AFAD2997B5A7B09020A433100CA
:10D170000C31039125211B7813AD2B7002ABC9181C
:10D18000452302A81B186A82180010220AF0C1F871
:10D19000039B64216B610123002402AA2B775218A0
:10D1A0001993093313701DAB1C706D2302AA9B18D1
:10D1B0001C706E2321009B181EA80C22EC836C624D
:10D1C0001C700AF0C2F8374B0C22210023A8AB6375
:10D1D000EC630AF0BAF8344B02AAEB6446239B18BE
:10D1E0000322DA7722002C650595347306AD2B19DE
:10D1F00001345A70102CFAD101232C482B700E33B5
:10D20000195CEA1A1174013BFAD211212520AA7B7C
:10D210006B7B12020BAC13432A78638202ABC918F2
:10D220002270C01810220AF074F80123237505AB90
:10D23000A36100233800A38308F060FD0368210088
:10D240001B68984713ABDB8BB068B38208F056FDC0
:10D25000002203680092B18A039ADC680123A04788
:10D26000B06808F04BFD070014200AF01FF80022F8
:10D27000012304000261069240C00832290007938E
:10D280000AF047F80A4BE360BB69002B03D130007A
:10D29000BC6129B0F0BD2361F9E7C046987A02006D
:10D2A000568602007D5702006F5702006686020014
:10D2B000E5590200F0B500260400724BDDB00833DA
:10D2C00003608160C2608680867132006E4947A823
:10D2D00008F028FC230014330125042708931223A7
:10D2E000009704950193089A330047A90396029684
:10D2F0001DA8FFF731FA3200644947A808F012FC74
:10D300000C2322000097103215AF0495019347A912
:10D3100033000396029632A8FFF71EFA32005C49EA
:10D32000380008F0FFFB21001C310991042308217B
:10D3300004950191009339003300099A03960296EF
:10D3400047A8FFF709FA32005249380008F0EAFB13
:10D35000542009F0ABFF2100122204231831079159
:10D360000495019200930A00330039000396029657
:10D370000690FFF7F1F9069A474B1000A262D462BB
:10D380000AA9082230300A930B9609F0C2FF434BDA
:10D39000069A099993632932157026610422E66181
:10D3A000079809F0B6FF04220799089809F0B1FF21
:10D3B0006622032304A95218D377BA225218D377CE
:10D3C000872252005218D377069A35490232D37712
:10D3D0001DAA0C9232AA0D9247AA0E92069AA68511
:10D3E0000F9210A8320008F09DFB3021452004AABE
:10D3F00052181378123104AA3B705218138811394D
:10D400007B8204AB1022C918C01809F082FF0423E4
:10D410000CADA0683B75BD61BE8308F06FFC03686E
:10D4200039001B689847822204AB9B181B88543232
:10D43000238404AB9B181B885432A38404AB9B1831
:10D440001B88A068638408F059FC0700142009F0C9
:10D450002DFF0500134B0661082210C010A9109380
:10D46000119609F056FF104BEB60BB69B34206D131
:10D47000BD612000FBF7F0FE20005DB0F0BD2B6128
:10D48000F6E7C046A47A020096860200768602007D
:10D4900086860200A6860200F75A0200635A02003E
:10D4A000B686020015D501008D5A0200F0B50400C1
:10D4B0000E00150085B01F000CAB1B8810300193C7
:10D4C00006F0D8FE26806580182009F0EFFE02AE37
:10D4D000050033000AAA03CA03C32F6028000827E7
:10D4E00000213A000C3009F030FF3A003100281DCD
:10D4F00009F00FFF064B02226B6120000023019907
:10D50000A5600A43E360A2802362636205B0F0BDB8
:10D51000B75A0200F0B50B898DB00593CB680500B2
:10D5200004934B88828C9A420ED1049C049B059AEA
:10D530009B181B1B032B39DD62882188012308A857
:10D5400006F0A2FE0434F1E7428C9A422ED1049CEC
:10D55000049B059A9B181B1B032B27DD238828207F
:10D5600006936388EF680793114B08930023099390
:10D5700009F09CFEC0236A460600029308AB03CB69
:10D5800003C22B000699079A3000FFF78FFF3B6814
:10D5900031005B6838009847002805D0300006F05D
:10D5A00073FD300009F077FE0434D1E70DB0F0BD13
:10D5B000755B020070B5040090B0806808F0D5FA81
:10D5C000022101401AD1A38D002B17D00C4B6A46C3
:10D5D00004931023E568A1850591029304AB41CB28
:10D5E00041C20A00230006A8FFF760FF2B6806A9C6
:10D5F0009B682800984706A806F046FD10B070BD4D
:10D60000755B0200002815D0006041608260C36035
:10D61000046145618661C761444604624C464462C8
:10D62000544684625C46C462644604636E46466344
:10D6300074468463002A06D0C46B043C043A25680F
:10D640001560B442F9D18C6BA6464E6BB546002BE3
:10D6500006D0CC6B043C043B1D682560B442F9D174
:10D660000C6BA446CC6AA3468C6AA2464C6AA146BF
:10D670000C6AA046CF698E694D690C69CB688A68CF
:10D68000086849687047006041608260C360046157
:10D6900045618661C761444604624C464462544613
:10D6A00084625C46C462644604636E4646637446A4
:10D6B0008463C46B043C043925680D60B442F9D11D
:10D6C000C769866945690469704700604160826086
:10D6D000C360046145618661C761444604624C468B
:10D6E0004462544684625C46C462644604636C4689
:10D6F00044637446846304697047846BA646446B34
:10D70000A546046BA446C46AA346846AA246446A3A
:10D71000A146046AA046C769866945690469C36869
:10D72000826800684168704710B5041E0CD009F08B
:10D730004CFE431EE3189C4208D222781978013B24
:10D7400021705A700134F6E7014810BD0020FCE753
:10D7500017FCFFFFF0B585B002900C1E2AD0002305
:10D76000C217161A56400193019B30005D1C6319C5
:10D770000A215F1E039303F06BFF49423031397079
:10D7800030000A2103F07EFE47420600002F0FD131
:10D79000029B002B04DA2D23019D039A023513709E
:10D7A000002320006355FFF7BFFF380005B0F0BD30
:10D7B0000195D9E7004FF8E717FCFFFF0268084B17
:10D7C000406810B5C018C000101803009A4205D870
:10D7D0001C688C4202D31800083BF7E710BDC04616
:10D7E000FFFFFF1F70B5002817D1114D2E68002EC6
:10D7F00011D1083009F05AFD066046600D4E040054
:10D800003368002B02D108F0B0FC306023682C6034
:10D810009B00F3586360286870BD012206490748E1
:10D820000B681340F8D1026043600A60F4E7C04619
:10D830001425002020250020102500201825002078
:10D84000002370B504000160436099420AD1064D7F
:10D850002B68002B02D108F088FC286023689B000D
:10D86000EB586360200070BD20250020436810B590
:10D870000400002B02D1044809F06CFB60680368C7
:10D880001B69984710BDC046C6860200436810B5A4
:10D890000400002B02D1044809F05CFB60680368B7
:10D8A0009B69984710BDC046C6860200436810B504
:10D8B0000400002B02D1044809F04CFB60680368A7
:10D8C0005B6A984710BDC046C68602000048704794
:10D8D000FFFF0000F0B597B00593036807AD1B6824
:10D8E0000491039311002B00060091C991C30024F9
:10D8F000D36821000C220CA8EB602C6109F025FDF7
:10D9000022000B4B10940F9311AB1C7019190134AA
:10D910004A70102CFAD15A820193059B2A00009379
:10D9200004990CAB3000039CA04717B0F0BDC04673
:10D93000235E020070B5FC30046C0500002C0DD194
:10D94000242009F0B3FC064B44608361054B8460DE
:10D95000C46004614461C46103602864286C70BDC4
:10D96000907B0200787C020070B5FC30C56B04002F
:10D97000002D11D1342009F099FC084B85604360DB
:10D98000074B45610361074B0562C361064BC562E6
:10D990008362064BE0630360E06B70BDC07B0200F6
:10D9A000B07B0200207C0200307C0200407C020040
:10D9B0007FB503791548002B22D0154E154C3378CE
:10D9C0002000002B1CD102AD280008F007FA002827
:10D9D00010D16B88592B0DD12B78AA88D91F01291A
:10D9E00010D800920C4A2021200005F053FE01239C
:10D9F000337004E020220949200009F0EDFC2000EA
:10DA000004B070BD0092064AEDE7C046E986020008
:10DA100047290020272900200B87020003870200E6
:10DA20002887020010B50400024B08C008F0B6FABF
:10DA3000200010BDB07B020010B50400024B08C0EE
:10DA400008F0C1FA200010BDC07B0200064B70B583
:10DA5000040003604068002804D0056909F01BFC3D
:10DA60002800F8E7200070BDA07B0200064B70B5CF
:10DA7000040003604068002804D0056909F00BFC2D
:10DA80002800F8E7200070BDD07B0200064B70B57F
:10DA9000040003604068002804D0056909F0FBFB1E
:10DAA0002800F8E7200070BDE07B0200064B70B54F
:10DAB000040003604068002804D0056909F0EBFB0E
:10DAC0002800F8E7200070BD207C0200064B70B5EE
:10DAD000040003604068002804D0056909F0DBFBFE
